{
  "_format": "hh3-artifact-1",
  "contractName": "RealiaFactory",
  "sourceName": "contracts/RealiaFactory.sol",
  "abi": [
    {
      "inputs": [],
      "stateMutability": "nonpayable",
      "type": "constructor"
    },
    {
      "inputs": [
        {
          "internalType": "address",
          "name": "owner",
          "type": "address"
        }
      ],
      "name": "OwnableInvalidOwner",
      "type": "error"
    },
    {
      "inputs": [
        {
          "internalType": "address",
          "name": "account",
          "type": "address"
        }
      ],
      "name": "OwnableUnauthorizedAccount",
      "type": "error"
    },
    {
      "anonymous": false,
      "inputs": [
        {
          "indexed": false,
          "internalType": "address",
          "name": "agent",
          "type": "address"
        },
        {
          "indexed": false,
          "internalType": "string",
          "name": "agentAddress",
          "type": "string"
        }
      ],
      "name": "AgentAddressUpdated",
      "type": "event"
    },
    {
      "anonymous": false,
      "inputs": [
        {
          "indexed": false,
          "internalType": "address",
          "name": "agent",
          "type": "address"
        }
      ],
      "name": "AgentRegistered",
      "type": "event"
    },
    {
      "anonymous": false,
      "inputs": [
        {
          "indexed": false,
          "internalType": "address",
          "name": "agent",
          "type": "address"
        }
      ],
      "name": "AgentUnregistered",
      "type": "event"
    },
    {
      "anonymous": false,
      "inputs": [
        {
          "indexed": false,
          "internalType": "uint256",
          "name": "amount",
          "type": "uint256"
        },
        {
          "indexed": false,
          "internalType": "uint256",
          "name": "amountPerAgent",
          "type": "uint256"
        }
      ],
      "name": "AgentsPaid",
      "type": "event"
    },
    {
      "anonymous": false,
      "inputs": [
        {
          "indexed": false,
          "internalType": "address",
          "name": "to",
          "type": "address"
        },
        {
          "indexed": false,
          "internalType": "enum OrderType",
          "name": "orderType",
          "type": "uint8"
        },
        {
          "indexed": false,
          "internalType": "uint256",
          "name": "amount",
          "type": "uint256"
        }
      ],
      "name": "OrderCancelled",
      "type": "event"
    },
    {
      "anonymous": false,
      "inputs": [
        {
          "indexed": false,
          "internalType": "address",
          "name": "to",
          "type": "address"
        },
        {
          "indexed": false,
          "internalType": "enum OrderType",
          "name": "orderType",
          "type": "uint8"
        },
        {
          "indexed": false,
          "internalType": "uint256",
          "name": "amount",
          "type": "uint256"
        }
      ],
      "name": "OrderCreated",
      "type": "event"
    },
    {
      "anonymous": false,
      "inputs": [
        {
          "indexed": true,
          "internalType": "address",
          "name": "previousOwner",
          "type": "address"
        },
        {
          "indexed": true,
          "internalType": "address",
          "name": "newOwner",
          "type": "address"
        }
      ],
      "name": "OwnershipTransferred",
      "type": "event"
    },
    {
      "anonymous": false,
      "inputs": [
        {
          "indexed": false,
          "internalType": "uint256",
          "name": "requestId",
          "type": "uint256"
        }
      ],
      "name": "ProcessedVerification",
      "type": "event"
    },
    {
      "anonymous": false,
      "inputs": [
        {
          "indexed": false,
          "internalType": "address",
          "name": "agent",
          "type": "address"
        }
      ],
      "name": "Slashed",
      "type": "event"
    },
    {
      "anonymous": false,
      "inputs": [
        {
          "indexed": false,
          "internalType": "address",
          "name": "user",
          "type": "address"
        },
        {
          "indexed": false,
          "internalType": "uint256",
          "name": "requestId",
          "type": "uint256"
        }
      ],
      "name": "VerificationRequested",
      "type": "event"
    },
    {
      "anonymous": false,
      "inputs": [
        {
          "indexed": false,
          "internalType": "address",
          "name": "agent",
          "type": "address"
        },
        {
          "indexed": false,
          "internalType": "uint256",
          "name": "requestId",
          "type": "uint256"
        },
        {
          "indexed": false,
          "internalType": "bool",
          "name": "verified",
          "type": "bool"
        }
      ],
      "name": "VerificationResponseByAgent",
      "type": "event"
    },
    {
      "anonymous": false,
      "inputs": [
        {
          "indexed": false,
          "internalType": "address",
          "name": "to",
          "type": "address"
        },
        {
          "indexed": false,
          "internalType": "uint256",
          "name": "tokenId",
          "type": "uint256"
        }
      ],
      "name": "Verified",
      "type": "event"
    },
    {
      "inputs": [],
      "name": "MINT_PRICE",
      "outputs": [
        {
          "internalType": "uint256",
          "name": "",
          "type": "uint256"
        }
      ],
      "stateMutability": "view",
      "type": "function"
    },
    {
      "inputs": [],
      "name": "MIN_AGENT_STAKING",
      "outputs": [
        {
          "internalType": "uint256",
          "name": "",
          "type": "uint256"
        }
      ],
      "stateMutability": "view",
      "type": "function"
    },
    {
      "inputs": [],
      "name": "PROTOCOL_FEE_PERCENTAGE",
      "outputs": [
        {
          "internalType": "uint256",
          "name": "",
          "type": "uint256"
        }
      ],
      "stateMutability": "view",
      "type": "function"
    },
    {
      "inputs": [],
      "name": "PYUSD",
      "outputs": [
        {
          "internalType": "contract IERC20",
          "name": "",
          "type": "address"
        }
      ],
      "stateMutability": "view",
      "type": "function"
    },
    {
      "inputs": [],
      "name": "REQUIRED_VERIFICATIONS",
      "outputs": [
        {
          "internalType": "uint256",
          "name": "",
          "type": "uint256"
        }
      ],
      "stateMutability": "view",
      "type": "function"
    },
    {
      "inputs": [],
      "name": "VERIFY_PRICE",
      "outputs": [
        {
          "internalType": "uint256",
          "name": "",
          "type": "uint256"
        }
      ],
      "stateMutability": "view",
      "type": "function"
    },
    {
      "inputs": [
        {
          "internalType": "uint256",
          "name": "",
          "type": "uint256"
        }
      ],
      "name": "agentAddresses",
      "outputs": [
        {
          "internalType": "address",
          "name": "",
          "type": "address"
        }
      ],
      "stateMutability": "view",
      "type": "function"
    },
    {
      "inputs": [
        {
          "internalType": "address",
          "name": "",
          "type": "address"
        }
      ],
      "name": "agents",
      "outputs": [
        {
          "internalType": "string",
          "name": "agentAddress",
          "type": "string"
        },
        {
          "internalType": "address",
          "name": "evmAddress",
          "type": "address"
        },
        {
          "internalType": "uint256",
          "name": "verifiedCount",
          "type": "uint256"
        },
        {
          "internalType": "bool",
          "name": "isStaked",
          "type": "bool"
        }
      ],
      "stateMutability": "view",
      "type": "function"
    },
    {
      "inputs": [
        {
          "internalType": "enum OrderType",
          "name": "orderType",
          "type": "uint8"
        }
      ],
      "name": "cancelOrder",
      "outputs": [],
      "stateMutability": "nonpayable",
      "type": "function"
    },
    {
      "inputs": [
        {
          "internalType": "enum OrderType",
          "name": "orderType",
          "type": "uint8"
        }
      ],
      "name": "createOrder",
      "outputs": [],
      "stateMutability": "nonpayable",
      "type": "function"
    },
    {
      "inputs": [],
      "name": "getTopFiveAgents",
      "outputs": [
        {
          "internalType": "address[]",
          "name": "",
          "type": "address[]"
        }
      ],
      "stateMutability": "view",
      "type": "function"
    },
    {
      "inputs": [
        {
          "internalType": "uint256",
          "name": "requestId",
          "type": "uint256"
        },
        {
          "internalType": "address",
          "name": "agent",
          "type": "address"
        }
      ],
      "name": "hasAgentResponded",
      "outputs": [
        {
          "internalType": "bool",
          "name": "hasResponded",
          "type": "bool"
        }
      ],
      "stateMutability": "view",
      "type": "function"
    },
    {
      "inputs": [
        {
          "internalType": "address",
          "name": "user",
          "type": "address"
        },
        {
          "internalType": "enum OrderType",
          "name": "orderType",
          "type": "uint8"
        }
      ],
      "name": "hasOrder",
      "outputs": [
        {
          "internalType": "bool",
          "name": "",
          "type": "bool"
        }
      ],
      "stateMutability": "view",
      "type": "function"
    },
    {
      "inputs": [
        {
          "internalType": "address",
          "name": "",
          "type": "address"
        },
        {
          "internalType": "uint256",
          "name": "",
          "type": "uint256"
        }
      ],
      "name": "orders",
      "outputs": [
        {
          "internalType": "enum OrderType",
          "name": "orderType",
          "type": "uint8"
        },
        {
          "internalType": "uint256",
          "name": "amount",
          "type": "uint256"
        },
        {
          "internalType": "bool",
          "name": "used",
          "type": "bool"
        },
        {
          "internalType": "bool",
          "name": "cancelled",
          "type": "bool"
        }
      ],
      "stateMutability": "view",
      "type": "function"
    },
    {
      "inputs": [],
      "name": "owner",
      "outputs": [
        {
          "internalType": "address",
          "name": "",
          "type": "address"
        }
      ],
      "stateMutability": "view",
      "type": "function"
    },
    {
      "inputs": [
        {
          "internalType": "address[]",
          "name": "agentsToPay",
          "type": "address[]"
        }
      ],
      "name": "payAgentsForMint",
      "outputs": [],
      "stateMutability": "nonpayable",
      "type": "function"
    },
    {
      "inputs": [],
      "name": "realiaNFT",
      "outputs": [
        {
          "internalType": "contract IRealiaNFT",
          "name": "",
          "type": "address"
        }
      ],
      "stateMutability": "view",
      "type": "function"
    },
    {
      "inputs": [
        {
          "internalType": "string",
          "name": "agentAddress",
          "type": "string"
        }
      ],
      "name": "registerAgent",
      "outputs": [],
      "stateMutability": "nonpayable",
      "type": "function"
    },
    {
      "inputs": [],
      "name": "renounceOwnership",
      "outputs": [],
      "stateMutability": "nonpayable",
      "type": "function"
    },
    {
      "inputs": [
        {
          "internalType": "address",
          "name": "user",
          "type": "address"
        },
        {
          "internalType": "string",
          "name": "uri",
          "type": "string"
        }
      ],
      "name": "requestVerification",
      "outputs": [],
      "stateMutability": "nonpayable",
      "type": "function"
    },
    {
      "inputs": [
        {
          "internalType": "uint256",
          "name": "requestId",
          "type": "uint256"
        },
        {
          "internalType": "enum VerificationResult",
          "name": "result",
          "type": "uint8"
        },
        {
          "internalType": "uint256",
          "name": "propertyTokenId",
          "type": "uint256"
        }
      ],
      "name": "responseVerification",
      "outputs": [],
      "stateMutability": "nonpayable",
      "type": "function"
    },
    {
      "inputs": [
        {
          "internalType": "address",
          "name": "_realiaNFT",
          "type": "address"
        }
      ],
      "name": "setRealiaNFT",
      "outputs": [],
      "stateMutability": "nonpayable",
      "type": "function"
    },
    {
      "inputs": [],
      "name": "syncAgent",
      "outputs": [
        {
          "internalType": "uint256",
          "name": "totalCount",
          "type": "uint256"
        },
        {
          "internalType": "uint256[]",
          "name": "nftIds",
          "type": "uint256[]"
        },
        {
          "internalType": "string[]",
          "name": "nftUris",
          "type": "string[]"
        }
      ],
      "stateMutability": "view",
      "type": "function"
    },
    {
      "inputs": [],
      "name": "syncPendingVerifications",
      "outputs": [
        {
          "internalType": "uint256",
          "name": "pendingCount",
          "type": "uint256"
        },
        {
          "internalType": "uint256[]",
          "name": "requestIds",
          "type": "uint256[]"
        },
        {
          "internalType": "address[]",
          "name": "users",
          "type": "address[]"
        },
        {
          "internalType": "string[]",
          "name": "uris",
          "type": "string[]"
        },
        {
          "internalType": "uint256[]",
          "name": "responseCounts",
          "type": "uint256[]"
        }
      ],
      "stateMutability": "view",
      "type": "function"
    },
    {
      "inputs": [
        {
          "internalType": "address",
          "name": "newOwner",
          "type": "address"
        }
      ],
      "name": "transferOwnership",
      "outputs": [],
      "stateMutability": "nonpayable",
      "type": "function"
    },
    {
      "inputs": [],
      "name": "unregisterAgent",
      "outputs": [],
      "stateMutability": "nonpayable",
      "type": "function"
    },
    {
      "inputs": [
        {
          "internalType": "string",
          "name": "agentAddress",
          "type": "string"
        }
      ],
      "name": "updateAgentAddress",
      "outputs": [],
      "stateMutability": "nonpayable",
      "type": "function"
    },
    {
      "inputs": [
        {
          "internalType": "address",
          "name": "user",
          "type": "address"
        }
      ],
      "name": "useMintOrder",
      "outputs": [
        {
          "internalType": "bool",
          "name": "",
          "type": "bool"
        }
      ],
      "stateMutability": "nonpayable",
      "type": "function"
    },
    {
      "inputs": [],
      "name": "verificationId",
      "outputs": [
        {
          "internalType": "uint256",
          "name": "",
          "type": "uint256"
        }
      ],
      "stateMutability": "view",
      "type": "function"
    },
    {
      "inputs": [
        {
          "internalType": "uint256",
          "name": "",
          "type": "uint256"
        }
      ],
      "name": "verificationRequests",
      "outputs": [
        {
          "internalType": "address",
          "name": "user",
          "type": "address"
        },
        {
          "internalType": "string",
          "name": "uri",
          "type": "string"
        },
        {
          "internalType": "bool",
          "name": "processed",
          "type": "bool"
        },
        {
          "internalType": "uint256",
          "name": "requestTime",
          "type": "uint256"
        }
      ],
      "stateMutability": "view",
      "type": "function"
    },
    {
      "inputs": [
        {
          "internalType": "uint256",
          "name": "",
          "type": "uint256"
        },
        {
          "internalType": "uint256",
          "name": "",
          "type": "uint256"
        }
      ],
      "name": "verificationResponses",
      "outputs": [
        {
          "internalType": "address",
          "name": "agent",
          "type": "address"
        },
        {
          "internalType": "enum VerificationResult",
          "name": "result",
          "type": "uint8"
        },
        {
          "internalType": "uint256",
          "name": "tokenId",
          "type": "uint256"
        },
        {
          "internalType": "uint256",
          "name": "responseTime",
          "type": "uint256"
        }
      ],
      "stateMutability": "view",
      "type": "function"
    }
  ],
  "bytecode": "0x60806040525f6001553480156012575f5ffd5b503380603757604051631e4fbdf760e01b81525f600482015260240160405180910390fd5b603e816043565b506092565b5f80546001600160a01b038381166001600160a01b0319831681178455604051919092169283917f8be0079c531659141344cd1fd0a4f28419497f9722a3daafe3b4186f6b6457e09190a35050565b613d508061009f5f395ff3fe608060405234801561000f575f5ffd5b50600436106101dc575f3560e01c806396e4545711610109578063c2ccd64a1161009e578063e8841c251161006e578063e8841c2514610407578063f2fde38b14610410578063f84444f614610423578063fd66091e1461043c575f5ffd5b8063c2ccd64a146103d1578063d47a15f5146103e4578063e31f1a7c146103f7578063e4d7d6dc146103ff575f5ffd5b8063a7676a63116100d9578063a7676a631461038a578063b14d09ff1461039d578063b91ca2bd146103b4578063c002d23d146103c7575f5ffd5b806396e454571461032657806397f7ebaf146103495780639e19789d1461035c578063a179d1c214610377575f5ffd5b80634f7bd5381161017f578063715018a61161014f578063715018a6146102c8578063793b8c6d146102d05780638828bd42146102f35780638da5cb5b14610316575f5ffd5b80634f7bd5381461029a57806350e01a58146102a257806367ba8e2d146102b55780636eb38703146101e0575f5ffd5b806327cabf88116101ba57806327cabf881461023c5780632d2a9585146102515780633e41355a146102645780634089d49f14610277575f5ffd5b80630c27f6e3146101e057806315d9dc9f146101fc57806326b9565714610211575b5f5ffd5b6101e961c35081565b6040519081526020015b60405180910390f35b61020f61020a36600461339c565b61045f565b005b600254610224906001600160a01b031681565b6040516001600160a01b0390911681526020016101f3565b6102446104cd565b6040516101f3919061348c565b61020f61025f3660046134a5565b6107bd565b61020f610272366004613511565b6109d3565b61028a610285366004613549565b610e25565b6040516101f3949392919061358e565b6101e9600581565b61020f6102b03660046135d2565b610ee1565b61020f6102c33660046135d2565b611107565b61020f611373565b6102e36102de3660046135eb565b611386565b6040516101f3949392919061363b565b610306610301366004613666565b6113d2565b60405190151581526020016101f3565b5f546001600160a01b0316610224565b610339610334366004613697565b611525565b6040516101f394939291906136b7565b61020f6103573660046136f2565b611576565b61022473637a1259c6afd7e3adf63993ca7e58bb438ab1b181565b61020f610385366004613731565b6115f1565b610224610398366004613549565b611734565b6103a561175c565b6040516101f393929190613845565b6103066103c23660046136f2565b611947565b6101e9620f424081565b61020f6103df3660046134a5565b6119fb565b6103066103f2366004613879565b611aa6565b61020f611bc0565b6101e9600a81565b6101e960015481565b61020f61041e3660046136f2565b611e46565b61042b611e80565b6040516101f395949392919061389a565b61044f61044a3660046136f2565b6121cb565b6040516101f394939291906138f8565b6002546001600160a01b031633146104be5760405162461bcd60e51b815260206004820152601a60248201527f4e6f7420746865205265616c69614e465420636f6e747261637400000000000060448201526064015b60405180910390fd5b6104ca6001825f612287565b50565b60605f6005600480549050106104e45760056104e8565b6004545b90505f816001600160401b038111156105035761050361333d565b60405190808252806020026020018201604052801561052c578160200160208202803683370190505b5090505f826001600160401b038111156105485761054861333d565b604051908082528060200260200182016040528015610571578160200160208202803683370190505b5090505f5b6004548110156107b45760035f6004838154811061059657610596613931565b5f9182526020808320909101546001600160a01b0316835282019290925260400190206003015460ff16156107ac575f60035f600484815481106105dc576105dc613931565b5f9182526020808320909101546001600160a01b0316835282019290925260400181206002015491505b858110156107a9575f6001600160a01b031685828151811061062a5761062a613931565b60200260200101516001600160a01b0316148061065f575083818151811061065457610654613931565b602002602001015182115b156107a1575f610670600188613959565b90505b8181111561071c5785610687600183613959565b8151811061069757610697613931565b60200260200101518682815181106106b1576106b1613931565b6001600160a01b0390921660209283029190910190910152846106d5600183613959565b815181106106e5576106e5613931565b60200260200101518582815181106106ff576106ff613931565b6020908102919091010152806107148161396c565b915050610673565b506004838154811061073057610730613931565b905f5260205f20015f9054906101000a90046001600160a01b031685828151811061075d5761075d613931565b60200260200101906001600160a01b031690816001600160a01b0316815250508184828151811061079057610790613931565b6020026020010181815250506107a9565b600101610606565b50505b600101610576565b50909392505050565b335f908152600360208190526040909120015460ff16156108205760405162461bcd60e51b815260206004820152601860248201527f4167656e7420616c72656164792072656769737465726564000000000000000060448201526064016104b5565b6040516323b872dd60e01b815233600482015230602482015261c350604482015273637a1259c6afd7e3adf63993ca7e58bb438ab1b1906323b872dd906064016020604051808303815f875af115801561087c573d5f5f3e3d5ffd5b505050506040513d601f19601f820116820180604052508101906108a09190613981565b50604051806080016040528083838080601f0160208091040260200160405190810160405280939291908181526020018383808284375f920182905250938552505033602080850182905260408086018590526001606090960195909552908352600390525020815181906109159082613a24565b50602082810151600183810180546001600160a01b03199081166001600160a01b0390941693909317905560408086015160028601556060909501516003909401805460ff1916941515949094179093556004805493840181555f527f8a35acfbc15ff81a39ae7d344fd709f28e8600b4aa8c65c6b64bfe7fe36bd19b90920180543393168317905591519081527f82d0829d9d481e4cb9913897f9b9c903271c4db68c7b3324071d2a7e3b2c5ff091015b60405180910390a15050565b335f908152600360208190526040909120015460ff16610a2b5760405162461bcd60e51b81526020600482015260136024820152721059d95b9d081a5cc81b9bdd081cdd185ad959606a1b60448201526064016104b5565b5f8381526005602052604090206002015460ff1615610a8c5760405162461bcd60e51b815260206004820152601c60248201527f5265717565737420697320616c72656164792070726f6365737365640000000060448201526064016104b5565b5f826003811115610a9f57610a9f613613565b03610aec5760405162461bcd60e51b815260206004820152601b60248201527f496e76616c696420766572696669636174696f6e20726573756c74000000000060448201526064016104b5565b5f838152600560205260409020546001600160a01b0316610b5b5760405162461bcd60e51b815260206004820152602360248201527f566572696669636174696f6e207265717565737420646f6573206e6f742065786044820152621a5cdd60ea1b60648201526084016104b5565b5f83815260066020908152604080832080548251818502810185019093528083529192909190849084015b82821015610c13575f8481526020908190206040805160808101909152600385810290920180546001600160a01b03811683529193909290840191600160a01b900460ff1690811115610bdb57610bdb613613565b6003811115610bec57610bec613613565b81526020016001820154815260200160028201548152505081526020019060010190610b86565b509293505f925050505b8151811015610cbf57336001600160a01b0316828281518110610c4257610c42613931565b60200260200101515f01516001600160a01b031603610cb75760405162461bcd60e51b815260206004820152602b60248201527f4167656e742068617320616c726561647920726573706f6e64656420746f207460448201526a1a1a5cc81c995c5d595cdd60aa1b60648201526084016104b5565b600101610c1d565b5060065f8581526020019081526020015f206040518060800160405280336001600160a01b03168152602001856003811115610cfd57610cfd613613565b815260208082018690524260409092019190915282546001810184555f938452928190208251600394850290910180546001600160a01b039092166001600160a01b031983168117825592840151939490939284926001600160a81b0319161790600160a01b908490811115610d7557610d75613613565b0217905550604082015181600101556060820151816002015550507f94276b983d5e3494b839b8736d6fe68a0a4b38a8367305c256fb2baf399d9456338560016003811115610dc657610dc6613613565b866003811115610dd857610dd8613613565b604080516001600160a01b0390951685526020850193909352149082015260600160405180910390a15f84815260066020526040902054600511610e1f57610e1f84612617565b50505050565b60056020525f9081526040902080546001820180546001600160a01b039092169291610e50906139a0565b80601f0160208091040260200160405190810160405280929190818152602001828054610e7c906139a0565b8015610ec75780601f10610e9e57610100808354040283529160200191610ec7565b820191905f5260205f20905b815481529060010190602001808311610eaa57829003601f168201915b505050506002830154600390930154919260ff1691905084565b610eeb33826113d2565b15610f385760405162461bcd60e51b815260206004820152601960248201527f5573657220616c72656164792068617320616e206f726465720000000000000060448201526064016104b5565b5f816002811115610f4b57610f4b613613565b03610f685760405162461bcd60e51b81526004016104b590613ade565b5f6001826002811115610f7d57610f7d613613565b14610f8a5761c350610f8f565b620f42405b6040516323b872dd60e01b81523360048201523060248201526044810182905290915073637a1259c6afd7e3adf63993ca7e58bb438ab1b1906323b872dd906064016020604051808303815f875af1158015610fed573d5f5f3e3d5ffd5b505050506040513d601f19601f820116820180604052508101906110119190613981565b50335f9081526007602052604090819020815160808101909252908084600281111561103f5761103f613613565b815260208082018590525f60408301819052606090920182905283546001818101865594835291208251600390920201805492939092839160ff199091169083600281111561109057611090613613565b0217905550602082015160018201556040808301516002909201805460609094015115156101000261ff00199315159390931661ffff199094169390931791909117909155517f4f46ced13b7c0cf2078b2d56e6e8a3d2c2209b6bee4aa8af5074b44969b541ed906109c790339085908590613b0a565b61111133826113d2565b61115d5760405162461bcd60e51b815260206004820152601b60248201527f5573657220646f6573206e6f74206861766520616e206f72646572000000000060448201526064016104b5565b5f81600281111561117057611170613613565b0361118d5760405162461bcd60e51b81526004016104b590613ade565b5f60018260028111156111a2576111a2613613565b146111af5761c3506111b4565b620f42405b60405163a9059cbb60e01b81523360048201526024810182905290915073637a1259c6afd7e3adf63993ca7e58bb438ab1b19063a9059cbb906044016020604051808303815f875af115801561120c573d5f5f3e3d5ffd5b505050506040513d601f19601f820116820180604052508101906112309190613981565b6112755760405162461bcd60e51b81526020600482015260166024820152751499599d5b99081d1c985b9cd9995c8819985a5b195960521b60448201526064016104b5565b5f5b335f9081526007602052604090205481101561133f5782600281111561129f5761129f613613565b335f9081526007602052604090208054839081106112bf576112bf613931565b5f91825260209091206003909102015460ff1660028111156112e3576112e3613613565b0361133757335f9081526007602052604090208054600191908390811061130c5761130c613931565b905f5260205f20906003020160020160016101000a81548160ff02191690831515021790555061133f565b600101611277565b507fb1a36e8ed442841c945480947ced4c36c62b869722699f60c950013f05bef0c43383836040516109c793929190613b0a565b61137b612d90565b6113845f612dbc565b565b6007602052815f5260405f20818154811061139f575f80fd5b5f91825260209091206003909102018054600182015460029092015460ff91821694509192508181169161010090041684565b5f808260028111156113e6576113e6613613565b036114035760405162461bcd60e51b81526004016104b590613ade565b5f5b6001600160a01b0384165f9081526007602052604090205481101561151a576001600160a01b0384165f90815260076020526040812080548390811061144d5761144d613931565b5f918252602090912060408051608081019091526003909202018054829060ff16600281111561147f5761147f613613565b600281111561149057611490613613565b81526001820154602082015260029182015460ff8082161515604084015261010090910416151560609091015290915084908111156114d1576114d1613613565b815160028111156114e4576114e4613613565b1480156114f357506040810151155b801561150157506060810151155b156115115760019250505061151f565b50600101611405565b505f90505b92915050565b6006602052815f5260405f20818154811061153e575f80fd5b5f9182526020909120600390910201805460018201546002909201546001600160a01b0382169450600160a01b90910460ff16925084565b61157e612d90565b6002546001600160a01b0316156115cf5760405162461bcd60e51b81526020600482015260156024820152741499585b1a5853919508185b1c9958591e481cd95d605a1b60448201526064016104b5565b600280546001600160a01b0319166001600160a01b0392909216919091179055565b6115f9612d90565b6116048260026113d2565b6116485760405162461bcd60e51b8152602060048201526015602482015274139bc81d995c9a599e481bdc99195c88199bdd5b99605a1b60448201526064016104b5565b611653826002612e0b565b5060018054905f61166383613b35565b9091555050604080516080810182526001600160a01b03848116825260208083018581525f848601819052426060860152600180548252600590935294909420835181546001600160a01b0319169316929092178255925191929091908201906116cd9082613a24565b5060408281015160028301805460ff191691151591909117905560609092015160039091015560015481516001600160a01b038516815260208101919091527fb4610031e95bec0846790f85fa67e369f500cabbda9395ea19a5fb5e427d27d891016109c7565b60048181548110611743575f80fd5b5f918252602090912001546001600160a01b0316905081565b5f60608060025f9054906101000a90046001600160a01b03166001600160a01b03166317d70f7c6040518163ffffffff1660e01b8152600401602060405180830381865afa1580156117b0573d5f5f3e3d5ffd5b505050506040513d601f19601f820116820180604052508101906117d49190613b4d565b9250826001600160401b038111156117ee576117ee61333d565b604051908082528060200260200182016040528015611817578160200160208202803683370190505b509150826001600160401b038111156118325761183261333d565b60405190808252806020026020018201604052801561186557816020015b60608152602001906001900390816118505790505b50905060015b83811161194157808361187f600183613959565b8151811061188f5761188f613931565b602090810291909101015260025460405163c87b56dd60e01b8152600481018390526001600160a01b039091169063c87b56dd906024015f60405180830381865afa1580156118e0573d5f5f3e3d5ffd5b505050506040513d5f823e601f3d908101601f191682016040526119079190810190613b64565b82611913600184613959565b8151811061192357611923613931565b6020026020010181905250808061193990613b35565b91505061186b565b50909192565b6002545f906001600160a01b031633146119a35760405162461bcd60e51b815260206004820152601a60248201527f4e6f7420746865205265616c69614e465420636f6e747261637400000000000060448201526064016104b5565b6119ae8260016113d2565b6119f05760405162461bcd60e51b8152602060048201526013602482015272139bc81b5a5b9d081bdc99195c88199bdd5b99606a1b60448201526064016104b5565b61151f826001612e0b565b335f908152600360208190526040909120015460ff161515600114611a595760405162461bcd60e51b81526020600482015260146024820152731059d95b9d081b9bdd081c9959da5cdd195c995960621b60448201526064016104b5565b335f908152600360205260409020611a72828483613bd8565b507f8c4cb369627e39249c6cbc76fe20d2779335c829509d016e580289f69c9b9b1f3383836040516109c793929190613c91565b5f82815260066020908152604080832080548251818502810185019093528083528493849084015b82821015611b5b575f8481526020908190206040805160808101909152600385810290920180546001600160a01b03811683529193909290840191600160a01b900460ff1690811115611b2357611b23613613565b6003811115611b3457611b34613613565b81526020016001820154815260200160028201548152505081526020019060010190611ace565b509293505f925050505b8151811015611bb657836001600160a01b0316828281518110611b8a57611b8a613931565b60200260200101515f01516001600160a01b031603611bae5760019250505061151f565b600101611b65565b505f949350505050565b335f908152600360208190526040909120015460ff161515600114611c1e5760405162461bcd60e51b81526020600482015260146024820152731059d95b9d081b9bdd081c9959da5cdd195c995960621b60448201526064016104b5565b60405163a9059cbb60e01b815233600482015261c350602482015273637a1259c6afd7e3adf63993ca7e58bb438ab1b19063a9059cbb906044016020604051808303815f875af1158015611c74573d5f5f3e3d5ffd5b505050506040513d601f19601f82011682018060405250810190611c989190613981565b611cda5760405162461bcd60e51b815260206004820152601360248201527214dd185ad9481c99599d5b990819985a5b1959606a1b60448201526064016104b5565b335f90815260036020526040812090611cf382826132f3565b506001810180546001600160a01b03191690555f600282018190556003909101805460ff191690555b600454811015611e1057336001600160a01b031660048281548110611d4357611d43613931565b5f918252602090912001546001600160a01b031603611e085760048054611d6c90600190613959565b81548110611d7c57611d7c613931565b5f91825260209091200154600480546001600160a01b039092169183908110611da757611da7613931565b905f5260205f20015f6101000a8154816001600160a01b0302191690836001600160a01b031602179055506004805480611de357611de3613cd0565b5f8281526020902081015f1990810180546001600160a01b0319169055019055611e10565b600101611d1c565b506040513381527f3e085cc53b86c19e2e6dba628297af6b8f76c89d1384dbcc599bab2adfd62d089060200160405180910390a1565b611e4e612d90565b6001600160a01b038116611e7757604051631e4fbdf760e01b81525f60048201526024016104b5565b6104ca81612dbc565b5f60608080808460015b6001548111611eee575f8181526005602052604090206002015460ff16158015611ec957505f818152600560205260409020546001600160a01b031615155b15611edc5781611ed881613b35565b9250505b80611ee681613b35565b915050611e8a565b50809550806001600160401b03811115611f0a57611f0a61333d565b604051908082528060200260200182016040528015611f33578160200160208202803683370190505b509450806001600160401b03811115611f4e57611f4e61333d565b604051908082528060200260200182016040528015611f77578160200160208202803683370190505b509350806001600160401b03811115611f9257611f9261333d565b604051908082528060200260200182016040528015611fc557816020015b6060815260200190600190039081611fb05790505b509250806001600160401b03811115611fe057611fe061333d565b604051908082528060200260200182016040528015612009578160200160208202803683370190505b5091505f60015b60015481116121c1575f8181526005602052604090206002015460ff1615801561204f57505f818152600560205260409020546001600160a01b031615155b156121af578087838151811061206757612067613931565b6020908102919091018101919091525f8281526005909152604090205486516001600160a01b03909116908790849081106120a4576120a4613931565b6001600160a01b039092166020928302919091018201525f82815260059091526040902060010180546120d6906139a0565b80601f0160208091040260200160405190810160405280929190818152602001828054612102906139a0565b801561214d5780601f106121245761010080835404028352916020019161214d565b820191905f5260205f20905b81548152906001019060200180831161213057829003601f168201915b505050505085838151811061216457612164613931565b602002602001018190525060065f8281526020019081526020015f208054905084838151811061219657612196613931565b6020908102919091010152816121ab81613b35565b9250505b806121b981613b35565b915050612010565b5050509091929394565b60036020525f90815260409020805481906121e5906139a0565b80601f0160208091040260200160405190810160405280929190818152602001828054612211906139a0565b801561225c5780601f106122335761010080835404028352916020019161225c565b820191905f5260205f20905b81548152906001019060200180831161223f57829003601f168201915b505050506001830154600284015460039094015492936001600160a01b039091169290915060ff1684565b5f8115612297575061c3506122c0565b60018460028111156122ab576122ab613613565b146122b85761c3506122bd565b620f42405b90505b5f60646122ce600a82613959565b6122d89084613ce4565b6122e29190613cfb565b90505f805b85518110156123495760035f87838151811061230557612305613931565b6020908102919091018101516001600160a01b031682528101919091526040015f206003015460ff1615612341578161233d81613b35565b9250505b6001016122e7565b50805f036124765773637a1259c6afd7e3adf63993ca7e58bb438ab1b163a9059cbb61237c5f546001600160a01b031690565b6040516001600160e01b031960e084901b1681526001600160a01b039091166004820152602481018590526044016020604051808303815f875af11580156123c6573d5f5f3e3d5ffd5b505050506040513d601f19601f820116820180604052508101906123ea9190613981565b6124365760405162461bcd60e51b815260206004820152601860248201527f5472616e7366657220746f206f776e6572206661696c6564000000000000000060448201526064016104b5565b604080518381525f60208201527fe8ef3e979b5461d2250b3d4490fd4a99865b49c68dc449c038258aeccbebaccd910160405180910390a1505050505050565b5f6124818284613cfb565b90505f5b86518110156125d45760035f8883815181106124a3576124a3613931565b6020908102919091018101516001600160a01b031682528101919091526040015f206003015460ff16156125cc5773637a1259c6afd7e3adf63993ca7e58bb438ab1b16001600160a01b031663a9059cbb88838151811061250657612506613931565b6020026020010151846040518363ffffffff1660e01b81526004016125409291906001600160a01b03929092168252602082015260400190565b6020604051808303815f875af115801561255c573d5f5f3e3d5ffd5b505050506040513d601f19601f820116820180604052508101906125809190613981565b6125cc5760405162461bcd60e51b815260206004820152601860248201527f5472616e7366657220746f206167656e74206661696c6564000000000000000060448201526064016104b5565b600101612485565b5060408051848152602081018390527fe8ef3e979b5461d2250b3d4490fd4a99865b49c68dc449c038258aeccbebaccd910160405180910390a150505050505050565b5f8181526005602052604090206002015460ff16156126785760405162461bcd60e51b815260206004820152601c60248201527f5265717565737420697320616c72656164792070726f6365737365640000000060448201526064016104b5565b5f81815260066020908152604080832080548251818502810185019093528083529192909190849084015b82821015612730575f8481526020908190206040805160808101909152600385810290920180546001600160a01b03811683529193909290840191600160a01b900460ff16908111156126f8576126f8613613565b600381111561270957612709613613565b815260200160018201548152602001600282015481525050815260200190600101906126a3565b505082519293505f9283925082915081906001600160401b038111156127585761275861333d565b604051908082528060200260200182016040528015612781578160200160208202803683370190505b5090505f85516001600160401b0381111561279e5761279e61333d565b6040519080825280602002602001820160405280156127c7578160200160208202803683370190505b5090505f86516001600160401b038111156127e4576127e461333d565b60405190808252806020026020018201604052801561280d578160200160208202803683370190505b5090505f80805b89518110156129ed5760018a828151811061283157612831613931565b602002602001015160200151600381111561284e5761284e613613565b03612959578861285d81613b35565b99505f9050805b848110156128e4578b838151811061287e5761287e613931565b60200260200101516040015188828151811061289c5761289c613931565b6020026020010151036128dc578681815181106128bb576128bb613931565b6020026020010180518091906128d090613b35565b905250600191506128e4565b600101612864565b5080612953578a82815181106128fc576128fc613931565b60200260200101516040015187858151811061291a5761291a613931565b602002602001018181525050600186858151811061293a5761293a613931565b60209081029190910101528361294f81613b35565b9450505b506129e5565b60028a828151811061296d5761296d613931565b602002602001015160200151600381111561298a5761298a613613565b036129a1578761299981613b35565b9850506129e5565b60038a82815181106129b5576129b5613931565b60200260200101516020015160038111156129d2576129d2613613565b036129e557866129e181613b35565b9750505b600101612814565b505f6129fb60026005613cfb565b891190508015612c17575f80805b85811015612a735781888281518110612a2457612a24613931565b60200260200101511115612a6b57878181518110612a4457612a44613931565b60200260200101519150888181518110612a6057612a60613931565b602002602001015192505b600101612a09565b505f8d8152600560209081526040918290205482516001600160a01b0390911681529081018490527f7c4bd613345b3aec2140d4c4c96782cda06d72b1a593fbb20a72300354f4c336910160405180910390a15f5b8c51811015612c0f5760018d8281518110612ae557612ae5613931565b6020026020010151602001516003811115612b0257612b02613613565b141580612b2c5750828d8281518110612b1d57612b1d613931565b60200260200101516040015114155b15612b5b57612b568d8281518110612b4657612b46613931565b60200260200101515f015161306c565b612c07565b60035f8e8381518110612b7057612b70613931565b60200260200101515f01516001600160a01b03166001600160a01b031681526020019081526020015f206002015f815480929190612bad90613b35565b91905055508c8181518110612bc457612bc4613931565b60200260200101515f0151878681518110612be157612be1613931565b6001600160a01b039092166020928302919091019091015284612c0381613b35565b9550505b600101612ac8565b505050612d28565b5f5b8a51811015612d265760018b8281518110612c3657612c36613931565b6020026020010151602001516003811115612c5357612c53613613565b03612c7257612c6d8b8281518110612b4657612b46613931565b612d1e565b60035f8c8381518110612c8757612c87613931565b60200260200101515f01516001600160a01b03166001600160a01b031681526020019081526020015f206002015f815480929190612cc490613b35565b91905055508a8181518110612cdb57612cdb613931565b60200260200101515f0151858481518110612cf857612cf8613931565b6001600160a01b039092166020928302919091019091015282612d1a81613b35565b9350505b600101612c19565b505b5f8b81526005602052604081206002908101805460ff19166001179055612d50918690612287565b6040518b81527fd59c8e4a596666e603cf3e00e02f96d6d1fde87d71e10f4709e317d206b503dc9060200160405180910390a15050505050505050505050565b5f546001600160a01b031633146113845760405163118cdaa760e01b81523360048201526024016104b5565b5f80546001600160a01b038381166001600160a01b0319831681178455604051919092169283917f8be0079c531659141344cd1fd0a4f28419497f9722a3daafe3b4186f6b6457e09190a35050565b5f805b6001600160a01b0384165f9081526007602052604090205481101561151a576001600160a01b0384165f908152600760205260408120805483908110612e5657612e56613931565b5f918252602090912060408051608081019091526003909202018054829060ff166002811115612e8857612e88613613565b6002811115612e9957612e99613613565b81526001820154602082015260029182015460ff808216151560408401526101009091041615156060909101529091508490811115612eda57612eda613613565b81516002811115612eed57612eed613613565b148015612efc57506040810151155b8015612f0a57506060810151155b15613063576001600160a01b0385165f90815260076020526040902080546001919084908110612f3c57612f3c613931565b5f91825260208220600390910201600201805460ff1916921515929092179091555473637a1259c6afd7e3adf63993ca7e58bb438ab1b19063a9059cbb906001600160a01b03166064600a8560200151612f969190613ce4565b612fa09190613cfb565b6040516001600160e01b031960e085901b1681526001600160a01b03909216600483015260248201526044016020604051808303815f875af1158015612fe8573d5f5f3e3d5ffd5b505050506040513d601f19601f8201168201806040525081019061300c9190613981565b6130585760405162461bcd60e51b815260206004820152601c60248201527f50726f746f636f6c20666565207472616e73666572206661696c65640000000060448201526064016104b5565b60019250505061151f565b50600101612e0e565b73637a1259c6afd7e3adf63993ca7e58bb438ab1b163a9059cbb6130975f546001600160a01b031690565b60646130a6600a61c350613ce4565b6130b09190613cfb565b6040516001600160e01b031960e085901b1681526001600160a01b03909216600483015260248201526044016020604051808303815f875af11580156130f8573d5f5f3e3d5ffd5b505050506040513d601f19601f8201168201806040525081019061311c9190613981565b6131605760405162461bcd60e51b815260206004820152601560248201527414db185cda081d1c985b9cd9995c8819985a5b1959605a1b60448201526064016104b5565b613174600261316d6104cd565b6001612287565b6001600160a01b0381165f9081526003602052604081209061319682826132f3565b506001810180546001600160a01b03191690555f600282018190556003909101805460ff191690555b6004548110156132b357816001600160a01b0316600482815481106131e6576131e6613931565b5f918252602090912001546001600160a01b0316036132ab576004805461320f90600190613959565b8154811061321f5761321f613931565b5f91825260209091200154600480546001600160a01b03909216918390811061324a5761324a613931565b905f5260205f20015f6101000a8154816001600160a01b0302191690836001600160a01b03160217905550600480548061328657613286613cd0565b5f8281526020902081015f1990810180546001600160a01b03191690550190556132b3565b6001016131bf565b506040516001600160a01b03821681527f975ad74f3e1160b20a620ec57c636ffa56c6b6679a0e2fb5689b4f95e65a69469060200160405180910390a150565b5080546132ff906139a0565b5f825580601f1061330e575050565b601f0160209004905f5260205f20908101906104ca91905b80821115613339575f8155600101613326565b5090565b634e487b7160e01b5f52604160045260245ffd5b604051601f8201601f191681016001600160401b03811182821017156133795761337961333d565b604052919050565b80356001600160a01b0381168114613397575f5ffd5b919050565b5f602082840312156133ac575f5ffd5b81356001600160401b038111156133c1575f5ffd5b8201601f810184136133d1575f5ffd5b80356001600160401b038111156133ea576133ea61333d565b8060051b6133fa60208201613351565b91825260208184018101929081019087841115613415575f5ffd5b6020850194505b8385101561343e5761342d85613381565b82526020948501949091019061341c565b979650505050505050565b5f8151808452602084019350602083015f5b828110156134825781516001600160a01b031686526020958601959091019060010161345b565b5093949350505050565b602081525f61349e6020830184613449565b9392505050565b5f5f602083850312156134b6575f5ffd5b82356001600160401b038111156134cb575f5ffd5b8301601f810185136134db575f5ffd5b80356001600160401b038111156134f0575f5ffd5b856020828401011115613501575f5ffd5b6020919091019590945092505050565b5f5f5f60608486031215613523575f5ffd5b83359250602084013560048110613538575f5ffd5b929592945050506040919091013590565b5f60208284031215613559575f5ffd5b5035919050565b5f81518084528060208401602086015e5f602082860101526020601f19601f83011685010191505092915050565b6001600160a01b03851681526080602082018190525f906135b190830186613560565b9315156040830152506060015292915050565b803560038110613397575f5ffd5b5f602082840312156135e2575f5ffd5b61349e826135c4565b5f5f604083850312156135fc575f5ffd5b61360583613381565b946020939093013593505050565b634e487b7160e01b5f52602160045260245ffd5b6003811061363757613637613613565b9052565b608081016136498287613627565b602082019490945291151560408301521515606090910152919050565b5f5f60408385031215613677575f5ffd5b61368083613381565b915061368e602084016135c4565b90509250929050565b5f5f604083850312156136a8575f5ffd5b50508035926020909101359150565b6001600160a01b038516815260808101600485106136d7576136d7613613565b84602083015283604083015282606083015295945050505050565b5f60208284031215613702575f5ffd5b61349e82613381565b5f6001600160401b038211156137235761372361333d565b50601f01601f191660200190565b5f5f60408385031215613742575f5ffd5b61374b83613381565b915060208301356001600160401b03811115613765575f5ffd5b8301601f81018513613775575f5ffd5b80356137886137838261370b565b613351565b81815286602083850101111561379c575f5ffd5b816020840160208301375f602083830101528093505050509250929050565b5f8151808452602084019350602083015f5b828110156134825781518652602095860195909101906001016137cd565b5f82825180855260208501945060208160051b830101602085015f5b8381101561383957601f19858403018852613823838351613560565b6020988901989093509190910190600101613807565b50909695505050505050565b838152606060208201525f61385d60608301856137bb565b828103604084015261386f81856137eb565b9695505050505050565b5f5f6040838503121561388a575f5ffd5b8235915061368e60208401613381565b85815260a060208201525f6138b260a08301876137bb565b82810360408401526138c48187613449565b905082810360608401526138d881866137eb565b905082810360808401526138ec81856137bb565b98975050505050505050565b608081525f61390a6080830187613560565b6001600160a01b039590951660208301525060408101929092521515606090910152919050565b634e487b7160e01b5f52603260045260245ffd5b634e487b7160e01b5f52601160045260245ffd5b8181038181111561151f5761151f613945565b5f8161397a5761397a613945565b505f190190565b5f60208284031215613991575f5ffd5b8151801515811461349e575f5ffd5b600181811c908216806139b457607f821691505b6020821081036139d257634e487b7160e01b5f52602260045260245ffd5b50919050565b601f821115613a1f57805f5260205f20601f840160051c810160208510156139fd5750805b601f840160051c820191505b81811015613a1c575f8155600101613a09565b50505b505050565b81516001600160401b03811115613a3d57613a3d61333d565b613a5181613a4b84546139a0565b846139d8565b6020601f821160018114613a83575f8315613a6c5750848201515b5f19600385901b1c1916600184901b178455613a1c565b5f84815260208120601f198516915b82811015613ab25787850151825560209485019460019092019101613a92565b5084821015613acf57868401515f19600387901b60f8161c191681555b50505050600190811b01905550565b602080825260129082015271496e76616c6964206f72646572207479706560701b604082015260600190565b6001600160a01b038416815260608101613b276020830185613627565b826040830152949350505050565b5f60018201613b4657613b46613945565b5060010190565b5f60208284031215613b5d575f5ffd5b5051919050565b5f60208284031215613b74575f5ffd5b81516001600160401b03811115613b89575f5ffd5b8201601f81018413613b99575f5ffd5b8051613ba76137838261370b565b818152856020838501011115613bbb575f5ffd5b8160208401602083015e5f91810160200191909152949350505050565b6001600160401b03831115613bef57613bef61333d565b613c0383613bfd83546139a0565b836139d8565b5f601f841160018114613c34575f8515613c1d5750838201355b5f19600387901b1c1916600186901b178355613a1c565b5f83815260208120601f198716915b82811015613c635786850135825560209485019460019092019101613c43565b5086821015613c7f575f1960f88860031b161c19848701351681555b505060018560011b0183555050505050565b6001600160a01b03841681526040602082018190528101829052818360608301375f818301606090810191909152601f909201601f1916010192915050565b634e487b7160e01b5f52603160045260245ffd5b808202811582820484141761151f5761151f613945565b5f82613d1557634e487b7160e01b5f52601260045260245ffd5b50049056fea26469706673582212207f974a0987dad356176a09c06215e1eea69c34c8990d64bf42925ada8ad756d864736f6c634300081c0033",
  "linkReferences": {},
  "deployedLinkReferences": {},
  "immutableReferences": {},
  "inputSourceName": "project/contracts/RealiaFactory.sol",
  "buildInfoId": "solc-0_8_28-106a5a6fec928e0dd22fafbca372f49c7ad14921"
}