{
  "_format": "hh3-artifact-1",
  "contractName": "RealiaNFT",
  "sourceName": "contracts/RealiaNFT.sol",
  "abi": [
    {
      "inputs": [
        {
          "internalType": "address",
          "name": "_realiaFactory",
          "type": "address"
        }
      ],
      "stateMutability": "nonpayable",
      "type": "constructor"
    },
    {
      "inputs": [
        {
          "internalType": "address",
          "name": "sender",
          "type": "address"
        },
        {
          "internalType": "uint256",
          "name": "tokenId",
          "type": "uint256"
        },
        {
          "internalType": "address",
          "name": "owner",
          "type": "address"
        }
      ],
      "name": "ERC721IncorrectOwner",
      "type": "error"
    },
    {
      "inputs": [
        {
          "internalType": "address",
          "name": "operator",
          "type": "address"
        },
        {
          "internalType": "uint256",
          "name": "tokenId",
          "type": "uint256"
        }
      ],
      "name": "ERC721InsufficientApproval",
      "type": "error"
    },
    {
      "inputs": [
        {
          "internalType": "address",
          "name": "approver",
          "type": "address"
        }
      ],
      "name": "ERC721InvalidApprover",
      "type": "error"
    },
    {
      "inputs": [
        {
          "internalType": "address",
          "name": "operator",
          "type": "address"
        }
      ],
      "name": "ERC721InvalidOperator",
      "type": "error"
    },
    {
      "inputs": [
        {
          "internalType": "address",
          "name": "owner",
          "type": "address"
        }
      ],
      "name": "ERC721InvalidOwner",
      "type": "error"
    },
    {
      "inputs": [
        {
          "internalType": "address",
          "name": "receiver",
          "type": "address"
        }
      ],
      "name": "ERC721InvalidReceiver",
      "type": "error"
    },
    {
      "inputs": [
        {
          "internalType": "address",
          "name": "sender",
          "type": "address"
        }
      ],
      "name": "ERC721InvalidSender",
      "type": "error"
    },
    {
      "inputs": [
        {
          "internalType": "uint256",
          "name": "tokenId",
          "type": "uint256"
        }
      ],
      "name": "ERC721NonexistentToken",
      "type": "error"
    },
    {
      "inputs": [
        {
          "internalType": "address",
          "name": "owner",
          "type": "address"
        }
      ],
      "name": "OwnableInvalidOwner",
      "type": "error"
    },
    {
      "inputs": [
        {
          "internalType": "address",
          "name": "account",
          "type": "address"
        }
      ],
      "name": "OwnableUnauthorizedAccount",
      "type": "error"
    },
    {
      "anonymous": false,
      "inputs": [
        {
          "indexed": true,
          "internalType": "address",
          "name": "owner",
          "type": "address"
        },
        {
          "indexed": true,
          "internalType": "address",
          "name": "approved",
          "type": "address"
        },
        {
          "indexed": true,
          "internalType": "uint256",
          "name": "tokenId",
          "type": "uint256"
        }
      ],
      "name": "Approval",
      "type": "event"
    },
    {
      "anonymous": false,
      "inputs": [
        {
          "indexed": true,
          "internalType": "address",
          "name": "owner",
          "type": "address"
        },
        {
          "indexed": true,
          "internalType": "address",
          "name": "operator",
          "type": "address"
        },
        {
          "indexed": false,
          "internalType": "bool",
          "name": "approved",
          "type": "bool"
        }
      ],
      "name": "ApprovalForAll",
      "type": "event"
    },
    {
      "anonymous": false,
      "inputs": [
        {
          "indexed": false,
          "internalType": "uint256",
          "name": "_fromTokenId",
          "type": "uint256"
        },
        {
          "indexed": false,
          "internalType": "uint256",
          "name": "_toTokenId",
          "type": "uint256"
        }
      ],
      "name": "BatchMetadataUpdate",
      "type": "event"
    },
    {
      "anonymous": false,
      "inputs": [
        {
          "indexed": false,
          "internalType": "uint256",
          "name": "_tokenId",
          "type": "uint256"
        }
      ],
      "name": "MetadataUpdate",
      "type": "event"
    },
    {
      "anonymous": false,
      "inputs": [
        {
          "indexed": false,
          "internalType": "address",
          "name": "to",
          "type": "address"
        },
        {
          "indexed": false,
          "internalType": "uint256",
          "name": "tokenId",
          "type": "uint256"
        }
      ],
      "name": "Minted",
      "type": "event"
    },
    {
      "anonymous": false,
      "inputs": [
        {
          "indexed": true,
          "internalType": "address",
          "name": "previousOwner",
          "type": "address"
        },
        {
          "indexed": true,
          "internalType": "address",
          "name": "newOwner",
          "type": "address"
        }
      ],
      "name": "OwnershipTransferred",
      "type": "event"
    },
    {
      "anonymous": false,
      "inputs": [
        {
          "indexed": true,
          "internalType": "address",
          "name": "from",
          "type": "address"
        },
        {
          "indexed": true,
          "internalType": "address",
          "name": "to",
          "type": "address"
        },
        {
          "indexed": true,
          "internalType": "uint256",
          "name": "tokenId",
          "type": "uint256"
        }
      ],
      "name": "Transfer",
      "type": "event"
    },
    {
      "inputs": [
        {
          "internalType": "address",
          "name": "to",
          "type": "address"
        },
        {
          "internalType": "uint256",
          "name": "tokenId",
          "type": "uint256"
        }
      ],
      "name": "approve",
      "outputs": [],
      "stateMutability": "nonpayable",
      "type": "function"
    },
    {
      "inputs": [
        {
          "internalType": "address",
          "name": "owner",
          "type": "address"
        }
      ],
      "name": "balanceOf",
      "outputs": [
        {
          "internalType": "uint256",
          "name": "",
          "type": "uint256"
        }
      ],
      "stateMutability": "view",
      "type": "function"
    },
    {
      "inputs": [
        {
          "internalType": "uint256",
          "name": "tokenId",
          "type": "uint256"
        }
      ],
      "name": "burn",
      "outputs": [],
      "stateMutability": "nonpayable",
      "type": "function"
    },
    {
      "inputs": [
        {
          "internalType": "uint256",
          "name": "tokenId",
          "type": "uint256"
        }
      ],
      "name": "getApproved",
      "outputs": [
        {
          "internalType": "address",
          "name": "",
          "type": "address"
        }
      ],
      "stateMutability": "view",
      "type": "function"
    },
    {
      "inputs": [
        {
          "internalType": "address",
          "name": "owner",
          "type": "address"
        },
        {
          "internalType": "address",
          "name": "operator",
          "type": "address"
        }
      ],
      "name": "isApprovedForAll",
      "outputs": [
        {
          "internalType": "bool",
          "name": "",
          "type": "bool"
        }
      ],
      "stateMutability": "view",
      "type": "function"
    },
    {
      "inputs": [
        {
          "internalType": "address",
          "name": "to",
          "type": "address"
        },
        {
          "internalType": "string",
          "name": "uri",
          "type": "string"
        }
      ],
      "name": "mint",
      "outputs": [],
      "stateMutability": "nonpayable",
      "type": "function"
    },
    {
      "inputs": [],
      "name": "name",
      "outputs": [
        {
          "internalType": "string",
          "name": "",
          "type": "string"
        }
      ],
      "stateMutability": "view",
      "type": "function"
    },
    {
      "inputs": [],
      "name": "owner",
      "outputs": [
        {
          "internalType": "address",
          "name": "",
          "type": "address"
        }
      ],
      "stateMutability": "view",
      "type": "function"
    },
    {
      "inputs": [
        {
          "internalType": "uint256",
          "name": "tokenId",
          "type": "uint256"
        }
      ],
      "name": "ownerOf",
      "outputs": [
        {
          "internalType": "address",
          "name": "",
          "type": "address"
        }
      ],
      "stateMutability": "view",
      "type": "function"
    },
    {
      "inputs": [],
      "name": "realiaFactory",
      "outputs": [
        {
          "internalType": "contract IRealiaFactory",
          "name": "",
          "type": "address"
        }
      ],
      "stateMutability": "view",
      "type": "function"
    },
    {
      "inputs": [],
      "name": "renounceOwnership",
      "outputs": [],
      "stateMutability": "nonpayable",
      "type": "function"
    },
    {
      "inputs": [
        {
          "internalType": "address",
          "name": "from",
          "type": "address"
        },
        {
          "internalType": "address",
          "name": "to",
          "type": "address"
        },
        {
          "internalType": "uint256",
          "name": "tokenId",
          "type": "uint256"
        }
      ],
      "name": "safeTransferFrom",
      "outputs": [],
      "stateMutability": "nonpayable",
      "type": "function"
    },
    {
      "inputs": [
        {
          "internalType": "address",
          "name": "from",
          "type": "address"
        },
        {
          "internalType": "address",
          "name": "to",
          "type": "address"
        },
        {
          "internalType": "uint256",
          "name": "tokenId",
          "type": "uint256"
        },
        {
          "internalType": "bytes",
          "name": "data",
          "type": "bytes"
        }
      ],
      "name": "safeTransferFrom",
      "outputs": [],
      "stateMutability": "nonpayable",
      "type": "function"
    },
    {
      "inputs": [
        {
          "internalType": "address",
          "name": "operator",
          "type": "address"
        },
        {
          "internalType": "bool",
          "name": "approved",
          "type": "bool"
        }
      ],
      "name": "setApprovalForAll",
      "outputs": [],
      "stateMutability": "nonpayable",
      "type": "function"
    },
    {
      "inputs": [
        {
          "internalType": "bytes4",
          "name": "interfaceId",
          "type": "bytes4"
        }
      ],
      "name": "supportsInterface",
      "outputs": [
        {
          "internalType": "bool",
          "name": "",
          "type": "bool"
        }
      ],
      "stateMutability": "view",
      "type": "function"
    },
    {
      "inputs": [],
      "name": "symbol",
      "outputs": [
        {
          "internalType": "string",
          "name": "",
          "type": "string"
        }
      ],
      "stateMutability": "view",
      "type": "function"
    },
    {
      "inputs": [],
      "name": "tokenId",
      "outputs": [
        {
          "internalType": "uint256",
          "name": "",
          "type": "uint256"
        }
      ],
      "stateMutability": "view",
      "type": "function"
    },
    {
      "inputs": [
        {
          "internalType": "uint256",
          "name": "_tokenId",
          "type": "uint256"
        }
      ],
      "name": "tokenURI",
      "outputs": [
        {
          "internalType": "string",
          "name": "",
          "type": "string"
        }
      ],
      "stateMutability": "view",
      "type": "function"
    },
    {
      "inputs": [
        {
          "internalType": "address",
          "name": "from",
          "type": "address"
        },
        {
          "internalType": "address",
          "name": "to",
          "type": "address"
        },
        {
          "internalType": "uint256",
          "name": "tokenId",
          "type": "uint256"
        }
      ],
      "name": "transferFrom",
      "outputs": [],
      "stateMutability": "nonpayable",
      "type": "function"
    },
    {
      "inputs": [
        {
          "internalType": "address",
          "name": "newOwner",
          "type": "address"
        }
      ],
      "name": "transferOwnership",
      "outputs": [],
      "stateMutability": "nonpayable",
      "type": "function"
    }
  ],
  "bytecode": "0x60a06040525f600855348015610013575f5ffd5b50604051611acd380380611acd83398101604081905261003291610128565b33604051806040016040528060068152602001655265616c696160d01b815250604051806040016040528060068152602001655245414c494160d01b815250815f908161007f91906101ed565b50600161008c82826101ed565b5050506001600160a01b0381166100bc57604051631e4fbdf760e01b81525f600482015260240160405180910390fd5b6100c5816100d7565b506001600160a01b03166080526102a7565b600680546001600160a01b038381166001600160a01b0319831681179093556040519116919082907f8be0079c531659141344cd1fd0a4f28419497f9722a3daafe3b4186f6b6457e0905f90a35050565b5f60208284031215610138575f5ffd5b81516001600160a01b038116811461014e575f5ffd5b9392505050565b634e487b7160e01b5f52604160045260245ffd5b600181811c9082168061017d57607f821691505b60208210810361019b57634e487b7160e01b5f52602260045260245ffd5b50919050565b601f8211156101e857805f5260205f20601f840160051c810160208510156101c65750805b601f840160051c820191505b818110156101e5575f81556001016101d2565b50505b505050565b81516001600160401b0381111561020657610206610155565b61021a816102148454610169565b846101a1565b6020601f82116001811461024c575f83156102355750848201515b5f19600385901b1c1916600184901b1784556101e5565b5f84815260208120601f198516915b8281101561027b578785015182556020948501946001909201910161025b565b508482101561029857868401515f19600387901b60f8161c191681555b50505050600190811b01905550565b6080516117f26102db5f395f81816101fd015281816105230152818161060f0152818161069401526106c301526117f25ff3fe608060405234801561000f575f5ffd5b5060043610610127575f3560e01c806370a08231116100a9578063b88d4fde1161006e578063b88d4fde14610279578063c87b56dd1461028c578063d0def5211461029f578063e985e9c5146102b2578063f2fde38b146102c5575f5ffd5b806370a0823114610232578063715018a6146102455780638da5cb5b1461024d57806395d89b411461025e578063a22cb46514610266575f5ffd5b806323b872dd116100ef57806323b872dd146101bf57806342842e0e146101d257806342966c68146101e5578063614ff824146101f85780636352211e1461021f575f5ffd5b806301ffc9a71461012b57806306fdde0314610153578063081812fc14610168578063095ea7b31461019357806317d70f7c146101a8575b5f5ffd5b61013e61013936600461119a565b6102d8565b60405190151581526020015b60405180910390f35b61015b6102e8565b60405161014a91906111e3565b61017b6101763660046111f5565b610377565b6040516001600160a01b03909116815260200161014a565b6101a66101a1366004611220565b61039e565b005b6101b160085481565b60405190815260200161014a565b6101a66101cd36600461124a565b6103ad565b6101a66101e036600461124a565b61043b565b6101a66101f33660046111f5565b61045a565b61017b7f000000000000000000000000000000000000000000000000000000000000000081565b61017b61022d3660046111f5565b610465565b6101b1610240366004611288565b61046f565b6101a66104b4565b6006546001600160a01b031661017b565b61015b6104c7565b6101a66102743660046112b0565b6104d6565b6101a6610287366004611385565b6104e1565b61015b61029a3660046111f5565b6104f9565b6101a66102ad366004611400565b610504565b61013e6102c0366004611460565b6107d8565b6101a66102d3366004611288565b610805565b5f6102e282610842565b92915050565b60605f80546102f69061148c565b80601f01602080910402602001604051908101604052809291908181526020018280546103229061148c565b801561036d5780601f106103445761010080835404028352916020019161036d565b820191905f5260205f20905b81548152906001019060200180831161035057829003601f168201915b5050505050905090565b5f61038182610866565b505f828152600460205260409020546001600160a01b03166102e2565b6103a982823361089e565b5050565b6001600160a01b0382166103db57604051633250574960e11b81525f60048201526024015b60405180910390fd5b5f6103e78383336108ab565b9050836001600160a01b0316816001600160a01b031614610435576040516364283d7b60e01b81526001600160a01b03808616600483015260248201849052821660448201526064016103d2565b50505050565b61045583838360405180602001604052805f8152506104e1565b505050565b6103a95f82336108ab565b5f6102e282610866565b5f6001600160a01b038216610499576040516322718ad960e21b81525f60048201526024016103d2565b506001600160a01b03165f9081526003602052604090205490565b6104bc61099d565b6104c55f6109ca565b565b6060600180546102f69061148c565b6103a9338383610a1b565b6104ec8484846103ad565b6104353385858585610ab9565b60606102e282610be1565b61050c61099d565b6040516344145ea160e11b81526001600160a01b037f00000000000000000000000000000000000000000000000000000000000000001690638828bd429061055b9085906001906004016114c4565b602060405180830381865afa158015610576573d5f5f3e3d5ffd5b505050506040513d601f19601f8201168201806040525081019061059a91906114fd565b6105dc5760405162461bcd60e51b8152602060048201526013602482015272139bc81b5a5b9d081bdc99195c88199bdd5b99606a1b60448201526064016103d2565b60088054905f6105eb83611518565b909155505060405163b91ca2bd60e01b81526001600160a01b0383811660048301527f0000000000000000000000000000000000000000000000000000000000000000169063b91ca2bd906024016020604051808303815f875af1158015610655573d5f5f3e3d5ffd5b505050506040513d601f19601f8201168201806040525081019061067991906114fd565b5061068682600854610cec565b61069260085482610d4d565b7f00000000000000000000000000000000000000000000000000000000000000006001600160a01b03166315d9dc9f7f00000000000000000000000000000000000000000000000000000000000000006001600160a01b03166327cabf886040518163ffffffff1660e01b81526004015f60405180830381865afa15801561071c573d5f5f3e3d5ffd5b505050506040513d5f823e601f3d908101601f19168201604052610743919081019061153c565b6040518263ffffffff1660e01b815260040161075f91906115f0565b5f604051808303815f87803b158015610776575f5ffd5b505af1158015610788573d5f5f3e3d5ffd5b5050600854604080516001600160a01b038716815260208101929092527f30385c845b448a36257a6a1716e6ad2e1bc2cbe333cde1e69fe849ad6511adfe93500190505b60405180910390a15050565b6001600160a01b039182165f90815260056020908152604080832093909416825291909152205460ff1690565b61080d61099d565b6001600160a01b03811661083657604051631e4fbdf760e01b81525f60048201526024016103d2565b61083f816109ca565b50565b5f6001600160e01b03198216632483248360e11b14806102e257506102e282610d95565b5f818152600260205260408120546001600160a01b0316806102e257604051637e27328960e01b8152600481018490526024016103d2565b6104558383836001610de4565b5f828152600260205260408120546001600160a01b03908116908316156108d7576108d7818486610ee8565b6001600160a01b03811615610911576108f25f855f5f610de4565b6001600160a01b0381165f90815260036020526040902080545f190190555b6001600160a01b0385161561093f576001600160a01b0385165f908152600360205260409020805460010190555b5f8481526002602052604080822080546001600160a01b0319166001600160a01b0389811691821790925591518793918516917fddf252ad1be2c89b69c2b068fc378daa952ba7f163c4a11628f55a4df523b3ef91a4949350505050565b6006546001600160a01b031633146104c55760405163118cdaa760e01b81523360048201526024016103d2565b600680546001600160a01b038381166001600160a01b0319831681179093556040519116919082907f8be0079c531659141344cd1fd0a4f28419497f9722a3daafe3b4186f6b6457e0905f90a35050565b6001600160a01b038216610a4d57604051630b61174360e31b81526001600160a01b03831660048201526024016103d2565b6001600160a01b038381165f81815260056020908152604080832094871680845294825291829020805460ff191686151590811790915591519182527f17307eab39ab6107e8899845ad3d59bd9653f200f220920489ca2b5937696c31910160405180910390a3505050565b6001600160a01b0383163b15610bda57604051630a85bd0160e11b81526001600160a01b0384169063150b7a0290610afb90889088908790879060040161163b565b6020604051808303815f875af1925050508015610b35575060408051601f3d908101601f19168201909252610b3291810190611677565b60015b610b9c573d808015610b62576040519150601f19603f3d011682016040523d82523d5f602084013e610b67565b606091505b5080515f03610b9457604051633250574960e11b81526001600160a01b03851660048201526024016103d2565b805160208201fd5b6001600160e01b03198116630a85bd0160e11b14610bd857604051633250574960e11b81526001600160a01b03851660048201526024016103d2565b505b5050505050565b6060610bec82610866565b505f8281526007602052604081208054610c059061148c565b80601f0160208091040260200160405190810160405280929190818152602001828054610c319061148c565b8015610c7c5780601f10610c5357610100808354040283529160200191610c7c565b820191905f5260205f20905b815481529060010190602001808311610c5f57829003601f168201915b505050505090505f610c9860408051602081019091525f815290565b905080515f03610ca9575092915050565b815115610cdb578082604051602001610cc39291906116a9565b60405160208183030381529060405292505050919050565b610ce484610f4c565b949350505050565b6001600160a01b038216610d1557604051633250574960e11b81525f60048201526024016103d2565b5f610d2183835f6108ab565b90506001600160a01b03811615610455576040516339e3563760e11b81525f60048201526024016103d2565b5f828152600760205260409020610d648282611701565b506040518281527ff8e1a15aba9398e019f0b49df1a4fde98ee17ae345cb5f6b5e2c27f5033e8ce7906020016107cc565b5f6001600160e01b031982166380ac58cd60e01b1480610dc557506001600160e01b03198216635b5e139f60e01b145b806102e257506301ffc9a760e01b6001600160e01b03198316146102e2565b8080610df857506001600160a01b03821615155b15610eb9575f610e0784610866565b90506001600160a01b03831615801590610e335750826001600160a01b0316816001600160a01b031614155b8015610e465750610e4481846107d8565b155b15610e6f5760405163a9fbf51f60e01b81526001600160a01b03841660048201526024016103d2565b8115610eb75783856001600160a01b0316826001600160a01b03167f8c5be1e5ebec7d5bd14f71427d1e84f3dd0314c0f7b2291e5b200ac8c7c3b92560405160405180910390a45b505b50505f90815260046020526040902080546001600160a01b0319166001600160a01b0392909216919091179055565b610ef3838383610fbd565b610455576001600160a01b038316610f2157604051637e27328960e01b8152600481018290526024016103d2565b60405163177e802f60e01b81526001600160a01b0383166004820152602481018290526044016103d2565b6060610f5782610866565b505f610f6d60408051602081019091525f815290565b90505f815111610f8b5760405180602001604052805f815250610fb6565b80610f958461101e565b604051602001610fa69291906116a9565b6040516020818303038152906040525b9392505050565b5f6001600160a01b03831615801590610ce45750826001600160a01b0316846001600160a01b03161480610ff65750610ff684846107d8565b80610ce45750505f908152600460205260409020546001600160a01b03908116911614919050565b60605f61102a836110ae565b60010190505f8167ffffffffffffffff811115611049576110496112e7565b6040519080825280601f01601f191660200182016040528015611073576020820181803683370190505b5090508181016020015b5f19016f181899199a1a9b1b9c1cb0b131b232b360811b600a86061a8153600a850494508461107d57509392505050565b5f8072184f03e93ff9f4daa797ed6e38ed64bf6a1f0160401b83106110ec5772184f03e93ff9f4daa797ed6e38ed64bf6a1f0160401b830492506040015b6d04ee2d6d415b85acef81000000008310611118576d04ee2d6d415b85acef8100000000830492506020015b662386f26fc10000831061113657662386f26fc10000830492506010015b6305f5e100831061114e576305f5e100830492506008015b612710831061116257612710830492506004015b60648310611174576064830492506002015b600a83106102e25760010192915050565b6001600160e01b03198116811461083f575f5ffd5b5f602082840312156111aa575f5ffd5b8135610fb681611185565b5f81518084528060208401602086015e5f602082860101526020601f19601f83011685010191505092915050565b602081525f610fb660208301846111b5565b5f60208284031215611205575f5ffd5b5035919050565b6001600160a01b038116811461083f575f5ffd5b5f5f60408385031215611231575f5ffd5b823561123c8161120c565b946020939093013593505050565b5f5f5f6060848603121561125c575f5ffd5b83356112678161120c565b925060208401356112778161120c565b929592945050506040919091013590565b5f60208284031215611298575f5ffd5b8135610fb68161120c565b801515811461083f575f5ffd5b5f5f604083850312156112c1575f5ffd5b82356112cc8161120c565b915060208301356112dc816112a3565b809150509250929050565b634e487b7160e01b5f52604160045260245ffd5b604051601f8201601f1916810167ffffffffffffffff81118282101715611324576113246112e7565b604052919050565b5f5f67ffffffffffffffff841115611346576113466112e7565b50601f8301601f191660200161135b816112fb565b91505082815283838301111561136f575f5ffd5b828260208301375f602084830101529392505050565b5f5f5f5f60808587031215611398575f5ffd5b84356113a38161120c565b935060208501356113b38161120c565b925060408501359150606085013567ffffffffffffffff8111156113d5575f5ffd5b8501601f810187136113e5575f5ffd5b6113f48782356020840161132c565b91505092959194509250565b5f5f60408385031215611411575f5ffd5b823561141c8161120c565b9150602083013567ffffffffffffffff811115611437575f5ffd5b8301601f81018513611447575f5ffd5b6114568582356020840161132c565b9150509250929050565b5f5f60408385031215611471575f5ffd5b823561147c8161120c565b915060208301356112dc8161120c565b600181811c908216806114a057607f821691505b6020821081036114be57634e487b7160e01b5f52602260045260245ffd5b50919050565b6001600160a01b038316815260408101600383106114f057634e487b7160e01b5f52602160045260245ffd5b8260208301529392505050565b5f6020828403121561150d575f5ffd5b8151610fb6816112a3565b5f6001820161153557634e487b7160e01b5f52601160045260245ffd5b5060010190565b5f6020828403121561154c575f5ffd5b815167ffffffffffffffff811115611562575f5ffd5b8201601f81018413611572575f5ffd5b805167ffffffffffffffff81111561158c5761158c6112e7565b8060051b61159c602082016112fb565b918252602081840181019290810190878411156115b7575f5ffd5b6020850194505b838510156115e557845192506115d38361120c565b828252602094850194909101906115be565b979650505050505050565b602080825282518282018190525f918401906040840190835b818110156116305783516001600160a01b0316835260209384019390920191600101611609565b509095945050505050565b6001600160a01b03858116825284166020820152604081018390526080606082018190525f9061166d908301846111b5565b9695505050505050565b5f60208284031215611687575f5ffd5b8151610fb681611185565b5f81518060208401855e5f93019283525090919050565b5f610ce46116b78386611692565b84611692565b601f82111561045557805f5260205f20601f840160051c810160208510156116e25750805b601f840160051c820191505b81811015610bda575f81556001016116ee565b815167ffffffffffffffff81111561171b5761171b6112e7565b61172f81611729845461148c565b846116bd565b6020601f821160018114611761575f831561174a5750848201515b5f19600385901b1c1916600184901b178455610bda565b5f84815260208120601f198516915b828110156117905787850151825560209485019460019092019101611770565b50848210156117ad57868401515f19600387901b60f8161c191681555b50505050600190811b0190555056fea2646970667358221220b5533ab062631c5295493ebc9ac3051b77c9a1e7cd62545e92bc87dc0b48e3f664736f6c634300081c0033",
  "linkReferences": {},
  "deployedLinkReferences": {},
  "immutableReferences": {
    "8427": [
      {
        "length": 32,
        "start": 509
      },
      {
        "length": 32,
        "start": 1315
      },
      {
        "length": 32,
        "start": 1551
      },
      {
        "length": 32,
        "start": 1684
      },
      {
        "length": 32,
        "start": 1731
      }
    ]
  },
  "inputSourceName": "project/contracts/RealiaNFT.sol",
  "buildInfoId": "solc-0_8_28-41c7856972a5d2785d7414af00482a67f27dca0e"
}