{
  "_format": "hh3-artifact-1",
  "contractName": "Realia",
  "sourceName": "contracts/Realia.sol",
  "abi": [
    {
      "inputs": [],
      "stateMutability": "nonpayable",
      "type": "constructor"
    },
    {
      "inputs": [
        {
          "internalType": "address",
          "name": "sender",
          "type": "address"
        },
        {
          "internalType": "uint256",
          "name": "tokenId",
          "type": "uint256"
        },
        {
          "internalType": "address",
          "name": "owner",
          "type": "address"
        }
      ],
      "name": "ERC721IncorrectOwner",
      "type": "error"
    },
    {
      "inputs": [
        {
          "internalType": "address",
          "name": "operator",
          "type": "address"
        },
        {
          "internalType": "uint256",
          "name": "tokenId",
          "type": "uint256"
        }
      ],
      "name": "ERC721InsufficientApproval",
      "type": "error"
    },
    {
      "inputs": [
        {
          "internalType": "address",
          "name": "approver",
          "type": "address"
        }
      ],
      "name": "ERC721InvalidApprover",
      "type": "error"
    },
    {
      "inputs": [
        {
          "internalType": "address",
          "name": "operator",
          "type": "address"
        }
      ],
      "name": "ERC721InvalidOperator",
      "type": "error"
    },
    {
      "inputs": [
        {
          "internalType": "address",
          "name": "owner",
          "type": "address"
        }
      ],
      "name": "ERC721InvalidOwner",
      "type": "error"
    },
    {
      "inputs": [
        {
          "internalType": "address",
          "name": "receiver",
          "type": "address"
        }
      ],
      "name": "ERC721InvalidReceiver",
      "type": "error"
    },
    {
      "inputs": [
        {
          "internalType": "address",
          "name": "sender",
          "type": "address"
        }
      ],
      "name": "ERC721InvalidSender",
      "type": "error"
    },
    {
      "inputs": [
        {
          "internalType": "uint256",
          "name": "tokenId",
          "type": "uint256"
        }
      ],
      "name": "ERC721NonexistentToken",
      "type": "error"
    },
    {
      "inputs": [
        {
          "internalType": "address",
          "name": "owner",
          "type": "address"
        }
      ],
      "name": "OwnableInvalidOwner",
      "type": "error"
    },
    {
      "inputs": [
        {
          "internalType": "address",
          "name": "account",
          "type": "address"
        }
      ],
      "name": "OwnableUnauthorizedAccount",
      "type": "error"
    },
    {
      "anonymous": false,
      "inputs": [
        {
          "indexed": false,
          "internalType": "address",
          "name": "agent",
          "type": "address"
        }
      ],
      "name": "AgentRegistered",
      "type": "event"
    },
    {
      "anonymous": false,
      "inputs": [
        {
          "indexed": false,
          "internalType": "address",
          "name": "agent",
          "type": "address"
        }
      ],
      "name": "AgentUnregistered",
      "type": "event"
    },
    {
      "anonymous": false,
      "inputs": [
        {
          "indexed": false,
          "internalType": "uint256",
          "name": "amount",
          "type": "uint256"
        },
        {
          "indexed": false,
          "internalType": "uint256",
          "name": "amountPerAgent",
          "type": "uint256"
        }
      ],
      "name": "AgentsPaid",
      "type": "event"
    },
    {
      "anonymous": false,
      "inputs": [
        {
          "indexed": true,
          "internalType": "address",
          "name": "owner",
          "type": "address"
        },
        {
          "indexed": true,
          "internalType": "address",
          "name": "approved",
          "type": "address"
        },
        {
          "indexed": true,
          "internalType": "uint256",
          "name": "tokenId",
          "type": "uint256"
        }
      ],
      "name": "Approval",
      "type": "event"
    },
    {
      "anonymous": false,
      "inputs": [
        {
          "indexed": true,
          "internalType": "address",
          "name": "owner",
          "type": "address"
        },
        {
          "indexed": true,
          "internalType": "address",
          "name": "operator",
          "type": "address"
        },
        {
          "indexed": false,
          "internalType": "bool",
          "name": "approved",
          "type": "bool"
        }
      ],
      "name": "ApprovalForAll",
      "type": "event"
    },
    {
      "anonymous": false,
      "inputs": [
        {
          "indexed": false,
          "internalType": "uint256",
          "name": "_fromTokenId",
          "type": "uint256"
        },
        {
          "indexed": false,
          "internalType": "uint256",
          "name": "_toTokenId",
          "type": "uint256"
        }
      ],
      "name": "BatchMetadataUpdate",
      "type": "event"
    },
    {
      "anonymous": false,
      "inputs": [
        {
          "indexed": false,
          "internalType": "uint256",
          "name": "_tokenId",
          "type": "uint256"
        }
      ],
      "name": "MetadataUpdate",
      "type": "event"
    },
    {
      "anonymous": false,
      "inputs": [
        {
          "indexed": false,
          "internalType": "address",
          "name": "to",
          "type": "address"
        },
        {
          "indexed": false,
          "internalType": "uint256",
          "name": "tokenId",
          "type": "uint256"
        }
      ],
      "name": "Minted",
      "type": "event"
    },
    {
      "anonymous": false,
      "inputs": [
        {
          "indexed": false,
          "internalType": "address",
          "name": "to",
          "type": "address"
        },
        {
          "indexed": false,
          "internalType": "enum Realia.OrderType",
          "name": "orderType",
          "type": "uint8"
        },
        {
          "indexed": false,
          "internalType": "uint256",
          "name": "amount",
          "type": "uint256"
        }
      ],
      "name": "OrderCancelled",
      "type": "event"
    },
    {
      "anonymous": false,
      "inputs": [
        {
          "indexed": false,
          "internalType": "address",
          "name": "to",
          "type": "address"
        },
        {
          "indexed": false,
          "internalType": "enum Realia.OrderType",
          "name": "orderType",
          "type": "uint8"
        },
        {
          "indexed": false,
          "internalType": "uint256",
          "name": "amount",
          "type": "uint256"
        }
      ],
      "name": "OrderCreated",
      "type": "event"
    },
    {
      "anonymous": false,
      "inputs": [
        {
          "indexed": true,
          "internalType": "address",
          "name": "previousOwner",
          "type": "address"
        },
        {
          "indexed": true,
          "internalType": "address",
          "name": "newOwner",
          "type": "address"
        }
      ],
      "name": "OwnershipTransferred",
      "type": "event"
    },
    {
      "anonymous": false,
      "inputs": [
        {
          "indexed": false,
          "internalType": "uint256",
          "name": "requestId",
          "type": "uint256"
        }
      ],
      "name": "ProcessedVerification",
      "type": "event"
    },
    {
      "anonymous": false,
      "inputs": [
        {
          "indexed": false,
          "internalType": "address",
          "name": "agent",
          "type": "address"
        }
      ],
      "name": "Slashed",
      "type": "event"
    },
    {
      "anonymous": false,
      "inputs": [
        {
          "indexed": true,
          "internalType": "address",
          "name": "from",
          "type": "address"
        },
        {
          "indexed": true,
          "internalType": "address",
          "name": "to",
          "type": "address"
        },
        {
          "indexed": true,
          "internalType": "uint256",
          "name": "tokenId",
          "type": "uint256"
        }
      ],
      "name": "Transfer",
      "type": "event"
    },
    {
      "anonymous": false,
      "inputs": [
        {
          "indexed": false,
          "internalType": "address",
          "name": "user",
          "type": "address"
        },
        {
          "indexed": false,
          "internalType": "uint256",
          "name": "requestId",
          "type": "uint256"
        }
      ],
      "name": "VerificationRequested",
      "type": "event"
    },
    {
      "anonymous": false,
      "inputs": [
        {
          "indexed": false,
          "internalType": "address",
          "name": "agent",
          "type": "address"
        },
        {
          "indexed": false,
          "internalType": "uint256",
          "name": "requestId",
          "type": "uint256"
        },
        {
          "indexed": false,
          "internalType": "bool",
          "name": "verified",
          "type": "bool"
        }
      ],
      "name": "VerificationResponseByAgent",
      "type": "event"
    },
    {
      "anonymous": false,
      "inputs": [
        {
          "indexed": false,
          "internalType": "address",
          "name": "to",
          "type": "address"
        },
        {
          "indexed": false,
          "internalType": "uint256",
          "name": "tokenId",
          "type": "uint256"
        }
      ],
      "name": "Verified",
      "type": "event"
    },
    {
      "inputs": [],
      "name": "PYUSD",
      "outputs": [
        {
          "internalType": "contract IERC20",
          "name": "",
          "type": "address"
        }
      ],
      "stateMutability": "view",
      "type": "function"
    },
    {
      "inputs": [
        {
          "internalType": "uint256",
          "name": "",
          "type": "uint256"
        }
      ],
      "name": "agentAddresses",
      "outputs": [
        {
          "internalType": "address",
          "name": "",
          "type": "address"
        }
      ],
      "stateMutability": "view",
      "type": "function"
    },
    {
      "inputs": [
        {
          "internalType": "address",
          "name": "",
          "type": "address"
        }
      ],
      "name": "agents",
      "outputs": [
        {
          "internalType": "string",
          "name": "agentAddress",
          "type": "string"
        },
        {
          "internalType": "address",
          "name": "evmAddress",
          "type": "address"
        },
        {
          "internalType": "uint256",
          "name": "verifiedCount",
          "type": "uint256"
        },
        {
          "internalType": "bool",
          "name": "isStaked",
          "type": "bool"
        }
      ],
      "stateMutability": "view",
      "type": "function"
    },
    {
      "inputs": [
        {
          "internalType": "address",
          "name": "to",
          "type": "address"
        },
        {
          "internalType": "uint256",
          "name": "tokenId",
          "type": "uint256"
        }
      ],
      "name": "approve",
      "outputs": [],
      "stateMutability": "nonpayable",
      "type": "function"
    },
    {
      "inputs": [
        {
          "internalType": "address",
          "name": "owner",
          "type": "address"
        }
      ],
      "name": "balanceOf",
      "outputs": [
        {
          "internalType": "uint256",
          "name": "",
          "type": "uint256"
        }
      ],
      "stateMutability": "view",
      "type": "function"
    },
    {
      "inputs": [
        {
          "internalType": "uint256",
          "name": "tokenId",
          "type": "uint256"
        }
      ],
      "name": "burn",
      "outputs": [],
      "stateMutability": "nonpayable",
      "type": "function"
    },
    {
      "inputs": [
        {
          "internalType": "enum Realia.OrderType",
          "name": "orderType",
          "type": "uint8"
        }
      ],
      "name": "cancelOrder",
      "outputs": [],
      "stateMutability": "nonpayable",
      "type": "function"
    },
    {
      "inputs": [
        {
          "internalType": "enum Realia.OrderType",
          "name": "orderType",
          "type": "uint8"
        }
      ],
      "name": "createOrder",
      "outputs": [],
      "stateMutability": "nonpayable",
      "type": "function"
    },
    {
      "inputs": [
        {
          "internalType": "uint256",
          "name": "tokenId",
          "type": "uint256"
        }
      ],
      "name": "getApproved",
      "outputs": [
        {
          "internalType": "address",
          "name": "",
          "type": "address"
        }
      ],
      "stateMutability": "view",
      "type": "function"
    },
    {
      "inputs": [],
      "name": "getTopFiveAgents",
      "outputs": [
        {
          "internalType": "address[]",
          "name": "",
          "type": "address[]"
        }
      ],
      "stateMutability": "view",
      "type": "function"
    },
    {
      "inputs": [
        {
          "internalType": "address",
          "name": "user",
          "type": "address"
        },
        {
          "internalType": "enum Realia.OrderType",
          "name": "orderType",
          "type": "uint8"
        }
      ],
      "name": "hasOrder",
      "outputs": [
        {
          "internalType": "bool",
          "name": "",
          "type": "bool"
        }
      ],
      "stateMutability": "view",
      "type": "function"
    },
    {
      "inputs": [
        {
          "internalType": "address",
          "name": "owner",
          "type": "address"
        },
        {
          "internalType": "address",
          "name": "operator",
          "type": "address"
        }
      ],
      "name": "isApprovedForAll",
      "outputs": [
        {
          "internalType": "bool",
          "name": "",
          "type": "bool"
        }
      ],
      "stateMutability": "view",
      "type": "function"
    },
    {
      "inputs": [
        {
          "internalType": "address",
          "name": "to",
          "type": "address"
        },
        {
          "internalType": "string",
          "name": "uri",
          "type": "string"
        }
      ],
      "name": "mint",
      "outputs": [],
      "stateMutability": "nonpayable",
      "type": "function"
    },
    {
      "inputs": [],
      "name": "name",
      "outputs": [
        {
          "internalType": "string",
          "name": "",
          "type": "string"
        }
      ],
      "stateMutability": "view",
      "type": "function"
    },
    {
      "inputs": [
        {
          "internalType": "address",
          "name": "",
          "type": "address"
        },
        {
          "internalType": "uint256",
          "name": "",
          "type": "uint256"
        }
      ],
      "name": "orders",
      "outputs": [
        {
          "internalType": "enum Realia.OrderType",
          "name": "orderType",
          "type": "uint8"
        },
        {
          "internalType": "uint256",
          "name": "amount",
          "type": "uint256"
        },
        {
          "internalType": "bool",
          "name": "used",
          "type": "bool"
        },
        {
          "internalType": "bool",
          "name": "cancelled",
          "type": "bool"
        }
      ],
      "stateMutability": "view",
      "type": "function"
    },
    {
      "inputs": [],
      "name": "owner",
      "outputs": [
        {
          "internalType": "address",
          "name": "",
          "type": "address"
        }
      ],
      "stateMutability": "view",
      "type": "function"
    },
    {
      "inputs": [
        {
          "internalType": "uint256",
          "name": "tokenId",
          "type": "uint256"
        }
      ],
      "name": "ownerOf",
      "outputs": [
        {
          "internalType": "address",
          "name": "",
          "type": "address"
        }
      ],
      "stateMutability": "view",
      "type": "function"
    },
    {
      "inputs": [
        {
          "internalType": "string",
          "name": "agentAddress",
          "type": "string"
        }
      ],
      "name": "registerAgent",
      "outputs": [],
      "stateMutability": "nonpayable",
      "type": "function"
    },
    {
      "inputs": [],
      "name": "renounceOwnership",
      "outputs": [],
      "stateMutability": "nonpayable",
      "type": "function"
    },
    {
      "inputs": [
        {
          "internalType": "address",
          "name": "user",
          "type": "address"
        },
        {
          "internalType": "string",
          "name": "uri",
          "type": "string"
        }
      ],
      "name": "requestVerification",
      "outputs": [],
      "stateMutability": "nonpayable",
      "type": "function"
    },
    {
      "inputs": [
        {
          "internalType": "uint256",
          "name": "requestId",
          "type": "uint256"
        },
        {
          "internalType": "bool",
          "name": "verified",
          "type": "bool"
        },
        {
          "internalType": "uint256",
          "name": "propertyTokenId",
          "type": "uint256"
        }
      ],
      "name": "responseVerification",
      "outputs": [],
      "stateMutability": "nonpayable",
      "type": "function"
    },
    {
      "inputs": [
        {
          "internalType": "address",
          "name": "from",
          "type": "address"
        },
        {
          "internalType": "address",
          "name": "to",
          "type": "address"
        },
        {
          "internalType": "uint256",
          "name": "tokenId",
          "type": "uint256"
        }
      ],
      "name": "safeTransferFrom",
      "outputs": [],
      "stateMutability": "nonpayable",
      "type": "function"
    },
    {
      "inputs": [
        {
          "internalType": "address",
          "name": "from",
          "type": "address"
        },
        {
          "internalType": "address",
          "name": "to",
          "type": "address"
        },
        {
          "internalType": "uint256",
          "name": "tokenId",
          "type": "uint256"
        },
        {
          "internalType": "bytes",
          "name": "data",
          "type": "bytes"
        }
      ],
      "name": "safeTransferFrom",
      "outputs": [],
      "stateMutability": "nonpayable",
      "type": "function"
    },
    {
      "inputs": [
        {
          "internalType": "address",
          "name": "operator",
          "type": "address"
        },
        {
          "internalType": "bool",
          "name": "approved",
          "type": "bool"
        }
      ],
      "name": "setApprovalForAll",
      "outputs": [],
      "stateMutability": "nonpayable",
      "type": "function"
    },
    {
      "inputs": [
        {
          "internalType": "bytes4",
          "name": "interfaceId",
          "type": "bytes4"
        }
      ],
      "name": "supportsInterface",
      "outputs": [
        {
          "internalType": "bool",
          "name": "",
          "type": "bool"
        }
      ],
      "stateMutability": "view",
      "type": "function"
    },
    {
      "inputs": [],
      "name": "symbol",
      "outputs": [
        {
          "internalType": "string",
          "name": "",
          "type": "string"
        }
      ],
      "stateMutability": "view",
      "type": "function"
    },
    {
      "inputs": [],
      "name": "syncAgent",
      "outputs": [
        {
          "internalType": "uint256",
          "name": "totalCount",
          "type": "uint256"
        },
        {
          "internalType": "uint256[]",
          "name": "nftIds",
          "type": "uint256[]"
        },
        {
          "internalType": "string[]",
          "name": "nftUris",
          "type": "string[]"
        }
      ],
      "stateMutability": "view",
      "type": "function"
    },
    {
      "inputs": [],
      "name": "tokenId",
      "outputs": [
        {
          "internalType": "uint256",
          "name": "",
          "type": "uint256"
        }
      ],
      "stateMutability": "view",
      "type": "function"
    },
    {
      "inputs": [
        {
          "internalType": "uint256",
          "name": "_tokenId",
          "type": "uint256"
        }
      ],
      "name": "tokenURI",
      "outputs": [
        {
          "internalType": "string",
          "name": "",
          "type": "string"
        }
      ],
      "stateMutability": "view",
      "type": "function"
    },
    {
      "inputs": [
        {
          "internalType": "address",
          "name": "from",
          "type": "address"
        },
        {
          "internalType": "address",
          "name": "to",
          "type": "address"
        },
        {
          "internalType": "uint256",
          "name": "tokenId",
          "type": "uint256"
        }
      ],
      "name": "transferFrom",
      "outputs": [],
      "stateMutability": "nonpayable",
      "type": "function"
    },
    {
      "inputs": [
        {
          "internalType": "address",
          "name": "newOwner",
          "type": "address"
        }
      ],
      "name": "transferOwnership",
      "outputs": [],
      "stateMutability": "nonpayable",
      "type": "function"
    },
    {
      "inputs": [],
      "name": "unregisterAgent",
      "outputs": [],
      "stateMutability": "nonpayable",
      "type": "function"
    },
    {
      "inputs": [],
      "name": "verificationId",
      "outputs": [
        {
          "internalType": "uint256",
          "name": "",
          "type": "uint256"
        }
      ],
      "stateMutability": "view",
      "type": "function"
    },
    {
      "inputs": [
        {
          "internalType": "uint256",
          "name": "",
          "type": "uint256"
        }
      ],
      "name": "verificationRequests",
      "outputs": [
        {
          "internalType": "address",
          "name": "user",
          "type": "address"
        },
        {
          "internalType": "string",
          "name": "uri",
          "type": "string"
        },
        {
          "internalType": "bool",
          "name": "processed",
          "type": "bool"
        },
        {
          "internalType": "uint256",
          "name": "requestTime",
          "type": "uint256"
        }
      ],
      "stateMutability": "view",
      "type": "function"
    },
    {
      "inputs": [
        {
          "internalType": "uint256",
          "name": "",
          "type": "uint256"
        },
        {
          "internalType": "uint256",
          "name": "",
          "type": "uint256"
        }
      ],
      "name": "verificationResponses",
      "outputs": [
        {
          "internalType": "address",
          "name": "agent",
          "type": "address"
        },
        {
          "internalType": "bool",
          "name": "verified",
          "type": "bool"
        },
        {
          "internalType": "uint256",
          "name": "tokenId",
          "type": "uint256"
        },
        {
          "internalType": "uint256",
          "name": "responseTime",
          "type": "uint256"
        }
      ],
      "stateMutability": "view",
      "type": "function"
    }
  ],
  "bytecode": "0x60806040525f6008555f600955348015610017575f5ffd5b5033604051806040016040528060068152602001655265616c696160d01b815250604051806040016040528060068152602001655245414c494160d01b815250815f9081610065919061019a565b506001610072828261019a565b5050506001600160a01b0381166100a257604051631e4fbdf760e01b81525f600482015260240160405180910390fd5b6100ab816100b1565b50610254565b600680546001600160a01b038381166001600160a01b0319831681179093556040519116919082907f8be0079c531659141344cd1fd0a4f28419497f9722a3daafe3b4186f6b6457e0905f90a35050565b634e487b7160e01b5f52604160045260245ffd5b600181811c9082168061012a57607f821691505b60208210810361014857634e487b7160e01b5f52602260045260245ffd5b50919050565b601f82111561019557805f5260205f20601f840160051c810160208510156101735750805b601f840160051c820191505b81811015610192575f815560010161017f565b50505b505050565b81516001600160401b038111156101b3576101b3610102565b6101c7816101c18454610116565b8461014e565b6020601f8211600181146101f9575f83156101e25750848201515b5f19600385901b1c1916600184901b178455610192565b5f84815260208120601f198516915b828110156102285787850151825560209485019460019092019101610208565b508482101561024557868401515f19600387901b60f8161c191681555b50505050600190811b01905550565b613a9f806102615f395ff3fe608060405234801561000f575f5ffd5b5060043610610208575f3560e01c806382c328021161011f578063b14d09ff116100a9578063e31f1a7c11610079578063e31f1a7c146104bb578063e8841c25146104c3578063e985e9c5146104cc578063f2fde38b146104df578063fd66091e146104f2575f5ffd5b8063b14d09ff1461046b578063b88d4fde14610482578063c87b56dd14610495578063d0def521146104a8575f5ffd5b806396e45457116100ef57806396e45457146103da5780639e19789d14610417578063a179d1c214610432578063a22cb46514610445578063a7676a6314610458575f5ffd5b806382c328021461039b5780638828bd42146103ae5780638da5cb5b146103c157806395d89b41146103d2575f5ffd5b80634089d49f116101a05780636352211e116101705780636352211e1461033757806367ba8e2d1461034a57806370a082311461035d578063715018a614610370578063793b8c6d14610378575f5ffd5b80634089d49f146102db57806342842e0e146102fe57806342966c681461031157806350e01a5814610324575f5ffd5b806317d70f7c116101db57806317d70f7c1461028957806323b872dd146102a057806327cabf88146102b35780632d2a9585146102c8575f5ffd5b806301ffc9a71461020c57806306fdde0314610234578063081812fc14610249578063095ea7b314610274575b5f5ffd5b61021f61021a3660046131df565b610515565b60405190151581526020015b60405180910390f35b61023c610525565b60405161022b9190613228565b61025c61025736600461323a565b6105b4565b6040516001600160a01b03909116815260200161022b565b61028761028236600461326c565b6105db565b005b61029260085481565b60405190815260200161022b565b6102876102ae366004613294565b6105ea565b6102bb610678565b60405161022b91906132ce565b6102876102d6366004613319565b610968565b6102ee6102e936600461323a565b610b1b565b60405161022b9493929190613385565b61028761030c366004613294565b610bd7565b61028761031f36600461323a565b610bf6565b6102876103323660046133c9565b610c01565b61025c61034536600461323a565b610e27565b6102876103583660046133c9565b610e31565b61029261036b3660046133e2565b611059565b61028761109e565b61038b61038636600461326c565b6110b1565b60405161022b949392919061342f565b6102876103a9366004613467565b6110fd565b61021f6103bc36600461348b565b61129b565b6006546001600160a01b031661025c565b61023c6113ec565b6103ed6103e83660046134bc565b6113fb565b604080516001600160a01b039095168552921515602085015291830152606082015260800161022b565b61025c73637a1259c6afd7e3adf63993ca7e58bb438ab1b181565b610287610440366004613565565b61144c565b6102876104533660046135c2565b61157e565b61025c61046636600461323a565b611589565b6104736115b1565b60405161022b939291906135f7565b61028761049036600461369d565b6116c5565b61023c6104a336600461323a565b6116dd565b6102876104b6366004613565565b6116e8565b6102876117ba565b61029260095481565b61021f6104da366004613713565b6119a2565b6102876104ed3660046133e2565b6119cf565b6105056105003660046133e2565b611a0c565b60405161022b949392919061373b565b5f61051f82611ac8565b92915050565b60605f805461053390613774565b80601f016020809104026020016040519081016040528092919081815260200182805461055f90613774565b80156105aa5780601f10610581576101008083540402835291602001916105aa565b820191905f5260205f20905b81548152906001019060200180831161058d57829003601f168201915b5050505050905090565b5f6105be82611aec565b505f828152600460205260409020546001600160a01b031661051f565b6105e6828233611b24565b5050565b6001600160a01b03821661061857604051633250574960e11b81525f60048201526024015b60405180910390fd5b5f610624838333611b31565b9050836001600160a01b0316816001600160a01b031614610672576040516364283d7b60e01b81526001600160a01b038086166004830152602482018490528216604482015260640161060f565b50505050565b60605f6005600b805490501061068f576005610693565b600b545b90505f816001600160401b038111156106ae576106ae6134dc565b6040519080825280602002602001820160405280156106d7578160200160208202803683370190505b5090505f826001600160401b038111156106f3576106f36134dc565b60405190808252806020026020018201604052801561071c578160200160208202803683370190505b5090505f5b600b5481101561095f57600a5f600b8381548110610741576107416137ac565b5f9182526020808320909101546001600160a01b0316835282019290925260400190206003015460ff1615610957575f600a5f600b8481548110610787576107876137ac565b5f9182526020808320909101546001600160a01b0316835282019290925260400181206002015491505b85811015610954575f6001600160a01b03168582815181106107d5576107d56137ac565b60200260200101516001600160a01b0316148061080a57508381815181106107ff576107ff6137ac565b602002602001015182115b1561094c575f61081b6001886137d4565b90505b818111156108c757856108326001836137d4565b81518110610842576108426137ac565b602002602001015186828151811061085c5761085c6137ac565b6001600160a01b0390921660209283029190910190910152846108806001836137d4565b81518110610890576108906137ac565b60200260200101518582815181106108aa576108aa6137ac565b6020908102919091010152806108bf816137e7565b91505061081e565b50600b83815481106108db576108db6137ac565b905f5260205f20015f9054906101000a90046001600160a01b0316858281518110610908576109086137ac565b60200260200101906001600160a01b031690816001600160a01b0316815250508184828151811061093b5761093b6137ac565b602002602001018181525050610954565b6001016107b1565b50505b600101610721565b50909392505050565b6040516323b872dd60e01b815233600482015230602482015261c350604482015273637a1259c6afd7e3adf63993ca7e58bb438ab1b1906323b872dd906064016020604051808303815f875af11580156109c4573d5f5f3e3d5ffd5b505050506040513d601f19601f820116820180604052508101906109e891906137fc565b50604051806080016040528083838080601f0160208091040260200160405190810160405280939291908181526020018383808284375f920182905250938552505033602080850182905260408086018590526001606090960195909552908352600a9052502081518190610a5d908261385b565b50602082810151600183810180546001600160a01b03199081166001600160a01b0390941693909317905560408086015160028601556060909501516003909401805460ff191694151594909417909355600b805493840181555f527f0175b7a638427703f0dbe7bb9bbf987a2551717b34e79f33b5b1008d1fa01db990920180543393168317905591519081527f82d0829d9d481e4cb9913897f9b9c903271c4db68c7b3324071d2a7e3b2c5ff091015b60405180910390a15050565b600c6020525f9081526040902080546001820180546001600160a01b039092169291610b4690613774565b80601f0160208091040260200160405190810160405280929190818152602001828054610b7290613774565b8015610bbd5780601f10610b9457610100808354040283529160200191610bbd565b820191905f5260205f20905b815481529060010190602001808311610ba057829003601f168201915b505050506002830154600390930154919260ff1691905084565b610bf183838360405180602001604052805f8152506116c5565b505050565b6105e65f8233611b31565b610c0b338261129b565b15610c585760405162461bcd60e51b815260206004820152601960248201527f5573657220616c72656164792068617320616e206f7264657200000000000000604482015260640161060f565b5f816002811115610c6b57610c6b6133fb565b03610c885760405162461bcd60e51b815260040161060f90613915565b5f6001826002811115610c9d57610c9d6133fb565b14610caa5761c350610caf565b620f42405b6040516323b872dd60e01b81523360048201523060248201526044810182905290915073637a1259c6afd7e3adf63993ca7e58bb438ab1b1906323b872dd906064016020604051808303815f875af1158015610d0d573d5f5f3e3d5ffd5b505050506040513d601f19601f82011682018060405250810190610d3191906137fc565b50335f908152600e6020526040908190208151608081019092529080846002811115610d5f57610d5f6133fb565b815260208082018590525f60408301819052606090920182905283546001818101865594835291208251600390920201805492939092839160ff1990911690836002811115610db057610db06133fb565b0217905550602082015160018201556040808301516002909201805460609094015115156101000261ff00199315159390931661ffff199094169390931791909117909155517f4f46ced13b7c0cf2078b2d56e6e8a3d2c2209b6bee4aa8af5074b44969b541ed90610b0f90339085908590613941565b5f61051f82611aec565b610e3b338261129b565b610e875760405162461bcd60e51b815260206004820152601b60248201527f5573657220646f6573206e6f74206861766520616e206f726465720000000000604482015260640161060f565b5f816002811115610e9a57610e9a6133fb565b03610eb75760405162461bcd60e51b815260040161060f90613915565b5f6001826002811115610ecc57610ecc6133fb565b14610ed95761c350610ede565b620f42405b60405163a9059cbb60e01b815290915073637a1259c6afd7e3adf63993ca7e58bb438ab1b19063a9059cbb90610f1a903390859060040161396c565b6020604051808303815f875af1158015610f36573d5f5f3e3d5ffd5b505050506040513d601f19601f82011682018060405250810190610f5a91906137fc565b505f5b335f908152600e602052604090205481101561102557826002811115610f8557610f856133fb565b335f908152600e60205260409020805483908110610fa557610fa56137ac565b5f91825260209091206003909102015460ff166002811115610fc957610fc96133fb565b0361101d57335f908152600e6020526040902080546001919083908110610ff257610ff26137ac565b905f5260205f20906003020160020160016101000a81548160ff021916908315150217905550611025565b600101610f5d565b507fb1a36e8ed442841c945480947ced4c36c62b869722699f60c950013f05bef0c4338383604051610b0f93929190613941565b5f6001600160a01b038216611083576040516322718ad960e21b81525f600482015260240161060f565b506001600160a01b03165f9081526003602052604090205490565b6110a6611c23565b6110af5f611c50565b565b600e602052815f5260405f2081815481106110ca575f80fd5b5f91825260209091206003909102018054600182015460029092015460ff91821694509192508181169161010090041684565b335f908152600a602052604090206003015460ff166111545760405162461bcd60e51b81526020600482015260136024820152721059d95b9d081a5cc81b9bdd081cdd185ad959606a1b604482015260640161060f565b5f838152600c602052604090206002015460ff16156111b55760405162461bcd60e51b815260206004820152601c60248201527f5265717565737420697320616c72656164792070726f63657373656400000000604482015260640161060f565b5f838152600d60209081526040808320815160808101835233808252871515828601818152838601898152426060808701918252875460018082018a55988c529a8a902096516003909b02909601805493511515600160a01b026001600160a81b03199094166001600160a01b03909b169a909a17929092178955519488019490945592516002909601959095558251948552928401879052908301527f94276b983d5e3494b839b8736d6fe68a0a4b38a8367305c256fb2baf399d9456910160405180910390a15f838152600d6020526040902054600511610bf157610bf183611ca1565b5f808260028111156112af576112af6133fb565b036112cc5760405162461bcd60e51b815260040161060f90613915565b5f5b6001600160a01b0384165f908152600e60205260409020548110156113e3576001600160a01b0384165f908152600e60205260408120805483908110611316576113166137ac565b5f918252602090912060408051608081019091526003909202018054829060ff166002811115611348576113486133fb565b6002811115611359576113596133fb565b81526001820154602082015260029182015460ff80821615156040840152610100909104161515606090910152909150849081111561139a5761139a6133fb565b815160028111156113ad576113ad6133fb565b1480156113bc57506040810151155b80156113ca57506060810151155b156113da5760019250505061051f565b506001016112ce565b505f9392505050565b60606001805461053390613774565b600d602052815f5260405f208181548110611414575f80fd5b5f9182526020909120600390910201805460018201546002909201546001600160a01b0382169450600160a01b90910460ff16925084565b611454611c23565b61145f82600261129b565b6114a35760405162461bcd60e51b8152602060048201526015602482015274139bc81d995c9a599e481bdc99195c88199bdd5b99605a1b604482015260640161060f565b6114ad6002612322565b5060098054905f6114bd83613985565b9091555050604080516080810182526001600160a01b03848116825260208083018581525f8486018190524260608601526009548152600c909252939020825181546001600160a01b031916921691909117815591519091906001820190611525908261385b565b5060408281015160028301805460ff191691151591909117905560609092015160039091015560095490517fb4610031e95bec0846790f85fa67e369f500cabbda9395ea19a5fb5e427d27d891610b0f9185919061396c565b6105e6338383612517565b600b8181548110611598575f80fd5b5f918252602090912001546001600160a01b0316905081565b600854606080826001600160401b038111156115cf576115cf6134dc565b6040519080825280602002602001820160405280156115f8578160200160208202803683370190505b509150826001600160401b03811115611613576116136134dc565b60405190808252806020026020018201604052801561164657816020015b60608152602001906001900390816116315790505b50905060015b8381116116bf5780836116606001836137d4565b81518110611670576116706137ac565b602002602001018181525050611685816116dd565b826116916001846137d4565b815181106116a1576116a16137ac565b602002602001018190525080806116b790613985565b91505061164c565b50909192565b6116d08484846105ea565b61067233858585856125b5565b606061051f826126dd565b6116f0611c23565b6116fb82600161129b565b61173d5760405162461bcd60e51b8152602060048201526013602482015272139bc81b5a5b9d081bdc99195c88199bdd5b99606a1b604482015260640161060f565b60088054905f61174c83613985565b919050555061175b6001612322565b50611768826008546127e8565b61177460085482612849565b6117876001611781610678565b5f612891565b7f30385c845b448a36257a6a1716e6ad2e1bc2cbe333cde1e69fe849ad6511adfe82600854604051610b0f92919061396c565b60405163a9059cbb60e01b815273637a1259c6afd7e3adf63993ca7e58bb438ab1b19063a9059cbb906117f590339061c3509060040161396c565b6020604051808303815f875af1158015611811573d5f5f3e3d5ffd5b505050506040513d601f19601f8201168201806040525081019061183591906137fc565b50335f908152600a602052604081209061184f8282613180565b506001810180546001600160a01b03191690555f600282018190556003909101805460ff191690555b600b5481101561196c57336001600160a01b0316600b828154811061189f5761189f6137ac565b5f918252602090912001546001600160a01b03160361196457600b80546118c8906001906137d4565b815481106118d8576118d86137ac565b5f91825260209091200154600b80546001600160a01b039092169183908110611903576119036137ac565b905f5260205f20015f6101000a8154816001600160a01b0302191690836001600160a01b03160217905550600b80548061193f5761193f61399d565b5f8281526020902081015f1990810180546001600160a01b031916905501905561196c565b600101611878565b506040513381527f3e085cc53b86c19e2e6dba628297af6b8f76c89d1384dbcc599bab2adfd62d089060200160405180910390a1565b6001600160a01b039182165f90815260056020908152604080832093909416825291909152205460ff1690565b6119d7611c23565b6001600160a01b038116611a0057604051631e4fbdf760e01b81525f600482015260240161060f565b611a0981611c50565b50565b600a6020525f9081526040902080548190611a2690613774565b80601f0160208091040260200160405190810160405280929190818152602001828054611a5290613774565b8015611a9d5780601f10611a7457610100808354040283529160200191611a9d565b820191905f5260205f20905b815481529060010190602001808311611a8057829003601f168201915b505050506001830154600284015460039094015492936001600160a01b039091169290915060ff1684565b5f6001600160e01b03198216632483248360e11b148061051f575061051f82612b69565b5f818152600260205260408120546001600160a01b03168061051f57604051637e27328960e01b81526004810184905260240161060f565b610bf18383836001612bb8565b5f828152600260205260408120546001600160a01b0390811690831615611b5d57611b5d818486612cbc565b6001600160a01b03811615611b9757611b785f855f5f612bb8565b6001600160a01b0381165f90815260036020526040902080545f190190555b6001600160a01b03851615611bc5576001600160a01b0385165f908152600360205260409020805460010190555b5f8481526002602052604080822080546001600160a01b0319166001600160a01b0389811691821790925591518793918516917fddf252ad1be2c89b69c2b068fc378daa952ba7f163c4a11628f55a4df523b3ef91a4949350505050565b6006546001600160a01b031633146110af5760405163118cdaa760e01b815233600482015260240161060f565b600680546001600160a01b038381166001600160a01b0319831681179093556040519116919082907f8be0079c531659141344cd1fd0a4f28419497f9722a3daafe3b4186f6b6457e0905f90a35050565b5f818152600c602052604090206002015460ff1615611d025760405162461bcd60e51b815260206004820152601c60248201527f5265717565737420697320616c72656164792070726f63657373656400000000604482015260640161060f565b5f818152600d6020908152604080832080548251818502810185019093528083529192909190849084015b82821015611d91575f848152602090819020604080516080810182526003860290920180546001600160a01b0381168452600160a01b900460ff16151583850152600180820154928401929092526002015460608301529083529092019101611d2d565b5050505090505f5f90505f82516001600160401b03811115611db557611db56134dc565b604051908082528060200260200182016040528015611dde578160200160208202803683370190505b5090505f83516001600160401b03811115611dfb57611dfb6134dc565b604051908082528060200260200182016040528015611e24578160200160208202803683370190505b5090505f84516001600160401b03811115611e4157611e416134dc565b604051908082528060200260200182016040528015611e6a578160200160208202803683370190505b5090505f80805b8751811015611fa757878181518110611e8c57611e8c6137ac565b60200260200101516020015115611f9f5786611ea781613985565b97505f9050805b84811015611f2e57898381518110611ec857611ec86137ac565b602002602001015160400151888281518110611ee657611ee66137ac565b602002602001015103611f2657868181518110611f0557611f056137ac565b602002602001018051809190611f1a90613985565b90525060019150611f2e565b600101611eae565b5080611f9d57888281518110611f4657611f466137ac565b602002602001015160400151878581518110611f6457611f646137ac565b6020026020010181815250506001868581518110611f8457611f846137ac565b602090810291909101015283611f9981613985565b9450505b505b600101611e71565b505f611fb5600260056139b1565b8711905080156121be575f80805b8581101561202d5781888281518110611fde57611fde6137ac565b6020026020010151111561202557878181518110611ffe57611ffe6137ac565b6020026020010151915088818151811061201a5761201a6137ac565b602002602001015192505b600101611fc3565b505f8b8152600c6020526040908190205490517f7c4bd613345b3aec2140d4c4c96782cda06d72b1a593fbb20a72300354f4c33691612079916001600160a01b0390911690859061396c565b60405180910390a15f5b8a518110156121b6578a818151811061209e5761209e6137ac565b60200260200101516020015115806120d35750828b82815181106120c4576120c46137ac565b60200260200101516040015114155b15612102576120fd8b82815181106120ed576120ed6137ac565b60200260200101515f0151612d12565b6121ae565b600a5f8c8381518110612117576121176137ac565b60200260200101515f01516001600160a01b03166001600160a01b031681526020019081526020015f206002015f81548092919061215490613985565b91905055508a818151811061216b5761216b6137ac565b60200260200101515f0151878681518110612188576121886137ac565b6001600160a01b0390921660209283029190910190910152846121aa81613985565b9550505b600101612083565b5050506122bc565b5f5b88518110156122ba578881815181106121db576121db6137ac565b60200260200101516020015115612206576122018982815181106120ed576120ed6137ac565b6122b2565b600a5f8a838151811061221b5761221b6137ac565b60200260200101515f01516001600160a01b03166001600160a01b031681526020019081526020015f206002015f81548092919061225890613985565b919050555088818151811061226f5761226f6137ac565b60200260200101515f015185848151811061228c5761228c6137ac565b6001600160a01b0390921660209283029190910190910152826122ae81613985565b9350505b6001016121c0565b505b5f898152600c602052604081206002908101805460ff191660011790556122e4918690612891565b6040518981527fd59c8e4a596666e603cf3e00e02f96d6d1fde87d71e10f4709e317d206b503dc9060200160405180910390a1505050505050505050565b5f805b335f908152600e602052604090205481101561250f57335f908152600e6020526040812080548390811061235b5761235b6137ac565b5f918252602090912060408051608081019091526003909202018054829060ff16600281111561238d5761238d6133fb565b600281111561239e5761239e6133fb565b81526001820154602082015260029182015460ff8082161515604084015261010090910416151560609091015290915084908111156123df576123df6133fb565b815160028111156123f2576123f26133fb565b14801561240157506040810151155b801561240f57506060810151155b1561250657335f908152600e6020526040902080546001919084908110612438576124386137ac565b5f9182526020909120600390910201600201805460ff191691151591909117905560065473637a1259c6afd7e3adf63993ca7e58bb438ab1b19063a9059cbb906001600160a01b03166064600a856020015161249491906139d0565b61249e91906139b1565b6040518363ffffffff1660e01b81526004016124bb92919061396c565b6020604051808303815f875af11580156124d7573d5f5f3e3d5ffd5b505050506040513d601f19601f820116820180604052508101906124fb91906137fc565b506001949350505050565b50600101612325565b505f92915050565b6001600160a01b03821661254957604051630b61174360e31b81526001600160a01b038316600482015260240161060f565b6001600160a01b038381165f81815260056020908152604080832094871680845294825291829020805460ff191686151590811790915591519182527f17307eab39ab6107e8899845ad3d59bd9653f200f220920489ca2b5937696c31910160405180910390a3505050565b6001600160a01b0383163b156126d657604051630a85bd0160e11b81526001600160a01b0384169063150b7a02906125f79088908890879087906004016139e7565b6020604051808303815f875af1925050508015612631575060408051601f3d908101601f1916820190925261262e91810190613a23565b60015b612698573d80801561265e576040519150601f19603f3d011682016040523d82523d5f602084013e612663565b606091505b5080515f0361269057604051633250574960e11b81526001600160a01b038516600482015260240161060f565b805160208201fd5b6001600160e01b03198116630a85bd0160e11b146126d457604051633250574960e11b81526001600160a01b038516600482015260240161060f565b505b5050505050565b60606126e882611aec565b505f828152600760205260408120805461270190613774565b80601f016020809104026020016040519081016040528092919081815260200182805461272d90613774565b80156127785780601f1061274f57610100808354040283529160200191612778565b820191905f5260205f20905b81548152906001019060200180831161275b57829003601f168201915b505050505090505f61279460408051602081019091525f815290565b905080515f036127a5575092915050565b8151156127d75780826040516020016127bf929190613a55565b60405160208183030381529060405292505050919050565b6127e084612f48565b949350505050565b6001600160a01b03821661281157604051633250574960e11b81525f600482015260240161060f565b5f61281d83835f611b31565b90506001600160a01b03811615610bf1576040516339e3563760e11b81525f600482015260240161060f565b5f828152600760205260409020612860828261385b565b506040518281527ff8e1a15aba9398e019f0b49df1a4fde98ee17ae345cb5f6b5e2c27f5033e8ce790602001610b0f565b5f81156128a1575061c3506128ca565b60018460028111156128b5576128b56133fb565b146128c25761c3506128c7565b620f42405b90505b5f60646128d8600a826137d4565b6128e290846139d0565b6128ec91906139b1565b90505f805b855181101561295357600a5f87838151811061290f5761290f6137ac565b6020908102919091018101516001600160a01b031682528101919091526040015f206003015460ff161561294b578161294781613985565b9250505b6001016128f1565b50805f03612a265773637a1259c6afd7e3adf63993ca7e58bb438ab1b163a9059cbb6129876006546001600160a01b031690565b846040518363ffffffff1660e01b81526004016129a592919061396c565b6020604051808303815f875af11580156129c1573d5f5f3e3d5ffd5b505050506040513d601f19601f820116820180604052508101906129e591906137fc565b50604080518381525f60208201527fe8ef3e979b5461d2250b3d4490fd4a99865b49c68dc449c038258aeccbebaccd910160405180910390a1505050505050565b5f612a3182846139b1565b90505f5b8651811015612b2657600a5f888381518110612a5357612a536137ac565b6020908102919091018101516001600160a01b031682528101919091526040015f206003015460ff1615612b1e5773637a1259c6afd7e3adf63993ca7e58bb438ab1b16001600160a01b031663a9059cbb888381518110612ab657612ab66137ac565b6020026020010151846040518363ffffffff1660e01b8152600401612adc92919061396c565b6020604051808303815f875af1158015612af8573d5f5f3e3d5ffd5b505050506040513d601f19601f82011682018060405250810190612b1c91906137fc565b505b600101612a35565b5060408051848152602081018390527fe8ef3e979b5461d2250b3d4490fd4a99865b49c68dc449c038258aeccbebaccd910160405180910390a150505050505050565b5f6001600160e01b031982166380ac58cd60e01b1480612b9957506001600160e01b03198216635b5e139f60e01b145b8061051f57506301ffc9a760e01b6001600160e01b031983161461051f565b8080612bcc57506001600160a01b03821615155b15612c8d575f612bdb84611aec565b90506001600160a01b03831615801590612c075750826001600160a01b0316816001600160a01b031614155b8015612c1a5750612c1881846119a2565b155b15612c435760405163a9fbf51f60e01b81526001600160a01b038416600482015260240161060f565b8115612c8b5783856001600160a01b0316826001600160a01b03167f8c5be1e5ebec7d5bd14f71427d1e84f3dd0314c0f7b2291e5b200ac8c7c3b92560405160405180910390a45b505b50505f90815260046020526040902080546001600160a01b0319166001600160a01b0392909216919091179055565b612cc7838383612fb9565b610bf1576001600160a01b038316612cf557604051637e27328960e01b81526004810182905260240161060f565b818160405163177e802f60e01b815260040161060f92919061396c565b73637a1259c6afd7e3adf63993ca7e58bb438ab1b163a9059cbb612d3e6006546001600160a01b031690565b6064612d4d600a61c3506139d0565b612d5791906139b1565b6040518363ffffffff1660e01b8152600401612d7492919061396c565b6020604051808303815f875af1158015612d90573d5f5f3e3d5ffd5b505050506040513d601f19601f82011682018060405250810190612db491906137fc565b50612dc96002612dc2610678565b6001612891565b6001600160a01b0381165f908152600a6020526040812090612deb8282613180565b506001810180546001600160a01b03191690555f600282018190556003909101805460ff191690555b600b54811015612f0857816001600160a01b0316600b8281548110612e3b57612e3b6137ac565b5f918252602090912001546001600160a01b031603612f0057600b8054612e64906001906137d4565b81548110612e7457612e746137ac565b5f91825260209091200154600b80546001600160a01b039092169183908110612e9f57612e9f6137ac565b905f5260205f20015f6101000a8154816001600160a01b0302191690836001600160a01b03160217905550600b805480612edb57612edb61399d565b5f8281526020902081015f1990810180546001600160a01b0319169055019055612f08565b600101612e14565b506040516001600160a01b03821681527f975ad74f3e1160b20a620ec57c636ffa56c6b6679a0e2fb5689b4f95e65a69469060200160405180910390a150565b6060612f5382611aec565b505f612f6960408051602081019091525f815290565b90505f815111612f875760405180602001604052805f815250612fb2565b80612f918461301a565b604051602001612fa2929190613a55565b6040516020818303038152906040525b9392505050565b5f6001600160a01b038316158015906127e05750826001600160a01b0316846001600160a01b03161480612ff25750612ff284846119a2565b806127e05750505f908152600460205260409020546001600160a01b03908116911614919050565b60605f613026836130a9565b60010190505f816001600160401b03811115613044576130446134dc565b6040519080825280601f01601f19166020018201604052801561306e576020820181803683370190505b5090508181016020015b5f19016f181899199a1a9b1b9c1cb0b131b232b360811b600a86061a8153600a850494508461307857509392505050565b5f8072184f03e93ff9f4daa797ed6e38ed64bf6a1f0160401b83106130e75772184f03e93ff9f4daa797ed6e38ed64bf6a1f0160401b830492506040015b6d04ee2d6d415b85acef81000000008310613113576d04ee2d6d415b85acef8100000000830492506020015b662386f26fc10000831061313157662386f26fc10000830492506010015b6305f5e1008310613149576305f5e100830492506008015b612710831061315d57612710830492506004015b6064831061316f576064830492506002015b600a831061051f5760010192915050565b50805461318c90613774565b5f825580601f1061319b575050565b601f0160209004905f5260205f2090810190611a0991905b808211156131c6575f81556001016131b3565b5090565b6001600160e01b031981168114611a09575f5ffd5b5f602082840312156131ef575f5ffd5b8135612fb2816131ca565b5f81518084528060208401602086015e5f602082860101526020601f19601f83011685010191505092915050565b602081525f612fb260208301846131fa565b5f6020828403121561324a575f5ffd5b5035919050565b80356001600160a01b0381168114613267575f5ffd5b919050565b5f5f6040838503121561327d575f5ffd5b61328683613251565b946020939093013593505050565b5f5f5f606084860312156132a6575f5ffd5b6132af84613251565b92506132bd60208501613251565b929592945050506040919091013590565b602080825282518282018190525f918401906040840190835b8181101561330e5783516001600160a01b03168352602093840193909201916001016132e7565b509095945050505050565b5f5f6020838503121561332a575f5ffd5b82356001600160401b0381111561333f575f5ffd5b8301601f8101851361334f575f5ffd5b80356001600160401b03811115613364575f5ffd5b856020828401011115613375575f5ffd5b6020919091019590945092505050565b6001600160a01b03851681526080602082018190525f906133a8908301866131fa565b9315156040830152506060015292915050565b803560038110613267575f5ffd5b5f602082840312156133d9575f5ffd5b612fb2826133bb565b5f602082840312156133f2575f5ffd5b612fb282613251565b634e487b7160e01b5f52602160045260245ffd5b6003811061342b57634e487b7160e01b5f52602160045260245ffd5b9052565b6080810161343d828761340f565b602082019490945291151560408301521515606090910152919050565b8015158114611a09575f5ffd5b5f5f5f60608486031215613479575f5ffd5b8335925060208401356132bd8161345a565b5f5f6040838503121561349c575f5ffd5b6134a583613251565b91506134b3602084016133bb565b90509250929050565b5f5f604083850312156134cd575f5ffd5b50508035926020909101359150565b634e487b7160e01b5f52604160045260245ffd5b5f5f6001600160401b03841115613509576135096134dc565b50604051601f19601f85018116603f011681018181106001600160401b0382111715613537576135376134dc565b60405283815290508082840185101561354e575f5ffd5b838360208301375f60208583010152509392505050565b5f5f60408385031215613576575f5ffd5b61357f83613251565b915060208301356001600160401b03811115613599575f5ffd5b8301601f810185136135a9575f5ffd5b6135b8858235602084016134f0565b9150509250929050565b5f5f604083850312156135d3575f5ffd5b6135dc83613251565b915060208301356135ec8161345a565b809150509250929050565b5f60608201858352606060208401528085518083526080850191506020870192505f5b8181101561363857835183526020938401939092019160010161361a565b50508381036040850152845180825260208083019350600582901b830181019087015f5b8381101561368e57601f198584030186526136788383516131fa565b602096870196909350919091019060010161365c565b50909998505050505050505050565b5f5f5f5f608085870312156136b0575f5ffd5b6136b985613251565b93506136c760208601613251565b92506040850135915060608501356001600160401b038111156136e8575f5ffd5b8501601f810187136136f8575f5ffd5b613707878235602084016134f0565b91505092959194509250565b5f5f60408385031215613724575f5ffd5b61372d83613251565b91506134b360208401613251565b608081525f61374d60808301876131fa565b6001600160a01b039590951660208301525060408101929092521515606090910152919050565b600181811c9082168061378857607f821691505b6020821081036137a657634e487b7160e01b5f52602260045260245ffd5b50919050565b634e487b7160e01b5f52603260045260245ffd5b634e487b7160e01b5f52601160045260245ffd5b8181038181111561051f5761051f6137c0565b5f816137f5576137f56137c0565b505f190190565b5f6020828403121561380c575f5ffd5b8151612fb28161345a565b601f821115610bf157805f5260205f20601f840160051c8101602085101561383c5750805b601f840160051c820191505b818110156126d6575f8155600101613848565b81516001600160401b03811115613874576138746134dc565b613888816138828454613774565b84613817565b6020601f8211600181146138ba575f83156138a35750848201515b5f19600385901b1c1916600184901b1784556126d6565b5f84815260208120601f198516915b828110156138e957878501518255602094850194600190920191016138c9565b508482101561390657868401515f19600387901b60f8161c191681555b50505050600190811b01905550565b602080825260129082015271496e76616c6964206f72646572207479706560701b604082015260600190565b6001600160a01b03841681526060810161395e602083018561340f565b826040830152949350505050565b6001600160a01b03929092168252602082015260400190565b5f60018201613996576139966137c0565b5060010190565b634e487b7160e01b5f52603160045260245ffd5b5f826139cb57634e487b7160e01b5f52601260045260245ffd5b500490565b808202811582820484141761051f5761051f6137c0565b6001600160a01b03858116825284166020820152604081018390526080606082018190525f90613a19908301846131fa565b9695505050505050565b5f60208284031215613a33575f5ffd5b8151612fb2816131ca565b5f81518060208401855e5f93019283525090919050565b5f6127e0613a638386613a3e565b84613a3e56fea26469706673582212205c7fd706f2c86c5a4252d6fac5e8558df16ae38522d88da0aee3eff6c138f6d764736f6c634300081c0033",
  "linkReferences": {},
  "deployedLinkReferences": {},
  "immutableReferences": {},
  "inputSourceName": "project/contracts/Realia.sol",
  "buildInfoId": "solc-0_8_28-41d49fd22d42d2259b91b58f1983324cbe2e4eb4"
}