{
  "_format": "hh3-artifact-1",
  "contractName": "Realia",
  "sourceName": "contracts/Realia.sol",
  "abi": [
    {
      "inputs": [],
      "stateMutability": "nonpayable",
      "type": "constructor"
    },
    {
      "inputs": [
        {
          "internalType": "address",
          "name": "sender",
          "type": "address"
        },
        {
          "internalType": "uint256",
          "name": "tokenId",
          "type": "uint256"
        },
        {
          "internalType": "address",
          "name": "owner",
          "type": "address"
        }
      ],
      "name": "ERC721IncorrectOwner",
      "type": "error"
    },
    {
      "inputs": [
        {
          "internalType": "address",
          "name": "operator",
          "type": "address"
        },
        {
          "internalType": "uint256",
          "name": "tokenId",
          "type": "uint256"
        }
      ],
      "name": "ERC721InsufficientApproval",
      "type": "error"
    },
    {
      "inputs": [
        {
          "internalType": "address",
          "name": "approver",
          "type": "address"
        }
      ],
      "name": "ERC721InvalidApprover",
      "type": "error"
    },
    {
      "inputs": [
        {
          "internalType": "address",
          "name": "operator",
          "type": "address"
        }
      ],
      "name": "ERC721InvalidOperator",
      "type": "error"
    },
    {
      "inputs": [
        {
          "internalType": "address",
          "name": "owner",
          "type": "address"
        }
      ],
      "name": "ERC721InvalidOwner",
      "type": "error"
    },
    {
      "inputs": [
        {
          "internalType": "address",
          "name": "receiver",
          "type": "address"
        }
      ],
      "name": "ERC721InvalidReceiver",
      "type": "error"
    },
    {
      "inputs": [
        {
          "internalType": "address",
          "name": "sender",
          "type": "address"
        }
      ],
      "name": "ERC721InvalidSender",
      "type": "error"
    },
    {
      "inputs": [
        {
          "internalType": "uint256",
          "name": "tokenId",
          "type": "uint256"
        }
      ],
      "name": "ERC721NonexistentToken",
      "type": "error"
    },
    {
      "inputs": [
        {
          "internalType": "address",
          "name": "owner",
          "type": "address"
        }
      ],
      "name": "OwnableInvalidOwner",
      "type": "error"
    },
    {
      "inputs": [
        {
          "internalType": "address",
          "name": "account",
          "type": "address"
        }
      ],
      "name": "OwnableUnauthorizedAccount",
      "type": "error"
    },
    {
      "anonymous": false,
      "inputs": [
        {
          "indexed": false,
          "internalType": "address",
          "name": "agent",
          "type": "address"
        }
      ],
      "name": "AgentRegistered",
      "type": "event"
    },
    {
      "anonymous": false,
      "inputs": [
        {
          "indexed": false,
          "internalType": "address",
          "name": "agent",
          "type": "address"
        }
      ],
      "name": "AgentUnregistered",
      "type": "event"
    },
    {
      "anonymous": false,
      "inputs": [
        {
          "indexed": false,
          "internalType": "uint256",
          "name": "amount",
          "type": "uint256"
        },
        {
          "indexed": false,
          "internalType": "uint256",
          "name": "amountPerAgent",
          "type": "uint256"
        }
      ],
      "name": "AgentsPaid",
      "type": "event"
    },
    {
      "anonymous": false,
      "inputs": [
        {
          "indexed": true,
          "internalType": "address",
          "name": "owner",
          "type": "address"
        },
        {
          "indexed": true,
          "internalType": "address",
          "name": "approved",
          "type": "address"
        },
        {
          "indexed": true,
          "internalType": "uint256",
          "name": "tokenId",
          "type": "uint256"
        }
      ],
      "name": "Approval",
      "type": "event"
    },
    {
      "anonymous": false,
      "inputs": [
        {
          "indexed": true,
          "internalType": "address",
          "name": "owner",
          "type": "address"
        },
        {
          "indexed": true,
          "internalType": "address",
          "name": "operator",
          "type": "address"
        },
        {
          "indexed": false,
          "internalType": "bool",
          "name": "approved",
          "type": "bool"
        }
      ],
      "name": "ApprovalForAll",
      "type": "event"
    },
    {
      "anonymous": false,
      "inputs": [
        {
          "indexed": false,
          "internalType": "uint256",
          "name": "_fromTokenId",
          "type": "uint256"
        },
        {
          "indexed": false,
          "internalType": "uint256",
          "name": "_toTokenId",
          "type": "uint256"
        }
      ],
      "name": "BatchMetadataUpdate",
      "type": "event"
    },
    {
      "anonymous": false,
      "inputs": [
        {
          "indexed": false,
          "internalType": "uint256",
          "name": "_tokenId",
          "type": "uint256"
        }
      ],
      "name": "MetadataUpdate",
      "type": "event"
    },
    {
      "anonymous": false,
      "inputs": [
        {
          "indexed": false,
          "internalType": "address",
          "name": "to",
          "type": "address"
        },
        {
          "indexed": false,
          "internalType": "uint256",
          "name": "tokenId",
          "type": "uint256"
        }
      ],
      "name": "Minted",
      "type": "event"
    },
    {
      "anonymous": false,
      "inputs": [
        {
          "indexed": false,
          "internalType": "address",
          "name": "to",
          "type": "address"
        },
        {
          "indexed": false,
          "internalType": "enum Realia.OrderType",
          "name": "orderType",
          "type": "uint8"
        },
        {
          "indexed": false,
          "internalType": "uint256",
          "name": "amount",
          "type": "uint256"
        }
      ],
      "name": "OrderCancelled",
      "type": "event"
    },
    {
      "anonymous": false,
      "inputs": [
        {
          "indexed": false,
          "internalType": "address",
          "name": "to",
          "type": "address"
        },
        {
          "indexed": false,
          "internalType": "enum Realia.OrderType",
          "name": "orderType",
          "type": "uint8"
        },
        {
          "indexed": false,
          "internalType": "uint256",
          "name": "amount",
          "type": "uint256"
        }
      ],
      "name": "OrderCreated",
      "type": "event"
    },
    {
      "anonymous": false,
      "inputs": [
        {
          "indexed": true,
          "internalType": "address",
          "name": "previousOwner",
          "type": "address"
        },
        {
          "indexed": true,
          "internalType": "address",
          "name": "newOwner",
          "type": "address"
        }
      ],
      "name": "OwnershipTransferred",
      "type": "event"
    },
    {
      "anonymous": false,
      "inputs": [
        {
          "indexed": false,
          "internalType": "uint256",
          "name": "requestId",
          "type": "uint256"
        }
      ],
      "name": "ProcessedVerification",
      "type": "event"
    },
    {
      "anonymous": false,
      "inputs": [
        {
          "indexed": false,
          "internalType": "address",
          "name": "agent",
          "type": "address"
        }
      ],
      "name": "Slashed",
      "type": "event"
    },
    {
      "anonymous": false,
      "inputs": [
        {
          "indexed": true,
          "internalType": "address",
          "name": "from",
          "type": "address"
        },
        {
          "indexed": true,
          "internalType": "address",
          "name": "to",
          "type": "address"
        },
        {
          "indexed": true,
          "internalType": "uint256",
          "name": "tokenId",
          "type": "uint256"
        }
      ],
      "name": "Transfer",
      "type": "event"
    },
    {
      "anonymous": false,
      "inputs": [
        {
          "indexed": false,
          "internalType": "address",
          "name": "user",
          "type": "address"
        },
        {
          "indexed": false,
          "internalType": "uint256",
          "name": "requestId",
          "type": "uint256"
        }
      ],
      "name": "VerificationRequested",
      "type": "event"
    },
    {
      "anonymous": false,
      "inputs": [
        {
          "indexed": false,
          "internalType": "address",
          "name": "agent",
          "type": "address"
        },
        {
          "indexed": false,
          "internalType": "uint256",
          "name": "requestId",
          "type": "uint256"
        },
        {
          "indexed": false,
          "internalType": "bool",
          "name": "verified",
          "type": "bool"
        }
      ],
      "name": "VerificationResponseByAgent",
      "type": "event"
    },
    {
      "anonymous": false,
      "inputs": [
        {
          "indexed": false,
          "internalType": "address",
          "name": "to",
          "type": "address"
        },
        {
          "indexed": false,
          "internalType": "uint256",
          "name": "tokenId",
          "type": "uint256"
        }
      ],
      "name": "Verified",
      "type": "event"
    },
    {
      "inputs": [],
      "name": "PYUSD",
      "outputs": [
        {
          "internalType": "contract IERC20",
          "name": "",
          "type": "address"
        }
      ],
      "stateMutability": "view",
      "type": "function"
    },
    {
      "inputs": [
        {
          "internalType": "uint256",
          "name": "",
          "type": "uint256"
        }
      ],
      "name": "agentAddresses",
      "outputs": [
        {
          "internalType": "address",
          "name": "",
          "type": "address"
        }
      ],
      "stateMutability": "view",
      "type": "function"
    },
    {
      "inputs": [
        {
          "internalType": "address",
          "name": "",
          "type": "address"
        }
      ],
      "name": "agents",
      "outputs": [
        {
          "internalType": "string",
          "name": "agentAddress",
          "type": "string"
        },
        {
          "internalType": "address",
          "name": "evmAddress",
          "type": "address"
        },
        {
          "internalType": "uint256",
          "name": "verifiedCount",
          "type": "uint256"
        },
        {
          "internalType": "bool",
          "name": "isStaked",
          "type": "bool"
        }
      ],
      "stateMutability": "view",
      "type": "function"
    },
    {
      "inputs": [
        {
          "internalType": "address",
          "name": "to",
          "type": "address"
        },
        {
          "internalType": "uint256",
          "name": "tokenId",
          "type": "uint256"
        }
      ],
      "name": "approve",
      "outputs": [],
      "stateMutability": "nonpayable",
      "type": "function"
    },
    {
      "inputs": [
        {
          "internalType": "address",
          "name": "owner",
          "type": "address"
        }
      ],
      "name": "balanceOf",
      "outputs": [
        {
          "internalType": "uint256",
          "name": "",
          "type": "uint256"
        }
      ],
      "stateMutability": "view",
      "type": "function"
    },
    {
      "inputs": [
        {
          "internalType": "uint256",
          "name": "tokenId",
          "type": "uint256"
        }
      ],
      "name": "burn",
      "outputs": [],
      "stateMutability": "nonpayable",
      "type": "function"
    },
    {
      "inputs": [
        {
          "internalType": "enum Realia.OrderType",
          "name": "orderType",
          "type": "uint8"
        }
      ],
      "name": "cancelOrder",
      "outputs": [],
      "stateMutability": "nonpayable",
      "type": "function"
    },
    {
      "inputs": [
        {
          "internalType": "enum Realia.OrderType",
          "name": "orderType",
          "type": "uint8"
        }
      ],
      "name": "createOrder",
      "outputs": [],
      "stateMutability": "nonpayable",
      "type": "function"
    },
    {
      "inputs": [
        {
          "internalType": "uint256",
          "name": "tokenId",
          "type": "uint256"
        }
      ],
      "name": "getApproved",
      "outputs": [
        {
          "internalType": "address",
          "name": "",
          "type": "address"
        }
      ],
      "stateMutability": "view",
      "type": "function"
    },
    {
      "inputs": [],
      "name": "getTopFiveAgents",
      "outputs": [
        {
          "internalType": "address[]",
          "name": "",
          "type": "address[]"
        }
      ],
      "stateMutability": "view",
      "type": "function"
    },
    {
      "inputs": [
        {
          "internalType": "address",
          "name": "user",
          "type": "address"
        },
        {
          "internalType": "enum Realia.OrderType",
          "name": "orderType",
          "type": "uint8"
        }
      ],
      "name": "hasOrder",
      "outputs": [
        {
          "internalType": "bool",
          "name": "",
          "type": "bool"
        }
      ],
      "stateMutability": "view",
      "type": "function"
    },
    {
      "inputs": [
        {
          "internalType": "address",
          "name": "owner",
          "type": "address"
        },
        {
          "internalType": "address",
          "name": "operator",
          "type": "address"
        }
      ],
      "name": "isApprovedForAll",
      "outputs": [
        {
          "internalType": "bool",
          "name": "",
          "type": "bool"
        }
      ],
      "stateMutability": "view",
      "type": "function"
    },
    {
      "inputs": [
        {
          "internalType": "address",
          "name": "to",
          "type": "address"
        },
        {
          "internalType": "string",
          "name": "uri",
          "type": "string"
        }
      ],
      "name": "mint",
      "outputs": [],
      "stateMutability": "nonpayable",
      "type": "function"
    },
    {
      "inputs": [],
      "name": "name",
      "outputs": [
        {
          "internalType": "string",
          "name": "",
          "type": "string"
        }
      ],
      "stateMutability": "view",
      "type": "function"
    },
    {
      "inputs": [
        {
          "internalType": "address",
          "name": "",
          "type": "address"
        },
        {
          "internalType": "uint256",
          "name": "",
          "type": "uint256"
        }
      ],
      "name": "orders",
      "outputs": [
        {
          "internalType": "enum Realia.OrderType",
          "name": "orderType",
          "type": "uint8"
        },
        {
          "internalType": "uint256",
          "name": "amount",
          "type": "uint256"
        },
        {
          "internalType": "bool",
          "name": "used",
          "type": "bool"
        },
        {
          "internalType": "bool",
          "name": "cancelled",
          "type": "bool"
        }
      ],
      "stateMutability": "view",
      "type": "function"
    },
    {
      "inputs": [],
      "name": "owner",
      "outputs": [
        {
          "internalType": "address",
          "name": "",
          "type": "address"
        }
      ],
      "stateMutability": "view",
      "type": "function"
    },
    {
      "inputs": [
        {
          "internalType": "uint256",
          "name": "tokenId",
          "type": "uint256"
        }
      ],
      "name": "ownerOf",
      "outputs": [
        {
          "internalType": "address",
          "name": "",
          "type": "address"
        }
      ],
      "stateMutability": "view",
      "type": "function"
    },
    {
      "inputs": [
        {
          "internalType": "string",
          "name": "agentAddress",
          "type": "string"
        }
      ],
      "name": "registerAgent",
      "outputs": [],
      "stateMutability": "nonpayable",
      "type": "function"
    },
    {
      "inputs": [],
      "name": "renounceOwnership",
      "outputs": [],
      "stateMutability": "nonpayable",
      "type": "function"
    },
    {
      "inputs": [
        {
          "internalType": "address",
          "name": "user",
          "type": "address"
        },
        {
          "internalType": "string",
          "name": "uri",
          "type": "string"
        }
      ],
      "name": "requestVerification",
      "outputs": [],
      "stateMutability": "nonpayable",
      "type": "function"
    },
    {
      "inputs": [
        {
          "internalType": "uint256",
          "name": "requestId",
          "type": "uint256"
        },
        {
          "internalType": "bool",
          "name": "verified",
          "type": "bool"
        },
        {
          "internalType": "uint256",
          "name": "propertyTokenId",
          "type": "uint256"
        }
      ],
      "name": "responseVerification",
      "outputs": [],
      "stateMutability": "nonpayable",
      "type": "function"
    },
    {
      "inputs": [
        {
          "internalType": "address",
          "name": "from",
          "type": "address"
        },
        {
          "internalType": "address",
          "name": "to",
          "type": "address"
        },
        {
          "internalType": "uint256",
          "name": "tokenId",
          "type": "uint256"
        }
      ],
      "name": "safeTransferFrom",
      "outputs": [],
      "stateMutability": "nonpayable",
      "type": "function"
    },
    {
      "inputs": [
        {
          "internalType": "address",
          "name": "from",
          "type": "address"
        },
        {
          "internalType": "address",
          "name": "to",
          "type": "address"
        },
        {
          "internalType": "uint256",
          "name": "tokenId",
          "type": "uint256"
        },
        {
          "internalType": "bytes",
          "name": "data",
          "type": "bytes"
        }
      ],
      "name": "safeTransferFrom",
      "outputs": [],
      "stateMutability": "nonpayable",
      "type": "function"
    },
    {
      "inputs": [
        {
          "internalType": "address",
          "name": "operator",
          "type": "address"
        },
        {
          "internalType": "bool",
          "name": "approved",
          "type": "bool"
        }
      ],
      "name": "setApprovalForAll",
      "outputs": [],
      "stateMutability": "nonpayable",
      "type": "function"
    },
    {
      "inputs": [
        {
          "internalType": "bytes4",
          "name": "interfaceId",
          "type": "bytes4"
        }
      ],
      "name": "supportsInterface",
      "outputs": [
        {
          "internalType": "bool",
          "name": "",
          "type": "bool"
        }
      ],
      "stateMutability": "view",
      "type": "function"
    },
    {
      "inputs": [],
      "name": "symbol",
      "outputs": [
        {
          "internalType": "string",
          "name": "",
          "type": "string"
        }
      ],
      "stateMutability": "view",
      "type": "function"
    },
    {
      "inputs": [],
      "name": "tokenId",
      "outputs": [
        {
          "internalType": "uint256",
          "name": "",
          "type": "uint256"
        }
      ],
      "stateMutability": "view",
      "type": "function"
    },
    {
      "inputs": [
        {
          "internalType": "uint256",
          "name": "_tokenId",
          "type": "uint256"
        }
      ],
      "name": "tokenURI",
      "outputs": [
        {
          "internalType": "string",
          "name": "",
          "type": "string"
        }
      ],
      "stateMutability": "view",
      "type": "function"
    },
    {
      "inputs": [
        {
          "internalType": "address",
          "name": "from",
          "type": "address"
        },
        {
          "internalType": "address",
          "name": "to",
          "type": "address"
        },
        {
          "internalType": "uint256",
          "name": "tokenId",
          "type": "uint256"
        }
      ],
      "name": "transferFrom",
      "outputs": [],
      "stateMutability": "nonpayable",
      "type": "function"
    },
    {
      "inputs": [
        {
          "internalType": "address",
          "name": "newOwner",
          "type": "address"
        }
      ],
      "name": "transferOwnership",
      "outputs": [],
      "stateMutability": "nonpayable",
      "type": "function"
    },
    {
      "inputs": [],
      "name": "unregisterAgent",
      "outputs": [],
      "stateMutability": "nonpayable",
      "type": "function"
    },
    {
      "inputs": [],
      "name": "verificationId",
      "outputs": [
        {
          "internalType": "uint256",
          "name": "",
          "type": "uint256"
        }
      ],
      "stateMutability": "view",
      "type": "function"
    },
    {
      "inputs": [
        {
          "internalType": "uint256",
          "name": "",
          "type": "uint256"
        }
      ],
      "name": "verificationRequests",
      "outputs": [
        {
          "internalType": "address",
          "name": "user",
          "type": "address"
        },
        {
          "internalType": "string",
          "name": "uri",
          "type": "string"
        },
        {
          "internalType": "bool",
          "name": "processed",
          "type": "bool"
        },
        {
          "internalType": "uint256",
          "name": "requestTime",
          "type": "uint256"
        }
      ],
      "stateMutability": "view",
      "type": "function"
    },
    {
      "inputs": [
        {
          "internalType": "uint256",
          "name": "",
          "type": "uint256"
        },
        {
          "internalType": "uint256",
          "name": "",
          "type": "uint256"
        }
      ],
      "name": "verificationResponses",
      "outputs": [
        {
          "internalType": "address",
          "name": "agent",
          "type": "address"
        },
        {
          "internalType": "bool",
          "name": "verified",
          "type": "bool"
        },
        {
          "internalType": "uint256",
          "name": "tokenId",
          "type": "uint256"
        },
        {
          "internalType": "uint256",
          "name": "responseTime",
          "type": "uint256"
        }
      ],
      "stateMutability": "view",
      "type": "function"
    }
  ],
  "bytecode": "0x60806040525f6008555f600955348015610017575f5ffd5b5033604051806040016040528060068152602001655265616c696160d01b815250604051806040016040528060068152602001655245414c494160d01b815250815f9081610065919061019a565b506001610072828261019a565b5050506001600160a01b0381166100a257604051631e4fbdf760e01b81525f600482015260240160405180910390fd5b6100ab816100b1565b50610254565b600680546001600160a01b038381166001600160a01b0319831681179093556040519116919082907f8be0079c531659141344cd1fd0a4f28419497f9722a3daafe3b4186f6b6457e0905f90a35050565b634e487b7160e01b5f52604160045260245ffd5b600181811c9082168061012a57607f821691505b60208210810361014857634e487b7160e01b5f52602260045260245ffd5b50919050565b601f82111561019557805f5260205f20601f840160051c810160208510156101735750805b601f840160051c820191505b81811015610192575f815560010161017f565b50505b505050565b81516001600160401b038111156101b3576101b3610102565b6101c7816101c18454610116565b8461014e565b6020601f8211600181146101f9575f83156101e25750848201515b5f19600385901b1c1916600184901b178455610192565b5f84815260208120601f198516915b828110156102285787850151825560209485019460019092019101610208565b508482101561024557868401515f19600387901b60f8161c191681555b50505050600190811b01905550565b613774806102615f395ff3fe608060405234801561000f575f5ffd5b50600436106101fd575f3560e01c806382c3280211610114578063a7676a63116100a9578063e31f1a7c11610079578063e31f1a7c14610499578063e8841c25146104a1578063e985e9c5146104aa578063f2fde38b146104bd578063fd66091e146104d0575f5ffd5b8063a7676a631461044d578063b88d4fde14610460578063c87b56dd14610473578063d0def52114610486575f5ffd5b806396e45457116100e457806396e45457146103cf5780639e19789d1461040c578063a179d1c214610427578063a22cb4651461043a575f5ffd5b806382c32802146103905780638828bd42146103a35780638da5cb5b146103b657806395d89b41146103c7575f5ffd5b80634089d49f116101955780636352211e116101655780636352211e1461032c57806367ba8e2d1461033f57806370a0823114610352578063715018a614610365578063793b8c6d1461036d575f5ffd5b80634089d49f146102d057806342842e0e146102f357806342966c681461030657806350e01a5814610319575f5ffd5b806317d70f7c116101d057806317d70f7c1461027e57806323b872dd1461029557806327cabf88146102a85780632d2a9585146102bd575f5ffd5b806301ffc9a71461020157806306fdde0314610229578063081812fc1461023e578063095ea7b314610269575b5f5ffd5b61021461020f366004612f9f565b6104f3565b60405190151581526020015b60405180910390f35b610231610503565b6040516102209190612fe8565b61025161024c366004612ffa565b610592565b6040516001600160a01b039091168152602001610220565b61027c61027736600461302c565b6105b9565b005b61028760085481565b604051908152602001610220565b61027c6102a3366004613054565b6105c8565b6102b0610656565b604051610220919061308e565b61027c6102cb3660046130d9565b610946565b6102e36102de366004612ffa565b610af9565b6040516102209493929190613145565b61027c610301366004613054565b610bb5565b61027c610314366004612ffa565b610bd4565b61027c610327366004613189565b610bdf565b61025161033a366004612ffa565b610dd3565b61027c61034d366004613189565b610ddd565b6102876103603660046131a2565b610fd4565b61027c611019565b61038061037b36600461302c565b61102c565b60405161022094939291906131ef565b61027c61039e366004613227565b611078565b6102146103b136600461324b565b611216565b6006546001600160a01b0316610251565b610231611338565b6103e26103dd36600461327c565b611347565b604080516001600160a01b0390951685529215156020850152918301526060820152608001610220565b61025173637a1259c6afd7e3adf63993ca7e58bb438ab1b181565b61027c610435366004613325565b611398565b61027c610448366004613382565b6114d8565b61025161045b366004612ffa565b6114e3565b61027c61046e3660046133b7565b61150b565b610231610481366004612ffa565b611523565b61027c610494366004613325565b61152e565b61027c61160d565b61028760095481565b6102146104b836600461342d565b6117f4565b61027c6104cb3660046131a2565b611821565b6104e36104de3660046131a2565b61185e565b6040516102209493929190613455565b5f6104fd8261191a565b92915050565b60605f80546105119061348e565b80601f016020809104026020016040519081016040528092919081815260200182805461053d9061348e565b80156105885780601f1061055f57610100808354040283529160200191610588565b820191905f5260205f20905b81548152906001019060200180831161056b57829003601f168201915b5050505050905090565b5f61059c8261193e565b505f828152600460205260409020546001600160a01b03166104fd565b6105c4828233611976565b5050565b6001600160a01b0382166105f657604051633250574960e11b81525f60048201526024015b60405180910390fd5b5f610602838333611983565b9050836001600160a01b0316816001600160a01b031614610650576040516364283d7b60e01b81526001600160a01b03808616600483015260248201849052821660448201526064016105ed565b50505050565b60605f6005600b805490501061066d576005610671565b600b545b90505f816001600160401b0381111561068c5761068c61329c565b6040519080825280602002602001820160405280156106b5578160200160208202803683370190505b5090505f826001600160401b038111156106d1576106d161329c565b6040519080825280602002602001820160405280156106fa578160200160208202803683370190505b5090505f5b600b5481101561093d57600a5f600b838154811061071f5761071f6134c6565b5f9182526020808320909101546001600160a01b0316835282019290925260400190206003015460ff1615610935575f600a5f600b8481548110610765576107656134c6565b5f9182526020808320909101546001600160a01b0316835282019290925260400181206002015491505b85811015610932575f6001600160a01b03168582815181106107b3576107b36134c6565b60200260200101516001600160a01b031614806107e857508381815181106107dd576107dd6134c6565b602002602001015182115b1561092a575f6107f96001886134ee565b90505b818111156108a557856108106001836134ee565b81518110610820576108206134c6565b602002602001015186828151811061083a5761083a6134c6565b6001600160a01b03909216602092830291909101909101528461085e6001836134ee565b8151811061086e5761086e6134c6565b6020026020010151858281518110610888576108886134c6565b60209081029190910101528061089d81613501565b9150506107fc565b50600b83815481106108b9576108b96134c6565b905f5260205f20015f9054906101000a90046001600160a01b03168582815181106108e6576108e66134c6565b60200260200101906001600160a01b031690816001600160a01b03168152505081848281518110610919576109196134c6565b602002602001018181525050610932565b60010161078f565b50505b6001016106ff565b50909392505050565b6040516323b872dd60e01b815233600482015230602482015261c350604482015273637a1259c6afd7e3adf63993ca7e58bb438ab1b1906323b872dd906064016020604051808303815f875af11580156109a2573d5f5f3e3d5ffd5b505050506040513d601f19601f820116820180604052508101906109c69190613516565b50604051806080016040528083838080601f0160208091040260200160405190810160405280939291908181526020018383808284375f920182905250938552505033602080850182905260408086018590526001606090960195909552908352600a9052502081518190610a3b9082613575565b50602082810151600183810180546001600160a01b03199081166001600160a01b0390941693909317905560408086015160028601556060909501516003909401805460ff191694151594909417909355600b805493840181555f527f0175b7a638427703f0dbe7bb9bbf987a2551717b34e79f33b5b1008d1fa01db990920180543393168317905591519081527f82d0829d9d481e4cb9913897f9b9c903271c4db68c7b3324071d2a7e3b2c5ff091015b60405180910390a15050565b600c6020525f9081526040902080546001820180546001600160a01b039092169291610b249061348e565b80601f0160208091040260200160405190810160405280929190818152602001828054610b509061348e565b8015610b9b5780601f10610b7257610100808354040283529160200191610b9b565b820191905f5260205f20905b815481529060010190602001808311610b7e57829003601f168201915b505050506002830154600390930154919260ff1691905084565b610bcf83838360405180602001604052805f81525061150b565b505050565b6105c45f8233611983565b610be93382611216565b15610c365760405162461bcd60e51b815260206004820152601960248201527f5573657220616c72656164792068617320616e206f726465720000000000000060448201526064016105ed565b5f80826001811115610c4a57610c4a6131bb565b14610c575761c350610c5c565b620f42405b6040516323b872dd60e01b81523360048201523060248201526044810182905290915073637a1259c6afd7e3adf63993ca7e58bb438ab1b1906323b872dd906064016020604051808303815f875af1158015610cba573d5f5f3e3d5ffd5b505050506040513d601f19601f82011682018060405250810190610cde9190613516565b50335f908152600e6020526040908190208151608081019092529080846001811115610d0c57610d0c6131bb565b815260208082018590525f60408301819052606090920182905283546001818101865594835291208251600390920201805492939092839160ff19909116908381811115610d5c57610d5c6131bb565b0217905550602082015160018201556040808301516002909201805460609094015115156101000261ff00199315159390931661ffff199094169390931791909117909155517f4f46ced13b7c0cf2078b2d56e6e8a3d2c2209b6bee4aa8af5074b44969b541ed90610aed9033908590859061362f565b5f6104fd8261193e565b610de73382611216565b610e335760405162461bcd60e51b815260206004820152601b60248201527f5573657220646f6573206e6f74206861766520616e206f72646572000000000060448201526064016105ed565b5f80826001811115610e4757610e476131bb565b14610e545761c350610e59565b620f42405b60405163a9059cbb60e01b81523360048201526024810182905290915073637a1259c6afd7e3adf63993ca7e58bb438ab1b19063a9059cbb906044016020604051808303815f875af1158015610eb1573d5f5f3e3d5ffd5b505050506040513d601f19601f82011682018060405250810190610ed59190613516565b505f5b335f908152600e6020526040902054811015610fa057826001811115610f0057610f006131bb565b335f908152600e60205260409020805483908110610f2057610f206134c6565b5f91825260209091206003909102015460ff166001811115610f4457610f446131bb565b03610f9857335f908152600e6020526040902080546001919083908110610f6d57610f6d6134c6565b905f5260205f20906003020160020160016101000a81548160ff021916908315150217905550610fa0565b600101610ed8565b507fb1a36e8ed442841c945480947ced4c36c62b869722699f60c950013f05bef0c4338383604051610aed9392919061362f565b5f6001600160a01b038216610ffe576040516322718ad960e21b81525f60048201526024016105ed565b506001600160a01b03165f9081526003602052604090205490565b611021611a75565b61102a5f611aa2565b565b600e602052815f5260405f208181548110611045575f80fd5b5f91825260209091206003909102018054600182015460029092015460ff91821694509192508181169161010090041684565b335f908152600a602052604090206003015460ff166110cf5760405162461bcd60e51b81526020600482015260136024820152721059d95b9d081a5cc81b9bdd081cdd185ad959606a1b60448201526064016105ed565b5f838152600c602052604090206002015460ff16156111305760405162461bcd60e51b815260206004820152601c60248201527f5265717565737420697320616c72656164792070726f6365737365640000000060448201526064016105ed565b5f838152600d60209081526040808320815160808101835233808252871515828601818152838601898152426060808701918252875460018082018a55988c529a8a902096516003909b02909601805493511515600160a01b026001600160a81b03199094166001600160a01b03909b169a909a17929092178955519488019490945592516002909601959095558251948552928401879052908301527f94276b983d5e3494b839b8736d6fe68a0a4b38a8367305c256fb2baf399d9456910160405180910390a15f838152600d6020526040902054600511610bcf57610bcf83611af3565b5f805b6001600160a01b0384165f908152600e602052604090205481101561132f576001600160a01b0384165f908152600e60205260408120805483908110611261576112616134c6565b5f918252602090912060408051608081019091526003909202018054829060ff166001811115611293576112936131bb565b60018111156112a4576112a46131bb565b8152600182810154602083015260029092015460ff8082161515604084015261010090910416151560609091015290915084908111156112e6576112e66131bb565b815160018111156112f9576112f96131bb565b14801561130857506040810151155b801561131657506060810151155b15611326576001925050506104fd565b50600101611219565b505f9392505050565b6060600180546105119061348e565b600d602052815f5260405f208181548110611360575f80fd5b5f9182526020909120600390910201805460018201546002909201546001600160a01b0382169450600160a01b90910460ff16925084565b6113a0611a75565b6113ab826001611216565b6113ef5760405162461bcd60e51b8152602060048201526015602482015274139bc81d995c9a599e481bdc99195c88199bdd5b99605a1b60448201526064016105ed565b6113f96001612174565b5060098054905f6114098361365a565b9091555050604080516080810182526001600160a01b03848116825260208083018581525f8486018190524260608601526009548152600c909252939020825181546001600160a01b0319169216919091178155915190919060018201906114719082613575565b5060408281015160028301805460ff191691151591909117905560609092015160039091015560095481516001600160a01b038516815260208101919091527fb4610031e95bec0846790f85fa67e369f500cabbda9395ea19a5fb5e427d27d89101610aed565b6105c4338383612379565b600b81815481106114f2575f80fd5b5f918252602090912001546001600160a01b0316905081565b6115168484846105c8565b6106503385858585612417565b60606104fd8261253f565b611536611a75565b611540825f611216565b6115825760405162461bcd60e51b8152602060048201526013602482015272139bc81b5a5b9d081bdc99195c88199bdd5b99606a1b60448201526064016105ed565b60088054905f6115918361365a565b919050555061159f5f612174565b506115ac8260085461264a565b6115b8600854826126ab565b6115ca5f6115c4610656565b5f6126f3565b600854604080516001600160a01b038516815260208101929092527f30385c845b448a36257a6a1716e6ad2e1bc2cbe333cde1e69fe849ad6511adfe9101610aed565b60405163a9059cbb60e01b815233600482015261c350602482015273637a1259c6afd7e3adf63993ca7e58bb438ab1b19063a9059cbb906044016020604051808303815f875af1158015611663573d5f5f3e3d5ffd5b505050506040513d601f19601f820116820180604052508101906116879190613516565b50335f908152600a60205260408120906116a18282612f40565b506001810180546001600160a01b03191690555f600282018190556003909101805460ff191690555b600b548110156117be57336001600160a01b0316600b82815481106116f1576116f16134c6565b5f918252602090912001546001600160a01b0316036117b657600b805461171a906001906134ee565b8154811061172a5761172a6134c6565b5f91825260209091200154600b80546001600160a01b039092169183908110611755576117556134c6565b905f5260205f20015f6101000a8154816001600160a01b0302191690836001600160a01b03160217905550600b80548061179157611791613672565b5f8281526020902081015f1990810180546001600160a01b03191690550190556117be565b6001016116ca565b506040513381527f3e085cc53b86c19e2e6dba628297af6b8f76c89d1384dbcc599bab2adfd62d089060200160405180910390a1565b6001600160a01b039182165f90815260056020908152604080832093909416825291909152205460ff1690565b611829611a75565b6001600160a01b03811661185257604051631e4fbdf760e01b81525f60048201526024016105ed565b61185b81611aa2565b50565b600a6020525f90815260409020805481906118789061348e565b80601f01602080910402602001604051908101604052809291908181526020018280546118a49061348e565b80156118ef5780601f106118c6576101008083540402835291602001916118ef565b820191905f5260205f20905b8154815290600101906020018083116118d257829003601f168201915b505050506001830154600284015460039094015492936001600160a01b039091169290915060ff1684565b5f6001600160e01b03198216632483248360e11b14806104fd57506104fd8261290c565b5f818152600260205260408120546001600160a01b0316806104fd57604051637e27328960e01b8152600481018490526024016105ed565b610bcf838383600161295b565b5f828152600260205260408120546001600160a01b03908116908316156119af576119af818486612a5f565b6001600160a01b038116156119e9576119ca5f855f5f61295b565b6001600160a01b0381165f90815260036020526040902080545f190190555b6001600160a01b03851615611a17576001600160a01b0385165f908152600360205260409020805460010190555b5f8481526002602052604080822080546001600160a01b0319166001600160a01b0389811691821790925591518793918516917fddf252ad1be2c89b69c2b068fc378daa952ba7f163c4a11628f55a4df523b3ef91a4949350505050565b6006546001600160a01b0316331461102a5760405163118cdaa760e01b81523360048201526024016105ed565b600680546001600160a01b038381166001600160a01b0319831681179093556040519116919082907f8be0079c531659141344cd1fd0a4f28419497f9722a3daafe3b4186f6b6457e0905f90a35050565b5f818152600c602052604090206002015460ff1615611b545760405162461bcd60e51b815260206004820152601c60248201527f5265717565737420697320616c72656164792070726f6365737365640000000060448201526064016105ed565b5f818152600d6020908152604080832080548251818502810185019093528083529192909190849084015b82821015611be3575f848152602090819020604080516080810182526003860290920180546001600160a01b0381168452600160a01b900460ff16151583850152600180820154928401929092526002015460608301529083529092019101611b7f565b5050505090505f5f90505f82516001600160401b03811115611c0757611c0761329c565b604051908082528060200260200182016040528015611c30578160200160208202803683370190505b5090505f83516001600160401b03811115611c4d57611c4d61329c565b604051908082528060200260200182016040528015611c76578160200160208202803683370190505b5090505f84516001600160401b03811115611c9357611c9361329c565b604051908082528060200260200182016040528015611cbc578160200160208202803683370190505b5090505f80805b8751811015611df957878181518110611cde57611cde6134c6565b60200260200101516020015115611df15786611cf98161365a565b97505f9050805b84811015611d8057898381518110611d1a57611d1a6134c6565b602002602001015160400151888281518110611d3857611d386134c6565b602002602001015103611d7857868181518110611d5757611d576134c6565b602002602001018051809190611d6c9061365a565b90525060019150611d80565b600101611d00565b5080611def57888281518110611d9857611d986134c6565b602002602001015160400151878581518110611db657611db66134c6565b6020026020010181815250506001868581518110611dd657611dd66134c6565b602090810291909101015283611deb8161365a565b9450505b505b600101611cc3565b505f611e0760026005613686565b87119050801561200f575f80805b85811015611e7f5781888281518110611e3057611e306134c6565b60200260200101511115611e7757878181518110611e5057611e506134c6565b60200260200101519150888181518110611e6c57611e6c6134c6565b602002602001015192505b600101611e15565b505f8b8152600c60209081526040918290205482516001600160a01b0390911681529081018490527f7c4bd613345b3aec2140d4c4c96782cda06d72b1a593fbb20a72300354f4c336910160405180910390a15f5b8a51811015612007578a8181518110611eef57611eef6134c6565b6020026020010151602001511580611f245750828b8281518110611f1557611f156134c6565b60200260200101516040015114155b15611f5357611f4e8b8281518110611f3e57611f3e6134c6565b60200260200101515f0151612ac3565b611fff565b600a5f8c8381518110611f6857611f686134c6565b60200260200101515f01516001600160a01b03166001600160a01b031681526020019081526020015f206002015f815480929190611fa59061365a565b91905055508a8181518110611fbc57611fbc6134c6565b60200260200101515f0151878681518110611fd957611fd96134c6565b6001600160a01b039092166020928302919091019091015284611ffb8161365a565b9550505b600101611ed4565b50505061210d565b5f5b885181101561210b5788818151811061202c5761202c6134c6565b6020026020010151602001511561205757612052898281518110611f3e57611f3e6134c6565b612103565b600a5f8a838151811061206c5761206c6134c6565b60200260200101515f01516001600160a01b03166001600160a01b031681526020019081526020015f206002015f8154809291906120a99061365a565b91905055508881815181106120c0576120c06134c6565b60200260200101515f01518584815181106120dd576120dd6134c6565b6001600160a01b0390921660209283029190910190910152826120ff8161365a565b9350505b600101612011565b505b5f898152600c60205260408120600201805460ff191660019081179091556121369186906126f3565b6040518981527fd59c8e4a596666e603cf3e00e02f96d6d1fde87d71e10f4709e317d206b503dc9060200160405180910390a1505050505050505050565b5f805b335f908152600e602052604090205481101561237157335f908152600e602052604081208054839081106121ad576121ad6134c6565b5f918252602090912060408051608081019091526003909202018054829060ff1660018111156121df576121df6131bb565b60018111156121f0576121f06131bb565b8152600182810154602083015260029092015460ff808216151560408401526101009091041615156060909101529091508490811115612232576122326131bb565b81516001811115612245576122456131bb565b14801561225457506040810151155b801561226257506060810151155b1561236857335f908152600e602052604090208054600191908490811061228b5761228b6134c6565b5f9182526020909120600390910201600201805460ff191691151591909117905560065473637a1259c6afd7e3adf63993ca7e58bb438ab1b19063a9059cbb906001600160a01b03166064600a85602001516122e791906136a5565b6122f19190613686565b6040516001600160e01b031960e085901b1681526001600160a01b03909216600483015260248201526044016020604051808303815f875af1158015612339573d5f5f3e3d5ffd5b505050506040513d601f19601f8201168201806040525081019061235d9190613516565b506001949350505050565b50600101612177565b505f92915050565b6001600160a01b0382166123ab57604051630b61174360e31b81526001600160a01b03831660048201526024016105ed565b6001600160a01b038381165f81815260056020908152604080832094871680845294825291829020805460ff191686151590811790915591519182527f17307eab39ab6107e8899845ad3d59bd9653f200f220920489ca2b5937696c31910160405180910390a3505050565b6001600160a01b0383163b1561253857604051630a85bd0160e11b81526001600160a01b0384169063150b7a02906124599088908890879087906004016136bc565b6020604051808303815f875af1925050508015612493575060408051601f3d908101601f19168201909252612490918101906136f8565b60015b6124fa573d8080156124c0576040519150601f19603f3d011682016040523d82523d5f602084013e6124c5565b606091505b5080515f036124f257604051633250574960e11b81526001600160a01b03851660048201526024016105ed565b805160208201fd5b6001600160e01b03198116630a85bd0160e11b1461253657604051633250574960e11b81526001600160a01b03851660048201526024016105ed565b505b5050505050565b606061254a8261193e565b505f82815260076020526040812080546125639061348e565b80601f016020809104026020016040519081016040528092919081815260200182805461258f9061348e565b80156125da5780601f106125b1576101008083540402835291602001916125da565b820191905f5260205f20905b8154815290600101906020018083116125bd57829003601f168201915b505050505090505f6125f660408051602081019091525f815290565b905080515f03612607575092915050565b81511561263957808260405160200161262192919061372a565b60405160208183030381529060405292505050919050565b61264284612d08565b949350505050565b6001600160a01b03821661267357604051633250574960e11b81525f60048201526024016105ed565b5f61267f83835f611983565b90506001600160a01b03811615610bcf576040516339e3563760e11b81525f60048201526024016105ed565b5f8281526007602052604090206126c28282613575565b506040518281527ff8e1a15aba9398e019f0b49df1a4fde98ee17ae345cb5f6b5e2c27f5033e8ce790602001610aed565b5f8115612703575061c35061272b565b5f846001811115612716576127166131bb565b146127235761c350612728565b620f42405b90505b5f6064612739600a826134ee565b61274390846136a5565b61274d9190613686565b90505f805b85518110156127b457600a5f878381518110612770576127706134c6565b6020908102919091018101516001600160a01b031682528101919091526040015f206003015460ff16156127ac57816127a88161365a565b9250505b600101612752565b505f6127c08284613686565b90505f5b86518110156128c957600a5f8883815181106127e2576127e26134c6565b6020908102919091018101516001600160a01b031682528101919091526040015f206003015460ff16156128c15773637a1259c6afd7e3adf63993ca7e58bb438ab1b16001600160a01b031663a9059cbb888381518110612845576128456134c6565b6020026020010151846040518363ffffffff1660e01b815260040161287f9291906001600160a01b03929092168252602082015260400190565b6020604051808303815f875af115801561289b573d5f5f3e3d5ffd5b505050506040513d601f19601f820116820180604052508101906128bf9190613516565b505b6001016127c4565b5060408051848152602081018390527fe8ef3e979b5461d2250b3d4490fd4a99865b49c68dc449c038258aeccbebaccd910160405180910390a150505050505050565b5f6001600160e01b031982166380ac58cd60e01b148061293c57506001600160e01b03198216635b5e139f60e01b145b806104fd57506301ffc9a760e01b6001600160e01b03198316146104fd565b808061296f57506001600160a01b03821615155b15612a30575f61297e8461193e565b90506001600160a01b038316158015906129aa5750826001600160a01b0316816001600160a01b031614155b80156129bd57506129bb81846117f4565b155b156129e65760405163a9fbf51f60e01b81526001600160a01b03841660048201526024016105ed565b8115612a2e5783856001600160a01b0316826001600160a01b03167f8c5be1e5ebec7d5bd14f71427d1e84f3dd0314c0f7b2291e5b200ac8c7c3b92560405160405180910390a45b505b50505f90815260046020526040902080546001600160a01b0319166001600160a01b0392909216919091179055565b612a6a838383612d79565b610bcf576001600160a01b038316612a9857604051637e27328960e01b8152600481018290526024016105ed565b60405163177e802f60e01b81526001600160a01b0383166004820152602481018290526044016105ed565b73637a1259c6afd7e3adf63993ca7e58bb438ab1b163a9059cbb612aef6006546001600160a01b031690565b6064612afe600a61c3506136a5565b612b089190613686565b6040516001600160e01b031960e085901b1681526001600160a01b03909216600483015260248201526044016020604051808303815f875af1158015612b50573d5f5f3e3d5ffd5b505050506040513d601f19601f82011682018060405250810190612b749190613516565b50612b896001612b82610656565b60016126f3565b6001600160a01b0381165f908152600a6020526040812090612bab8282612f40565b506001810180546001600160a01b03191690555f600282018190556003909101805460ff191690555b600b54811015612cc857816001600160a01b0316600b8281548110612bfb57612bfb6134c6565b5f918252602090912001546001600160a01b031603612cc057600b8054612c24906001906134ee565b81548110612c3457612c346134c6565b5f91825260209091200154600b80546001600160a01b039092169183908110612c5f57612c5f6134c6565b905f5260205f20015f6101000a8154816001600160a01b0302191690836001600160a01b03160217905550600b805480612c9b57612c9b613672565b5f8281526020902081015f1990810180546001600160a01b0319169055019055612cc8565b600101612bd4565b506040516001600160a01b03821681527f975ad74f3e1160b20a620ec57c636ffa56c6b6679a0e2fb5689b4f95e65a69469060200160405180910390a150565b6060612d138261193e565b505f612d2960408051602081019091525f815290565b90505f815111612d475760405180602001604052805f815250612d72565b80612d5184612dda565b604051602001612d6292919061372a565b6040516020818303038152906040525b9392505050565b5f6001600160a01b038316158015906126425750826001600160a01b0316846001600160a01b03161480612db25750612db284846117f4565b806126425750505f908152600460205260409020546001600160a01b03908116911614919050565b60605f612de683612e69565b60010190505f816001600160401b03811115612e0457612e0461329c565b6040519080825280601f01601f191660200182016040528015612e2e576020820181803683370190505b5090508181016020015b5f19016f181899199a1a9b1b9c1cb0b131b232b360811b600a86061a8153600a8504945084612e3857509392505050565b5f8072184f03e93ff9f4daa797ed6e38ed64bf6a1f0160401b8310612ea75772184f03e93ff9f4daa797ed6e38ed64bf6a1f0160401b830492506040015b6d04ee2d6d415b85acef81000000008310612ed3576d04ee2d6d415b85acef8100000000830492506020015b662386f26fc100008310612ef157662386f26fc10000830492506010015b6305f5e1008310612f09576305f5e100830492506008015b6127108310612f1d57612710830492506004015b60648310612f2f576064830492506002015b600a83106104fd5760010192915050565b508054612f4c9061348e565b5f825580601f10612f5b575050565b601f0160209004905f5260205f209081019061185b91905b80821115612f86575f8155600101612f73565b5090565b6001600160e01b03198116811461185b575f5ffd5b5f60208284031215612faf575f5ffd5b8135612d7281612f8a565b5f81518084528060208401602086015e5f602082860101526020601f19601f83011685010191505092915050565b602081525f612d726020830184612fba565b5f6020828403121561300a575f5ffd5b5035919050565b80356001600160a01b0381168114613027575f5ffd5b919050565b5f5f6040838503121561303d575f5ffd5b61304683613011565b946020939093013593505050565b5f5f5f60608486031215613066575f5ffd5b61306f84613011565b925061307d60208501613011565b929592945050506040919091013590565b602080825282518282018190525f918401906040840190835b818110156130ce5783516001600160a01b03168352602093840193909201916001016130a7565b509095945050505050565b5f5f602083850312156130ea575f5ffd5b82356001600160401b038111156130ff575f5ffd5b8301601f8101851361310f575f5ffd5b80356001600160401b03811115613124575f5ffd5b856020828401011115613135575f5ffd5b6020919091019590945092505050565b6001600160a01b03851681526080602082018190525f9061316890830186612fba565b9315156040830152506060015292915050565b803560028110613027575f5ffd5b5f60208284031215613199575f5ffd5b612d728261317b565b5f602082840312156131b2575f5ffd5b612d7282613011565b634e487b7160e01b5f52602160045260245ffd5b600281106131eb57634e487b7160e01b5f52602160045260245ffd5b9052565b608081016131fd82876131cf565b602082019490945291151560408301521515606090910152919050565b801515811461185b575f5ffd5b5f5f5f60608486031215613239575f5ffd5b83359250602084013561307d8161321a565b5f5f6040838503121561325c575f5ffd5b61326583613011565b91506132736020840161317b565b90509250929050565b5f5f6040838503121561328d575f5ffd5b50508035926020909101359150565b634e487b7160e01b5f52604160045260245ffd5b5f5f6001600160401b038411156132c9576132c961329c565b50604051601f19601f85018116603f011681018181106001600160401b03821117156132f7576132f761329c565b60405283815290508082840185101561330e575f5ffd5b838360208301375f60208583010152509392505050565b5f5f60408385031215613336575f5ffd5b61333f83613011565b915060208301356001600160401b03811115613359575f5ffd5b8301601f81018513613369575f5ffd5b613378858235602084016132b0565b9150509250929050565b5f5f60408385031215613393575f5ffd5b61339c83613011565b915060208301356133ac8161321a565b809150509250929050565b5f5f5f5f608085870312156133ca575f5ffd5b6133d385613011565b93506133e160208601613011565b92506040850135915060608501356001600160401b03811115613402575f5ffd5b8501601f81018713613412575f5ffd5b613421878235602084016132b0565b91505092959194509250565b5f5f6040838503121561343e575f5ffd5b61344783613011565b915061327360208401613011565b608081525f6134676080830187612fba565b6001600160a01b039590951660208301525060408101929092521515606090910152919050565b600181811c908216806134a257607f821691505b6020821081036134c057634e487b7160e01b5f52602260045260245ffd5b50919050565b634e487b7160e01b5f52603260045260245ffd5b634e487b7160e01b5f52601160045260245ffd5b818103818111156104fd576104fd6134da565b5f8161350f5761350f6134da565b505f190190565b5f60208284031215613526575f5ffd5b8151612d728161321a565b601f821115610bcf57805f5260205f20601f840160051c810160208510156135565750805b601f840160051c820191505b81811015612538575f8155600101613562565b81516001600160401b0381111561358e5761358e61329c565b6135a28161359c845461348e565b84613531565b6020601f8211600181146135d4575f83156135bd5750848201515b5f19600385901b1c1916600184901b178455612538565b5f84815260208120601f198516915b8281101561360357878501518255602094850194600190920191016135e3565b508482101561362057868401515f19600387901b60f8161c191681555b50505050600190811b01905550565b6001600160a01b03841681526060810161364c60208301856131cf565b826040830152949350505050565b5f6001820161366b5761366b6134da565b5060010190565b634e487b7160e01b5f52603160045260245ffd5b5f826136a057634e487b7160e01b5f52601260045260245ffd5b500490565b80820281158282048414176104fd576104fd6134da565b6001600160a01b03858116825284166020820152604081018390526080606082018190525f906136ee90830184612fba565b9695505050505050565b5f60208284031215613708575f5ffd5b8151612d7281612f8a565b5f81518060208401855e5f93019283525090919050565b5f6126426137388386613713565b8461371356fea26469706673582212200a853935aa7d50455fc8d2844b2e468be952d20c475a2ff439fce3871549852e64736f6c634300081c0033",
  "linkReferences": {},
  "deployedLinkReferences": {},
  "immutableReferences": {},
  "inputSourceName": "project/contracts/Realia.sol",
  "buildInfoId": "solc-0_8_28-d774ce6ff1e0a0df56c0664d5f3a9139c70be18d"
}