{
  "_format": "hh3-artifact-1",
  "contractName": "Realia",
  "sourceName": "contracts/Realia.sol",
  "abi": [
    {
      "inputs": [],
      "stateMutability": "nonpayable",
      "type": "constructor"
    },
    {
      "inputs": [
        {
          "internalType": "address",
          "name": "sender",
          "type": "address"
        },
        {
          "internalType": "uint256",
          "name": "tokenId",
          "type": "uint256"
        },
        {
          "internalType": "address",
          "name": "owner",
          "type": "address"
        }
      ],
      "name": "ERC721IncorrectOwner",
      "type": "error"
    },
    {
      "inputs": [
        {
          "internalType": "address",
          "name": "operator",
          "type": "address"
        },
        {
          "internalType": "uint256",
          "name": "tokenId",
          "type": "uint256"
        }
      ],
      "name": "ERC721InsufficientApproval",
      "type": "error"
    },
    {
      "inputs": [
        {
          "internalType": "address",
          "name": "approver",
          "type": "address"
        }
      ],
      "name": "ERC721InvalidApprover",
      "type": "error"
    },
    {
      "inputs": [
        {
          "internalType": "address",
          "name": "operator",
          "type": "address"
        }
      ],
      "name": "ERC721InvalidOperator",
      "type": "error"
    },
    {
      "inputs": [
        {
          "internalType": "address",
          "name": "owner",
          "type": "address"
        }
      ],
      "name": "ERC721InvalidOwner",
      "type": "error"
    },
    {
      "inputs": [
        {
          "internalType": "address",
          "name": "receiver",
          "type": "address"
        }
      ],
      "name": "ERC721InvalidReceiver",
      "type": "error"
    },
    {
      "inputs": [
        {
          "internalType": "address",
          "name": "sender",
          "type": "address"
        }
      ],
      "name": "ERC721InvalidSender",
      "type": "error"
    },
    {
      "inputs": [
        {
          "internalType": "uint256",
          "name": "tokenId",
          "type": "uint256"
        }
      ],
      "name": "ERC721NonexistentToken",
      "type": "error"
    },
    {
      "inputs": [
        {
          "internalType": "address",
          "name": "owner",
          "type": "address"
        }
      ],
      "name": "OwnableInvalidOwner",
      "type": "error"
    },
    {
      "inputs": [
        {
          "internalType": "address",
          "name": "account",
          "type": "address"
        }
      ],
      "name": "OwnableUnauthorizedAccount",
      "type": "error"
    },
    {
      "anonymous": false,
      "inputs": [
        {
          "indexed": false,
          "internalType": "address",
          "name": "agent",
          "type": "address"
        }
      ],
      "name": "AgentRegistered",
      "type": "event"
    },
    {
      "anonymous": false,
      "inputs": [
        {
          "indexed": false,
          "internalType": "address",
          "name": "agent",
          "type": "address"
        }
      ],
      "name": "AgentUnregistered",
      "type": "event"
    },
    {
      "anonymous": false,
      "inputs": [
        {
          "indexed": false,
          "internalType": "uint256",
          "name": "amount",
          "type": "uint256"
        },
        {
          "indexed": false,
          "internalType": "uint256",
          "name": "amountPerAgent",
          "type": "uint256"
        }
      ],
      "name": "AgentsPaid",
      "type": "event"
    },
    {
      "anonymous": false,
      "inputs": [
        {
          "indexed": true,
          "internalType": "address",
          "name": "owner",
          "type": "address"
        },
        {
          "indexed": true,
          "internalType": "address",
          "name": "approved",
          "type": "address"
        },
        {
          "indexed": true,
          "internalType": "uint256",
          "name": "tokenId",
          "type": "uint256"
        }
      ],
      "name": "Approval",
      "type": "event"
    },
    {
      "anonymous": false,
      "inputs": [
        {
          "indexed": true,
          "internalType": "address",
          "name": "owner",
          "type": "address"
        },
        {
          "indexed": true,
          "internalType": "address",
          "name": "operator",
          "type": "address"
        },
        {
          "indexed": false,
          "internalType": "bool",
          "name": "approved",
          "type": "bool"
        }
      ],
      "name": "ApprovalForAll",
      "type": "event"
    },
    {
      "anonymous": false,
      "inputs": [
        {
          "indexed": false,
          "internalType": "uint256",
          "name": "_fromTokenId",
          "type": "uint256"
        },
        {
          "indexed": false,
          "internalType": "uint256",
          "name": "_toTokenId",
          "type": "uint256"
        }
      ],
      "name": "BatchMetadataUpdate",
      "type": "event"
    },
    {
      "anonymous": false,
      "inputs": [
        {
          "indexed": false,
          "internalType": "uint256",
          "name": "_tokenId",
          "type": "uint256"
        }
      ],
      "name": "MetadataUpdate",
      "type": "event"
    },
    {
      "anonymous": false,
      "inputs": [
        {
          "indexed": false,
          "internalType": "address",
          "name": "to",
          "type": "address"
        },
        {
          "indexed": false,
          "internalType": "uint256",
          "name": "tokenId",
          "type": "uint256"
        }
      ],
      "name": "Minted",
      "type": "event"
    },
    {
      "anonymous": false,
      "inputs": [
        {
          "indexed": false,
          "internalType": "address",
          "name": "to",
          "type": "address"
        },
        {
          "indexed": false,
          "internalType": "enum Realia.OrderType",
          "name": "orderType",
          "type": "uint8"
        },
        {
          "indexed": false,
          "internalType": "uint256",
          "name": "amount",
          "type": "uint256"
        }
      ],
      "name": "OrderCancelled",
      "type": "event"
    },
    {
      "anonymous": false,
      "inputs": [
        {
          "indexed": false,
          "internalType": "address",
          "name": "to",
          "type": "address"
        },
        {
          "indexed": false,
          "internalType": "enum Realia.OrderType",
          "name": "orderType",
          "type": "uint8"
        },
        {
          "indexed": false,
          "internalType": "uint256",
          "name": "amount",
          "type": "uint256"
        }
      ],
      "name": "OrderCreated",
      "type": "event"
    },
    {
      "anonymous": false,
      "inputs": [
        {
          "indexed": true,
          "internalType": "address",
          "name": "previousOwner",
          "type": "address"
        },
        {
          "indexed": true,
          "internalType": "address",
          "name": "newOwner",
          "type": "address"
        }
      ],
      "name": "OwnershipTransferred",
      "type": "event"
    },
    {
      "anonymous": false,
      "inputs": [
        {
          "indexed": false,
          "internalType": "uint256",
          "name": "requestId",
          "type": "uint256"
        }
      ],
      "name": "ProcessedVerification",
      "type": "event"
    },
    {
      "anonymous": false,
      "inputs": [
        {
          "indexed": false,
          "internalType": "address",
          "name": "agent",
          "type": "address"
        }
      ],
      "name": "Slashed",
      "type": "event"
    },
    {
      "anonymous": false,
      "inputs": [
        {
          "indexed": true,
          "internalType": "address",
          "name": "from",
          "type": "address"
        },
        {
          "indexed": true,
          "internalType": "address",
          "name": "to",
          "type": "address"
        },
        {
          "indexed": true,
          "internalType": "uint256",
          "name": "tokenId",
          "type": "uint256"
        }
      ],
      "name": "Transfer",
      "type": "event"
    },
    {
      "anonymous": false,
      "inputs": [
        {
          "indexed": false,
          "internalType": "address",
          "name": "user",
          "type": "address"
        },
        {
          "indexed": false,
          "internalType": "uint256",
          "name": "requestId",
          "type": "uint256"
        }
      ],
      "name": "VerificationRequested",
      "type": "event"
    },
    {
      "anonymous": false,
      "inputs": [
        {
          "indexed": false,
          "internalType": "address",
          "name": "agent",
          "type": "address"
        },
        {
          "indexed": false,
          "internalType": "uint256",
          "name": "requestId",
          "type": "uint256"
        },
        {
          "indexed": false,
          "internalType": "bool",
          "name": "verified",
          "type": "bool"
        }
      ],
      "name": "VerificationResponseByAgent",
      "type": "event"
    },
    {
      "anonymous": false,
      "inputs": [
        {
          "indexed": false,
          "internalType": "address",
          "name": "to",
          "type": "address"
        },
        {
          "indexed": false,
          "internalType": "uint256",
          "name": "tokenId",
          "type": "uint256"
        }
      ],
      "name": "Verified",
      "type": "event"
    },
    {
      "inputs": [],
      "name": "PYUSD",
      "outputs": [
        {
          "internalType": "contract IERC20",
          "name": "",
          "type": "address"
        }
      ],
      "stateMutability": "view",
      "type": "function"
    },
    {
      "inputs": [
        {
          "internalType": "uint256",
          "name": "",
          "type": "uint256"
        }
      ],
      "name": "agentAddresses",
      "outputs": [
        {
          "internalType": "address",
          "name": "",
          "type": "address"
        }
      ],
      "stateMutability": "view",
      "type": "function"
    },
    {
      "inputs": [
        {
          "internalType": "address",
          "name": "",
          "type": "address"
        }
      ],
      "name": "agents",
      "outputs": [
        {
          "internalType": "string",
          "name": "agentAddress",
          "type": "string"
        },
        {
          "internalType": "address",
          "name": "evmAddress",
          "type": "address"
        },
        {
          "internalType": "uint256",
          "name": "verifiedCount",
          "type": "uint256"
        },
        {
          "internalType": "bool",
          "name": "isStaked",
          "type": "bool"
        }
      ],
      "stateMutability": "view",
      "type": "function"
    },
    {
      "inputs": [
        {
          "internalType": "address",
          "name": "to",
          "type": "address"
        },
        {
          "internalType": "uint256",
          "name": "tokenId",
          "type": "uint256"
        }
      ],
      "name": "approve",
      "outputs": [],
      "stateMutability": "nonpayable",
      "type": "function"
    },
    {
      "inputs": [
        {
          "internalType": "address",
          "name": "owner",
          "type": "address"
        }
      ],
      "name": "balanceOf",
      "outputs": [
        {
          "internalType": "uint256",
          "name": "",
          "type": "uint256"
        }
      ],
      "stateMutability": "view",
      "type": "function"
    },
    {
      "inputs": [
        {
          "internalType": "uint256",
          "name": "tokenId",
          "type": "uint256"
        }
      ],
      "name": "burn",
      "outputs": [],
      "stateMutability": "nonpayable",
      "type": "function"
    },
    {
      "inputs": [
        {
          "internalType": "enum Realia.OrderType",
          "name": "orderType",
          "type": "uint8"
        }
      ],
      "name": "cancelOrder",
      "outputs": [],
      "stateMutability": "nonpayable",
      "type": "function"
    },
    {
      "inputs": [
        {
          "internalType": "enum Realia.OrderType",
          "name": "orderType",
          "type": "uint8"
        }
      ],
      "name": "createOrder",
      "outputs": [],
      "stateMutability": "nonpayable",
      "type": "function"
    },
    {
      "inputs": [
        {
          "internalType": "uint256",
          "name": "tokenId",
          "type": "uint256"
        }
      ],
      "name": "getApproved",
      "outputs": [
        {
          "internalType": "address",
          "name": "",
          "type": "address"
        }
      ],
      "stateMutability": "view",
      "type": "function"
    },
    {
      "inputs": [],
      "name": "getTopFiveAgents",
      "outputs": [
        {
          "internalType": "address[]",
          "name": "",
          "type": "address[]"
        }
      ],
      "stateMutability": "view",
      "type": "function"
    },
    {
      "inputs": [
        {
          "internalType": "address",
          "name": "user",
          "type": "address"
        },
        {
          "internalType": "enum Realia.OrderType",
          "name": "orderType",
          "type": "uint8"
        }
      ],
      "name": "hasOrder",
      "outputs": [
        {
          "internalType": "bool",
          "name": "",
          "type": "bool"
        }
      ],
      "stateMutability": "view",
      "type": "function"
    },
    {
      "inputs": [
        {
          "internalType": "address",
          "name": "owner",
          "type": "address"
        },
        {
          "internalType": "address",
          "name": "operator",
          "type": "address"
        }
      ],
      "name": "isApprovedForAll",
      "outputs": [
        {
          "internalType": "bool",
          "name": "",
          "type": "bool"
        }
      ],
      "stateMutability": "view",
      "type": "function"
    },
    {
      "inputs": [
        {
          "internalType": "address",
          "name": "to",
          "type": "address"
        },
        {
          "internalType": "string",
          "name": "uri",
          "type": "string"
        }
      ],
      "name": "mint",
      "outputs": [],
      "stateMutability": "nonpayable",
      "type": "function"
    },
    {
      "inputs": [],
      "name": "name",
      "outputs": [
        {
          "internalType": "string",
          "name": "",
          "type": "string"
        }
      ],
      "stateMutability": "view",
      "type": "function"
    },
    {
      "inputs": [
        {
          "internalType": "address",
          "name": "",
          "type": "address"
        },
        {
          "internalType": "uint256",
          "name": "",
          "type": "uint256"
        }
      ],
      "name": "orders",
      "outputs": [
        {
          "internalType": "enum Realia.OrderType",
          "name": "orderType",
          "type": "uint8"
        },
        {
          "internalType": "uint256",
          "name": "amount",
          "type": "uint256"
        },
        {
          "internalType": "bool",
          "name": "used",
          "type": "bool"
        },
        {
          "internalType": "bool",
          "name": "cancelled",
          "type": "bool"
        }
      ],
      "stateMutability": "view",
      "type": "function"
    },
    {
      "inputs": [],
      "name": "owner",
      "outputs": [
        {
          "internalType": "address",
          "name": "",
          "type": "address"
        }
      ],
      "stateMutability": "view",
      "type": "function"
    },
    {
      "inputs": [
        {
          "internalType": "uint256",
          "name": "tokenId",
          "type": "uint256"
        }
      ],
      "name": "ownerOf",
      "outputs": [
        {
          "internalType": "address",
          "name": "",
          "type": "address"
        }
      ],
      "stateMutability": "view",
      "type": "function"
    },
    {
      "inputs": [
        {
          "internalType": "string",
          "name": "agentAddress",
          "type": "string"
        }
      ],
      "name": "registerAgent",
      "outputs": [],
      "stateMutability": "nonpayable",
      "type": "function"
    },
    {
      "inputs": [],
      "name": "renounceOwnership",
      "outputs": [],
      "stateMutability": "nonpayable",
      "type": "function"
    },
    {
      "inputs": [
        {
          "internalType": "address",
          "name": "user",
          "type": "address"
        },
        {
          "internalType": "string",
          "name": "uri",
          "type": "string"
        }
      ],
      "name": "requestVerification",
      "outputs": [],
      "stateMutability": "nonpayable",
      "type": "function"
    },
    {
      "inputs": [
        {
          "internalType": "uint256",
          "name": "requestId",
          "type": "uint256"
        },
        {
          "internalType": "bool",
          "name": "verified",
          "type": "bool"
        },
        {
          "internalType": "uint256",
          "name": "propertyTokenId",
          "type": "uint256"
        }
      ],
      "name": "responseVerification",
      "outputs": [],
      "stateMutability": "nonpayable",
      "type": "function"
    },
    {
      "inputs": [
        {
          "internalType": "address",
          "name": "from",
          "type": "address"
        },
        {
          "internalType": "address",
          "name": "to",
          "type": "address"
        },
        {
          "internalType": "uint256",
          "name": "tokenId",
          "type": "uint256"
        }
      ],
      "name": "safeTransferFrom",
      "outputs": [],
      "stateMutability": "nonpayable",
      "type": "function"
    },
    {
      "inputs": [
        {
          "internalType": "address",
          "name": "from",
          "type": "address"
        },
        {
          "internalType": "address",
          "name": "to",
          "type": "address"
        },
        {
          "internalType": "uint256",
          "name": "tokenId",
          "type": "uint256"
        },
        {
          "internalType": "bytes",
          "name": "data",
          "type": "bytes"
        }
      ],
      "name": "safeTransferFrom",
      "outputs": [],
      "stateMutability": "nonpayable",
      "type": "function"
    },
    {
      "inputs": [
        {
          "internalType": "address",
          "name": "operator",
          "type": "address"
        },
        {
          "internalType": "bool",
          "name": "approved",
          "type": "bool"
        }
      ],
      "name": "setApprovalForAll",
      "outputs": [],
      "stateMutability": "nonpayable",
      "type": "function"
    },
    {
      "inputs": [
        {
          "internalType": "bytes4",
          "name": "interfaceId",
          "type": "bytes4"
        }
      ],
      "name": "supportsInterface",
      "outputs": [
        {
          "internalType": "bool",
          "name": "",
          "type": "bool"
        }
      ],
      "stateMutability": "view",
      "type": "function"
    },
    {
      "inputs": [],
      "name": "symbol",
      "outputs": [
        {
          "internalType": "string",
          "name": "",
          "type": "string"
        }
      ],
      "stateMutability": "view",
      "type": "function"
    },
    {
      "inputs": [],
      "name": "tokenId",
      "outputs": [
        {
          "internalType": "uint256",
          "name": "",
          "type": "uint256"
        }
      ],
      "stateMutability": "view",
      "type": "function"
    },
    {
      "inputs": [
        {
          "internalType": "uint256",
          "name": "_tokenId",
          "type": "uint256"
        }
      ],
      "name": "tokenURI",
      "outputs": [
        {
          "internalType": "string",
          "name": "",
          "type": "string"
        }
      ],
      "stateMutability": "view",
      "type": "function"
    },
    {
      "inputs": [
        {
          "internalType": "address",
          "name": "from",
          "type": "address"
        },
        {
          "internalType": "address",
          "name": "to",
          "type": "address"
        },
        {
          "internalType": "uint256",
          "name": "tokenId",
          "type": "uint256"
        }
      ],
      "name": "transferFrom",
      "outputs": [],
      "stateMutability": "nonpayable",
      "type": "function"
    },
    {
      "inputs": [
        {
          "internalType": "address",
          "name": "newOwner",
          "type": "address"
        }
      ],
      "name": "transferOwnership",
      "outputs": [],
      "stateMutability": "nonpayable",
      "type": "function"
    },
    {
      "inputs": [],
      "name": "unregisterAgent",
      "outputs": [],
      "stateMutability": "nonpayable",
      "type": "function"
    },
    {
      "inputs": [],
      "name": "verificationId",
      "outputs": [
        {
          "internalType": "uint256",
          "name": "",
          "type": "uint256"
        }
      ],
      "stateMutability": "view",
      "type": "function"
    },
    {
      "inputs": [
        {
          "internalType": "uint256",
          "name": "",
          "type": "uint256"
        }
      ],
      "name": "verificationRequests",
      "outputs": [
        {
          "internalType": "address",
          "name": "user",
          "type": "address"
        },
        {
          "internalType": "string",
          "name": "uri",
          "type": "string"
        },
        {
          "internalType": "bool",
          "name": "processed",
          "type": "bool"
        },
        {
          "internalType": "uint256",
          "name": "requestTime",
          "type": "uint256"
        }
      ],
      "stateMutability": "view",
      "type": "function"
    },
    {
      "inputs": [
        {
          "internalType": "uint256",
          "name": "",
          "type": "uint256"
        },
        {
          "internalType": "uint256",
          "name": "",
          "type": "uint256"
        }
      ],
      "name": "verificationResponses",
      "outputs": [
        {
          "internalType": "address",
          "name": "agent",
          "type": "address"
        },
        {
          "internalType": "bool",
          "name": "verified",
          "type": "bool"
        },
        {
          "internalType": "uint256",
          "name": "tokenId",
          "type": "uint256"
        },
        {
          "internalType": "uint256",
          "name": "responseTime",
          "type": "uint256"
        }
      ],
      "stateMutability": "view",
      "type": "function"
    }
  ],
  "bytecode": "0x60806040525f6008555f600955348015610017575f5ffd5b5033604051806040016040528060068152602001655265616c696160d01b815250604051806040016040528060068152602001655245414c494160d01b815250815f9081610065919061019a565b506001610072828261019a565b5050506001600160a01b0381166100a257604051631e4fbdf760e01b81525f600482015260240160405180910390fd5b6100ab816100b1565b50610254565b600680546001600160a01b038381166001600160a01b0319831681179093556040519116919082907f8be0079c531659141344cd1fd0a4f28419497f9722a3daafe3b4186f6b6457e0905f90a35050565b634e487b7160e01b5f52604160045260245ffd5b600181811c9082168061012a57607f821691505b60208210810361014857634e487b7160e01b5f52602260045260245ffd5b50919050565b601f82111561019557805f5260205f20601f840160051c810160208510156101735750805b601f840160051c820191505b81811015610192575f815560010161017f565b50505b505050565b81516001600160401b038111156101b3576101b3610102565b6101c7816101c18454610116565b8461014e565b6020601f8211600181146101f9575f83156101e25750848201515b5f19600385901b1c1916600184901b178455610192565b5f84815260208120601f198516915b828110156102285787850151825560209485019460019092019101610208565b508482101561024557868401515f19600387901b60f8161c191681555b50505050600190811b01905550565b6138c3806102615f395ff3fe608060405234801561000f575f5ffd5b50600436106101fd575f3560e01c806382c3280211610114578063a7676a63116100a9578063e31f1a7c11610079578063e31f1a7c14610499578063e8841c25146104a1578063e985e9c5146104aa578063f2fde38b146104bd578063fd66091e146104d0575f5ffd5b8063a7676a631461044d578063b88d4fde14610460578063c87b56dd14610473578063d0def52114610486575f5ffd5b806396e45457116100e457806396e45457146103cf5780639e19789d1461040c578063a179d1c214610427578063a22cb4651461043a575f5ffd5b806382c32802146103905780638828bd42146103a35780638da5cb5b146103b657806395d89b41146103c7575f5ffd5b80634089d49f116101955780636352211e116101655780636352211e1461032c57806367ba8e2d1461033f57806370a0823114610352578063715018a614610365578063793b8c6d1461036d575f5ffd5b80634089d49f146102d057806342842e0e146102f357806342966c681461030657806350e01a5814610319575f5ffd5b806317d70f7c116101d057806317d70f7c1461027e57806323b872dd1461029557806327cabf88146102a85780632d2a9585146102bd575f5ffd5b806301ffc9a71461020157806306fdde0314610229578063081812fc1461023e578063095ea7b314610269575b5f5ffd5b61021461020f3660046130a9565b6104f3565b60405190151581526020015b60405180910390f35b610231610503565b60405161022091906130f2565b61025161024c366004613104565b610592565b6040516001600160a01b039091168152602001610220565b61027c610277366004613136565b6105b9565b005b61028760085481565b604051908152602001610220565b61027c6102a336600461315e565b6105c8565b6102b0610656565b6040516102209190613198565b61027c6102cb3660046131e3565b610946565b6102e36102de366004613104565b610af9565b604051610220949392919061324f565b61027c61030136600461315e565b610bb5565b61027c610314366004613104565b610bd4565b61027c610327366004613293565b610bdf565b61025161033a366004613104565b610e05565b61027c61034d366004613293565b610e0f565b6102876103603660046132ac565b611037565b61027c61107c565b61038061037b366004613136565b61108f565b60405161022094939291906132f9565b61027c61039e366004613331565b6110db565b6102146103b1366004613355565b611279565b6006546001600160a01b0316610251565b6102316113ca565b6103e26103dd366004613386565b6113d9565b604080516001600160a01b0390951685529215156020850152918301526060820152608001610220565b61025173637a1259c6afd7e3adf63993ca7e58bb438ab1b181565b61027c61043536600461342f565b61142a565b61027c61044836600461348c565b61155c565b61025161045b366004613104565b611567565b61027c61046e3660046134c1565b61158f565b610231610481366004613104565b6115a7565b61027c61049436600461342f565b6115b2565b61027c611684565b61028760095481565b6102146104b8366004613537565b61186c565b61027c6104cb3660046132ac565b611899565b6104e36104de3660046132ac565b6118d6565b604051610220949392919061355f565b5f6104fd82611992565b92915050565b60605f805461051190613598565b80601f016020809104026020016040519081016040528092919081815260200182805461053d90613598565b80156105885780601f1061055f57610100808354040283529160200191610588565b820191905f5260205f20905b81548152906001019060200180831161056b57829003601f168201915b5050505050905090565b5f61059c826119b6565b505f828152600460205260409020546001600160a01b03166104fd565b6105c48282336119ee565b5050565b6001600160a01b0382166105f657604051633250574960e11b81525f60048201526024015b60405180910390fd5b5f6106028383336119fb565b9050836001600160a01b0316816001600160a01b031614610650576040516364283d7b60e01b81526001600160a01b03808616600483015260248201849052821660448201526064016105ed565b50505050565b60605f6005600b805490501061066d576005610671565b600b545b90505f816001600160401b0381111561068c5761068c6133a6565b6040519080825280602002602001820160405280156106b5578160200160208202803683370190505b5090505f826001600160401b038111156106d1576106d16133a6565b6040519080825280602002602001820160405280156106fa578160200160208202803683370190505b5090505f5b600b5481101561093d57600a5f600b838154811061071f5761071f6135d0565b5f9182526020808320909101546001600160a01b0316835282019290925260400190206003015460ff1615610935575f600a5f600b8481548110610765576107656135d0565b5f9182526020808320909101546001600160a01b0316835282019290925260400181206002015491505b85811015610932575f6001600160a01b03168582815181106107b3576107b36135d0565b60200260200101516001600160a01b031614806107e857508381815181106107dd576107dd6135d0565b602002602001015182115b1561092a575f6107f96001886135f8565b90505b818111156108a557856108106001836135f8565b81518110610820576108206135d0565b602002602001015186828151811061083a5761083a6135d0565b6001600160a01b03909216602092830291909101909101528461085e6001836135f8565b8151811061086e5761086e6135d0565b6020026020010151858281518110610888576108886135d0565b60209081029190910101528061089d8161360b565b9150506107fc565b50600b83815481106108b9576108b96135d0565b905f5260205f20015f9054906101000a90046001600160a01b03168582815181106108e6576108e66135d0565b60200260200101906001600160a01b031690816001600160a01b03168152505081848281518110610919576109196135d0565b602002602001018181525050610932565b60010161078f565b50505b6001016106ff565b50909392505050565b6040516323b872dd60e01b815233600482015230602482015261c350604482015273637a1259c6afd7e3adf63993ca7e58bb438ab1b1906323b872dd906064016020604051808303815f875af11580156109a2573d5f5f3e3d5ffd5b505050506040513d601f19601f820116820180604052508101906109c69190613620565b50604051806080016040528083838080601f0160208091040260200160405190810160405280939291908181526020018383808284375f920182905250938552505033602080850182905260408086018590526001606090960195909552908352600a9052502081518190610a3b908261367f565b50602082810151600183810180546001600160a01b03199081166001600160a01b0390941693909317905560408086015160028601556060909501516003909401805460ff191694151594909417909355600b805493840181555f527f0175b7a638427703f0dbe7bb9bbf987a2551717b34e79f33b5b1008d1fa01db990920180543393168317905591519081527f82d0829d9d481e4cb9913897f9b9c903271c4db68c7b3324071d2a7e3b2c5ff091015b60405180910390a15050565b600c6020525f9081526040902080546001820180546001600160a01b039092169291610b2490613598565b80601f0160208091040260200160405190810160405280929190818152602001828054610b5090613598565b8015610b9b5780601f10610b7257610100808354040283529160200191610b9b565b820191905f5260205f20905b815481529060010190602001808311610b7e57829003601f168201915b505050506002830154600390930154919260ff1691905084565b610bcf83838360405180602001604052805f81525061158f565b505050565b6105c45f82336119fb565b610be93382611279565b15610c365760405162461bcd60e51b815260206004820152601960248201527f5573657220616c72656164792068617320616e206f726465720000000000000060448201526064016105ed565b5f816002811115610c4957610c496132c5565b03610c665760405162461bcd60e51b81526004016105ed90613739565b5f6001826002811115610c7b57610c7b6132c5565b14610c885761c350610c8d565b620f42405b6040516323b872dd60e01b81523360048201523060248201526044810182905290915073637a1259c6afd7e3adf63993ca7e58bb438ab1b1906323b872dd906064016020604051808303815f875af1158015610ceb573d5f5f3e3d5ffd5b505050506040513d601f19601f82011682018060405250810190610d0f9190613620565b50335f908152600e6020526040908190208151608081019092529080846002811115610d3d57610d3d6132c5565b815260208082018590525f60408301819052606090920182905283546001818101865594835291208251600390920201805492939092839160ff1990911690836002811115610d8e57610d8e6132c5565b0217905550602082015160018201556040808301516002909201805460609094015115156101000261ff00199315159390931661ffff199094169390931791909117909155517f4f46ced13b7c0cf2078b2d56e6e8a3d2c2209b6bee4aa8af5074b44969b541ed90610aed90339085908590613765565b5f6104fd826119b6565b610e193382611279565b610e655760405162461bcd60e51b815260206004820152601b60248201527f5573657220646f6573206e6f74206861766520616e206f72646572000000000060448201526064016105ed565b5f816002811115610e7857610e786132c5565b03610e955760405162461bcd60e51b81526004016105ed90613739565b5f6001826002811115610eaa57610eaa6132c5565b14610eb75761c350610ebc565b620f42405b60405163a9059cbb60e01b815290915073637a1259c6afd7e3adf63993ca7e58bb438ab1b19063a9059cbb90610ef89033908590600401613790565b6020604051808303815f875af1158015610f14573d5f5f3e3d5ffd5b505050506040513d601f19601f82011682018060405250810190610f389190613620565b505f5b335f908152600e602052604090205481101561100357826002811115610f6357610f636132c5565b335f908152600e60205260409020805483908110610f8357610f836135d0565b5f91825260209091206003909102015460ff166002811115610fa757610fa76132c5565b03610ffb57335f908152600e6020526040902080546001919083908110610fd057610fd06135d0565b905f5260205f20906003020160020160016101000a81548160ff021916908315150217905550611003565b600101610f3b565b507fb1a36e8ed442841c945480947ced4c36c62b869722699f60c950013f05bef0c4338383604051610aed93929190613765565b5f6001600160a01b038216611061576040516322718ad960e21b81525f60048201526024016105ed565b506001600160a01b03165f9081526003602052604090205490565b611084611aed565b61108d5f611b1a565b565b600e602052815f5260405f2081815481106110a8575f80fd5b5f91825260209091206003909102018054600182015460029092015460ff91821694509192508181169161010090041684565b335f908152600a602052604090206003015460ff166111325760405162461bcd60e51b81526020600482015260136024820152721059d95b9d081a5cc81b9bdd081cdd185ad959606a1b60448201526064016105ed565b5f838152600c602052604090206002015460ff16156111935760405162461bcd60e51b815260206004820152601c60248201527f5265717565737420697320616c72656164792070726f6365737365640000000060448201526064016105ed565b5f838152600d60209081526040808320815160808101835233808252871515828601818152838601898152426060808701918252875460018082018a55988c529a8a902096516003909b02909601805493511515600160a01b026001600160a81b03199094166001600160a01b03909b169a909a17929092178955519488019490945592516002909601959095558251948552928401879052908301527f94276b983d5e3494b839b8736d6fe68a0a4b38a8367305c256fb2baf399d9456910160405180910390a15f838152600d6020526040902054600511610bcf57610bcf83611b6b565b5f8082600281111561128d5761128d6132c5565b036112aa5760405162461bcd60e51b81526004016105ed90613739565b5f5b6001600160a01b0384165f908152600e60205260409020548110156113c1576001600160a01b0384165f908152600e602052604081208054839081106112f4576112f46135d0565b5f918252602090912060408051608081019091526003909202018054829060ff166002811115611326576113266132c5565b6002811115611337576113376132c5565b81526001820154602082015260029182015460ff808216151560408401526101009091041615156060909101529091508490811115611378576113786132c5565b8151600281111561138b5761138b6132c5565b14801561139a57506040810151155b80156113a857506060810151155b156113b8576001925050506104fd565b506001016112ac565b505f9392505050565b60606001805461051190613598565b600d602052815f5260405f2081815481106113f2575f80fd5b5f9182526020909120600390910201805460018201546002909201546001600160a01b0382169450600160a01b90910460ff16925084565b611432611aed565b61143d826002611279565b6114815760405162461bcd60e51b8152602060048201526015602482015274139bc81d995c9a599e481bdc99195c88199bdd5b99605a1b60448201526064016105ed565b61148b60026121ec565b5060098054905f61149b836137a9565b9091555050604080516080810182526001600160a01b03848116825260208083018581525f8486018190524260608601526009548152600c909252939020825181546001600160a01b031916921691909117815591519091906001820190611503908261367f565b5060408281015160028301805460ff191691151591909117905560609092015160039091015560095490517fb4610031e95bec0846790f85fa67e369f500cabbda9395ea19a5fb5e427d27d891610aed91859190613790565b6105c43383836123e1565b600b8181548110611576575f80fd5b5f918252602090912001546001600160a01b0316905081565b61159a8484846105c8565b610650338585858561247f565b60606104fd826125a7565b6115ba611aed565b6115c5826001611279565b6116075760405162461bcd60e51b8152602060048201526013602482015272139bc81b5a5b9d081bdc99195c88199bdd5b99606a1b60448201526064016105ed565b60088054905f611616836137a9565b919050555061162560016121ec565b50611632826008546126b2565b61163e60085482612713565b611651600161164b610656565b5f61275b565b7f30385c845b448a36257a6a1716e6ad2e1bc2cbe333cde1e69fe849ad6511adfe82600854604051610aed929190613790565b60405163a9059cbb60e01b815273637a1259c6afd7e3adf63993ca7e58bb438ab1b19063a9059cbb906116bf90339061c35090600401613790565b6020604051808303815f875af11580156116db573d5f5f3e3d5ffd5b505050506040513d601f19601f820116820180604052508101906116ff9190613620565b50335f908152600a6020526040812090611719828261304a565b506001810180546001600160a01b03191690555f600282018190556003909101805460ff191690555b600b5481101561183657336001600160a01b0316600b8281548110611769576117696135d0565b5f918252602090912001546001600160a01b03160361182e57600b8054611792906001906135f8565b815481106117a2576117a26135d0565b5f91825260209091200154600b80546001600160a01b0390921691839081106117cd576117cd6135d0565b905f5260205f20015f6101000a8154816001600160a01b0302191690836001600160a01b03160217905550600b805480611809576118096137c1565b5f8281526020902081015f1990810180546001600160a01b0319169055019055611836565b600101611742565b506040513381527f3e085cc53b86c19e2e6dba628297af6b8f76c89d1384dbcc599bab2adfd62d089060200160405180910390a1565b6001600160a01b039182165f90815260056020908152604080832093909416825291909152205460ff1690565b6118a1611aed565b6001600160a01b0381166118ca57604051631e4fbdf760e01b81525f60048201526024016105ed565b6118d381611b1a565b50565b600a6020525f90815260409020805481906118f090613598565b80601f016020809104026020016040519081016040528092919081815260200182805461191c90613598565b80156119675780601f1061193e57610100808354040283529160200191611967565b820191905f5260205f20905b81548152906001019060200180831161194a57829003601f168201915b505050506001830154600284015460039094015492936001600160a01b039091169290915060ff1684565b5f6001600160e01b03198216632483248360e11b14806104fd57506104fd82612a33565b5f818152600260205260408120546001600160a01b0316806104fd57604051637e27328960e01b8152600481018490526024016105ed565b610bcf8383836001612a82565b5f828152600260205260408120546001600160a01b0390811690831615611a2757611a27818486612b86565b6001600160a01b03811615611a6157611a425f855f5f612a82565b6001600160a01b0381165f90815260036020526040902080545f190190555b6001600160a01b03851615611a8f576001600160a01b0385165f908152600360205260409020805460010190555b5f8481526002602052604080822080546001600160a01b0319166001600160a01b0389811691821790925591518793918516917fddf252ad1be2c89b69c2b068fc378daa952ba7f163c4a11628f55a4df523b3ef91a4949350505050565b6006546001600160a01b0316331461108d5760405163118cdaa760e01b81523360048201526024016105ed565b600680546001600160a01b038381166001600160a01b0319831681179093556040519116919082907f8be0079c531659141344cd1fd0a4f28419497f9722a3daafe3b4186f6b6457e0905f90a35050565b5f818152600c602052604090206002015460ff1615611bcc5760405162461bcd60e51b815260206004820152601c60248201527f5265717565737420697320616c72656164792070726f6365737365640000000060448201526064016105ed565b5f818152600d6020908152604080832080548251818502810185019093528083529192909190849084015b82821015611c5b575f848152602090819020604080516080810182526003860290920180546001600160a01b0381168452600160a01b900460ff16151583850152600180820154928401929092526002015460608301529083529092019101611bf7565b5050505090505f5f90505f82516001600160401b03811115611c7f57611c7f6133a6565b604051908082528060200260200182016040528015611ca8578160200160208202803683370190505b5090505f83516001600160401b03811115611cc557611cc56133a6565b604051908082528060200260200182016040528015611cee578160200160208202803683370190505b5090505f84516001600160401b03811115611d0b57611d0b6133a6565b604051908082528060200260200182016040528015611d34578160200160208202803683370190505b5090505f80805b8751811015611e7157878181518110611d5657611d566135d0565b60200260200101516020015115611e695786611d71816137a9565b97505f9050805b84811015611df857898381518110611d9257611d926135d0565b602002602001015160400151888281518110611db057611db06135d0565b602002602001015103611df057868181518110611dcf57611dcf6135d0565b602002602001018051809190611de4906137a9565b90525060019150611df8565b600101611d78565b5080611e6757888281518110611e1057611e106135d0565b602002602001015160400151878581518110611e2e57611e2e6135d0565b6020026020010181815250506001868581518110611e4e57611e4e6135d0565b602090810291909101015283611e63816137a9565b9450505b505b600101611d3b565b505f611e7f600260056137d5565b871190508015612088575f80805b85811015611ef75781888281518110611ea857611ea86135d0565b60200260200101511115611eef57878181518110611ec857611ec86135d0565b60200260200101519150888181518110611ee457611ee46135d0565b602002602001015192505b600101611e8d565b505f8b8152600c6020526040908190205490517f7c4bd613345b3aec2140d4c4c96782cda06d72b1a593fbb20a72300354f4c33691611f43916001600160a01b03909116908590613790565b60405180910390a15f5b8a51811015612080578a8181518110611f6857611f686135d0565b6020026020010151602001511580611f9d5750828b8281518110611f8e57611f8e6135d0565b60200260200101516040015114155b15611fcc57611fc78b8281518110611fb757611fb76135d0565b60200260200101515f0151612bdc565b612078565b600a5f8c8381518110611fe157611fe16135d0565b60200260200101515f01516001600160a01b03166001600160a01b031681526020019081526020015f206002015f81548092919061201e906137a9565b91905055508a8181518110612035576120356135d0565b60200260200101515f0151878681518110612052576120526135d0565b6001600160a01b039092166020928302919091019091015284612074816137a9565b9550505b600101611f4d565b505050612186565b5f5b8851811015612184578881815181106120a5576120a56135d0565b602002602001015160200151156120d0576120cb898281518110611fb757611fb76135d0565b61217c565b600a5f8a83815181106120e5576120e56135d0565b60200260200101515f01516001600160a01b03166001600160a01b031681526020019081526020015f206002015f815480929190612122906137a9565b9190505550888181518110612139576121396135d0565b60200260200101515f0151858481518110612156576121566135d0565b6001600160a01b039092166020928302919091019091015282612178816137a9565b9350505b60010161208a565b505b5f898152600c602052604081206002908101805460ff191660011790556121ae91869061275b565b6040518981527fd59c8e4a596666e603cf3e00e02f96d6d1fde87d71e10f4709e317d206b503dc9060200160405180910390a1505050505050505050565b5f805b335f908152600e60205260409020548110156123d957335f908152600e60205260408120805483908110612225576122256135d0565b5f918252602090912060408051608081019091526003909202018054829060ff166002811115612257576122576132c5565b6002811115612268576122686132c5565b81526001820154602082015260029182015460ff8082161515604084015261010090910416151560609091015290915084908111156122a9576122a96132c5565b815160028111156122bc576122bc6132c5565b1480156122cb57506040810151155b80156122d957506060810151155b156123d057335f908152600e6020526040902080546001919084908110612302576123026135d0565b5f9182526020909120600390910201600201805460ff191691151591909117905560065473637a1259c6afd7e3adf63993ca7e58bb438ab1b19063a9059cbb906001600160a01b03166064600a856020015161235e91906137f4565b61236891906137d5565b6040518363ffffffff1660e01b8152600401612385929190613790565b6020604051808303815f875af11580156123a1573d5f5f3e3d5ffd5b505050506040513d601f19601f820116820180604052508101906123c59190613620565b506001949350505050565b506001016121ef565b505f92915050565b6001600160a01b03821661241357604051630b61174360e31b81526001600160a01b03831660048201526024016105ed565b6001600160a01b038381165f81815260056020908152604080832094871680845294825291829020805460ff191686151590811790915591519182527f17307eab39ab6107e8899845ad3d59bd9653f200f220920489ca2b5937696c31910160405180910390a3505050565b6001600160a01b0383163b156125a057604051630a85bd0160e11b81526001600160a01b0384169063150b7a02906124c190889088908790879060040161380b565b6020604051808303815f875af19250505080156124fb575060408051601f3d908101601f191682019092526124f891810190613847565b60015b612562573d808015612528576040519150601f19603f3d011682016040523d82523d5f602084013e61252d565b606091505b5080515f0361255a57604051633250574960e11b81526001600160a01b03851660048201526024016105ed565b805160208201fd5b6001600160e01b03198116630a85bd0160e11b1461259e57604051633250574960e11b81526001600160a01b03851660048201526024016105ed565b505b5050505050565b60606125b2826119b6565b505f82815260076020526040812080546125cb90613598565b80601f01602080910402602001604051908101604052809291908181526020018280546125f790613598565b80156126425780601f1061261957610100808354040283529160200191612642565b820191905f5260205f20905b81548152906001019060200180831161262557829003601f168201915b505050505090505f61265e60408051602081019091525f815290565b905080515f0361266f575092915050565b8151156126a1578082604051602001612689929190613879565b60405160208183030381529060405292505050919050565b6126aa84612e12565b949350505050565b6001600160a01b0382166126db57604051633250574960e11b81525f60048201526024016105ed565b5f6126e783835f6119fb565b90506001600160a01b03811615610bcf576040516339e3563760e11b81525f60048201526024016105ed565b5f82815260076020526040902061272a828261367f565b506040518281527ff8e1a15aba9398e019f0b49df1a4fde98ee17ae345cb5f6b5e2c27f5033e8ce790602001610aed565b5f811561276b575061c350612794565b600184600281111561277f5761277f6132c5565b1461278c5761c350612791565b620f42405b90505b5f60646127a2600a826135f8565b6127ac90846137f4565b6127b691906137d5565b90505f805b855181101561281d57600a5f8783815181106127d9576127d96135d0565b6020908102919091018101516001600160a01b031682528101919091526040015f206003015460ff16156128155781612811816137a9565b9250505b6001016127bb565b50805f036128f05773637a1259c6afd7e3adf63993ca7e58bb438ab1b163a9059cbb6128516006546001600160a01b031690565b846040518363ffffffff1660e01b815260040161286f929190613790565b6020604051808303815f875af115801561288b573d5f5f3e3d5ffd5b505050506040513d601f19601f820116820180604052508101906128af9190613620565b50604080518381525f60208201527fe8ef3e979b5461d2250b3d4490fd4a99865b49c68dc449c038258aeccbebaccd910160405180910390a1505050505050565b5f6128fb82846137d5565b90505f5b86518110156129f057600a5f88838151811061291d5761291d6135d0565b6020908102919091018101516001600160a01b031682528101919091526040015f206003015460ff16156129e85773637a1259c6afd7e3adf63993ca7e58bb438ab1b16001600160a01b031663a9059cbb888381518110612980576129806135d0565b6020026020010151846040518363ffffffff1660e01b81526004016129a6929190613790565b6020604051808303815f875af11580156129c2573d5f5f3e3d5ffd5b505050506040513d601f19601f820116820180604052508101906129e69190613620565b505b6001016128ff565b5060408051848152602081018390527fe8ef3e979b5461d2250b3d4490fd4a99865b49c68dc449c038258aeccbebaccd910160405180910390a150505050505050565b5f6001600160e01b031982166380ac58cd60e01b1480612a6357506001600160e01b03198216635b5e139f60e01b145b806104fd57506301ffc9a760e01b6001600160e01b03198316146104fd565b8080612a9657506001600160a01b03821615155b15612b57575f612aa5846119b6565b90506001600160a01b03831615801590612ad15750826001600160a01b0316816001600160a01b031614155b8015612ae45750612ae2818461186c565b155b15612b0d5760405163a9fbf51f60e01b81526001600160a01b03841660048201526024016105ed565b8115612b555783856001600160a01b0316826001600160a01b03167f8c5be1e5ebec7d5bd14f71427d1e84f3dd0314c0f7b2291e5b200ac8c7c3b92560405160405180910390a45b505b50505f90815260046020526040902080546001600160a01b0319166001600160a01b0392909216919091179055565b612b91838383612e83565b610bcf576001600160a01b038316612bbf57604051637e27328960e01b8152600481018290526024016105ed565b818160405163177e802f60e01b81526004016105ed929190613790565b73637a1259c6afd7e3adf63993ca7e58bb438ab1b163a9059cbb612c086006546001600160a01b031690565b6064612c17600a61c3506137f4565b612c2191906137d5565b6040518363ffffffff1660e01b8152600401612c3e929190613790565b6020604051808303815f875af1158015612c5a573d5f5f3e3d5ffd5b505050506040513d601f19601f82011682018060405250810190612c7e9190613620565b50612c936002612c8c610656565b600161275b565b6001600160a01b0381165f908152600a6020526040812090612cb5828261304a565b506001810180546001600160a01b03191690555f600282018190556003909101805460ff191690555b600b54811015612dd257816001600160a01b0316600b8281548110612d0557612d056135d0565b5f918252602090912001546001600160a01b031603612dca57600b8054612d2e906001906135f8565b81548110612d3e57612d3e6135d0565b5f91825260209091200154600b80546001600160a01b039092169183908110612d6957612d696135d0565b905f5260205f20015f6101000a8154816001600160a01b0302191690836001600160a01b03160217905550600b805480612da557612da56137c1565b5f8281526020902081015f1990810180546001600160a01b0319169055019055612dd2565b600101612cde565b506040516001600160a01b03821681527f975ad74f3e1160b20a620ec57c636ffa56c6b6679a0e2fb5689b4f95e65a69469060200160405180910390a150565b6060612e1d826119b6565b505f612e3360408051602081019091525f815290565b90505f815111612e515760405180602001604052805f815250612e7c565b80612e5b84612ee4565b604051602001612e6c929190613879565b6040516020818303038152906040525b9392505050565b5f6001600160a01b038316158015906126aa5750826001600160a01b0316846001600160a01b03161480612ebc5750612ebc848461186c565b806126aa5750505f908152600460205260409020546001600160a01b03908116911614919050565b60605f612ef083612f73565b60010190505f816001600160401b03811115612f0e57612f0e6133a6565b6040519080825280601f01601f191660200182016040528015612f38576020820181803683370190505b5090508181016020015b5f19016f181899199a1a9b1b9c1cb0b131b232b360811b600a86061a8153600a8504945084612f4257509392505050565b5f8072184f03e93ff9f4daa797ed6e38ed64bf6a1f0160401b8310612fb15772184f03e93ff9f4daa797ed6e38ed64bf6a1f0160401b830492506040015b6d04ee2d6d415b85acef81000000008310612fdd576d04ee2d6d415b85acef8100000000830492506020015b662386f26fc100008310612ffb57662386f26fc10000830492506010015b6305f5e1008310613013576305f5e100830492506008015b612710831061302757612710830492506004015b60648310613039576064830492506002015b600a83106104fd5760010192915050565b50805461305690613598565b5f825580601f10613065575050565b601f0160209004905f5260205f20908101906118d391905b80821115613090575f815560010161307d565b5090565b6001600160e01b0319811681146118d3575f5ffd5b5f602082840312156130b9575f5ffd5b8135612e7c81613094565b5f81518084528060208401602086015e5f602082860101526020601f19601f83011685010191505092915050565b602081525f612e7c60208301846130c4565b5f60208284031215613114575f5ffd5b5035919050565b80356001600160a01b0381168114613131575f5ffd5b919050565b5f5f60408385031215613147575f5ffd5b6131508361311b565b946020939093013593505050565b5f5f5f60608486031215613170575f5ffd5b6131798461311b565b92506131876020850161311b565b929592945050506040919091013590565b602080825282518282018190525f918401906040840190835b818110156131d85783516001600160a01b03168352602093840193909201916001016131b1565b509095945050505050565b5f5f602083850312156131f4575f5ffd5b82356001600160401b03811115613209575f5ffd5b8301601f81018513613219575f5ffd5b80356001600160401b0381111561322e575f5ffd5b85602082840101111561323f575f5ffd5b6020919091019590945092505050565b6001600160a01b03851681526080602082018190525f90613272908301866130c4565b9315156040830152506060015292915050565b803560038110613131575f5ffd5b5f602082840312156132a3575f5ffd5b612e7c82613285565b5f602082840312156132bc575f5ffd5b612e7c8261311b565b634e487b7160e01b5f52602160045260245ffd5b600381106132f557634e487b7160e01b5f52602160045260245ffd5b9052565b6080810161330782876132d9565b602082019490945291151560408301521515606090910152919050565b80151581146118d3575f5ffd5b5f5f5f60608486031215613343575f5ffd5b83359250602084013561318781613324565b5f5f60408385031215613366575f5ffd5b61336f8361311b565b915061337d60208401613285565b90509250929050565b5f5f60408385031215613397575f5ffd5b50508035926020909101359150565b634e487b7160e01b5f52604160045260245ffd5b5f5f6001600160401b038411156133d3576133d36133a6565b50604051601f19601f85018116603f011681018181106001600160401b0382111715613401576134016133a6565b604052838152905080828401851015613418575f5ffd5b838360208301375f60208583010152509392505050565b5f5f60408385031215613440575f5ffd5b6134498361311b565b915060208301356001600160401b03811115613463575f5ffd5b8301601f81018513613473575f5ffd5b613482858235602084016133ba565b9150509250929050565b5f5f6040838503121561349d575f5ffd5b6134a68361311b565b915060208301356134b681613324565b809150509250929050565b5f5f5f5f608085870312156134d4575f5ffd5b6134dd8561311b565b93506134eb6020860161311b565b92506040850135915060608501356001600160401b0381111561350c575f5ffd5b8501601f8101871361351c575f5ffd5b61352b878235602084016133ba565b91505092959194509250565b5f5f60408385031215613548575f5ffd5b6135518361311b565b915061337d6020840161311b565b608081525f61357160808301876130c4565b6001600160a01b039590951660208301525060408101929092521515606090910152919050565b600181811c908216806135ac57607f821691505b6020821081036135ca57634e487b7160e01b5f52602260045260245ffd5b50919050565b634e487b7160e01b5f52603260045260245ffd5b634e487b7160e01b5f52601160045260245ffd5b818103818111156104fd576104fd6135e4565b5f81613619576136196135e4565b505f190190565b5f60208284031215613630575f5ffd5b8151612e7c81613324565b601f821115610bcf57805f5260205f20601f840160051c810160208510156136605750805b601f840160051c820191505b818110156125a0575f815560010161366c565b81516001600160401b03811115613698576136986133a6565b6136ac816136a68454613598565b8461363b565b6020601f8211600181146136de575f83156136c75750848201515b5f19600385901b1c1916600184901b1784556125a0565b5f84815260208120601f198516915b8281101561370d57878501518255602094850194600190920191016136ed565b508482101561372a57868401515f19600387901b60f8161c191681555b50505050600190811b01905550565b602080825260129082015271496e76616c6964206f72646572207479706560701b604082015260600190565b6001600160a01b03841681526060810161378260208301856132d9565b826040830152949350505050565b6001600160a01b03929092168252602082015260400190565b5f600182016137ba576137ba6135e4565b5060010190565b634e487b7160e01b5f52603160045260245ffd5b5f826137ef57634e487b7160e01b5f52601260045260245ffd5b500490565b80820281158282048414176104fd576104fd6135e4565b6001600160a01b03858116825284166020820152604081018390526080606082018190525f9061383d908301846130c4565b9695505050505050565b5f60208284031215613857575f5ffd5b8151612e7c81613094565b5f81518060208401855e5f93019283525090919050565b5f6126aa6138878386613862565b8461386256fea2646970667358221220c573dc85b689f7295febaac7058f8eb87b33d62fddd13afce8294d5bf706d80364736f6c634300081c0033",
  "linkReferences": {},
  "deployedLinkReferences": {},
  "immutableReferences": {},
  "inputSourceName": "project/contracts/Realia.sol",
  "buildInfoId": "solc-0_8_28-ff5203b02612a7a94919b7afa001cdd15bd4be07"
}