{
  "_format": "hh3-artifact-1",
  "contractName": "Realia",
  "sourceName": "contracts/Realia.sol",
  "abi": [
    {
      "inputs": [],
      "stateMutability": "nonpayable",
      "type": "constructor"
    },
    {
      "inputs": [
        {
          "internalType": "address",
          "name": "sender",
          "type": "address"
        },
        {
          "internalType": "uint256",
          "name": "tokenId",
          "type": "uint256"
        },
        {
          "internalType": "address",
          "name": "owner",
          "type": "address"
        }
      ],
      "name": "ERC721IncorrectOwner",
      "type": "error"
    },
    {
      "inputs": [
        {
          "internalType": "address",
          "name": "operator",
          "type": "address"
        },
        {
          "internalType": "uint256",
          "name": "tokenId",
          "type": "uint256"
        }
      ],
      "name": "ERC721InsufficientApproval",
      "type": "error"
    },
    {
      "inputs": [
        {
          "internalType": "address",
          "name": "approver",
          "type": "address"
        }
      ],
      "name": "ERC721InvalidApprover",
      "type": "error"
    },
    {
      "inputs": [
        {
          "internalType": "address",
          "name": "operator",
          "type": "address"
        }
      ],
      "name": "ERC721InvalidOperator",
      "type": "error"
    },
    {
      "inputs": [
        {
          "internalType": "address",
          "name": "owner",
          "type": "address"
        }
      ],
      "name": "ERC721InvalidOwner",
      "type": "error"
    },
    {
      "inputs": [
        {
          "internalType": "address",
          "name": "receiver",
          "type": "address"
        }
      ],
      "name": "ERC721InvalidReceiver",
      "type": "error"
    },
    {
      "inputs": [
        {
          "internalType": "address",
          "name": "sender",
          "type": "address"
        }
      ],
      "name": "ERC721InvalidSender",
      "type": "error"
    },
    {
      "inputs": [
        {
          "internalType": "uint256",
          "name": "tokenId",
          "type": "uint256"
        }
      ],
      "name": "ERC721NonexistentToken",
      "type": "error"
    },
    {
      "inputs": [
        {
          "internalType": "address",
          "name": "owner",
          "type": "address"
        }
      ],
      "name": "OwnableInvalidOwner",
      "type": "error"
    },
    {
      "inputs": [
        {
          "internalType": "address",
          "name": "account",
          "type": "address"
        }
      ],
      "name": "OwnableUnauthorizedAccount",
      "type": "error"
    },
    {
      "anonymous": false,
      "inputs": [
        {
          "indexed": false,
          "internalType": "address",
          "name": "agent",
          "type": "address"
        }
      ],
      "name": "AgentRegistered",
      "type": "event"
    },
    {
      "anonymous": false,
      "inputs": [
        {
          "indexed": false,
          "internalType": "address",
          "name": "agent",
          "type": "address"
        }
      ],
      "name": "AgentUnregistered",
      "type": "event"
    },
    {
      "anonymous": false,
      "inputs": [
        {
          "indexed": false,
          "internalType": "uint256",
          "name": "amount",
          "type": "uint256"
        },
        {
          "indexed": false,
          "internalType": "uint256",
          "name": "amountPerAgent",
          "type": "uint256"
        }
      ],
      "name": "AgentsPaid",
      "type": "event"
    },
    {
      "anonymous": false,
      "inputs": [
        {
          "indexed": true,
          "internalType": "address",
          "name": "owner",
          "type": "address"
        },
        {
          "indexed": true,
          "internalType": "address",
          "name": "approved",
          "type": "address"
        },
        {
          "indexed": true,
          "internalType": "uint256",
          "name": "tokenId",
          "type": "uint256"
        }
      ],
      "name": "Approval",
      "type": "event"
    },
    {
      "anonymous": false,
      "inputs": [
        {
          "indexed": true,
          "internalType": "address",
          "name": "owner",
          "type": "address"
        },
        {
          "indexed": true,
          "internalType": "address",
          "name": "operator",
          "type": "address"
        },
        {
          "indexed": false,
          "internalType": "bool",
          "name": "approved",
          "type": "bool"
        }
      ],
      "name": "ApprovalForAll",
      "type": "event"
    },
    {
      "anonymous": false,
      "inputs": [
        {
          "indexed": false,
          "internalType": "uint256",
          "name": "_fromTokenId",
          "type": "uint256"
        },
        {
          "indexed": false,
          "internalType": "uint256",
          "name": "_toTokenId",
          "type": "uint256"
        }
      ],
      "name": "BatchMetadataUpdate",
      "type": "event"
    },
    {
      "anonymous": false,
      "inputs": [
        {
          "indexed": false,
          "internalType": "uint256",
          "name": "_tokenId",
          "type": "uint256"
        }
      ],
      "name": "MetadataUpdate",
      "type": "event"
    },
    {
      "anonymous": false,
      "inputs": [
        {
          "indexed": false,
          "internalType": "address",
          "name": "to",
          "type": "address"
        },
        {
          "indexed": false,
          "internalType": "uint256",
          "name": "tokenId",
          "type": "uint256"
        }
      ],
      "name": "Minted",
      "type": "event"
    },
    {
      "anonymous": false,
      "inputs": [
        {
          "indexed": false,
          "internalType": "address",
          "name": "to",
          "type": "address"
        },
        {
          "indexed": false,
          "internalType": "enum Realia.OrderType",
          "name": "orderType",
          "type": "uint8"
        },
        {
          "indexed": false,
          "internalType": "uint256",
          "name": "amount",
          "type": "uint256"
        }
      ],
      "name": "OrderCreated",
      "type": "event"
    },
    {
      "anonymous": false,
      "inputs": [
        {
          "indexed": true,
          "internalType": "address",
          "name": "previousOwner",
          "type": "address"
        },
        {
          "indexed": true,
          "internalType": "address",
          "name": "newOwner",
          "type": "address"
        }
      ],
      "name": "OwnershipTransferred",
      "type": "event"
    },
    {
      "anonymous": false,
      "inputs": [
        {
          "indexed": false,
          "internalType": "uint256",
          "name": "requestId",
          "type": "uint256"
        }
      ],
      "name": "ProcessedVerification",
      "type": "event"
    },
    {
      "anonymous": false,
      "inputs": [
        {
          "indexed": false,
          "internalType": "address",
          "name": "agent",
          "type": "address"
        }
      ],
      "name": "Slashed",
      "type": "event"
    },
    {
      "anonymous": false,
      "inputs": [
        {
          "indexed": true,
          "internalType": "address",
          "name": "from",
          "type": "address"
        },
        {
          "indexed": true,
          "internalType": "address",
          "name": "to",
          "type": "address"
        },
        {
          "indexed": true,
          "internalType": "uint256",
          "name": "tokenId",
          "type": "uint256"
        }
      ],
      "name": "Transfer",
      "type": "event"
    },
    {
      "anonymous": false,
      "inputs": [
        {
          "indexed": false,
          "internalType": "address",
          "name": "user",
          "type": "address"
        },
        {
          "indexed": false,
          "internalType": "uint256",
          "name": "requestId",
          "type": "uint256"
        }
      ],
      "name": "VerificationRequested",
      "type": "event"
    },
    {
      "anonymous": false,
      "inputs": [
        {
          "indexed": false,
          "internalType": "address",
          "name": "agent",
          "type": "address"
        },
        {
          "indexed": false,
          "internalType": "uint256",
          "name": "requestId",
          "type": "uint256"
        },
        {
          "indexed": false,
          "internalType": "bool",
          "name": "verified",
          "type": "bool"
        }
      ],
      "name": "VerificationResponseByAgent",
      "type": "event"
    },
    {
      "anonymous": false,
      "inputs": [
        {
          "indexed": false,
          "internalType": "address",
          "name": "to",
          "type": "address"
        },
        {
          "indexed": false,
          "internalType": "uint256",
          "name": "tokenId",
          "type": "uint256"
        }
      ],
      "name": "Verified",
      "type": "event"
    },
    {
      "inputs": [],
      "name": "PYUSD",
      "outputs": [
        {
          "internalType": "contract IERC20",
          "name": "",
          "type": "address"
        }
      ],
      "stateMutability": "view",
      "type": "function"
    },
    {
      "inputs": [
        {
          "internalType": "uint256",
          "name": "",
          "type": "uint256"
        }
      ],
      "name": "agentAddresses",
      "outputs": [
        {
          "internalType": "address",
          "name": "",
          "type": "address"
        }
      ],
      "stateMutability": "view",
      "type": "function"
    },
    {
      "inputs": [
        {
          "internalType": "address",
          "name": "",
          "type": "address"
        }
      ],
      "name": "agents",
      "outputs": [
        {
          "internalType": "uint256",
          "name": "verifiedCount",
          "type": "uint256"
        },
        {
          "internalType": "bool",
          "name": "isStaked",
          "type": "bool"
        }
      ],
      "stateMutability": "view",
      "type": "function"
    },
    {
      "inputs": [
        {
          "internalType": "address",
          "name": "to",
          "type": "address"
        },
        {
          "internalType": "uint256",
          "name": "tokenId",
          "type": "uint256"
        }
      ],
      "name": "approve",
      "outputs": [],
      "stateMutability": "nonpayable",
      "type": "function"
    },
    {
      "inputs": [
        {
          "internalType": "address",
          "name": "owner",
          "type": "address"
        }
      ],
      "name": "balanceOf",
      "outputs": [
        {
          "internalType": "uint256",
          "name": "",
          "type": "uint256"
        }
      ],
      "stateMutability": "view",
      "type": "function"
    },
    {
      "inputs": [
        {
          "internalType": "uint256",
          "name": "tokenId",
          "type": "uint256"
        }
      ],
      "name": "burn",
      "outputs": [],
      "stateMutability": "nonpayable",
      "type": "function"
    },
    {
      "inputs": [
        {
          "internalType": "enum Realia.OrderType",
          "name": "orderType",
          "type": "uint8"
        }
      ],
      "name": "createOrder",
      "outputs": [],
      "stateMutability": "nonpayable",
      "type": "function"
    },
    {
      "inputs": [
        {
          "internalType": "uint256",
          "name": "tokenId",
          "type": "uint256"
        }
      ],
      "name": "getApproved",
      "outputs": [
        {
          "internalType": "address",
          "name": "",
          "type": "address"
        }
      ],
      "stateMutability": "view",
      "type": "function"
    },
    {
      "inputs": [],
      "name": "getTopFiveAgents",
      "outputs": [
        {
          "internalType": "address[]",
          "name": "",
          "type": "address[]"
        }
      ],
      "stateMutability": "view",
      "type": "function"
    },
    {
      "inputs": [
        {
          "internalType": "address",
          "name": "user",
          "type": "address"
        },
        {
          "internalType": "enum Realia.OrderType",
          "name": "orderType",
          "type": "uint8"
        }
      ],
      "name": "hasOrder",
      "outputs": [
        {
          "internalType": "bool",
          "name": "",
          "type": "bool"
        }
      ],
      "stateMutability": "view",
      "type": "function"
    },
    {
      "inputs": [
        {
          "internalType": "address",
          "name": "owner",
          "type": "address"
        },
        {
          "internalType": "address",
          "name": "operator",
          "type": "address"
        }
      ],
      "name": "isApprovedForAll",
      "outputs": [
        {
          "internalType": "bool",
          "name": "",
          "type": "bool"
        }
      ],
      "stateMutability": "view",
      "type": "function"
    },
    {
      "inputs": [
        {
          "internalType": "address",
          "name": "to",
          "type": "address"
        },
        {
          "internalType": "string",
          "name": "uri",
          "type": "string"
        }
      ],
      "name": "mint",
      "outputs": [],
      "stateMutability": "nonpayable",
      "type": "function"
    },
    {
      "inputs": [],
      "name": "name",
      "outputs": [
        {
          "internalType": "string",
          "name": "",
          "type": "string"
        }
      ],
      "stateMutability": "view",
      "type": "function"
    },
    {
      "inputs": [
        {
          "internalType": "address",
          "name": "",
          "type": "address"
        },
        {
          "internalType": "uint256",
          "name": "",
          "type": "uint256"
        }
      ],
      "name": "orders",
      "outputs": [
        {
          "internalType": "enum Realia.OrderType",
          "name": "orderType",
          "type": "uint8"
        },
        {
          "internalType": "uint256",
          "name": "amount",
          "type": "uint256"
        },
        {
          "internalType": "bool",
          "name": "used",
          "type": "bool"
        }
      ],
      "stateMutability": "view",
      "type": "function"
    },
    {
      "inputs": [],
      "name": "owner",
      "outputs": [
        {
          "internalType": "address",
          "name": "",
          "type": "address"
        }
      ],
      "stateMutability": "view",
      "type": "function"
    },
    {
      "inputs": [
        {
          "internalType": "uint256",
          "name": "tokenId",
          "type": "uint256"
        }
      ],
      "name": "ownerOf",
      "outputs": [
        {
          "internalType": "address",
          "name": "",
          "type": "address"
        }
      ],
      "stateMutability": "view",
      "type": "function"
    },
    {
      "inputs": [],
      "name": "registerAgent",
      "outputs": [],
      "stateMutability": "nonpayable",
      "type": "function"
    },
    {
      "inputs": [],
      "name": "renounceOwnership",
      "outputs": [],
      "stateMutability": "nonpayable",
      "type": "function"
    },
    {
      "inputs": [
        {
          "internalType": "string",
          "name": "uri",
          "type": "string"
        }
      ],
      "name": "requestVerification",
      "outputs": [],
      "stateMutability": "nonpayable",
      "type": "function"
    },
    {
      "inputs": [
        {
          "internalType": "uint256",
          "name": "requestId",
          "type": "uint256"
        },
        {
          "internalType": "bool",
          "name": "verified",
          "type": "bool"
        },
        {
          "internalType": "uint256",
          "name": "propertyTokenId",
          "type": "uint256"
        }
      ],
      "name": "responseVerification",
      "outputs": [],
      "stateMutability": "nonpayable",
      "type": "function"
    },
    {
      "inputs": [
        {
          "internalType": "address",
          "name": "from",
          "type": "address"
        },
        {
          "internalType": "address",
          "name": "to",
          "type": "address"
        },
        {
          "internalType": "uint256",
          "name": "tokenId",
          "type": "uint256"
        }
      ],
      "name": "safeTransferFrom",
      "outputs": [],
      "stateMutability": "nonpayable",
      "type": "function"
    },
    {
      "inputs": [
        {
          "internalType": "address",
          "name": "from",
          "type": "address"
        },
        {
          "internalType": "address",
          "name": "to",
          "type": "address"
        },
        {
          "internalType": "uint256",
          "name": "tokenId",
          "type": "uint256"
        },
        {
          "internalType": "bytes",
          "name": "data",
          "type": "bytes"
        }
      ],
      "name": "safeTransferFrom",
      "outputs": [],
      "stateMutability": "nonpayable",
      "type": "function"
    },
    {
      "inputs": [
        {
          "internalType": "address",
          "name": "operator",
          "type": "address"
        },
        {
          "internalType": "bool",
          "name": "approved",
          "type": "bool"
        }
      ],
      "name": "setApprovalForAll",
      "outputs": [],
      "stateMutability": "nonpayable",
      "type": "function"
    },
    {
      "inputs": [
        {
          "internalType": "bytes4",
          "name": "interfaceId",
          "type": "bytes4"
        }
      ],
      "name": "supportsInterface",
      "outputs": [
        {
          "internalType": "bool",
          "name": "",
          "type": "bool"
        }
      ],
      "stateMutability": "view",
      "type": "function"
    },
    {
      "inputs": [],
      "name": "symbol",
      "outputs": [
        {
          "internalType": "string",
          "name": "",
          "type": "string"
        }
      ],
      "stateMutability": "view",
      "type": "function"
    },
    {
      "inputs": [],
      "name": "tokenId",
      "outputs": [
        {
          "internalType": "uint256",
          "name": "",
          "type": "uint256"
        }
      ],
      "stateMutability": "view",
      "type": "function"
    },
    {
      "inputs": [
        {
          "internalType": "uint256",
          "name": "_tokenId",
          "type": "uint256"
        }
      ],
      "name": "tokenURI",
      "outputs": [
        {
          "internalType": "string",
          "name": "",
          "type": "string"
        }
      ],
      "stateMutability": "view",
      "type": "function"
    },
    {
      "inputs": [
        {
          "internalType": "address",
          "name": "from",
          "type": "address"
        },
        {
          "internalType": "address",
          "name": "to",
          "type": "address"
        },
        {
          "internalType": "uint256",
          "name": "tokenId",
          "type": "uint256"
        }
      ],
      "name": "transferFrom",
      "outputs": [],
      "stateMutability": "nonpayable",
      "type": "function"
    },
    {
      "inputs": [
        {
          "internalType": "address",
          "name": "newOwner",
          "type": "address"
        }
      ],
      "name": "transferOwnership",
      "outputs": [],
      "stateMutability": "nonpayable",
      "type": "function"
    },
    {
      "inputs": [],
      "name": "unregisterAgent",
      "outputs": [],
      "stateMutability": "nonpayable",
      "type": "function"
    },
    {
      "inputs": [],
      "name": "verificationId",
      "outputs": [
        {
          "internalType": "uint256",
          "name": "",
          "type": "uint256"
        }
      ],
      "stateMutability": "view",
      "type": "function"
    },
    {
      "inputs": [
        {
          "internalType": "uint256",
          "name": "",
          "type": "uint256"
        }
      ],
      "name": "verificationRequests",
      "outputs": [
        {
          "internalType": "address",
          "name": "user",
          "type": "address"
        },
        {
          "internalType": "string",
          "name": "uri",
          "type": "string"
        },
        {
          "internalType": "bool",
          "name": "processed",
          "type": "bool"
        },
        {
          "internalType": "uint256",
          "name": "requestTime",
          "type": "uint256"
        }
      ],
      "stateMutability": "view",
      "type": "function"
    },
    {
      "inputs": [
        {
          "internalType": "uint256",
          "name": "",
          "type": "uint256"
        },
        {
          "internalType": "uint256",
          "name": "",
          "type": "uint256"
        }
      ],
      "name": "verificationResponses",
      "outputs": [
        {
          "internalType": "address",
          "name": "agent",
          "type": "address"
        },
        {
          "internalType": "bool",
          "name": "verified",
          "type": "bool"
        },
        {
          "internalType": "uint256",
          "name": "tokenId",
          "type": "uint256"
        },
        {
          "internalType": "uint256",
          "name": "responseTime",
          "type": "uint256"
        }
      ],
      "stateMutability": "view",
      "type": "function"
    }
  ],
  "bytecode": "0x60806040525f6008555f600955348015610017575f5ffd5b5033604051806040016040528060068152602001655265616c696160d01b815250604051806040016040528060068152602001655245414c494160d01b815250815f9081610065919061019a565b506001610072828261019a565b5050506001600160a01b0381166100a257604051631e4fbdf760e01b81525f600482015260240160405180910390fd5b6100ab816100b1565b50610254565b600680546001600160a01b038381166001600160a01b0319831681179093556040519116919082907f8be0079c531659141344cd1fd0a4f28419497f9722a3daafe3b4186f6b6457e0905f90a35050565b634e487b7160e01b5f52604160045260245ffd5b600181811c9082168061012a57607f821691505b60208210810361014857634e487b7160e01b5f52602260045260245ffd5b50919050565b601f82111561019557805f5260205f20601f840160051c810160208510156101735750805b601f840160051c820191505b81811015610192575f815560010161017f565b50505b505050565b81516001600160401b038111156101b3576101b3610102565b6101c7816101c18454610116565b8461014e565b6020601f8211600181146101f9575f83156101e25750848201515b5f19600385901b1c1916600184901b178455610192565b5f84815260208120601f198516915b828110156102285787850151825560209485019460019092019101610208565b508482101561024557868401515f19600387901b60f8161c191681555b50505050600190811b01905550565b613246806102615f395ff3fe608060405234801561000f575f5ffd5b50600436106101f2575f3560e01c8063793b8c6d11610114578063a7676a63116100a9578063e31f1a7c11610079578063e31f1a7c1461046f578063e8841c2514610477578063e985e9c514610480578063f2fde38b14610493578063fd66091e146104a6575f5ffd5b8063a7676a6314610423578063b88d4fde14610436578063c87b56dd14610449578063d0def5211461045c575f5ffd5b806395d89b41116100e457806395d89b41146103b057806396e45457146103b85780639e19789d146103f5578063a22cb46514610410575f5ffd5b8063793b8c6d1461035757806382c32802146103795780638828bd421461038c5780638da5cb5b1461039f575f5ffd5b80634089d49f1161018a5780636352211e1161015a5780636352211e146103165780636cbff42a1461032957806370a082311461033c578063715018a61461034f575f5ffd5b80634089d49f146102ba57806342842e0e146102dd57806342966c68146102f057806350e01a5814610303575f5ffd5b806317d70f7c116101c557806317d70f7c1461027357806323b872dd1461028a57806327cabf881461029d57806335eb5208146102b2575f5ffd5b806301ffc9a7146101f657806306fdde031461021e578063081812fc14610233578063095ea7b31461025e575b5f5ffd5b610209610204366004612adb565b6104e4565b60405190151581526020015b60405180910390f35b6102266104f4565b6040516102159190612b24565b610246610241366004612b36565b610583565b6040516001600160a01b039091168152602001610215565b61027161026c366004612b68565b6105aa565b005b61027c60085481565b604051908152602001610215565b610271610298366004612b90565b6105b9565b6102a5610647565b6040516102159190612bca565b610271610936565b6102cd6102c8366004612b36565b610a63565b6040516102159493929190612c15565b6102716102eb366004612b90565b610b1f565b6102716102fe366004612b36565b610b3e565b610271610311366004612c59565b610b49565b610246610324366004612b36565b610d7f565b610271610337366004612d1b565b610d89565b61027c61034a366004612d4d565b610ebb565b610271610f00565b61036a610365366004612b68565b610f13565b60405161021593929190612d9a565b610271610387366004612dcb565b610f56565b61020961039a366004612def565b6110f4565b6006546001600160a01b0316610246565b61022661124d565b6103cb6103c6366004612e20565b61125c565b604080516001600160a01b0390951685529215156020850152918301526060820152608001610215565b61024673637a1259c6afd7e3adf63993ca7e58bb438ab1b181565b61027161041e366004612e40565b6112ad565b610246610431366004612b36565b6112b8565b610271610444366004612e75565b6112e0565b610226610457366004612b36565b6112f8565b61027161046a366004612eec565b611303565b6102716113e1565b61027c60095481565b61020961048e366004612f37565b6115bc565b6102716104a1366004612d4d565b6115e9565b6104cf6104b4366004612d4d565b600a6020525f90815260409020805460019091015460ff1682565b60408051928352901515602083015201610215565b5f6104ee82611626565b92915050565b60605f805461050290612f5f565b80601f016020809104026020016040519081016040528092919081815260200182805461052e90612f5f565b80156105795780601f1061055057610100808354040283529160200191610579565b820191905f5260205f20905b81548152906001019060200180831161055c57829003601f168201915b5050505050905090565b5f61058d8261164a565b505f828152600460205260409020546001600160a01b03166104ee565b6105b5828233611682565b5050565b6001600160a01b0382166105e757604051633250574960e11b81525f60048201526024015b60405180910390fd5b5f6105f383833361168f565b9050836001600160a01b0316816001600160a01b031614610641576040516364283d7b60e01b81526001600160a01b03808616600483015260248201849052821660448201526064016105de565b50505050565b60605f6005600b805490501061065e576005610662565b600b545b90505f8167ffffffffffffffff81111561067e5761067e612c72565b6040519080825280602002602001820160405280156106a7578160200160208202803683370190505b5090505f8267ffffffffffffffff8111156106c4576106c4612c72565b6040519080825280602002602001820160405280156106ed578160200160208202803683370190505b5090505f5b600b5481101561092d57600a5f600b838154811061071257610712612f97565b5f9182526020808320909101546001600160a01b0316835282019290925260400190206001015460ff1615610925575f600a5f600b848154811061075857610758612f97565b5f9182526020808320909101546001600160a01b0316835282019290925260400181205491505b85811015610922575f6001600160a01b03168582815181106107a3576107a3612f97565b60200260200101516001600160a01b031614806107d857508381815181106107cd576107cd612f97565b602002602001015182115b1561091a575f6107e9600188612fbf565b90505b818111156108955785610800600183612fbf565b8151811061081057610810612f97565b602002602001015186828151811061082a5761082a612f97565b6001600160a01b03909216602092830291909101909101528461084e600183612fbf565b8151811061085e5761085e612f97565b602002602001015185828151811061087857610878612f97565b60209081029190910101528061088d81612fd2565b9150506107ec565b50600b83815481106108a9576108a9612f97565b905f5260205f20015f9054906101000a90046001600160a01b03168582815181106108d6576108d6612f97565b60200260200101906001600160a01b031690816001600160a01b0316815250508184828151811061090957610909612f97565b602002602001018181525050610922565b60010161077f565b50505b6001016106f2565b50909392505050565b6040516323b872dd60e01b815233600482015230602482015261c350604482015273637a1259c6afd7e3adf63993ca7e58bb438ab1b1906323b872dd906064016020604051808303815f875af1158015610992573d5f5f3e3d5ffd5b505050506040513d601f19601f820116820180604052508101906109b69190612fe7565b506040805180820182525f8082526001602080840182815233808552600a8352868520955186559051948301805460ff191695151595909517909455600b805492830181559092527f0175b7a638427703f0dbe7bb9bbf987a2551717b34e79f33b5b1008d1fa01db90180546001600160a01b0319168317905591519081527f82d0829d9d481e4cb9913897f9b9c903271c4db68c7b3324071d2a7e3b2c5ff091015b60405180910390a1565b600c6020525f9081526040902080546001820180546001600160a01b039092169291610a8e90612f5f565b80601f0160208091040260200160405190810160405280929190818152602001828054610aba90612f5f565b8015610b055780601f10610adc57610100808354040283529160200191610b05565b820191905f5260205f20905b815481529060010190602001808311610ae857829003601f168201915b505050506002830154600390930154919260ff1691905084565b610b3983838360405180602001604052805f8152506112e0565b505050565b6105b55f823361168f565b5f80826001811115610b5d57610b5d612d66565b14610b6a5761c350610b6f565b620f42405b6040516323b872dd60e01b81523360048201523060248201526044810182905290915073637a1259c6afd7e3adf63993ca7e58bb438ab1b1906323b872dd906064016020604051808303815f875af1158015610bcd573d5f5f3e3d5ffd5b505050506040513d601f19601f82011682018060405250810190610bf19190612fe7565b5073637a1259c6afd7e3adf63993ca7e58bb438ab1b163a9059cbb610c1e6006546001600160a01b031690565b6064610c2b600a86613002565b610c359190613019565b6040516001600160e01b031960e085901b1681526001600160a01b03909216600483015260248201526044016020604051808303815f875af1158015610c7d573d5f5f3e3d5ffd5b505050506040513d601f19601f82011682018060405250810190610ca19190612fe7565b50335f908152600e6020526040908190208151606081019092529080846001811115610ccf57610ccf612d66565b815260208082018590525f604090920182905283546001818101865594835291208251600390920201805492939092839160ff19909116908381811115610d1857610d18612d66565b0217905550602082015160018201556040918201516002909101805460ff1916911515919091179055517f4f46ced13b7c0cf2078b2d56e6e8a3d2c2209b6bee4aa8af5074b44969b541ed90610d7390339085908590613038565b60405180910390a15050565b5f6104ee8261164a565b610d943360016110f4565b610dd85760405162461bcd60e51b8152602060048201526015602482015274139bc81d995c9a599e481bdc99195c88199bdd5b99605a1b60448201526064016105de565b610de26001611781565b5060098054905f610df283613063565b90915550506040805160808101825233815260208082018481525f8385018190524260608501526009548152600c909252929020815181546001600160a01b0319166001600160a01b0390911617815591519091906001820190610e5690826130bf565b5060408281015160028301805460ff1916911515919091179055606090920151600390910155600954815133815260208101919091527fb4610031e95bec0846790f85fa67e369f500cabbda9395ea19a5fb5e427d27d891015b60405180910390a150565b5f6001600160a01b038216610ee5576040516322718ad960e21b81525f60048201526024016105de565b506001600160a01b03165f9081526003602052604090205490565b610f086118f9565b610f115f611926565b565b600e602052815f5260405f208181548110610f2c575f80fd5b5f91825260209091206003909102018054600182015460029092015460ff91821694509192501683565b335f908152600a602052604090206001015460ff16610fad5760405162461bcd60e51b81526020600482015260136024820152721059d95b9d081a5cc81b9bdd081cdd185ad959606a1b60448201526064016105de565b5f838152600c602052604090206002015460ff161561100e5760405162461bcd60e51b815260206004820152601c60248201527f5265717565737420697320616c72656164792070726f6365737365640000000060448201526064016105de565b5f838152600d60209081526040808320815160808101835233808252871515828601818152838601898152426060808701918252875460018082018a55988c529a8a902096516003909b02909601805493511515600160a01b026001600160a81b03199094166001600160a01b03909b169a909a17929092178955519488019490945592516002909601959095558251948552928401879052908301527f94276b983d5e3494b839b8736d6fe68a0a4b38a8367305c256fb2baf399d9456910160405180910390a15f838152600d6020526040902054600511610b3957610b3983611977565b5f808083600181111561110957611109612d66565b146111165761c35061111b565b620f42405b90505f5b6001600160a01b0385165f908152600e60205260409020548110156112435783600181111561115057611150612d66565b6001600160a01b0386165f908152600e6020526040902080548390811061117957611179612f97565b5f91825260209091206003909102015460ff16600181111561119d5761119d612d66565b1480156111e357506001600160a01b0385165f908152600e602052604090208054839190839081106111d1576111d1612f97565b905f5260205f20906003020160010154145b801561122b57506001600160a01b0385165f908152600e6020526040902080548290811061121357611213612f97565b5f91825260209091206002600390920201015460ff16155b1561123b576001925050506104ee565b60010161111f565b505f949350505050565b60606001805461050290612f5f565b600d602052815f5260405f208181548110611275575f80fd5b5f9182526020909120600390910201805460018201546002909201546001600160a01b0382169450600160a01b90910460ff16925084565b6105b5338383611fe2565b600b81815481106112c7575f80fd5b5f918252602090912001546001600160a01b0316905081565b6112eb8484846105b9565b6106413385858585612080565b60606104ee826121a8565b61130b6118f9565b611315825f6110f4565b6113575760405162461bcd60e51b8152602060048201526013602482015272139bc81b5a5b9d081bdc99195c88199bdd5b99606a1b60448201526064016105de565b60088054905f61136683613063565b91905055506113745f611781565b50611381826008546122b3565b61138d60085482612314565b61139e5f611399610647565b61235c565b600854604080516001600160a01b038516815260208101929092527f30385c845b448a36257a6a1716e6ad2e1bc2cbe333cde1e69fe849ad6511adfe9101610d73565b60405163a9059cbb60e01b815233600482015261c350602482015273637a1259c6afd7e3adf63993ca7e58bb438ab1b19063a9059cbb906044016020604051808303815f875af1158015611437573d5f5f3e3d5ffd5b505050506040513d601f19601f8201168201806040525081019061145b9190612fe7565b506040805180820182525f8082526020808301828152338352600a9091529281209151825591516001909101805460ff19169115159190911790555b600b5481101561158b57336001600160a01b0316600b82815481106114be576114be612f97565b5f918252602090912001546001600160a01b03160361158357600b80546114e790600190612fbf565b815481106114f7576114f7612f97565b5f91825260209091200154600b80546001600160a01b03909216918390811061152257611522612f97565b905f5260205f20015f6101000a8154816001600160a01b0302191690836001600160a01b03160217905550600b80548061155e5761155e61317a565b5f8281526020902081015f1990810180546001600160a01b031916905501905561158b565b600101611497565b506040513381527f3e085cc53b86c19e2e6dba628297af6b8f76c89d1384dbcc599bab2adfd62d0890602001610a59565b6001600160a01b039182165f90815260056020908152604080832093909416825291909152205460ff1690565b6115f16118f9565b6001600160a01b03811661161a57604051631e4fbdf760e01b81525f60048201526024016105de565b61162381611926565b50565b5f6001600160e01b03198216632483248360e11b14806104ee57506104ee82612564565b5f818152600260205260408120546001600160a01b0316806104ee57604051637e27328960e01b8152600481018490526024016105de565b610b3983838360016125b3565b5f828152600260205260408120546001600160a01b03908116908316156116bb576116bb8184866126b7565b6001600160a01b038116156116f5576116d65f855f5f6125b3565b6001600160a01b0381165f90815260036020526040902080545f190190555b6001600160a01b03851615611723576001600160a01b0385165f908152600360205260409020805460010190555b5f8481526002602052604080822080546001600160a01b0319166001600160a01b0389811691821790925591518793918516917fddf252ad1be2c89b69c2b068fc378daa952ba7f163c4a11628f55a4df523b3ef91a4949350505050565b5f808083600181111561179657611796612d66565b146117a35761c3506117a8565b620f42405b90505f5b335f908152600e60205260409020548110156118f0578360018111156117d4576117d4612d66565b335f908152600e602052604090208054839081106117f4576117f4612f97565b5f91825260209091206003909102015460ff16600181111561181857611818612d66565b1480156118555750335f908152600e6020526040902080548391908390811061184357611843612f97565b905f5260205f20906003020160010154145b80156118945750335f908152600e6020526040902080548290811061187c5761187c612f97565b5f91825260209091206002600390920201015460ff16155b156118e857335f908152600e60205260409020805460019190839081106118bd576118bd612f97565b5f9182526020909120600390910201600201805460ff19169115159190911790555060019392505050565b6001016117ac565b505f9392505050565b6006546001600160a01b03163314610f115760405163118cdaa760e01b81523360048201526024016105de565b600680546001600160a01b038381166001600160a01b0319831681179093556040519116919082907f8be0079c531659141344cd1fd0a4f28419497f9722a3daafe3b4186f6b6457e0905f90a35050565b5f818152600c602052604090206002015460ff16156119d85760405162461bcd60e51b815260206004820152601c60248201527f5265717565737420697320616c72656164792070726f6365737365640000000060448201526064016105de565b5f818152600d6020908152604080832080548251818502810185019093528083529192909190849084015b82821015611a67575f848152602090819020604080516080810182526003860290920180546001600160a01b0381168452600160a01b900460ff16151583850152600180820154928401929092526002015460608301529083529092019101611a03565b5050505090505f5f90505f825167ffffffffffffffff811115611a8c57611a8c612c72565b604051908082528060200260200182016040528015611ab5578160200160208202803683370190505b5090505f835167ffffffffffffffff811115611ad357611ad3612c72565b604051908082528060200260200182016040528015611afc578160200160208202803683370190505b5090505f845167ffffffffffffffff811115611b1a57611b1a612c72565b604051908082528060200260200182016040528015611b43578160200160208202803683370190505b5090505f80805b8751811015611c8057878181518110611b6557611b65612f97565b60200260200101516020015115611c785786611b8081613063565b97505f9050805b84811015611c0757898381518110611ba157611ba1612f97565b602002602001015160400151888281518110611bbf57611bbf612f97565b602002602001015103611bff57868181518110611bde57611bde612f97565b602002602001018051809190611bf390613063565b90525060019150611c07565b600101611b87565b5080611c7657888281518110611c1f57611c1f612f97565b602002602001015160400151878581518110611c3d57611c3d612f97565b6020026020010181815250506001868581518110611c5d57611c5d612f97565b602090810291909101015283611c7281613063565b9450505b505b600101611b4a565b505f611c8e60026005613019565b871190508015611e8a575f80805b85811015611d065781888281518110611cb757611cb7612f97565b60200260200101511115611cfe57878181518110611cd757611cd7612f97565b60200260200101519150888181518110611cf357611cf3612f97565b602002602001015192505b600101611c9c565b505f8b8152600c60209081526040918290205482516001600160a01b0390911681529081018490527f7c4bd613345b3aec2140d4c4c96782cda06d72b1a593fbb20a72300354f4c336910160405180910390a15f5b8a51811015611e82578a8181518110611d7657611d76612f97565b6020026020010151602001511580611dab5750828b8281518110611d9c57611d9c612f97565b60200260200101516040015114155b15611dda57611dd58b8281518110611dc557611dc5612f97565b60200260200101515f015161271b565b611e7a565b600a5f8c8381518110611def57611def612f97565b602090810291909101810151516001600160a01b031682528101919091526040015f908120805491611e2083613063565b91905055508a8181518110611e3757611e37612f97565b60200260200101515f0151878681518110611e5457611e54612f97565b6001600160a01b039092166020928302919091019091015284611e7681613063565b9550505b600101611d5b565b505050611f7c565b5f5b8851811015611f7a57888181518110611ea757611ea7612f97565b60200260200101516020015115611ed257611ecd898281518110611dc557611dc5612f97565b611f72565b600a5f8a8381518110611ee757611ee7612f97565b602090810291909101810151516001600160a01b031682528101919091526040015f908120805491611f1883613063565b9190505550888181518110611f2f57611f2f612f97565b60200260200101515f0151858481518110611f4c57611f4c612f97565b6001600160a01b039092166020928302919091019091015282611f6e81613063565b9350505b600101611e8c565b505b5f898152600c60205260409020600201805460ff19166001908117909155611fa4908561235c565b6040518981527fd59c8e4a596666e603cf3e00e02f96d6d1fde87d71e10f4709e317d206b503dc9060200160405180910390a1505050505050505050565b6001600160a01b03821661201457604051630b61174360e31b81526001600160a01b03831660048201526024016105de565b6001600160a01b038381165f81815260056020908152604080832094871680845294825291829020805460ff191686151590811790915591519182527f17307eab39ab6107e8899845ad3d59bd9653f200f220920489ca2b5937696c31910160405180910390a3505050565b6001600160a01b0383163b156121a157604051630a85bd0160e11b81526001600160a01b0384169063150b7a02906120c290889088908790879060040161318e565b6020604051808303815f875af19250505080156120fc575060408051601f3d908101601f191682019092526120f9918101906131ca565b60015b612163573d808015612129576040519150601f19603f3d011682016040523d82523d5f602084013e61212e565b606091505b5080515f0361215b57604051633250574960e11b81526001600160a01b03851660048201526024016105de565b805160208201fd5b6001600160e01b03198116630a85bd0160e11b1461219f57604051633250574960e11b81526001600160a01b03851660048201526024016105de565b505b5050505050565b60606121b38261164a565b505f82815260076020526040812080546121cc90612f5f565b80601f01602080910402602001604051908101604052809291908181526020018280546121f890612f5f565b80156122435780601f1061221a57610100808354040283529160200191612243565b820191905f5260205f20905b81548152906001019060200180831161222657829003601f168201915b505050505090505f61225f60408051602081019091525f815290565b905080515f03612270575092915050565b8151156122a257808260405160200161228a9291906131fc565b60405160208183030381529060405292505050919050565b6122ab8461288d565b949350505050565b6001600160a01b0382166122dc57604051633250574960e11b81525f60048201526024016105de565b5f6122e883835f61168f565b90506001600160a01b03811615610b39576040516339e3563760e11b81525f60048201526024016105de565b5f82815260076020526040902061232b82826130bf565b506040518281527ff8e1a15aba9398e019f0b49df1a4fde98ee17ae345cb5f6b5e2c27f5033e8ce790602001610d73565b5f8083600181111561237057612370612d66565b1461237d5761c350612382565b620f42405b90505f6064612392600a82612fbf565b61239c9084613002565b6123a69190613019565b90505f805b845181101561240d57600a5f8683815181106123c9576123c9612f97565b6020908102919091018101516001600160a01b031682528101919091526040015f206001015460ff1615612405578161240181613063565b9250505b6001016123ab565b505f6124198284613019565b90505f5b855181101561252257600a5f87838151811061243b5761243b612f97565b6020908102919091018101516001600160a01b031682528101919091526040015f206001015460ff161561251a5773637a1259c6afd7e3adf63993ca7e58bb438ab1b16001600160a01b031663a9059cbb87838151811061249e5761249e612f97565b6020026020010151846040518363ffffffff1660e01b81526004016124d89291906001600160a01b03929092168252602082015260400190565b6020604051808303815f875af11580156124f4573d5f5f3e3d5ffd5b505050506040513d601f19601f820116820180604052508101906125189190612fe7565b505b60010161241d565b5060408051848152602081018390527fe8ef3e979b5461d2250b3d4490fd4a99865b49c68dc449c038258aeccbebaccd910160405180910390a1505050505050565b5f6001600160e01b031982166380ac58cd60e01b148061259457506001600160e01b03198216635b5e139f60e01b145b806104ee57506301ffc9a760e01b6001600160e01b03198316146104ee565b80806125c757506001600160a01b03821615155b15612688575f6125d68461164a565b90506001600160a01b038316158015906126025750826001600160a01b0316816001600160a01b031614155b8015612615575061261381846115bc565b155b1561263e5760405163a9fbf51f60e01b81526001600160a01b03841660048201526024016105de565b81156126865783856001600160a01b0316826001600160a01b03167f8c5be1e5ebec7d5bd14f71427d1e84f3dd0314c0f7b2291e5b200ac8c7c3b92560405160405180910390a45b505b50505f90815260046020526040902080546001600160a01b0319166001600160a01b0392909216919091179055565b6126c28383836128fe565b610b39576001600160a01b0383166126f057604051637e27328960e01b8152600481018290526024016105de565b60405163177e802f60e01b81526001600160a01b0383166004820152602481018290526044016105de565b6040805180820182525f80825260208083018281526001600160a01b0386168352600a9091529281209151825591516001909101805460ff19169115159190911790555b600b5481101561285357816001600160a01b0316600b828154811061278657612786612f97565b5f918252602090912001546001600160a01b03160361284b57600b80546127af90600190612fbf565b815481106127bf576127bf612f97565b5f91825260209091200154600b80546001600160a01b0390921691839081106127ea576127ea612f97565b905f5260205f20015f6101000a8154816001600160a01b0302191690836001600160a01b03160217905550600b8054806128265761282661317a565b5f8281526020902081015f1990810180546001600160a01b0319169055019055612853565b60010161275f565b506040516001600160a01b03821681527f975ad74f3e1160b20a620ec57c636ffa56c6b6679a0e2fb5689b4f95e65a694690602001610eb0565b60606128988261164a565b505f6128ae60408051602081019091525f815290565b90505f8151116128cc5760405180602001604052805f8152506128f7565b806128d68461295f565b6040516020016128e79291906131fc565b6040516020818303038152906040525b9392505050565b5f6001600160a01b038316158015906122ab5750826001600160a01b0316846001600160a01b03161480612937575061293784846115bc565b806122ab5750505f908152600460205260409020546001600160a01b03908116911614919050565b60605f61296b836129ef565b60010190505f8167ffffffffffffffff81111561298a5761298a612c72565b6040519080825280601f01601f1916602001820160405280156129b4576020820181803683370190505b5090508181016020015b5f19016f181899199a1a9b1b9c1cb0b131b232b360811b600a86061a8153600a85049450846129be57509392505050565b5f8072184f03e93ff9f4daa797ed6e38ed64bf6a1f0160401b8310612a2d5772184f03e93ff9f4daa797ed6e38ed64bf6a1f0160401b830492506040015b6d04ee2d6d415b85acef81000000008310612a59576d04ee2d6d415b85acef8100000000830492506020015b662386f26fc100008310612a7757662386f26fc10000830492506010015b6305f5e1008310612a8f576305f5e100830492506008015b6127108310612aa357612710830492506004015b60648310612ab5576064830492506002015b600a83106104ee5760010192915050565b6001600160e01b031981168114611623575f5ffd5b5f60208284031215612aeb575f5ffd5b81356128f781612ac6565b5f81518084528060208401602086015e5f602082860101526020601f19601f83011685010191505092915050565b602081525f6128f76020830184612af6565b5f60208284031215612b46575f5ffd5b5035919050565b80356001600160a01b0381168114612b63575f5ffd5b919050565b5f5f60408385031215612b79575f5ffd5b612b8283612b4d565b946020939093013593505050565b5f5f5f60608486031215612ba2575f5ffd5b612bab84612b4d565b9250612bb960208501612b4d565b929592945050506040919091013590565b602080825282518282018190525f918401906040840190835b81811015612c0a5783516001600160a01b0316835260209384019390920191600101612be3565b509095945050505050565b6001600160a01b03851681526080602082018190525f90612c3890830186612af6565b9315156040830152506060015292915050565b803560028110612b63575f5ffd5b5f60208284031215612c69575f5ffd5b6128f782612c4b565b634e487b7160e01b5f52604160045260245ffd5b5f5f67ffffffffffffffff841115612ca057612ca0612c72565b50604051601f19601f85018116603f0116810181811067ffffffffffffffff82111715612ccf57612ccf612c72565b604052838152905080828401851015612ce6575f5ffd5b838360208301375f60208583010152509392505050565b5f82601f830112612d0c575f5ffd5b6128f783833560208501612c86565b5f60208284031215612d2b575f5ffd5b813567ffffffffffffffff811115612d41575f5ffd5b6122ab84828501612cfd565b5f60208284031215612d5d575f5ffd5b6128f782612b4d565b634e487b7160e01b5f52602160045260245ffd5b60028110612d9657634e487b7160e01b5f52602160045260245ffd5b9052565b60608101612da88286612d7a565b8360208301528215156040830152949350505050565b8015158114611623575f5ffd5b5f5f5f60608486031215612ddd575f5ffd5b833592506020840135612bb981612dbe565b5f5f60408385031215612e00575f5ffd5b612e0983612b4d565b9150612e1760208401612c4b565b90509250929050565b5f5f60408385031215612e31575f5ffd5b50508035926020909101359150565b5f5f60408385031215612e51575f5ffd5b612e5a83612b4d565b91506020830135612e6a81612dbe565b809150509250929050565b5f5f5f5f60808587031215612e88575f5ffd5b612e9185612b4d565b9350612e9f60208601612b4d565b925060408501359150606085013567ffffffffffffffff811115612ec1575f5ffd5b8501601f81018713612ed1575f5ffd5b612ee087823560208401612c86565b91505092959194509250565b5f5f60408385031215612efd575f5ffd5b612f0683612b4d565b9150602083013567ffffffffffffffff811115612f21575f5ffd5b612f2d85828601612cfd565b9150509250929050565b5f5f60408385031215612f48575f5ffd5b612f5183612b4d565b9150612e1760208401612b4d565b600181811c90821680612f7357607f821691505b602082108103612f9157634e487b7160e01b5f52602260045260245ffd5b50919050565b634e487b7160e01b5f52603260045260245ffd5b634e487b7160e01b5f52601160045260245ffd5b818103818111156104ee576104ee612fab565b5f81612fe057612fe0612fab565b505f190190565b5f60208284031215612ff7575f5ffd5b81516128f781612dbe565b80820281158282048414176104ee576104ee612fab565b5f8261303357634e487b7160e01b5f52601260045260245ffd5b500490565b6001600160a01b0384168152606081016130556020830185612d7a565b826040830152949350505050565b5f6001820161307457613074612fab565b5060010190565b601f821115610b3957805f5260205f20601f840160051c810160208510156130a05750805b601f840160051c820191505b818110156121a1575f81556001016130ac565b815167ffffffffffffffff8111156130d9576130d9612c72565b6130ed816130e78454612f5f565b8461307b565b6020601f82116001811461311f575f83156131085750848201515b5f19600385901b1c1916600184901b1784556121a1565b5f84815260208120601f198516915b8281101561314e578785015182556020948501946001909201910161312e565b508482101561316b57868401515f19600387901b60f8161c191681555b50505050600190811b01905550565b634e487b7160e01b5f52603160045260245ffd5b6001600160a01b03858116825284166020820152604081018390526080606082018190525f906131c090830184612af6565b9695505050505050565b5f602082840312156131da575f5ffd5b81516128f781612ac6565b5f81518060208401855e5f93019283525090919050565b5f6122ab61320a83866131e5565b846131e556fea26469706673582212206cd3a5cbff8c82e708a705a5b31bea1c62e1729a9280ca627afe7535f06f0c8f64736f6c634300081c0033",
  "linkReferences": {},
  "deployedLinkReferences": {},
  "immutableReferences": {},
  "inputSourceName": "project/contracts/Realia.sol",
  "buildInfoId": "solc-0_8_28-54890e78b3a7c51fda5e49c0383408836c1f3f5a"
}