{
  "_format": "hh3-artifact-1",
  "contractName": "Realia",
  "sourceName": "contracts/Realia.sol",
  "abi": [
    {
      "inputs": [],
      "stateMutability": "nonpayable",
      "type": "constructor"
    },
    {
      "inputs": [
        {
          "internalType": "address",
          "name": "sender",
          "type": "address"
        },
        {
          "internalType": "uint256",
          "name": "tokenId",
          "type": "uint256"
        },
        {
          "internalType": "address",
          "name": "owner",
          "type": "address"
        }
      ],
      "name": "ERC721IncorrectOwner",
      "type": "error"
    },
    {
      "inputs": [
        {
          "internalType": "address",
          "name": "operator",
          "type": "address"
        },
        {
          "internalType": "uint256",
          "name": "tokenId",
          "type": "uint256"
        }
      ],
      "name": "ERC721InsufficientApproval",
      "type": "error"
    },
    {
      "inputs": [
        {
          "internalType": "address",
          "name": "approver",
          "type": "address"
        }
      ],
      "name": "ERC721InvalidApprover",
      "type": "error"
    },
    {
      "inputs": [
        {
          "internalType": "address",
          "name": "operator",
          "type": "address"
        }
      ],
      "name": "ERC721InvalidOperator",
      "type": "error"
    },
    {
      "inputs": [
        {
          "internalType": "address",
          "name": "owner",
          "type": "address"
        }
      ],
      "name": "ERC721InvalidOwner",
      "type": "error"
    },
    {
      "inputs": [
        {
          "internalType": "address",
          "name": "receiver",
          "type": "address"
        }
      ],
      "name": "ERC721InvalidReceiver",
      "type": "error"
    },
    {
      "inputs": [
        {
          "internalType": "address",
          "name": "sender",
          "type": "address"
        }
      ],
      "name": "ERC721InvalidSender",
      "type": "error"
    },
    {
      "inputs": [
        {
          "internalType": "uint256",
          "name": "tokenId",
          "type": "uint256"
        }
      ],
      "name": "ERC721NonexistentToken",
      "type": "error"
    },
    {
      "inputs": [
        {
          "internalType": "address",
          "name": "owner",
          "type": "address"
        }
      ],
      "name": "OwnableInvalidOwner",
      "type": "error"
    },
    {
      "inputs": [
        {
          "internalType": "address",
          "name": "account",
          "type": "address"
        }
      ],
      "name": "OwnableUnauthorizedAccount",
      "type": "error"
    },
    {
      "anonymous": false,
      "inputs": [
        {
          "indexed": false,
          "internalType": "address",
          "name": "agent",
          "type": "address"
        }
      ],
      "name": "AgentRegistered",
      "type": "event"
    },
    {
      "anonymous": false,
      "inputs": [
        {
          "indexed": false,
          "internalType": "address",
          "name": "agent",
          "type": "address"
        }
      ],
      "name": "AgentUnregistered",
      "type": "event"
    },
    {
      "anonymous": false,
      "inputs": [
        {
          "indexed": false,
          "internalType": "uint256",
          "name": "amount",
          "type": "uint256"
        },
        {
          "indexed": false,
          "internalType": "uint256",
          "name": "amountPerAgent",
          "type": "uint256"
        }
      ],
      "name": "AgentsPaid",
      "type": "event"
    },
    {
      "anonymous": false,
      "inputs": [
        {
          "indexed": true,
          "internalType": "address",
          "name": "owner",
          "type": "address"
        },
        {
          "indexed": true,
          "internalType": "address",
          "name": "approved",
          "type": "address"
        },
        {
          "indexed": true,
          "internalType": "uint256",
          "name": "tokenId",
          "type": "uint256"
        }
      ],
      "name": "Approval",
      "type": "event"
    },
    {
      "anonymous": false,
      "inputs": [
        {
          "indexed": true,
          "internalType": "address",
          "name": "owner",
          "type": "address"
        },
        {
          "indexed": true,
          "internalType": "address",
          "name": "operator",
          "type": "address"
        },
        {
          "indexed": false,
          "internalType": "bool",
          "name": "approved",
          "type": "bool"
        }
      ],
      "name": "ApprovalForAll",
      "type": "event"
    },
    {
      "anonymous": false,
      "inputs": [
        {
          "indexed": false,
          "internalType": "uint256",
          "name": "_fromTokenId",
          "type": "uint256"
        },
        {
          "indexed": false,
          "internalType": "uint256",
          "name": "_toTokenId",
          "type": "uint256"
        }
      ],
      "name": "BatchMetadataUpdate",
      "type": "event"
    },
    {
      "anonymous": false,
      "inputs": [
        {
          "indexed": false,
          "internalType": "uint256",
          "name": "_tokenId",
          "type": "uint256"
        }
      ],
      "name": "MetadataUpdate",
      "type": "event"
    },
    {
      "anonymous": false,
      "inputs": [
        {
          "indexed": false,
          "internalType": "address",
          "name": "to",
          "type": "address"
        },
        {
          "indexed": false,
          "internalType": "uint256",
          "name": "tokenId",
          "type": "uint256"
        }
      ],
      "name": "Minted",
      "type": "event"
    },
    {
      "anonymous": false,
      "inputs": [
        {
          "indexed": false,
          "internalType": "address",
          "name": "to",
          "type": "address"
        },
        {
          "indexed": false,
          "internalType": "enum Realia.OrderType",
          "name": "orderType",
          "type": "uint8"
        },
        {
          "indexed": false,
          "internalType": "uint256",
          "name": "amount",
          "type": "uint256"
        }
      ],
      "name": "OrderCreated",
      "type": "event"
    },
    {
      "anonymous": false,
      "inputs": [
        {
          "indexed": true,
          "internalType": "address",
          "name": "previousOwner",
          "type": "address"
        },
        {
          "indexed": true,
          "internalType": "address",
          "name": "newOwner",
          "type": "address"
        }
      ],
      "name": "OwnershipTransferred",
      "type": "event"
    },
    {
      "anonymous": false,
      "inputs": [
        {
          "indexed": false,
          "internalType": "uint256",
          "name": "requestId",
          "type": "uint256"
        }
      ],
      "name": "ProcessedVerification",
      "type": "event"
    },
    {
      "anonymous": false,
      "inputs": [
        {
          "indexed": false,
          "internalType": "address",
          "name": "agent",
          "type": "address"
        }
      ],
      "name": "Slashed",
      "type": "event"
    },
    {
      "anonymous": false,
      "inputs": [
        {
          "indexed": true,
          "internalType": "address",
          "name": "from",
          "type": "address"
        },
        {
          "indexed": true,
          "internalType": "address",
          "name": "to",
          "type": "address"
        },
        {
          "indexed": true,
          "internalType": "uint256",
          "name": "tokenId",
          "type": "uint256"
        }
      ],
      "name": "Transfer",
      "type": "event"
    },
    {
      "anonymous": false,
      "inputs": [
        {
          "indexed": false,
          "internalType": "address",
          "name": "user",
          "type": "address"
        },
        {
          "indexed": false,
          "internalType": "uint256",
          "name": "requestId",
          "type": "uint256"
        }
      ],
      "name": "VerificationRequested",
      "type": "event"
    },
    {
      "anonymous": false,
      "inputs": [
        {
          "indexed": false,
          "internalType": "address",
          "name": "agent",
          "type": "address"
        },
        {
          "indexed": false,
          "internalType": "uint256",
          "name": "requestId",
          "type": "uint256"
        },
        {
          "indexed": false,
          "internalType": "bool",
          "name": "verified",
          "type": "bool"
        }
      ],
      "name": "VerificationResponseByAgent",
      "type": "event"
    },
    {
      "anonymous": false,
      "inputs": [
        {
          "indexed": false,
          "internalType": "address",
          "name": "to",
          "type": "address"
        },
        {
          "indexed": false,
          "internalType": "uint256",
          "name": "tokenId",
          "type": "uint256"
        }
      ],
      "name": "Verified",
      "type": "event"
    },
    {
      "inputs": [],
      "name": "PYUSD",
      "outputs": [
        {
          "internalType": "contract IERC20",
          "name": "",
          "type": "address"
        }
      ],
      "stateMutability": "view",
      "type": "function"
    },
    {
      "inputs": [
        {
          "internalType": "uint256",
          "name": "",
          "type": "uint256"
        }
      ],
      "name": "agentAddresses",
      "outputs": [
        {
          "internalType": "address",
          "name": "",
          "type": "address"
        }
      ],
      "stateMutability": "view",
      "type": "function"
    },
    {
      "inputs": [
        {
          "internalType": "address",
          "name": "",
          "type": "address"
        }
      ],
      "name": "agents",
      "outputs": [
        {
          "internalType": "uint256",
          "name": "verifiedCount",
          "type": "uint256"
        },
        {
          "internalType": "bool",
          "name": "isStaked",
          "type": "bool"
        }
      ],
      "stateMutability": "view",
      "type": "function"
    },
    {
      "inputs": [
        {
          "internalType": "address",
          "name": "to",
          "type": "address"
        },
        {
          "internalType": "uint256",
          "name": "tokenId",
          "type": "uint256"
        }
      ],
      "name": "approve",
      "outputs": [],
      "stateMutability": "nonpayable",
      "type": "function"
    },
    {
      "inputs": [
        {
          "internalType": "address",
          "name": "owner",
          "type": "address"
        }
      ],
      "name": "balanceOf",
      "outputs": [
        {
          "internalType": "uint256",
          "name": "",
          "type": "uint256"
        }
      ],
      "stateMutability": "view",
      "type": "function"
    },
    {
      "inputs": [
        {
          "internalType": "uint256",
          "name": "tokenId",
          "type": "uint256"
        }
      ],
      "name": "burn",
      "outputs": [],
      "stateMutability": "nonpayable",
      "type": "function"
    },
    {
      "inputs": [
        {
          "internalType": "enum Realia.OrderType",
          "name": "orderType",
          "type": "uint8"
        }
      ],
      "name": "createOrder",
      "outputs": [],
      "stateMutability": "nonpayable",
      "type": "function"
    },
    {
      "inputs": [
        {
          "internalType": "uint256",
          "name": "tokenId",
          "type": "uint256"
        }
      ],
      "name": "getApproved",
      "outputs": [
        {
          "internalType": "address",
          "name": "",
          "type": "address"
        }
      ],
      "stateMutability": "view",
      "type": "function"
    },
    {
      "inputs": [],
      "name": "getTopFiveAgents",
      "outputs": [
        {
          "internalType": "address[]",
          "name": "",
          "type": "address[]"
        }
      ],
      "stateMutability": "view",
      "type": "function"
    },
    {
      "inputs": [
        {
          "internalType": "enum Realia.OrderType",
          "name": "orderType",
          "type": "uint8"
        }
      ],
      "name": "hasOrder",
      "outputs": [
        {
          "internalType": "bool",
          "name": "",
          "type": "bool"
        }
      ],
      "stateMutability": "view",
      "type": "function"
    },
    {
      "inputs": [
        {
          "internalType": "address",
          "name": "owner",
          "type": "address"
        },
        {
          "internalType": "address",
          "name": "operator",
          "type": "address"
        }
      ],
      "name": "isApprovedForAll",
      "outputs": [
        {
          "internalType": "bool",
          "name": "",
          "type": "bool"
        }
      ],
      "stateMutability": "view",
      "type": "function"
    },
    {
      "inputs": [
        {
          "internalType": "address",
          "name": "to",
          "type": "address"
        },
        {
          "internalType": "string",
          "name": "uri",
          "type": "string"
        }
      ],
      "name": "mint",
      "outputs": [],
      "stateMutability": "nonpayable",
      "type": "function"
    },
    {
      "inputs": [],
      "name": "name",
      "outputs": [
        {
          "internalType": "string",
          "name": "",
          "type": "string"
        }
      ],
      "stateMutability": "view",
      "type": "function"
    },
    {
      "inputs": [
        {
          "internalType": "address",
          "name": "",
          "type": "address"
        },
        {
          "internalType": "uint256",
          "name": "",
          "type": "uint256"
        }
      ],
      "name": "orders",
      "outputs": [
        {
          "internalType": "enum Realia.OrderType",
          "name": "orderType",
          "type": "uint8"
        },
        {
          "internalType": "uint256",
          "name": "amount",
          "type": "uint256"
        },
        {
          "internalType": "bool",
          "name": "used",
          "type": "bool"
        }
      ],
      "stateMutability": "view",
      "type": "function"
    },
    {
      "inputs": [],
      "name": "owner",
      "outputs": [
        {
          "internalType": "address",
          "name": "",
          "type": "address"
        }
      ],
      "stateMutability": "view",
      "type": "function"
    },
    {
      "inputs": [
        {
          "internalType": "uint256",
          "name": "tokenId",
          "type": "uint256"
        }
      ],
      "name": "ownerOf",
      "outputs": [
        {
          "internalType": "address",
          "name": "",
          "type": "address"
        }
      ],
      "stateMutability": "view",
      "type": "function"
    },
    {
      "inputs": [],
      "name": "registerAgent",
      "outputs": [],
      "stateMutability": "nonpayable",
      "type": "function"
    },
    {
      "inputs": [],
      "name": "renounceOwnership",
      "outputs": [],
      "stateMutability": "nonpayable",
      "type": "function"
    },
    {
      "inputs": [
        {
          "internalType": "string",
          "name": "uri",
          "type": "string"
        }
      ],
      "name": "requestVerification",
      "outputs": [],
      "stateMutability": "nonpayable",
      "type": "function"
    },
    {
      "inputs": [
        {
          "internalType": "uint256",
          "name": "requestId",
          "type": "uint256"
        },
        {
          "internalType": "bool",
          "name": "verified",
          "type": "bool"
        },
        {
          "internalType": "uint256",
          "name": "propertyTokenId",
          "type": "uint256"
        }
      ],
      "name": "responseVerification",
      "outputs": [],
      "stateMutability": "nonpayable",
      "type": "function"
    },
    {
      "inputs": [
        {
          "internalType": "address",
          "name": "from",
          "type": "address"
        },
        {
          "internalType": "address",
          "name": "to",
          "type": "address"
        },
        {
          "internalType": "uint256",
          "name": "tokenId",
          "type": "uint256"
        }
      ],
      "name": "safeTransferFrom",
      "outputs": [],
      "stateMutability": "nonpayable",
      "type": "function"
    },
    {
      "inputs": [
        {
          "internalType": "address",
          "name": "from",
          "type": "address"
        },
        {
          "internalType": "address",
          "name": "to",
          "type": "address"
        },
        {
          "internalType": "uint256",
          "name": "tokenId",
          "type": "uint256"
        },
        {
          "internalType": "bytes",
          "name": "data",
          "type": "bytes"
        }
      ],
      "name": "safeTransferFrom",
      "outputs": [],
      "stateMutability": "nonpayable",
      "type": "function"
    },
    {
      "inputs": [
        {
          "internalType": "address",
          "name": "operator",
          "type": "address"
        },
        {
          "internalType": "bool",
          "name": "approved",
          "type": "bool"
        }
      ],
      "name": "setApprovalForAll",
      "outputs": [],
      "stateMutability": "nonpayable",
      "type": "function"
    },
    {
      "inputs": [
        {
          "internalType": "bytes4",
          "name": "interfaceId",
          "type": "bytes4"
        }
      ],
      "name": "supportsInterface",
      "outputs": [
        {
          "internalType": "bool",
          "name": "",
          "type": "bool"
        }
      ],
      "stateMutability": "view",
      "type": "function"
    },
    {
      "inputs": [],
      "name": "symbol",
      "outputs": [
        {
          "internalType": "string",
          "name": "",
          "type": "string"
        }
      ],
      "stateMutability": "view",
      "type": "function"
    },
    {
      "inputs": [],
      "name": "tokenId",
      "outputs": [
        {
          "internalType": "uint256",
          "name": "",
          "type": "uint256"
        }
      ],
      "stateMutability": "view",
      "type": "function"
    },
    {
      "inputs": [
        {
          "internalType": "uint256",
          "name": "_tokenId",
          "type": "uint256"
        }
      ],
      "name": "tokenURI",
      "outputs": [
        {
          "internalType": "string",
          "name": "",
          "type": "string"
        }
      ],
      "stateMutability": "view",
      "type": "function"
    },
    {
      "inputs": [
        {
          "internalType": "address",
          "name": "from",
          "type": "address"
        },
        {
          "internalType": "address",
          "name": "to",
          "type": "address"
        },
        {
          "internalType": "uint256",
          "name": "tokenId",
          "type": "uint256"
        }
      ],
      "name": "transferFrom",
      "outputs": [],
      "stateMutability": "nonpayable",
      "type": "function"
    },
    {
      "inputs": [
        {
          "internalType": "address",
          "name": "newOwner",
          "type": "address"
        }
      ],
      "name": "transferOwnership",
      "outputs": [],
      "stateMutability": "nonpayable",
      "type": "function"
    },
    {
      "inputs": [],
      "name": "unregisterAgent",
      "outputs": [],
      "stateMutability": "nonpayable",
      "type": "function"
    },
    {
      "inputs": [],
      "name": "verificationId",
      "outputs": [
        {
          "internalType": "uint256",
          "name": "",
          "type": "uint256"
        }
      ],
      "stateMutability": "view",
      "type": "function"
    },
    {
      "inputs": [
        {
          "internalType": "uint256",
          "name": "",
          "type": "uint256"
        }
      ],
      "name": "verificationRequests",
      "outputs": [
        {
          "internalType": "address",
          "name": "user",
          "type": "address"
        },
        {
          "internalType": "string",
          "name": "uri",
          "type": "string"
        },
        {
          "internalType": "bool",
          "name": "processed",
          "type": "bool"
        },
        {
          "internalType": "uint256",
          "name": "requestTime",
          "type": "uint256"
        }
      ],
      "stateMutability": "view",
      "type": "function"
    },
    {
      "inputs": [
        {
          "internalType": "uint256",
          "name": "",
          "type": "uint256"
        },
        {
          "internalType": "uint256",
          "name": "",
          "type": "uint256"
        }
      ],
      "name": "verificationResponses",
      "outputs": [
        {
          "internalType": "address",
          "name": "agent",
          "type": "address"
        },
        {
          "internalType": "bool",
          "name": "verified",
          "type": "bool"
        },
        {
          "internalType": "uint256",
          "name": "tokenId",
          "type": "uint256"
        },
        {
          "internalType": "uint256",
          "name": "responseTime",
          "type": "uint256"
        }
      ],
      "stateMutability": "view",
      "type": "function"
    }
  ],
  "bytecode": "0x60806040525f6008555f600955348015610017575f5ffd5b5033604051806040016040528060068152602001655265616c696160d01b815250604051806040016040528060068152602001655245414c494160d01b815250815f9081610065919061019a565b506001610072828261019a565b5050506001600160a01b0381166100a257604051631e4fbdf760e01b81525f600482015260240160405180910390fd5b6100ab816100b1565b50610254565b600680546001600160a01b038381166001600160a01b0319831681179093556040519116919082907f8be0079c531659141344cd1fd0a4f28419497f9722a3daafe3b4186f6b6457e0905f90a35050565b634e487b7160e01b5f52604160045260245ffd5b600181811c9082168061012a57607f821691505b60208210810361014857634e487b7160e01b5f52602260045260245ffd5b50919050565b601f82111561019557805f5260205f20601f840160051c810160208510156101735750805b601f840160051c820191505b81811015610192575f815560010161017f565b50505b505050565b81516001600160401b038111156101b3576101b3610102565b6101c7816101c18454610116565b8461014e565b6020601f8211600181146101f9575f83156101e25750848201515b5f19600385901b1c1916600184901b178455610192565b5f84815260208120601f198516915b828110156102285787850151825560209485019460019092019101610208565b508482101561024557868401515f19600387901b60f8161c191681555b50505050600190811b01905550565b6131e4806102615f395ff3fe608060405234801561000f575f5ffd5b50600436106101f2575f3560e01c8063793b8c6d11610114578063a7676a63116100a9578063e31f1a7c11610079578063e31f1a7c1461046f578063e8841c2514610477578063e985e9c514610480578063f2fde38b14610493578063fd66091e146104a6575f5ffd5b8063a7676a6314610423578063b88d4fde14610436578063c87b56dd14610449578063d0def5211461045c575f5ffd5b806396e45457116100e457806396e45457146103a55780639e19789d146103e2578063a22cb465146103fd578063a4d3c5f614610410575f5ffd5b8063793b8c6d1461035757806382c32802146103795780638da5cb5b1461038c57806395d89b411461039d575f5ffd5b80634089d49f1161018a5780636352211e1161015a5780636352211e146103165780636cbff42a1461032957806370a082311461033c578063715018a61461034f575f5ffd5b80634089d49f146102ba57806342842e0e146102dd57806342966c68146102f057806350e01a5814610303575f5ffd5b806317d70f7c116101c557806317d70f7c1461027357806323b872dd1461028a57806327cabf881461029d57806335eb5208146102b2575f5ffd5b806301ffc9a7146101f657806306fdde031461021e578063081812fc14610233578063095ea7b31461025e575b5f5ffd5b610209610204366004612aaa565b6104e4565b60405190151581526020015b60405180910390f35b6102266104f4565b6040516102159190612af3565b610246610241366004612b05565b610583565b6040516001600160a01b039091168152602001610215565b61027161026c366004612b37565b6105aa565b005b61027c60085481565b604051908152602001610215565b610271610298366004612b5f565b6105b9565b6102a5610647565b6040516102159190612b99565b610271610936565b6102cd6102c8366004612b05565b610a63565b6040516102159493929190612be4565b6102716102eb366004612b5f565b610b1f565b6102716102fe366004612b05565b610b3e565b610271610311366004612c1a565b610b49565b610246610324366004612b05565b610d7f565b610271610337366004612ce1565b610d89565b61027c61034a366004612d13565b610eba565b610271610eff565b61036a610365366004612b37565b610f12565b60405161021593929190612d60565b610271610387366004612d91565b610f55565b6006546001600160a01b0316610246565b6102266110f3565b6103b86103b3366004612db5565b611102565b604080516001600160a01b0390951685529215156020850152918301526060820152608001610215565b61024673637a1259c6afd7e3adf63993ca7e58bb438ab1b181565b61027161040b366004612dd5565b611153565b61020961041e366004612c1a565b61115e565b610246610431366004612b05565b611291565b610271610444366004612e0a565b6112b9565b610226610457366004612b05565b6112d1565b61027161046a366004612e81565b6112dc565b6102716113b9565b61027c60095481565b61020961048e366004612ecc565b611594565b6102716104a1366004612d13565b6115c1565b6104cf6104b4366004612d13565b600a6020525f90815260409020805460019091015460ff1682565b60408051928352901515602083015201610215565b5f6104ee826115fe565b92915050565b60605f805461050290612efd565b80601f016020809104026020016040519081016040528092919081815260200182805461052e90612efd565b80156105795780601f1061055057610100808354040283529160200191610579565b820191905f5260205f20905b81548152906001019060200180831161055c57829003601f168201915b5050505050905090565b5f61058d82611622565b505f828152600460205260409020546001600160a01b03166104ee565b6105b582823361165a565b5050565b6001600160a01b0382166105e757604051633250574960e11b81525f60048201526024015b60405180910390fd5b5f6105f3838333611667565b9050836001600160a01b0316816001600160a01b031614610641576040516364283d7b60e01b81526001600160a01b03808616600483015260248201849052821660448201526064016105de565b50505050565b60605f6005600b805490501061065e576005610662565b600b545b90505f8167ffffffffffffffff81111561067e5761067e612c38565b6040519080825280602002602001820160405280156106a7578160200160208202803683370190505b5090505f8267ffffffffffffffff8111156106c4576106c4612c38565b6040519080825280602002602001820160405280156106ed578160200160208202803683370190505b5090505f5b600b5481101561092d57600a5f600b838154811061071257610712612f35565b5f9182526020808320909101546001600160a01b0316835282019290925260400190206001015460ff1615610925575f600a5f600b848154811061075857610758612f35565b5f9182526020808320909101546001600160a01b0316835282019290925260400181205491505b85811015610922575f6001600160a01b03168582815181106107a3576107a3612f35565b60200260200101516001600160a01b031614806107d857508381815181106107cd576107cd612f35565b602002602001015182115b1561091a575f6107e9600188612f5d565b90505b818111156108955785610800600183612f5d565b8151811061081057610810612f35565b602002602001015186828151811061082a5761082a612f35565b6001600160a01b03909216602092830291909101909101528461084e600183612f5d565b8151811061085e5761085e612f35565b602002602001015185828151811061087857610878612f35565b60209081029190910101528061088d81612f70565b9150506107ec565b50600b83815481106108a9576108a9612f35565b905f5260205f20015f9054906101000a90046001600160a01b03168582815181106108d6576108d6612f35565b60200260200101906001600160a01b031690816001600160a01b0316815250508184828151811061090957610909612f35565b602002602001018181525050610922565b60010161077f565b50505b6001016106f2565b50909392505050565b6040516323b872dd60e01b815233600482015230602482015261c350604482015273637a1259c6afd7e3adf63993ca7e58bb438ab1b1906323b872dd906064016020604051808303815f875af1158015610992573d5f5f3e3d5ffd5b505050506040513d601f19601f820116820180604052508101906109b69190612f85565b506040805180820182525f8082526001602080840182815233808552600a8352868520955186559051948301805460ff191695151595909517909455600b805492830181559092527f0175b7a638427703f0dbe7bb9bbf987a2551717b34e79f33b5b1008d1fa01db90180546001600160a01b0319168317905591519081527f82d0829d9d481e4cb9913897f9b9c903271c4db68c7b3324071d2a7e3b2c5ff091015b60405180910390a1565b600c6020525f9081526040902080546001820180546001600160a01b039092169291610a8e90612efd565b80601f0160208091040260200160405190810160405280929190818152602001828054610aba90612efd565b8015610b055780601f10610adc57610100808354040283529160200191610b05565b820191905f5260205f20905b815481529060010190602001808311610ae857829003601f168201915b505050506002830154600390930154919260ff1691905084565b610b3983838360405180602001604052805f8152506112b9565b505050565b6105b55f8233611667565b5f80826001811115610b5d57610b5d612d2c565b14610b6a5761c350610b6f565b620f42405b6040516323b872dd60e01b81523360048201523060248201526044810182905290915073637a1259c6afd7e3adf63993ca7e58bb438ab1b1906323b872dd906064016020604051808303815f875af1158015610bcd573d5f5f3e3d5ffd5b505050506040513d601f19601f82011682018060405250810190610bf19190612f85565b5073637a1259c6afd7e3adf63993ca7e58bb438ab1b163a9059cbb610c1e6006546001600160a01b031690565b6064610c2b600a86612fa0565b610c359190612fb7565b6040516001600160e01b031960e085901b1681526001600160a01b03909216600483015260248201526044016020604051808303815f875af1158015610c7d573d5f5f3e3d5ffd5b505050506040513d601f19601f82011682018060405250810190610ca19190612f85565b50335f908152600e6020526040908190208151606081019092529080846001811115610ccf57610ccf612d2c565b815260208082018590525f604090920182905283546001818101865594835291208251600390920201805492939092839160ff19909116908381811115610d1857610d18612d2c565b0217905550602082015160018201556040918201516002909101805460ff1916911515919091179055517f4f46ced13b7c0cf2078b2d56e6e8a3d2c2209b6bee4aa8af5074b44969b541ed90610d7390339085908590612fd6565b60405180910390a15050565b5f6104ee82611622565b610d93600161115e565b610dd75760405162461bcd60e51b8152602060048201526015602482015274139bc81d995c9a599e481bdc99195c88199bdd5b99605a1b60448201526064016105de565b610de16001611759565b5060098054905f610df183613001565b90915550506040805160808101825233815260208082018481525f8385018190524260608501526009548152600c909252929020815181546001600160a01b0319166001600160a01b0390911617815591519091906001820190610e55908261305d565b5060408281015160028301805460ff1916911515919091179055606090920151600390910155600954815133815260208101919091527fb4610031e95bec0846790f85fa67e369f500cabbda9395ea19a5fb5e427d27d891015b60405180910390a150565b5f6001600160a01b038216610ee4576040516322718ad960e21b81525f60048201526024016105de565b506001600160a01b03165f9081526003602052604090205490565b610f076118c8565b610f105f6118f5565b565b600e602052815f5260405f208181548110610f2b575f80fd5b5f91825260209091206003909102018054600182015460029092015460ff91821694509192501683565b335f908152600a602052604090206001015460ff16610fac5760405162461bcd60e51b81526020600482015260136024820152721059d95b9d081a5cc81b9bdd081cdd185ad959606a1b60448201526064016105de565b5f838152600c602052604090206002015460ff161561100d5760405162461bcd60e51b815260206004820152601c60248201527f5265717565737420697320616c72656164792070726f6365737365640000000060448201526064016105de565b5f838152600d60209081526040808320815160808101835233808252871515828601818152838601898152426060808701918252875460018082018a55988c529a8a902096516003909b02909601805493511515600160a01b026001600160a81b03199094166001600160a01b03909b169a909a17929092178955519488019490945592516002909601959095558251948552928401879052908301527f94276b983d5e3494b839b8736d6fe68a0a4b38a8367305c256fb2baf399d9456910160405180910390a15f838152600d6020526040902054600511610b3957610b3983611946565b60606001805461050290612efd565b600d602052815f5260405f20818154811061111b575f80fd5b5f9182526020909120600390910201805460018201546002909201546001600160a01b0382169450600160a01b90910460ff16925084565b6105b5338383611fb1565b5f808083600181111561117357611173612d2c565b146111805761c350611185565b620f42405b90505f5b335f908152600e6020526040902054811015611288578360018111156111b1576111b1612d2c565b335f908152600e602052604090208054839081106111d1576111d1612f35565b5f91825260209091206003909102015460ff1660018111156111f5576111f5612d2c565b1480156112325750335f908152600e6020526040902080548391908390811061122057611220612f35565b905f5260205f20906003020160010154145b80156112715750335f908152600e6020526040902080548290811061125957611259612f35565b5f91825260209091206002600390920201015460ff16155b15611280575060019392505050565b600101611189565b505f9392505050565b600b81815481106112a0575f80fd5b5f918252602090912001546001600160a01b0316905081565b6112c48484846105b9565b610641338585858561204f565b60606104ee82612177565b6112e46118c8565b6112ed5f61115e565b61132f5760405162461bcd60e51b8152602060048201526013602482015272139bc81b5a5b9d081bdc99195c88199bdd5b99606a1b60448201526064016105de565b60088054905f61133e83613001565b919050555061134c5f611759565b5061135982600854612282565b611365600854826122e3565b6113765f611371610647565b61232b565b600854604080516001600160a01b038516815260208101929092527f30385c845b448a36257a6a1716e6ad2e1bc2cbe333cde1e69fe849ad6511adfe9101610d73565b60405163a9059cbb60e01b815233600482015261c350602482015273637a1259c6afd7e3adf63993ca7e58bb438ab1b19063a9059cbb906044016020604051808303815f875af115801561140f573d5f5f3e3d5ffd5b505050506040513d601f19601f820116820180604052508101906114339190612f85565b506040805180820182525f8082526020808301828152338352600a9091529281209151825591516001909101805460ff19169115159190911790555b600b5481101561156357336001600160a01b0316600b828154811061149657611496612f35565b5f918252602090912001546001600160a01b03160361155b57600b80546114bf90600190612f5d565b815481106114cf576114cf612f35565b5f91825260209091200154600b80546001600160a01b0390921691839081106114fa576114fa612f35565b905f5260205f20015f6101000a8154816001600160a01b0302191690836001600160a01b03160217905550600b80548061153657611536613118565b5f8281526020902081015f1990810180546001600160a01b0319169055019055611563565b60010161146f565b506040513381527f3e085cc53b86c19e2e6dba628297af6b8f76c89d1384dbcc599bab2adfd62d0890602001610a59565b6001600160a01b039182165f90815260056020908152604080832093909416825291909152205460ff1690565b6115c96118c8565b6001600160a01b0381166115f257604051631e4fbdf760e01b81525f60048201526024016105de565b6115fb816118f5565b50565b5f6001600160e01b03198216632483248360e11b14806104ee57506104ee82612533565b5f818152600260205260408120546001600160a01b0316806104ee57604051637e27328960e01b8152600481018490526024016105de565b610b398383836001612582565b5f828152600260205260408120546001600160a01b039081169083161561169357611693818486612686565b6001600160a01b038116156116cd576116ae5f855f5f612582565b6001600160a01b0381165f90815260036020526040902080545f190190555b6001600160a01b038516156116fb576001600160a01b0385165f908152600360205260409020805460010190555b5f8481526002602052604080822080546001600160a01b0319166001600160a01b0389811691821790925591518793918516917fddf252ad1be2c89b69c2b068fc378daa952ba7f163c4a11628f55a4df523b3ef91a4949350505050565b5f808083600181111561176e5761176e612d2c565b1461177b5761c350611780565b620f42405b90505f5b335f908152600e6020526040902054811015611288578360018111156117ac576117ac612d2c565b335f908152600e602052604090208054839081106117cc576117cc612f35565b5f91825260209091206003909102015460ff1660018111156117f0576117f0612d2c565b14801561182d5750335f908152600e6020526040902080548391908390811061181b5761181b612f35565b905f5260205f20906003020160010154145b801561186c5750335f908152600e6020526040902080548290811061185457611854612f35565b5f91825260209091206002600390920201015460ff16155b156118c057335f908152600e602052604090208054600191908390811061189557611895612f35565b5f9182526020909120600390910201600201805460ff19169115159190911790555060019392505050565b600101611784565b6006546001600160a01b03163314610f105760405163118cdaa760e01b81523360048201526024016105de565b600680546001600160a01b038381166001600160a01b0319831681179093556040519116919082907f8be0079c531659141344cd1fd0a4f28419497f9722a3daafe3b4186f6b6457e0905f90a35050565b5f818152600c602052604090206002015460ff16156119a75760405162461bcd60e51b815260206004820152601c60248201527f5265717565737420697320616c72656164792070726f6365737365640000000060448201526064016105de565b5f818152600d6020908152604080832080548251818502810185019093528083529192909190849084015b82821015611a36575f848152602090819020604080516080810182526003860290920180546001600160a01b0381168452600160a01b900460ff161515838501526001808201549284019290925260020154606083015290835290920191016119d2565b5050505090505f5f90505f825167ffffffffffffffff811115611a5b57611a5b612c38565b604051908082528060200260200182016040528015611a84578160200160208202803683370190505b5090505f835167ffffffffffffffff811115611aa257611aa2612c38565b604051908082528060200260200182016040528015611acb578160200160208202803683370190505b5090505f845167ffffffffffffffff811115611ae957611ae9612c38565b604051908082528060200260200182016040528015611b12578160200160208202803683370190505b5090505f80805b8751811015611c4f57878181518110611b3457611b34612f35565b60200260200101516020015115611c475786611b4f81613001565b97505f9050805b84811015611bd657898381518110611b7057611b70612f35565b602002602001015160400151888281518110611b8e57611b8e612f35565b602002602001015103611bce57868181518110611bad57611bad612f35565b602002602001018051809190611bc290613001565b90525060019150611bd6565b600101611b56565b5080611c4557888281518110611bee57611bee612f35565b602002602001015160400151878581518110611c0c57611c0c612f35565b6020026020010181815250506001868581518110611c2c57611c2c612f35565b602090810291909101015283611c4181613001565b9450505b505b600101611b19565b505f611c5d60026005612fb7565b871190508015611e59575f80805b85811015611cd55781888281518110611c8657611c86612f35565b60200260200101511115611ccd57878181518110611ca657611ca6612f35565b60200260200101519150888181518110611cc257611cc2612f35565b602002602001015192505b600101611c6b565b505f8b8152600c60209081526040918290205482516001600160a01b0390911681529081018490527f7c4bd613345b3aec2140d4c4c96782cda06d72b1a593fbb20a72300354f4c336910160405180910390a15f5b8a51811015611e51578a8181518110611d4557611d45612f35565b6020026020010151602001511580611d7a5750828b8281518110611d6b57611d6b612f35565b60200260200101516040015114155b15611da957611da48b8281518110611d9457611d94612f35565b60200260200101515f01516126ea565b611e49565b600a5f8c8381518110611dbe57611dbe612f35565b602090810291909101810151516001600160a01b031682528101919091526040015f908120805491611def83613001565b91905055508a8181518110611e0657611e06612f35565b60200260200101515f0151878681518110611e2357611e23612f35565b6001600160a01b039092166020928302919091019091015284611e4581613001565b9550505b600101611d2a565b505050611f4b565b5f5b8851811015611f4957888181518110611e7657611e76612f35565b60200260200101516020015115611ea157611e9c898281518110611d9457611d94612f35565b611f41565b600a5f8a8381518110611eb657611eb6612f35565b602090810291909101810151516001600160a01b031682528101919091526040015f908120805491611ee783613001565b9190505550888181518110611efe57611efe612f35565b60200260200101515f0151858481518110611f1b57611f1b612f35565b6001600160a01b039092166020928302919091019091015282611f3d81613001565b9350505b600101611e5b565b505b5f898152600c60205260409020600201805460ff19166001908117909155611f73908561232b565b6040518981527fd59c8e4a596666e603cf3e00e02f96d6d1fde87d71e10f4709e317d206b503dc9060200160405180910390a1505050505050505050565b6001600160a01b038216611fe357604051630b61174360e31b81526001600160a01b03831660048201526024016105de565b6001600160a01b038381165f81815260056020908152604080832094871680845294825291829020805460ff191686151590811790915591519182527f17307eab39ab6107e8899845ad3d59bd9653f200f220920489ca2b5937696c31910160405180910390a3505050565b6001600160a01b0383163b1561217057604051630a85bd0160e11b81526001600160a01b0384169063150b7a029061209190889088908790879060040161312c565b6020604051808303815f875af19250505080156120cb575060408051601f3d908101601f191682019092526120c891810190613168565b60015b612132573d8080156120f8576040519150601f19603f3d011682016040523d82523d5f602084013e6120fd565b606091505b5080515f0361212a57604051633250574960e11b81526001600160a01b03851660048201526024016105de565b805160208201fd5b6001600160e01b03198116630a85bd0160e11b1461216e57604051633250574960e11b81526001600160a01b03851660048201526024016105de565b505b5050505050565b606061218282611622565b505f828152600760205260408120805461219b90612efd565b80601f01602080910402602001604051908101604052809291908181526020018280546121c790612efd565b80156122125780601f106121e957610100808354040283529160200191612212565b820191905f5260205f20905b8154815290600101906020018083116121f557829003601f168201915b505050505090505f61222e60408051602081019091525f815290565b905080515f0361223f575092915050565b81511561227157808260405160200161225992919061319a565b60405160208183030381529060405292505050919050565b61227a8461285c565b949350505050565b6001600160a01b0382166122ab57604051633250574960e11b81525f60048201526024016105de565b5f6122b783835f611667565b90506001600160a01b03811615610b39576040516339e3563760e11b81525f60048201526024016105de565b5f8281526007602052604090206122fa828261305d565b506040518281527ff8e1a15aba9398e019f0b49df1a4fde98ee17ae345cb5f6b5e2c27f5033e8ce790602001610d73565b5f8083600181111561233f5761233f612d2c565b1461234c5761c350612351565b620f42405b90505f6064612361600a82612f5d565b61236b9084612fa0565b6123759190612fb7565b90505f805b84518110156123dc57600a5f86838151811061239857612398612f35565b6020908102919091018101516001600160a01b031682528101919091526040015f206001015460ff16156123d457816123d081613001565b9250505b60010161237a565b505f6123e88284612fb7565b90505f5b85518110156124f157600a5f87838151811061240a5761240a612f35565b6020908102919091018101516001600160a01b031682528101919091526040015f206001015460ff16156124e95773637a1259c6afd7e3adf63993ca7e58bb438ab1b16001600160a01b031663a9059cbb87838151811061246d5761246d612f35565b6020026020010151846040518363ffffffff1660e01b81526004016124a79291906001600160a01b03929092168252602082015260400190565b6020604051808303815f875af11580156124c3573d5f5f3e3d5ffd5b505050506040513d601f19601f820116820180604052508101906124e79190612f85565b505b6001016123ec565b5060408051848152602081018390527fe8ef3e979b5461d2250b3d4490fd4a99865b49c68dc449c038258aeccbebaccd910160405180910390a1505050505050565b5f6001600160e01b031982166380ac58cd60e01b148061256357506001600160e01b03198216635b5e139f60e01b145b806104ee57506301ffc9a760e01b6001600160e01b03198316146104ee565b808061259657506001600160a01b03821615155b15612657575f6125a584611622565b90506001600160a01b038316158015906125d15750826001600160a01b0316816001600160a01b031614155b80156125e457506125e28184611594565b155b1561260d5760405163a9fbf51f60e01b81526001600160a01b03841660048201526024016105de565b81156126555783856001600160a01b0316826001600160a01b03167f8c5be1e5ebec7d5bd14f71427d1e84f3dd0314c0f7b2291e5b200ac8c7c3b92560405160405180910390a45b505b50505f90815260046020526040902080546001600160a01b0319166001600160a01b0392909216919091179055565b6126918383836128cd565b610b39576001600160a01b0383166126bf57604051637e27328960e01b8152600481018290526024016105de565b60405163177e802f60e01b81526001600160a01b0383166004820152602481018290526044016105de565b6040805180820182525f80825260208083018281526001600160a01b0386168352600a9091529281209151825591516001909101805460ff19169115159190911790555b600b5481101561282257816001600160a01b0316600b828154811061275557612755612f35565b5f918252602090912001546001600160a01b03160361281a57600b805461277e90600190612f5d565b8154811061278e5761278e612f35565b5f91825260209091200154600b80546001600160a01b0390921691839081106127b9576127b9612f35565b905f5260205f20015f6101000a8154816001600160a01b0302191690836001600160a01b03160217905550600b8054806127f5576127f5613118565b5f8281526020902081015f1990810180546001600160a01b0319169055019055612822565b60010161272e565b506040516001600160a01b03821681527f975ad74f3e1160b20a620ec57c636ffa56c6b6679a0e2fb5689b4f95e65a694690602001610eaf565b606061286782611622565b505f61287d60408051602081019091525f815290565b90505f81511161289b5760405180602001604052805f8152506128c6565b806128a58461292e565b6040516020016128b692919061319a565b6040516020818303038152906040525b9392505050565b5f6001600160a01b0383161580159061227a5750826001600160a01b0316846001600160a01b0316148061290657506129068484611594565b8061227a5750505f908152600460205260409020546001600160a01b03908116911614919050565b60605f61293a836129be565b60010190505f8167ffffffffffffffff81111561295957612959612c38565b6040519080825280601f01601f191660200182016040528015612983576020820181803683370190505b5090508181016020015b5f19016f181899199a1a9b1b9c1cb0b131b232b360811b600a86061a8153600a850494508461298d57509392505050565b5f8072184f03e93ff9f4daa797ed6e38ed64bf6a1f0160401b83106129fc5772184f03e93ff9f4daa797ed6e38ed64bf6a1f0160401b830492506040015b6d04ee2d6d415b85acef81000000008310612a28576d04ee2d6d415b85acef8100000000830492506020015b662386f26fc100008310612a4657662386f26fc10000830492506010015b6305f5e1008310612a5e576305f5e100830492506008015b6127108310612a7257612710830492506004015b60648310612a84576064830492506002015b600a83106104ee5760010192915050565b6001600160e01b0319811681146115fb575f5ffd5b5f60208284031215612aba575f5ffd5b81356128c681612a95565b5f81518084528060208401602086015e5f602082860101526020601f19601f83011685010191505092915050565b602081525f6128c66020830184612ac5565b5f60208284031215612b15575f5ffd5b5035919050565b80356001600160a01b0381168114612b32575f5ffd5b919050565b5f5f60408385031215612b48575f5ffd5b612b5183612b1c565b946020939093013593505050565b5f5f5f60608486031215612b71575f5ffd5b612b7a84612b1c565b9250612b8860208501612b1c565b929592945050506040919091013590565b602080825282518282018190525f918401906040840190835b81811015612bd95783516001600160a01b0316835260209384019390920191600101612bb2565b509095945050505050565b6001600160a01b03851681526080602082018190525f90612c0790830186612ac5565b9315156040830152506060015292915050565b5f60208284031215612c2a575f5ffd5b8135600281106128c6575f5ffd5b634e487b7160e01b5f52604160045260245ffd5b5f5f67ffffffffffffffff841115612c6657612c66612c38565b50604051601f19601f85018116603f0116810181811067ffffffffffffffff82111715612c9557612c95612c38565b604052838152905080828401851015612cac575f5ffd5b838360208301375f60208583010152509392505050565b5f82601f830112612cd2575f5ffd5b6128c683833560208501612c4c565b5f60208284031215612cf1575f5ffd5b813567ffffffffffffffff811115612d07575f5ffd5b61227a84828501612cc3565b5f60208284031215612d23575f5ffd5b6128c682612b1c565b634e487b7160e01b5f52602160045260245ffd5b60028110612d5c57634e487b7160e01b5f52602160045260245ffd5b9052565b60608101612d6e8286612d40565b8360208301528215156040830152949350505050565b80151581146115fb575f5ffd5b5f5f5f60608486031215612da3575f5ffd5b833592506020840135612b8881612d84565b5f5f60408385031215612dc6575f5ffd5b50508035926020909101359150565b5f5f60408385031215612de6575f5ffd5b612def83612b1c565b91506020830135612dff81612d84565b809150509250929050565b5f5f5f5f60808587031215612e1d575f5ffd5b612e2685612b1c565b9350612e3460208601612b1c565b925060408501359150606085013567ffffffffffffffff811115612e56575f5ffd5b8501601f81018713612e66575f5ffd5b612e7587823560208401612c4c565b91505092959194509250565b5f5f60408385031215612e92575f5ffd5b612e9b83612b1c565b9150602083013567ffffffffffffffff811115612eb6575f5ffd5b612ec285828601612cc3565b9150509250929050565b5f5f60408385031215612edd575f5ffd5b612ee683612b1c565b9150612ef460208401612b1c565b90509250929050565b600181811c90821680612f1157607f821691505b602082108103612f2f57634e487b7160e01b5f52602260045260245ffd5b50919050565b634e487b7160e01b5f52603260045260245ffd5b634e487b7160e01b5f52601160045260245ffd5b818103818111156104ee576104ee612f49565b5f81612f7e57612f7e612f49565b505f190190565b5f60208284031215612f95575f5ffd5b81516128c681612d84565b80820281158282048414176104ee576104ee612f49565b5f82612fd157634e487b7160e01b5f52601260045260245ffd5b500490565b6001600160a01b038416815260608101612ff36020830185612d40565b826040830152949350505050565b5f6001820161301257613012612f49565b5060010190565b601f821115610b3957805f5260205f20601f840160051c8101602085101561303e5750805b601f840160051c820191505b81811015612170575f815560010161304a565b815167ffffffffffffffff81111561307757613077612c38565b61308b816130858454612efd565b84613019565b6020601f8211600181146130bd575f83156130a65750848201515b5f19600385901b1c1916600184901b178455612170565b5f84815260208120601f198516915b828110156130ec57878501518255602094850194600190920191016130cc565b508482101561310957868401515f19600387901b60f8161c191681555b50505050600190811b01905550565b634e487b7160e01b5f52603160045260245ffd5b6001600160a01b03858116825284166020820152604081018390526080606082018190525f9061315e90830184612ac5565b9695505050505050565b5f60208284031215613178575f5ffd5b81516128c681612a95565b5f81518060208401855e5f93019283525090919050565b5f61227a6131a88386613183565b8461318356fea2646970667358221220a2cdb22b39a5757ad681204358b2fecb2e911fa7e3f594627e98d3170891fda164736f6c634300081c0033",
  "linkReferences": {},
  "deployedLinkReferences": {},
  "immutableReferences": {},
  "inputSourceName": "project/contracts/Realia.sol",
  "buildInfoId": "solc-0_8_28-8a8ec357e8cd3888f35062653887930d429424b6"
}