{
  "_format": "hh3-artifact-1",
  "contractName": "RealiaFactory",
  "sourceName": "contracts/RealiaFactory.sol",
  "abi": [
    {
      "inputs": [],
      "stateMutability": "nonpayable",
      "type": "constructor"
    },
    {
      "inputs": [
        {
          "internalType": "address",
          "name": "owner",
          "type": "address"
        }
      ],
      "name": "OwnableInvalidOwner",
      "type": "error"
    },
    {
      "inputs": [
        {
          "internalType": "address",
          "name": "account",
          "type": "address"
        }
      ],
      "name": "OwnableUnauthorizedAccount",
      "type": "error"
    },
    {
      "anonymous": false,
      "inputs": [
        {
          "indexed": false,
          "internalType": "address",
          "name": "agent",
          "type": "address"
        },
        {
          "indexed": false,
          "internalType": "string",
          "name": "agentAddress",
          "type": "string"
        }
      ],
      "name": "AgentAddressUpdated",
      "type": "event"
    },
    {
      "anonymous": false,
      "inputs": [
        {
          "indexed": false,
          "internalType": "address",
          "name": "agent",
          "type": "address"
        }
      ],
      "name": "AgentRegistered",
      "type": "event"
    },
    {
      "anonymous": false,
      "inputs": [
        {
          "indexed": false,
          "internalType": "address",
          "name": "agent",
          "type": "address"
        }
      ],
      "name": "AgentUnregistered",
      "type": "event"
    },
    {
      "anonymous": false,
      "inputs": [
        {
          "indexed": false,
          "internalType": "uint256",
          "name": "amount",
          "type": "uint256"
        },
        {
          "indexed": false,
          "internalType": "uint256",
          "name": "amountPerAgent",
          "type": "uint256"
        }
      ],
      "name": "AgentsPaid",
      "type": "event"
    },
    {
      "anonymous": false,
      "inputs": [
        {
          "indexed": false,
          "internalType": "address",
          "name": "to",
          "type": "address"
        },
        {
          "indexed": false,
          "internalType": "enum OrderType",
          "name": "orderType",
          "type": "uint8"
        },
        {
          "indexed": false,
          "internalType": "uint256",
          "name": "amount",
          "type": "uint256"
        }
      ],
      "name": "OrderCancelled",
      "type": "event"
    },
    {
      "anonymous": false,
      "inputs": [
        {
          "indexed": false,
          "internalType": "address",
          "name": "to",
          "type": "address"
        },
        {
          "indexed": false,
          "internalType": "enum OrderType",
          "name": "orderType",
          "type": "uint8"
        },
        {
          "indexed": false,
          "internalType": "uint256",
          "name": "amount",
          "type": "uint256"
        }
      ],
      "name": "OrderCreated",
      "type": "event"
    },
    {
      "anonymous": false,
      "inputs": [
        {
          "indexed": true,
          "internalType": "address",
          "name": "previousOwner",
          "type": "address"
        },
        {
          "indexed": true,
          "internalType": "address",
          "name": "newOwner",
          "type": "address"
        }
      ],
      "name": "OwnershipTransferred",
      "type": "event"
    },
    {
      "anonymous": false,
      "inputs": [
        {
          "indexed": false,
          "internalType": "uint256",
          "name": "requestId",
          "type": "uint256"
        }
      ],
      "name": "ProcessedVerification",
      "type": "event"
    },
    {
      "anonymous": false,
      "inputs": [
        {
          "indexed": false,
          "internalType": "address",
          "name": "agent",
          "type": "address"
        }
      ],
      "name": "Slashed",
      "type": "event"
    },
    {
      "anonymous": false,
      "inputs": [
        {
          "indexed": false,
          "internalType": "address",
          "name": "user",
          "type": "address"
        },
        {
          "indexed": false,
          "internalType": "uint256",
          "name": "requestId",
          "type": "uint256"
        }
      ],
      "name": "VerificationRequested",
      "type": "event"
    },
    {
      "anonymous": false,
      "inputs": [
        {
          "indexed": false,
          "internalType": "address",
          "name": "agent",
          "type": "address"
        },
        {
          "indexed": false,
          "internalType": "uint256",
          "name": "requestId",
          "type": "uint256"
        },
        {
          "indexed": false,
          "internalType": "bool",
          "name": "verified",
          "type": "bool"
        }
      ],
      "name": "VerificationResponseByAgent",
      "type": "event"
    },
    {
      "anonymous": false,
      "inputs": [
        {
          "indexed": false,
          "internalType": "address",
          "name": "to",
          "type": "address"
        },
        {
          "indexed": false,
          "internalType": "uint256",
          "name": "tokenId",
          "type": "uint256"
        }
      ],
      "name": "Verified",
      "type": "event"
    },
    {
      "inputs": [],
      "name": "MINT_PRICE",
      "outputs": [
        {
          "internalType": "uint256",
          "name": "",
          "type": "uint256"
        }
      ],
      "stateMutability": "view",
      "type": "function"
    },
    {
      "inputs": [],
      "name": "MIN_AGENT_STAKING",
      "outputs": [
        {
          "internalType": "uint256",
          "name": "",
          "type": "uint256"
        }
      ],
      "stateMutability": "view",
      "type": "function"
    },
    {
      "inputs": [],
      "name": "PROTOCOL_FEE_PERCENTAGE",
      "outputs": [
        {
          "internalType": "uint256",
          "name": "",
          "type": "uint256"
        }
      ],
      "stateMutability": "view",
      "type": "function"
    },
    {
      "inputs": [],
      "name": "PYUSD",
      "outputs": [
        {
          "internalType": "contract IERC20",
          "name": "",
          "type": "address"
        }
      ],
      "stateMutability": "view",
      "type": "function"
    },
    {
      "inputs": [],
      "name": "REQUIRED_VERIFICATIONS",
      "outputs": [
        {
          "internalType": "uint256",
          "name": "",
          "type": "uint256"
        }
      ],
      "stateMutability": "view",
      "type": "function"
    },
    {
      "inputs": [],
      "name": "VERIFY_PRICE",
      "outputs": [
        {
          "internalType": "uint256",
          "name": "",
          "type": "uint256"
        }
      ],
      "stateMutability": "view",
      "type": "function"
    },
    {
      "inputs": [
        {
          "internalType": "uint256",
          "name": "",
          "type": "uint256"
        }
      ],
      "name": "agentAddresses",
      "outputs": [
        {
          "internalType": "address",
          "name": "",
          "type": "address"
        }
      ],
      "stateMutability": "view",
      "type": "function"
    },
    {
      "inputs": [
        {
          "internalType": "address",
          "name": "",
          "type": "address"
        }
      ],
      "name": "agents",
      "outputs": [
        {
          "internalType": "string",
          "name": "agentAddress",
          "type": "string"
        },
        {
          "internalType": "address",
          "name": "evmAddress",
          "type": "address"
        },
        {
          "internalType": "uint256",
          "name": "verifiedCount",
          "type": "uint256"
        },
        {
          "internalType": "bool",
          "name": "isStaked",
          "type": "bool"
        }
      ],
      "stateMutability": "view",
      "type": "function"
    },
    {
      "inputs": [
        {
          "internalType": "enum OrderType",
          "name": "orderType",
          "type": "uint8"
        }
      ],
      "name": "cancelOrder",
      "outputs": [],
      "stateMutability": "nonpayable",
      "type": "function"
    },
    {
      "inputs": [
        {
          "internalType": "enum OrderType",
          "name": "orderType",
          "type": "uint8"
        }
      ],
      "name": "createOrder",
      "outputs": [],
      "stateMutability": "nonpayable",
      "type": "function"
    },
    {
      "inputs": [],
      "name": "getTopFiveAgents",
      "outputs": [
        {
          "internalType": "address[]",
          "name": "",
          "type": "address[]"
        }
      ],
      "stateMutability": "view",
      "type": "function"
    },
    {
      "inputs": [
        {
          "internalType": "address",
          "name": "user",
          "type": "address"
        },
        {
          "internalType": "enum OrderType",
          "name": "orderType",
          "type": "uint8"
        }
      ],
      "name": "hasOrder",
      "outputs": [
        {
          "internalType": "bool",
          "name": "",
          "type": "bool"
        }
      ],
      "stateMutability": "view",
      "type": "function"
    },
    {
      "inputs": [
        {
          "internalType": "address",
          "name": "",
          "type": "address"
        },
        {
          "internalType": "uint256",
          "name": "",
          "type": "uint256"
        }
      ],
      "name": "orders",
      "outputs": [
        {
          "internalType": "enum OrderType",
          "name": "orderType",
          "type": "uint8"
        },
        {
          "internalType": "uint256",
          "name": "amount",
          "type": "uint256"
        },
        {
          "internalType": "bool",
          "name": "used",
          "type": "bool"
        },
        {
          "internalType": "bool",
          "name": "cancelled",
          "type": "bool"
        }
      ],
      "stateMutability": "view",
      "type": "function"
    },
    {
      "inputs": [],
      "name": "owner",
      "outputs": [
        {
          "internalType": "address",
          "name": "",
          "type": "address"
        }
      ],
      "stateMutability": "view",
      "type": "function"
    },
    {
      "inputs": [
        {
          "internalType": "address[]",
          "name": "agentsToPay",
          "type": "address[]"
        }
      ],
      "name": "payAgentsForMint",
      "outputs": [],
      "stateMutability": "nonpayable",
      "type": "function"
    },
    {
      "inputs": [],
      "name": "realiaNFT",
      "outputs": [
        {
          "internalType": "contract IRealiaNFT",
          "name": "",
          "type": "address"
        }
      ],
      "stateMutability": "view",
      "type": "function"
    },
    {
      "inputs": [
        {
          "internalType": "string",
          "name": "agentAddress",
          "type": "string"
        }
      ],
      "name": "registerAgent",
      "outputs": [],
      "stateMutability": "nonpayable",
      "type": "function"
    },
    {
      "inputs": [],
      "name": "renounceOwnership",
      "outputs": [],
      "stateMutability": "nonpayable",
      "type": "function"
    },
    {
      "inputs": [
        {
          "internalType": "address",
          "name": "user",
          "type": "address"
        },
        {
          "internalType": "string",
          "name": "uri",
          "type": "string"
        }
      ],
      "name": "requestVerification",
      "outputs": [],
      "stateMutability": "nonpayable",
      "type": "function"
    },
    {
      "inputs": [
        {
          "internalType": "uint256",
          "name": "requestId",
          "type": "uint256"
        },
        {
          "internalType": "enum VerificationResult",
          "name": "result",
          "type": "uint8"
        },
        {
          "internalType": "uint256",
          "name": "propertyTokenId",
          "type": "uint256"
        }
      ],
      "name": "responseVerification",
      "outputs": [],
      "stateMutability": "nonpayable",
      "type": "function"
    },
    {
      "inputs": [
        {
          "internalType": "address",
          "name": "_realiaNFT",
          "type": "address"
        }
      ],
      "name": "setRealiaNFT",
      "outputs": [],
      "stateMutability": "nonpayable",
      "type": "function"
    },
    {
      "inputs": [],
      "name": "syncAgent",
      "outputs": [
        {
          "internalType": "uint256",
          "name": "totalCount",
          "type": "uint256"
        },
        {
          "internalType": "uint256[]",
          "name": "nftIds",
          "type": "uint256[]"
        },
        {
          "internalType": "string[]",
          "name": "nftUris",
          "type": "string[]"
        }
      ],
      "stateMutability": "view",
      "type": "function"
    },
    {
      "inputs": [
        {
          "internalType": "address",
          "name": "newOwner",
          "type": "address"
        }
      ],
      "name": "transferOwnership",
      "outputs": [],
      "stateMutability": "nonpayable",
      "type": "function"
    },
    {
      "inputs": [],
      "name": "unregisterAgent",
      "outputs": [],
      "stateMutability": "nonpayable",
      "type": "function"
    },
    {
      "inputs": [
        {
          "internalType": "string",
          "name": "agentAddress",
          "type": "string"
        }
      ],
      "name": "updateAgentAddress",
      "outputs": [],
      "stateMutability": "nonpayable",
      "type": "function"
    },
    {
      "inputs": [],
      "name": "verificationId",
      "outputs": [
        {
          "internalType": "uint256",
          "name": "",
          "type": "uint256"
        }
      ],
      "stateMutability": "view",
      "type": "function"
    },
    {
      "inputs": [
        {
          "internalType": "uint256",
          "name": "",
          "type": "uint256"
        }
      ],
      "name": "verificationRequests",
      "outputs": [
        {
          "internalType": "address",
          "name": "user",
          "type": "address"
        },
        {
          "internalType": "string",
          "name": "uri",
          "type": "string"
        },
        {
          "internalType": "bool",
          "name": "processed",
          "type": "bool"
        },
        {
          "internalType": "uint256",
          "name": "requestTime",
          "type": "uint256"
        }
      ],
      "stateMutability": "view",
      "type": "function"
    },
    {
      "inputs": [
        {
          "internalType": "uint256",
          "name": "",
          "type": "uint256"
        },
        {
          "internalType": "uint256",
          "name": "",
          "type": "uint256"
        }
      ],
      "name": "verificationResponses",
      "outputs": [
        {
          "internalType": "address",
          "name": "agent",
          "type": "address"
        },
        {
          "internalType": "enum VerificationResult",
          "name": "result",
          "type": "uint8"
        },
        {
          "internalType": "uint256",
          "name": "tokenId",
          "type": "uint256"
        },
        {
          "internalType": "uint256",
          "name": "responseTime",
          "type": "uint256"
        }
      ],
      "stateMutability": "view",
      "type": "function"
    }
  ],
  "bytecode": "0x60806040525f6001553480156012575f5ffd5b503380603757604051631e4fbdf760e01b81525f600482015260240160405180910390fd5b603e816043565b506092565b5f80546001600160a01b038381166001600160a01b0319831681178455604051919092169283917f8be0079c531659141344cd1fd0a4f28419497f9722a3daafe3b4186f6b6457e09190a35050565b6133b88061009f5f395ff3fe608060405234801561000f575f5ffd5b50600436106101bb575f3560e01c80638da5cb5b116100f3578063c002d23d11610093578063e4d7d6dc1161006e578063e4d7d6dc146103b8578063e8841c25146103c0578063f2fde38b146103c9578063fd66091e146103dc575f5ffd5b8063c002d23d14610393578063c2ccd64a1461039d578063e31f1a7c146103b0575f5ffd5b80639e19789d116100ce5780639e19789d1461033b578063a179d1c214610356578063a7676a6314610369578063b14d09ff1461037c575f5ffd5b80638da5cb5b146102f557806396e454571461030557806397f7ebaf14610328575f5ffd5b80634f7bd5381161015e5780636eb38703116101395780636eb38703146101bf578063715018a6146102a7578063793b8c6d146102af5780638828bd42146102d2575f5ffd5b80634f7bd5381461027957806350e01a581461028157806367ba8e2d14610294575f5ffd5b806327cabf881161019957806327cabf881461021b5780632d2a9585146102305780633e41355a146102435780634089d49f14610256575f5ffd5b80630c27f6e3146101bf57806315d9dc9f146101db57806326b95657146101f0575b5f5ffd5b6101c861c35081565b6040519081526020015b60405180910390f35b6101ee6101e9366004612aa6565b6103ff565b005b600254610203906001600160a01b031681565b6040516001600160a01b0390911681526020016101d2565b61022361046d565b6040516101d29190612b53565b6101ee61023e366004612b9e565b61075d565b6101ee610251366004612c0a565b610973565b610269610264366004612c42565b610bf0565b6040516101d29493929190612c87565b6101c8600581565b6101ee61028f366004612ccb565b610cac565b6101ee6102a2366004612ccb565b610ed2565b6101ee6110fa565b6102c26102bd366004612ceb565b61110d565b6040516101d29493929190612d3b565b6102e56102e0366004612d66565b611159565b60405190151581526020016101d2565b5f546001600160a01b0316610203565b610318610313366004612d97565b6112ac565b6040516101d29493929190612db7565b6101ee610336366004612df2565b6112fd565b61020373637a1259c6afd7e3adf63993ca7e58bb438ab1b181565b6101ee610364366004612e31565b611378565b610203610377366004612c42565b6114bb565b6103846114e3565b6040516101d293929190612ebb565b6101c8620f424081565b6101ee6103ab366004612b9e565b6116ce565b6101ee611779565b6101c8600a81565b6101c860015481565b6101ee6103d7366004612df2565b6119be565b6103ef6103ea366004612df2565b6119f8565b6040516101d29493929190612f61565b6002546001600160a01b0316331461045e5760405162461bcd60e51b815260206004820152601a60248201527f4e6f7420746865205265616c69614e465420636f6e747261637400000000000060448201526064015b60405180910390fd5b61046a6001825f611ab4565b50565b60605f600560048054905010610484576005610488565b6004545b90505f816001600160401b038111156104a3576104a3612a47565b6040519080825280602002602001820160405280156104cc578160200160208202803683370190505b5090505f826001600160401b038111156104e8576104e8612a47565b604051908082528060200260200182016040528015610511578160200160208202803683370190505b5090505f5b6004548110156107545760035f6004838154811061053657610536612f9a565b5f9182526020808320909101546001600160a01b0316835282019290925260400190206003015460ff161561074c575f60035f6004848154811061057c5761057c612f9a565b5f9182526020808320909101546001600160a01b0316835282019290925260400181206002015491505b85811015610749575f6001600160a01b03168582815181106105ca576105ca612f9a565b60200260200101516001600160a01b031614806105ff57508381815181106105f4576105f4612f9a565b602002602001015182115b15610741575f610610600188612fc2565b90505b818111156106bc5785610627600183612fc2565b8151811061063757610637612f9a565b602002602001015186828151811061065157610651612f9a565b6001600160a01b039092166020928302919091019091015284610675600183612fc2565b8151811061068557610685612f9a565b602002602001015185828151811061069f5761069f612f9a565b6020908102919091010152806106b481612fd5565b915050610613565b50600483815481106106d0576106d0612f9a565b905f5260205f20015f9054906101000a90046001600160a01b03168582815181106106fd576106fd612f9a565b60200260200101906001600160a01b031690816001600160a01b0316815250508184828151811061073057610730612f9a565b602002602001018181525050610749565b6001016105a6565b50505b600101610516565b50909392505050565b335f908152600360208190526040909120015460ff16156107c05760405162461bcd60e51b815260206004820152601860248201527f4167656e7420616c7265616479207265676973746572656400000000000000006044820152606401610455565b6040516323b872dd60e01b815233600482015230602482015261c350604482015273637a1259c6afd7e3adf63993ca7e58bb438ab1b1906323b872dd906064016020604051808303815f875af115801561081c573d5f5f3e3d5ffd5b505050506040513d601f19601f820116820180604052508101906108409190612fea565b50604051806080016040528083838080601f0160208091040260200160405190810160405280939291908181526020018383808284375f920182905250938552505033602080850182905260408086018590526001606090960195909552908352600390525020815181906108b5908261308c565b50602082810151600183810180546001600160a01b03199081166001600160a01b0390941693909317905560408086015160028601556060909501516003909401805460ff1916941515949094179093556004805493840181555f527f8a35acfbc15ff81a39ae7d344fd709f28e8600b4aa8c65c6b64bfe7fe36bd19b90920180543393168317905591519081527f82d0829d9d481e4cb9913897f9b9c903271c4db68c7b3324071d2a7e3b2c5ff091015b60405180910390a15050565b335f908152600360208190526040909120015460ff166109cb5760405162461bcd60e51b81526020600482015260136024820152721059d95b9d081a5cc81b9bdd081cdd185ad959606a1b6044820152606401610455565b5f8381526005602052604090206002015460ff1615610a2c5760405162461bcd60e51b815260206004820152601c60248201527f5265717565737420697320616c72656164792070726f636573736564000000006044820152606401610455565b5f826003811115610a3f57610a3f612d13565b03610a8c5760405162461bcd60e51b815260206004820152601b60248201527f496e76616c696420766572696669636174696f6e20726573756c7400000000006044820152606401610455565b60065f8481526020019081526020015f206040518060800160405280336001600160a01b03168152602001846003811115610ac957610ac9612d13565b815260208082018590524260409092019190915282546001810184555f938452928190208251600394850290910180546001600160a01b039092166001600160a01b031983168117825592840151939490939284926001600160a81b0319161790600160a01b908490811115610b4157610b41612d13565b0217905550604082015181600101556060820151816002015550507f94276b983d5e3494b839b8736d6fe68a0a4b38a8367305c256fb2baf399d9456338460016003811115610b9257610b92612d13565b856003811115610ba457610ba4612d13565b604080516001600160a01b0390951685526020850193909352149082015260600160405180910390a15f83815260066020526040902054600511610beb57610beb83611daf565b505050565b60056020525f9081526040902080546001820180546001600160a01b039092169291610c1b90613009565b80601f0160208091040260200160405190810160405280929190818152602001828054610c4790613009565b8015610c925780601f10610c6957610100808354040283529160200191610c92565b820191905f5260205f20905b815481529060010190602001808311610c7557829003601f168201915b505050506002830154600390930154919260ff1691905084565b610cb63382611159565b15610d035760405162461bcd60e51b815260206004820152601960248201527f5573657220616c72656164792068617320616e206f72646572000000000000006044820152606401610455565b5f816002811115610d1657610d16612d13565b03610d335760405162461bcd60e51b815260040161045590613146565b5f6001826002811115610d4857610d48612d13565b14610d555761c350610d5a565b620f42405b6040516323b872dd60e01b81523360048201523060248201526044810182905290915073637a1259c6afd7e3adf63993ca7e58bb438ab1b1906323b872dd906064016020604051808303815f875af1158015610db8573d5f5f3e3d5ffd5b505050506040513d601f19601f82011682018060405250810190610ddc9190612fea565b50335f90815260076020526040908190208151608081019092529080846002811115610e0a57610e0a612d13565b815260208082018590525f60408301819052606090920182905283546001818101865594835291208251600390920201805492939092839160ff1990911690836002811115610e5b57610e5b612d13565b0217905550602082015160018201556040808301516002909201805460609094015115156101000261ff00199315159390931661ffff199094169390931791909117909155517f4f46ced13b7c0cf2078b2d56e6e8a3d2c2209b6bee4aa8af5074b44969b541ed9061096790339085908590613172565b610edc3382611159565b610f285760405162461bcd60e51b815260206004820152601b60248201527f5573657220646f6573206e6f74206861766520616e206f7264657200000000006044820152606401610455565b5f816002811115610f3b57610f3b612d13565b03610f585760405162461bcd60e51b815260040161045590613146565b5f6001826002811115610f6d57610f6d612d13565b14610f7a5761c350610f7f565b620f42405b60405163a9059cbb60e01b81523360048201526024810182905290915073637a1259c6afd7e3adf63993ca7e58bb438ab1b19063a9059cbb906044016020604051808303815f875af1158015610fd7573d5f5f3e3d5ffd5b505050506040513d601f19601f82011682018060405250810190610ffb9190612fea565b505f5b335f908152600760205260409020548110156110c65782600281111561102657611026612d13565b335f90815260076020526040902080548390811061104657611046612f9a565b5f91825260209091206003909102015460ff16600281111561106a5761106a612d13565b036110be57335f9081526007602052604090208054600191908390811061109357611093612f9a565b905f5260205f20906003020160020160016101000a81548160ff0219169083151502179055506110c6565b600101610ffe565b507fb1a36e8ed442841c945480947ced4c36c62b869722699f60c950013f05bef0c433838360405161096793929190613172565b611102612528565b61110b5f612554565b565b6007602052815f5260405f208181548110611126575f80fd5b5f91825260209091206003909102018054600182015460029092015460ff91821694509192508181169161010090041684565b5f8082600281111561116d5761116d612d13565b0361118a5760405162461bcd60e51b815260040161045590613146565b5f5b6001600160a01b0384165f908152600760205260409020548110156112a1576001600160a01b0384165f9081526007602052604081208054839081106111d4576111d4612f9a565b5f918252602090912060408051608081019091526003909202018054829060ff16600281111561120657611206612d13565b600281111561121757611217612d13565b81526001820154602082015260029182015460ff80821615156040840152610100909104161515606090910152909150849081111561125857611258612d13565b8151600281111561126b5761126b612d13565b14801561127a57506040810151155b801561128857506060810151155b15611298576001925050506112a6565b5060010161118c565b505f90505b92915050565b6006602052815f5260405f2081815481106112c5575f80fd5b5f9182526020909120600390910201805460018201546002909201546001600160a01b0382169450600160a01b90910460ff16925084565b611305612528565b6002546001600160a01b0316156113565760405162461bcd60e51b81526020600482015260156024820152741499585b1a5853919508185b1c9958591e481cd95d605a1b6044820152606401610455565b600280546001600160a01b0319166001600160a01b0392909216919091179055565b611380612528565b61138b826002611159565b6113cf5760405162461bcd60e51b8152602060048201526015602482015274139bc81d995c9a599e481bdc99195c88199bdd5b99605a1b6044820152606401610455565b6113da8260026125a3565b5060018054905f6113ea8361319d565b9091555050604080516080810182526001600160a01b03848116825260208083018581525f848601819052426060860152600180548252600590935294909420835181546001600160a01b031916931692909217825592519192909190820190611454908261308c565b5060408281015160028301805460ff191691151591909117905560609092015160039091015560015481516001600160a01b038516815260208101919091527fb4610031e95bec0846790f85fa67e369f500cabbda9395ea19a5fb5e427d27d89101610967565b600481815481106114ca575f80fd5b5f918252602090912001546001600160a01b0316905081565b5f60608060025f9054906101000a90046001600160a01b03166001600160a01b03166317d70f7c6040518163ffffffff1660e01b8152600401602060405180830381865afa158015611537573d5f5f3e3d5ffd5b505050506040513d601f19601f8201168201806040525081019061155b91906131b5565b9250826001600160401b0381111561157557611575612a47565b60405190808252806020026020018201604052801561159e578160200160208202803683370190505b509150826001600160401b038111156115b9576115b9612a47565b6040519080825280602002602001820160405280156115ec57816020015b60608152602001906001900390816115d75790505b50905060015b8381116116c8578083611606600183612fc2565b8151811061161657611616612f9a565b602090810291909101015260025460405163c87b56dd60e01b8152600481018390526001600160a01b039091169063c87b56dd906024015f60405180830381865afa158015611667573d5f5f3e3d5ffd5b505050506040513d5f823e601f3d908101601f1916820160405261168e91908101906131cc565b8261169a600184612fc2565b815181106116aa576116aa612f9a565b602002602001018190525080806116c09061319d565b9150506115f2565b50909192565b335f908152600360208190526040909120015460ff16151560011461172c5760405162461bcd60e51b81526020600482015260146024820152731059d95b9d081b9bdd081c9959da5cdd195c995960621b6044820152606401610455565b335f908152600360205260409020611745828483613240565b507f8c4cb369627e39249c6cbc76fe20d2779335c829509d016e580289f69c9b9b1f338383604051610967939291906132f9565b335f908152600360208190526040909120015460ff1615156001146117d75760405162461bcd60e51b81526020600482015260146024820152731059d95b9d081b9bdd081c9959da5cdd195c995960621b6044820152606401610455565b60405163a9059cbb60e01b815233600482015261c350602482015273637a1259c6afd7e3adf63993ca7e58bb438ab1b19063a9059cbb906044016020604051808303815f875af115801561182d573d5f5f3e3d5ffd5b505050506040513d601f19601f820116820180604052508101906118519190612fea565b50335f9081526003602052604081209061186b82826129fd565b506001810180546001600160a01b03191690555f600282018190556003909101805460ff191690555b60045481101561198857336001600160a01b0316600482815481106118bb576118bb612f9a565b5f918252602090912001546001600160a01b03160361198057600480546118e490600190612fc2565b815481106118f4576118f4612f9a565b5f91825260209091200154600480546001600160a01b03909216918390811061191f5761191f612f9a565b905f5260205f20015f6101000a8154816001600160a01b0302191690836001600160a01b03160217905550600480548061195b5761195b613338565b5f8281526020902081015f1990810180546001600160a01b0319169055019055611988565b600101611894565b506040513381527f3e085cc53b86c19e2e6dba628297af6b8f76c89d1384dbcc599bab2adfd62d089060200160405180910390a1565b6119c6612528565b6001600160a01b0381166119ef57604051631e4fbdf760e01b81525f6004820152602401610455565b61046a81612554565b60036020525f9081526040902080548190611a1290613009565b80601f0160208091040260200160405190810160405280929190818152602001828054611a3e90613009565b8015611a895780601f10611a6057610100808354040283529160200191611a89565b820191905f5260205f20905b815481529060010190602001808311611a6c57829003601f168201915b505050506001830154600284015460039094015492936001600160a01b039091169290915060ff1684565b5f8115611ac4575061c350611aed565b6001846002811115611ad857611ad8612d13565b14611ae55761c350611aea565b620f42405b90505b5f6064611afb600a82612fc2565b611b05908461334c565b611b0f9190613363565b90505f805b8551811015611b765760035f878381518110611b3257611b32612f9a565b6020908102919091018101516001600160a01b031682528101919091526040015f206003015460ff1615611b6e5781611b6a8161319d565b9250505b600101611b14565b50805f03611c585773637a1259c6afd7e3adf63993ca7e58bb438ab1b163a9059cbb611ba95f546001600160a01b031690565b6040516001600160e01b031960e084901b1681526001600160a01b039091166004820152602481018590526044016020604051808303815f875af1158015611bf3573d5f5f3e3d5ffd5b505050506040513d601f19601f82011682018060405250810190611c179190612fea565b50604080518381525f60208201527fe8ef3e979b5461d2250b3d4490fd4a99865b49c68dc449c038258aeccbebaccd910160405180910390a1505050505050565b5f611c638284613363565b90505f5b8651811015611d6c5760035f888381518110611c8557611c85612f9a565b6020908102919091018101516001600160a01b031682528101919091526040015f206003015460ff1615611d645773637a1259c6afd7e3adf63993ca7e58bb438ab1b16001600160a01b031663a9059cbb888381518110611ce857611ce8612f9a565b6020026020010151846040518363ffffffff1660e01b8152600401611d229291906001600160a01b03929092168252602082015260400190565b6020604051808303815f875af1158015611d3e573d5f5f3e3d5ffd5b505050506040513d601f19601f82011682018060405250810190611d629190612fea565b505b600101611c67565b5060408051848152602081018390527fe8ef3e979b5461d2250b3d4490fd4a99865b49c68dc449c038258aeccbebaccd910160405180910390a150505050505050565b5f8181526005602052604090206002015460ff1615611e105760405162461bcd60e51b815260206004820152601c60248201527f5265717565737420697320616c72656164792070726f636573736564000000006044820152606401610455565b5f81815260066020908152604080832080548251818502810185019093528083529192909190849084015b82821015611ec8575f8481526020908190206040805160808101909152600385810290920180546001600160a01b03811683529193909290840191600160a01b900460ff1690811115611e9057611e90612d13565b6003811115611ea157611ea1612d13565b81526020016001820154815260200160028201548152505081526020019060010190611e3b565b505082519293505f9283925082915081906001600160401b03811115611ef057611ef0612a47565b604051908082528060200260200182016040528015611f19578160200160208202803683370190505b5090505f85516001600160401b03811115611f3657611f36612a47565b604051908082528060200260200182016040528015611f5f578160200160208202803683370190505b5090505f86516001600160401b03811115611f7c57611f7c612a47565b604051908082528060200260200182016040528015611fa5578160200160208202803683370190505b5090505f80805b89518110156121855760018a8281518110611fc957611fc9612f9a565b6020026020010151602001516003811115611fe657611fe6612d13565b036120f15788611ff58161319d565b99505f9050805b8481101561207c578b838151811061201657612016612f9a565b60200260200101516040015188828151811061203457612034612f9a565b6020026020010151036120745786818151811061205357612053612f9a565b6020026020010180518091906120689061319d565b9052506001915061207c565b600101611ffc565b50806120eb578a828151811061209457612094612f9a565b6020026020010151604001518785815181106120b2576120b2612f9a565b60200260200101818152505060018685815181106120d2576120d2612f9a565b6020908102919091010152836120e78161319d565b9450505b5061217d565b60028a828151811061210557612105612f9a565b602002602001015160200151600381111561212257612122612d13565b0361213957876121318161319d565b98505061217d565b60038a828151811061214d5761214d612f9a565b602002602001015160200151600381111561216a5761216a612d13565b0361217d57866121798161319d565b9750505b600101611fac565b505f61219360026005613363565b8911905080156123af575f80805b8581101561220b57818882815181106121bc576121bc612f9a565b60200260200101511115612203578781815181106121dc576121dc612f9a565b602002602001015191508881815181106121f8576121f8612f9a565b602002602001015192505b6001016121a1565b505f8d8152600560209081526040918290205482516001600160a01b0390911681529081018490527f7c4bd613345b3aec2140d4c4c96782cda06d72b1a593fbb20a72300354f4c336910160405180910390a15f5b8c518110156123a75760018d828151811061227d5761227d612f9a565b602002602001015160200151600381111561229a5761229a612d13565b1415806122c45750828d82815181106122b5576122b5612f9a565b60200260200101516040015114155b156122f3576122ee8d82815181106122de576122de612f9a565b60200260200101515f01516127b9565b61239f565b60035f8e838151811061230857612308612f9a565b60200260200101515f01516001600160a01b03166001600160a01b031681526020019081526020015f206002015f8154809291906123459061319d565b91905055508c818151811061235c5761235c612f9a565b60200260200101515f015187868151811061237957612379612f9a565b6001600160a01b03909216602092830291909101909101528461239b8161319d565b9550505b600101612260565b5050506124c0565b5f5b8a518110156124be5760018b82815181106123ce576123ce612f9a565b60200260200101516020015160038111156123eb576123eb612d13565b0361240a576124058b82815181106122de576122de612f9a565b6124b6565b60035f8c838151811061241f5761241f612f9a565b60200260200101515f01516001600160a01b03166001600160a01b031681526020019081526020015f206002015f81548092919061245c9061319d565b91905055508a818151811061247357612473612f9a565b60200260200101515f015185848151811061249057612490612f9a565b6001600160a01b0390921660209283029190910190910152826124b28161319d565b9350505b6001016123b1565b505b5f8b81526005602052604081206002908101805460ff191660011790556124e8918690611ab4565b6040518b81527fd59c8e4a596666e603cf3e00e02f96d6d1fde87d71e10f4709e317d206b503dc9060200160405180910390a15050505050505050505050565b5f546001600160a01b0316331461110b5760405163118cdaa760e01b8152336004820152602401610455565b5f80546001600160a01b038381166001600160a01b0319831681178455604051919092169283917f8be0079c531659141344cd1fd0a4f28419497f9722a3daafe3b4186f6b6457e09190a35050565b5f805b6001600160a01b0384165f908152600760205260409020548110156112a1576001600160a01b0384165f9081526007602052604081208054839081106125ee576125ee612f9a565b5f918252602090912060408051608081019091526003909202018054829060ff16600281111561262057612620612d13565b600281111561263157612631612d13565b81526001820154602082015260029182015460ff80821615156040840152610100909104161515606090910152909150849081111561267257612672612d13565b8151600281111561268557612685612d13565b14801561269457506040810151155b80156126a257506060810151155b156127b0576001600160a01b0385165f908152600760205260409020805460019190849081106126d4576126d4612f9a565b5f91825260208220600390910201600201805460ff1916921515929092179091555473637a1259c6afd7e3adf63993ca7e58bb438ab1b19063a9059cbb906001600160a01b03166064600a856020015161272e919061334c565b6127389190613363565b6040516001600160e01b031960e085901b1681526001600160a01b03909216600483015260248201526044016020604051808303815f875af1158015612780573d5f5f3e3d5ffd5b505050506040513d601f19601f820116820180604052508101906127a49190612fea565b506001925050506112a6565b506001016125a6565b73637a1259c6afd7e3adf63993ca7e58bb438ab1b163a9059cbb6127e45f546001600160a01b031690565b60646127f3600a61c35061334c565b6127fd9190613363565b6040516001600160e01b031960e085901b1681526001600160a01b03909216600483015260248201526044016020604051808303815f875af1158015612845573d5f5f3e3d5ffd5b505050506040513d601f19601f820116820180604052508101906128699190612fea565b5061287e600261287761046d565b6001611ab4565b6001600160a01b0381165f908152600360205260408120906128a082826129fd565b506001810180546001600160a01b03191690555f600282018190556003909101805460ff191690555b6004548110156129bd57816001600160a01b0316600482815481106128f0576128f0612f9a565b5f918252602090912001546001600160a01b0316036129b5576004805461291990600190612fc2565b8154811061292957612929612f9a565b5f91825260209091200154600480546001600160a01b03909216918390811061295457612954612f9a565b905f5260205f20015f6101000a8154816001600160a01b0302191690836001600160a01b03160217905550600480548061299057612990613338565b5f8281526020902081015f1990810180546001600160a01b03191690550190556129bd565b6001016128c9565b506040516001600160a01b03821681527f975ad74f3e1160b20a620ec57c636ffa56c6b6679a0e2fb5689b4f95e65a69469060200160405180910390a150565b508054612a0990613009565b5f825580601f10612a18575050565b601f0160209004905f5260205f209081019061046a91905b80821115612a43575f8155600101612a30565b5090565b634e487b7160e01b5f52604160045260245ffd5b604051601f8201601f191681016001600160401b0381118282101715612a8357612a83612a47565b604052919050565b80356001600160a01b0381168114612aa1575f5ffd5b919050565b5f60208284031215612ab6575f5ffd5b81356001600160401b03811115612acb575f5ffd5b8201601f81018413612adb575f5ffd5b80356001600160401b03811115612af457612af4612a47565b8060051b612b0460208201612a5b565b91825260208184018101929081019087841115612b1f575f5ffd5b6020850194505b83851015612b4857612b3785612a8b565b825260209485019490910190612b26565b979650505050505050565b602080825282518282018190525f918401906040840190835b81811015612b935783516001600160a01b0316835260209384019390920191600101612b6c565b509095945050505050565b5f5f60208385031215612baf575f5ffd5b82356001600160401b03811115612bc4575f5ffd5b8301601f81018513612bd4575f5ffd5b80356001600160401b03811115612be9575f5ffd5b856020828401011115612bfa575f5ffd5b6020919091019590945092505050565b5f5f5f60608486031215612c1c575f5ffd5b83359250602084013560048110612c31575f5ffd5b929592945050506040919091013590565b5f60208284031215612c52575f5ffd5b5035919050565b5f81518084528060208401602086015e5f602082860101526020601f19601f83011685010191505092915050565b6001600160a01b03851681526080602082018190525f90612caa90830186612c59565b9315156040830152506060015292915050565b803560038110612aa1575f5ffd5b5f60208284031215612cdb575f5ffd5b612ce482612cbd565b9392505050565b5f5f60408385031215612cfc575f5ffd5b612d0583612a8b565b946020939093013593505050565b634e487b7160e01b5f52602160045260245ffd5b60038110612d3757612d37612d13565b9052565b60808101612d498287612d27565b602082019490945291151560408301521515606090910152919050565b5f5f60408385031215612d77575f5ffd5b612d8083612a8b565b9150612d8e60208401612cbd565b90509250929050565b5f5f60408385031215612da8575f5ffd5b50508035926020909101359150565b6001600160a01b03851681526080810160048510612dd757612dd7612d13565b84602083015283604083015282606083015295945050505050565b5f60208284031215612e02575f5ffd5b612ce482612a8b565b5f6001600160401b03821115612e2357612e23612a47565b50601f01601f191660200190565b5f5f60408385031215612e42575f5ffd5b612e4b83612a8b565b915060208301356001600160401b03811115612e65575f5ffd5b8301601f81018513612e75575f5ffd5b8035612e88612e8382612e0b565b612a5b565b818152866020838501011115612e9c575f5ffd5b816020840160208301375f602083830101528093505050509250929050565b5f60608201858352606060208401528085518083526080850191506020870192505f5b81811015612efc578351835260209384019390920191600101612ede565b50508381036040850152845180825260208083019350600582901b830181019087015f5b83811015612f5257601f19858403018652612f3c838351612c59565b6020968701969093509190910190600101612f20565b50909998505050505050505050565b608081525f612f736080830187612c59565b6001600160a01b039590951660208301525060408101929092521515606090910152919050565b634e487b7160e01b5f52603260045260245ffd5b634e487b7160e01b5f52601160045260245ffd5b818103818111156112a6576112a6612fae565b5f81612fe357612fe3612fae565b505f190190565b5f60208284031215612ffa575f5ffd5b81518015158114612ce4575f5ffd5b600181811c9082168061301d57607f821691505b60208210810361303b57634e487b7160e01b5f52602260045260245ffd5b50919050565b601f821115610beb57805f5260205f20601f840160051c810160208510156130665750805b601f840160051c820191505b81811015613085575f8155600101613072565b5050505050565b81516001600160401b038111156130a5576130a5612a47565b6130b9816130b38454613009565b84613041565b6020601f8211600181146130eb575f83156130d45750848201515b5f19600385901b1c1916600184901b178455613085565b5f84815260208120601f198516915b8281101561311a57878501518255602094850194600190920191016130fa565b508482101561313757868401515f19600387901b60f8161c191681555b50505050600190811b01905550565b602080825260129082015271496e76616c6964206f72646572207479706560701b604082015260600190565b6001600160a01b03841681526060810161318f6020830185612d27565b826040830152949350505050565b5f600182016131ae576131ae612fae565b5060010190565b5f602082840312156131c5575f5ffd5b5051919050565b5f602082840312156131dc575f5ffd5b81516001600160401b038111156131f1575f5ffd5b8201601f81018413613201575f5ffd5b805161320f612e8382612e0b565b818152856020838501011115613223575f5ffd5b8160208401602083015e5f91810160200191909152949350505050565b6001600160401b0383111561325757613257612a47565b61326b836132658354613009565b83613041565b5f601f84116001811461329c575f85156132855750838201355b5f19600387901b1c1916600186901b178355613085565b5f83815260208120601f198716915b828110156132cb57868501358255602094850194600190920191016132ab565b50868210156132e7575f1960f88860031b161c19848701351681555b505060018560011b0183555050505050565b6001600160a01b03841681526040602082018190528101829052818360608301375f818301606090810191909152601f909201601f1916010192915050565b634e487b7160e01b5f52603160045260245ffd5b80820281158282048414176112a6576112a6612fae565b5f8261337d57634e487b7160e01b5f52601260045260245ffd5b50049056fea2646970667358221220f4f9b84b33c74c14250ef7f674f755156af789cb95109ddc42132e96ef3bace764736f6c634300081c0033",
  "linkReferences": {},
  "deployedLinkReferences": {},
  "immutableReferences": {},
  "inputSourceName": "project/contracts/RealiaFactory.sol",
  "buildInfoId": "solc-0_8_28-41c7856972a5d2785d7414af00482a67f27dca0e"
}