{
  "_format": "hh3-artifact-1",
  "contractName": "RealiaFactory",
  "sourceName": "contracts/RealiaFactory.sol",
  "abi": [
    {
      "inputs": [],
      "stateMutability": "nonpayable",
      "type": "constructor"
    },
    {
      "inputs": [
        {
          "internalType": "address",
          "name": "owner",
          "type": "address"
        }
      ],
      "name": "OwnableInvalidOwner",
      "type": "error"
    },
    {
      "inputs": [
        {
          "internalType": "address",
          "name": "account",
          "type": "address"
        }
      ],
      "name": "OwnableUnauthorizedAccount",
      "type": "error"
    },
    {
      "anonymous": false,
      "inputs": [
        {
          "indexed": false,
          "internalType": "address",
          "name": "agent",
          "type": "address"
        },
        {
          "indexed": false,
          "internalType": "string",
          "name": "agentAddress",
          "type": "string"
        }
      ],
      "name": "AgentAddressUpdated",
      "type": "event"
    },
    {
      "anonymous": false,
      "inputs": [
        {
          "indexed": false,
          "internalType": "address",
          "name": "agent",
          "type": "address"
        }
      ],
      "name": "AgentRegistered",
      "type": "event"
    },
    {
      "anonymous": false,
      "inputs": [
        {
          "indexed": false,
          "internalType": "address",
          "name": "agent",
          "type": "address"
        }
      ],
      "name": "AgentUnregistered",
      "type": "event"
    },
    {
      "anonymous": false,
      "inputs": [
        {
          "indexed": false,
          "internalType": "uint256",
          "name": "amount",
          "type": "uint256"
        },
        {
          "indexed": false,
          "internalType": "uint256",
          "name": "amountPerAgent",
          "type": "uint256"
        }
      ],
      "name": "AgentsPaid",
      "type": "event"
    },
    {
      "anonymous": false,
      "inputs": [
        {
          "indexed": false,
          "internalType": "address",
          "name": "to",
          "type": "address"
        },
        {
          "indexed": false,
          "internalType": "enum OrderType",
          "name": "orderType",
          "type": "uint8"
        },
        {
          "indexed": false,
          "internalType": "uint256",
          "name": "amount",
          "type": "uint256"
        }
      ],
      "name": "OrderCancelled",
      "type": "event"
    },
    {
      "anonymous": false,
      "inputs": [
        {
          "indexed": false,
          "internalType": "address",
          "name": "to",
          "type": "address"
        },
        {
          "indexed": false,
          "internalType": "enum OrderType",
          "name": "orderType",
          "type": "uint8"
        },
        {
          "indexed": false,
          "internalType": "uint256",
          "name": "amount",
          "type": "uint256"
        }
      ],
      "name": "OrderCreated",
      "type": "event"
    },
    {
      "anonymous": false,
      "inputs": [
        {
          "indexed": true,
          "internalType": "address",
          "name": "previousOwner",
          "type": "address"
        },
        {
          "indexed": true,
          "internalType": "address",
          "name": "newOwner",
          "type": "address"
        }
      ],
      "name": "OwnershipTransferred",
      "type": "event"
    },
    {
      "anonymous": false,
      "inputs": [
        {
          "indexed": false,
          "internalType": "uint256",
          "name": "requestId",
          "type": "uint256"
        }
      ],
      "name": "ProcessedVerification",
      "type": "event"
    },
    {
      "anonymous": false,
      "inputs": [
        {
          "indexed": false,
          "internalType": "address",
          "name": "agent",
          "type": "address"
        }
      ],
      "name": "Slashed",
      "type": "event"
    },
    {
      "anonymous": false,
      "inputs": [
        {
          "indexed": false,
          "internalType": "address",
          "name": "user",
          "type": "address"
        },
        {
          "indexed": false,
          "internalType": "uint256",
          "name": "requestId",
          "type": "uint256"
        }
      ],
      "name": "VerificationRequested",
      "type": "event"
    },
    {
      "anonymous": false,
      "inputs": [
        {
          "indexed": false,
          "internalType": "address",
          "name": "agent",
          "type": "address"
        },
        {
          "indexed": false,
          "internalType": "uint256",
          "name": "requestId",
          "type": "uint256"
        },
        {
          "indexed": false,
          "internalType": "bool",
          "name": "verified",
          "type": "bool"
        }
      ],
      "name": "VerificationResponseByAgent",
      "type": "event"
    },
    {
      "anonymous": false,
      "inputs": [
        {
          "indexed": false,
          "internalType": "address",
          "name": "to",
          "type": "address"
        },
        {
          "indexed": false,
          "internalType": "uint256",
          "name": "tokenId",
          "type": "uint256"
        }
      ],
      "name": "Verified",
      "type": "event"
    },
    {
      "inputs": [],
      "name": "MINT_PRICE",
      "outputs": [
        {
          "internalType": "uint256",
          "name": "",
          "type": "uint256"
        }
      ],
      "stateMutability": "view",
      "type": "function"
    },
    {
      "inputs": [],
      "name": "MIN_AGENT_STAKING",
      "outputs": [
        {
          "internalType": "uint256",
          "name": "",
          "type": "uint256"
        }
      ],
      "stateMutability": "view",
      "type": "function"
    },
    {
      "inputs": [],
      "name": "PROTOCOL_FEE_PERCENTAGE",
      "outputs": [
        {
          "internalType": "uint256",
          "name": "",
          "type": "uint256"
        }
      ],
      "stateMutability": "view",
      "type": "function"
    },
    {
      "inputs": [],
      "name": "PYUSD",
      "outputs": [
        {
          "internalType": "contract IERC20",
          "name": "",
          "type": "address"
        }
      ],
      "stateMutability": "view",
      "type": "function"
    },
    {
      "inputs": [],
      "name": "REQUIRED_VERIFICATIONS",
      "outputs": [
        {
          "internalType": "uint256",
          "name": "",
          "type": "uint256"
        }
      ],
      "stateMutability": "view",
      "type": "function"
    },
    {
      "inputs": [],
      "name": "VERIFY_PRICE",
      "outputs": [
        {
          "internalType": "uint256",
          "name": "",
          "type": "uint256"
        }
      ],
      "stateMutability": "view",
      "type": "function"
    },
    {
      "inputs": [
        {
          "internalType": "uint256",
          "name": "",
          "type": "uint256"
        }
      ],
      "name": "agentAddresses",
      "outputs": [
        {
          "internalType": "address",
          "name": "",
          "type": "address"
        }
      ],
      "stateMutability": "view",
      "type": "function"
    },
    {
      "inputs": [
        {
          "internalType": "address",
          "name": "",
          "type": "address"
        }
      ],
      "name": "agents",
      "outputs": [
        {
          "internalType": "string",
          "name": "agentAddress",
          "type": "string"
        },
        {
          "internalType": "address",
          "name": "evmAddress",
          "type": "address"
        },
        {
          "internalType": "uint256",
          "name": "verifiedCount",
          "type": "uint256"
        },
        {
          "internalType": "bool",
          "name": "isStaked",
          "type": "bool"
        }
      ],
      "stateMutability": "view",
      "type": "function"
    },
    {
      "inputs": [
        {
          "internalType": "enum OrderType",
          "name": "orderType",
          "type": "uint8"
        }
      ],
      "name": "cancelOrder",
      "outputs": [],
      "stateMutability": "nonpayable",
      "type": "function"
    },
    {
      "inputs": [
        {
          "internalType": "enum OrderType",
          "name": "orderType",
          "type": "uint8"
        }
      ],
      "name": "createOrder",
      "outputs": [],
      "stateMutability": "nonpayable",
      "type": "function"
    },
    {
      "inputs": [],
      "name": "getTopFiveAgents",
      "outputs": [
        {
          "internalType": "address[]",
          "name": "",
          "type": "address[]"
        }
      ],
      "stateMutability": "view",
      "type": "function"
    },
    {
      "inputs": [
        {
          "internalType": "address",
          "name": "user",
          "type": "address"
        },
        {
          "internalType": "enum OrderType",
          "name": "orderType",
          "type": "uint8"
        }
      ],
      "name": "hasOrder",
      "outputs": [
        {
          "internalType": "bool",
          "name": "",
          "type": "bool"
        }
      ],
      "stateMutability": "view",
      "type": "function"
    },
    {
      "inputs": [
        {
          "internalType": "address",
          "name": "",
          "type": "address"
        },
        {
          "internalType": "uint256",
          "name": "",
          "type": "uint256"
        }
      ],
      "name": "orders",
      "outputs": [
        {
          "internalType": "enum OrderType",
          "name": "orderType",
          "type": "uint8"
        },
        {
          "internalType": "uint256",
          "name": "amount",
          "type": "uint256"
        },
        {
          "internalType": "bool",
          "name": "used",
          "type": "bool"
        },
        {
          "internalType": "bool",
          "name": "cancelled",
          "type": "bool"
        }
      ],
      "stateMutability": "view",
      "type": "function"
    },
    {
      "inputs": [],
      "name": "owner",
      "outputs": [
        {
          "internalType": "address",
          "name": "",
          "type": "address"
        }
      ],
      "stateMutability": "view",
      "type": "function"
    },
    {
      "inputs": [
        {
          "internalType": "address[]",
          "name": "agentsToPay",
          "type": "address[]"
        }
      ],
      "name": "payAgentsForMint",
      "outputs": [],
      "stateMutability": "nonpayable",
      "type": "function"
    },
    {
      "inputs": [],
      "name": "realiaNFT",
      "outputs": [
        {
          "internalType": "contract IRealiaNFT",
          "name": "",
          "type": "address"
        }
      ],
      "stateMutability": "view",
      "type": "function"
    },
    {
      "inputs": [
        {
          "internalType": "string",
          "name": "agentAddress",
          "type": "string"
        }
      ],
      "name": "registerAgent",
      "outputs": [],
      "stateMutability": "nonpayable",
      "type": "function"
    },
    {
      "inputs": [],
      "name": "renounceOwnership",
      "outputs": [],
      "stateMutability": "nonpayable",
      "type": "function"
    },
    {
      "inputs": [
        {
          "internalType": "address",
          "name": "user",
          "type": "address"
        },
        {
          "internalType": "string",
          "name": "uri",
          "type": "string"
        }
      ],
      "name": "requestVerification",
      "outputs": [],
      "stateMutability": "nonpayable",
      "type": "function"
    },
    {
      "inputs": [
        {
          "internalType": "uint256",
          "name": "requestId",
          "type": "uint256"
        },
        {
          "internalType": "enum VerificationResult",
          "name": "result",
          "type": "uint8"
        },
        {
          "internalType": "uint256",
          "name": "propertyTokenId",
          "type": "uint256"
        }
      ],
      "name": "responseVerification",
      "outputs": [],
      "stateMutability": "nonpayable",
      "type": "function"
    },
    {
      "inputs": [
        {
          "internalType": "address",
          "name": "_realiaNFT",
          "type": "address"
        }
      ],
      "name": "setRealiaNFT",
      "outputs": [],
      "stateMutability": "nonpayable",
      "type": "function"
    },
    {
      "inputs": [],
      "name": "syncAgent",
      "outputs": [
        {
          "internalType": "uint256",
          "name": "totalCount",
          "type": "uint256"
        },
        {
          "internalType": "uint256[]",
          "name": "nftIds",
          "type": "uint256[]"
        },
        {
          "internalType": "string[]",
          "name": "nftUris",
          "type": "string[]"
        }
      ],
      "stateMutability": "view",
      "type": "function"
    },
    {
      "inputs": [
        {
          "internalType": "address",
          "name": "newOwner",
          "type": "address"
        }
      ],
      "name": "transferOwnership",
      "outputs": [],
      "stateMutability": "nonpayable",
      "type": "function"
    },
    {
      "inputs": [],
      "name": "unregisterAgent",
      "outputs": [],
      "stateMutability": "nonpayable",
      "type": "function"
    },
    {
      "inputs": [
        {
          "internalType": "string",
          "name": "agentAddress",
          "type": "string"
        }
      ],
      "name": "updateAgentAddress",
      "outputs": [],
      "stateMutability": "nonpayable",
      "type": "function"
    },
    {
      "inputs": [
        {
          "internalType": "address",
          "name": "user",
          "type": "address"
        }
      ],
      "name": "useMintOrder",
      "outputs": [
        {
          "internalType": "bool",
          "name": "",
          "type": "bool"
        }
      ],
      "stateMutability": "nonpayable",
      "type": "function"
    },
    {
      "inputs": [],
      "name": "verificationId",
      "outputs": [
        {
          "internalType": "uint256",
          "name": "",
          "type": "uint256"
        }
      ],
      "stateMutability": "view",
      "type": "function"
    },
    {
      "inputs": [
        {
          "internalType": "uint256",
          "name": "",
          "type": "uint256"
        }
      ],
      "name": "verificationRequests",
      "outputs": [
        {
          "internalType": "address",
          "name": "user",
          "type": "address"
        },
        {
          "internalType": "string",
          "name": "uri",
          "type": "string"
        },
        {
          "internalType": "bool",
          "name": "processed",
          "type": "bool"
        },
        {
          "internalType": "uint256",
          "name": "requestTime",
          "type": "uint256"
        }
      ],
      "stateMutability": "view",
      "type": "function"
    },
    {
      "inputs": [
        {
          "internalType": "uint256",
          "name": "",
          "type": "uint256"
        },
        {
          "internalType": "uint256",
          "name": "",
          "type": "uint256"
        }
      ],
      "name": "verificationResponses",
      "outputs": [
        {
          "internalType": "address",
          "name": "agent",
          "type": "address"
        },
        {
          "internalType": "enum VerificationResult",
          "name": "result",
          "type": "uint8"
        },
        {
          "internalType": "uint256",
          "name": "tokenId",
          "type": "uint256"
        },
        {
          "internalType": "uint256",
          "name": "responseTime",
          "type": "uint256"
        }
      ],
      "stateMutability": "view",
      "type": "function"
    }
  ],
  "bytecode": "0x60806040525f6001553480156012575f5ffd5b503380603757604051631e4fbdf760e01b81525f600482015260240160405180910390fd5b603e816043565b506092565b5f80546001600160a01b038381166001600160a01b0319831681178455604051919092169283917f8be0079c531659141344cd1fd0a4f28419497f9722a3daafe3b4186f6b6457e09190a35050565b6136328061009f5f395ff3fe608060405234801561000f575f5ffd5b50600436106101c6575f3560e01c80638da5cb5b116100fe578063b91ca2bd1161009e578063e4d7d6dc1161006e578063e4d7d6dc146103d6578063e8841c25146103de578063f2fde38b146103e7578063fd66091e146103fa575f5ffd5b8063b91ca2bd1461039e578063c002d23d146103b1578063c2ccd64a146103bb578063e31f1a7c146103ce575f5ffd5b80639e19789d116100d95780639e19789d14610346578063a179d1c214610361578063a7676a6314610374578063b14d09ff14610387575f5ffd5b80638da5cb5b1461030057806396e454571461031057806397f7ebaf14610333575f5ffd5b80634f7bd538116101695780636eb38703116101445780636eb38703146101ca578063715018a6146102b2578063793b8c6d146102ba5780638828bd42146102dd575f5ffd5b80634f7bd5381461028457806350e01a581461028c57806367ba8e2d1461029f575f5ffd5b806327cabf88116101a457806327cabf88146102265780632d2a95851461023b5780633e41355a1461024e5780634089d49f14610261575f5ffd5b80630c27f6e3146101ca57806315d9dc9f146101e657806326b95657146101fb575b5f5ffd5b6101d361c35081565b6040519081526020015b60405180910390f35b6101f96101f4366004612d20565b61041d565b005b60025461020e906001600160a01b031681565b6040516001600160a01b0390911681526020016101dd565b61022e61048b565b6040516101dd9190612dcd565b6101f9610249366004612e18565b61077b565b6101f961025c366004612e84565b610991565b61027461026f366004612ebc565b610c0e565b6040516101dd9493929190612f01565b6101d3600581565b6101f961029a366004612f45565b610cca565b6101f96102ad366004612f45565b610ef0565b6101f961115c565b6102cd6102c8366004612f65565b61116f565b6040516101dd9493929190612fb5565b6102f06102eb366004612fe0565b6111bb565b60405190151581526020016101dd565b5f546001600160a01b031661020e565b61032361031e366004613011565b61130e565b6040516101dd9493929190613031565b6101f961034136600461306c565b61135f565b61020e73637a1259c6afd7e3adf63993ca7e58bb438ab1b181565b6101f961036f3660046130ab565b6113da565b61020e610382366004612ebc565b61151d565b61038f611545565b6040516101dd93929190613135565b6102f06103ac36600461306c565b611730565b6101d3620f424081565b6101f96103c9366004612e18565b6117e4565b6101f961188f565b6101d3600a81565b6101d360015481565b6101f96103f536600461306c565b611b15565b61040d61040836600461306c565b611b4f565b6040516101dd94939291906131db565b6002546001600160a01b0316331461047c5760405162461bcd60e51b815260206004820152601a60248201527f4e6f7420746865205265616c69614e465420636f6e747261637400000000000060448201526064015b60405180910390fd5b6104886001825f611c0b565b50565b60605f6005600480549050106104a25760056104a6565b6004545b90505f816001600160401b038111156104c1576104c1612cc1565b6040519080825280602002602001820160405280156104ea578160200160208202803683370190505b5090505f826001600160401b0381111561050657610506612cc1565b60405190808252806020026020018201604052801561052f578160200160208202803683370190505b5090505f5b6004548110156107725760035f6004838154811061055457610554613214565b5f9182526020808320909101546001600160a01b0316835282019290925260400190206003015460ff161561076a575f60035f6004848154811061059a5761059a613214565b5f9182526020808320909101546001600160a01b0316835282019290925260400181206002015491505b85811015610767575f6001600160a01b03168582815181106105e8576105e8613214565b60200260200101516001600160a01b0316148061061d575083818151811061061257610612613214565b602002602001015182115b1561075f575f61062e60018861323c565b90505b818111156106da578561064560018361323c565b8151811061065557610655613214565b602002602001015186828151811061066f5761066f613214565b6001600160a01b03909216602092830291909101909101528461069360018361323c565b815181106106a3576106a3613214565b60200260200101518582815181106106bd576106bd613214565b6020908102919091010152806106d28161324f565b915050610631565b50600483815481106106ee576106ee613214565b905f5260205f20015f9054906101000a90046001600160a01b031685828151811061071b5761071b613214565b60200260200101906001600160a01b031690816001600160a01b0316815250508184828151811061074e5761074e613214565b602002602001018181525050610767565b6001016105c4565b50505b600101610534565b50909392505050565b335f908152600360208190526040909120015460ff16156107de5760405162461bcd60e51b815260206004820152601860248201527f4167656e7420616c7265616479207265676973746572656400000000000000006044820152606401610473565b6040516323b872dd60e01b815233600482015230602482015261c350604482015273637a1259c6afd7e3adf63993ca7e58bb438ab1b1906323b872dd906064016020604051808303815f875af115801561083a573d5f5f3e3d5ffd5b505050506040513d601f19601f8201168201806040525081019061085e9190613264565b50604051806080016040528083838080601f0160208091040260200160405190810160405280939291908181526020018383808284375f920182905250938552505033602080850182905260408086018590526001606090960195909552908352600390525020815181906108d39082613306565b50602082810151600183810180546001600160a01b03199081166001600160a01b0390941693909317905560408086015160028601556060909501516003909401805460ff1916941515949094179093556004805493840181555f527f8a35acfbc15ff81a39ae7d344fd709f28e8600b4aa8c65c6b64bfe7fe36bd19b90920180543393168317905591519081527f82d0829d9d481e4cb9913897f9b9c903271c4db68c7b3324071d2a7e3b2c5ff091015b60405180910390a15050565b335f908152600360208190526040909120015460ff166109e95760405162461bcd60e51b81526020600482015260136024820152721059d95b9d081a5cc81b9bdd081cdd185ad959606a1b6044820152606401610473565b5f8381526005602052604090206002015460ff1615610a4a5760405162461bcd60e51b815260206004820152601c60248201527f5265717565737420697320616c72656164792070726f636573736564000000006044820152606401610473565b5f826003811115610a5d57610a5d612f8d565b03610aaa5760405162461bcd60e51b815260206004820152601b60248201527f496e76616c696420766572696669636174696f6e20726573756c7400000000006044820152606401610473565b60065f8481526020019081526020015f206040518060800160405280336001600160a01b03168152602001846003811115610ae757610ae7612f8d565b815260208082018590524260409092019190915282546001810184555f938452928190208251600394850290910180546001600160a01b039092166001600160a01b031983168117825592840151939490939284926001600160a81b0319161790600160a01b908490811115610b5f57610b5f612f8d565b0217905550604082015181600101556060820151816002015550507f94276b983d5e3494b839b8736d6fe68a0a4b38a8367305c256fb2baf399d9456338460016003811115610bb057610bb0612f8d565b856003811115610bc257610bc2612f8d565b604080516001600160a01b0390951685526020850193909352149082015260600160405180910390a15f83815260066020526040902054600511610c0957610c0983611f9b565b505050565b60056020525f9081526040902080546001820180546001600160a01b039092169291610c3990613283565b80601f0160208091040260200160405190810160405280929190818152602001828054610c6590613283565b8015610cb05780601f10610c8757610100808354040283529160200191610cb0565b820191905f5260205f20905b815481529060010190602001808311610c9357829003601f168201915b505050506002830154600390930154919260ff1691905084565b610cd433826111bb565b15610d215760405162461bcd60e51b815260206004820152601960248201527f5573657220616c72656164792068617320616e206f72646572000000000000006044820152606401610473565b5f816002811115610d3457610d34612f8d565b03610d515760405162461bcd60e51b8152600401610473906133c0565b5f6001826002811115610d6657610d66612f8d565b14610d735761c350610d78565b620f42405b6040516323b872dd60e01b81523360048201523060248201526044810182905290915073637a1259c6afd7e3adf63993ca7e58bb438ab1b1906323b872dd906064016020604051808303815f875af1158015610dd6573d5f5f3e3d5ffd5b505050506040513d601f19601f82011682018060405250810190610dfa9190613264565b50335f90815260076020526040908190208151608081019092529080846002811115610e2857610e28612f8d565b815260208082018590525f60408301819052606090920182905283546001818101865594835291208251600390920201805492939092839160ff1990911690836002811115610e7957610e79612f8d565b0217905550602082015160018201556040808301516002909201805460609094015115156101000261ff00199315159390931661ffff199094169390931791909117909155517f4f46ced13b7c0cf2078b2d56e6e8a3d2c2209b6bee4aa8af5074b44969b541ed90610985903390859085906133ec565b610efa33826111bb565b610f465760405162461bcd60e51b815260206004820152601b60248201527f5573657220646f6573206e6f74206861766520616e206f7264657200000000006044820152606401610473565b5f816002811115610f5957610f59612f8d565b03610f765760405162461bcd60e51b8152600401610473906133c0565b5f6001826002811115610f8b57610f8b612f8d565b14610f985761c350610f9d565b620f42405b60405163a9059cbb60e01b81523360048201526024810182905290915073637a1259c6afd7e3adf63993ca7e58bb438ab1b19063a9059cbb906044016020604051808303815f875af1158015610ff5573d5f5f3e3d5ffd5b505050506040513d601f19601f820116820180604052508101906110199190613264565b61105e5760405162461bcd60e51b81526020600482015260166024820152751499599d5b99081d1c985b9cd9995c8819985a5b195960521b6044820152606401610473565b5f5b335f908152600760205260409020548110156111285782600281111561108857611088612f8d565b335f9081526007602052604090208054839081106110a8576110a8613214565b5f91825260209091206003909102015460ff1660028111156110cc576110cc612f8d565b0361112057335f908152600760205260409020805460019190839081106110f5576110f5613214565b905f5260205f20906003020160020160016101000a81548160ff021916908315150217905550611128565b600101611060565b507fb1a36e8ed442841c945480947ced4c36c62b869722699f60c950013f05bef0c4338383604051610985939291906133ec565b611164612714565b61116d5f612740565b565b6007602052815f5260405f208181548110611188575f80fd5b5f91825260209091206003909102018054600182015460029092015460ff91821694509192508181169161010090041684565b5f808260028111156111cf576111cf612f8d565b036111ec5760405162461bcd60e51b8152600401610473906133c0565b5f5b6001600160a01b0384165f90815260076020526040902054811015611303576001600160a01b0384165f90815260076020526040812080548390811061123657611236613214565b5f918252602090912060408051608081019091526003909202018054829060ff16600281111561126857611268612f8d565b600281111561127957611279612f8d565b81526001820154602082015260029182015460ff8082161515604084015261010090910416151560609091015290915084908111156112ba576112ba612f8d565b815160028111156112cd576112cd612f8d565b1480156112dc57506040810151155b80156112ea57506060810151155b156112fa57600192505050611308565b506001016111ee565b505f90505b92915050565b6006602052815f5260405f208181548110611327575f80fd5b5f9182526020909120600390910201805460018201546002909201546001600160a01b0382169450600160a01b90910460ff16925084565b611367612714565b6002546001600160a01b0316156113b85760405162461bcd60e51b81526020600482015260156024820152741499585b1a5853919508185b1c9958591e481cd95d605a1b6044820152606401610473565b600280546001600160a01b0319166001600160a01b0392909216919091179055565b6113e2612714565b6113ed8260026111bb565b6114315760405162461bcd60e51b8152602060048201526015602482015274139bc81d995c9a599e481bdc99195c88199bdd5b99605a1b6044820152606401610473565b61143c82600261278f565b5060018054905f61144c83613417565b9091555050604080516080810182526001600160a01b03848116825260208083018581525f848601819052426060860152600180548252600590935294909420835181546001600160a01b0319169316929092178255925191929091908201906114b69082613306565b5060408281015160028301805460ff191691151591909117905560609092015160039091015560015481516001600160a01b038516815260208101919091527fb4610031e95bec0846790f85fa67e369f500cabbda9395ea19a5fb5e427d27d89101610985565b6004818154811061152c575f80fd5b5f918252602090912001546001600160a01b0316905081565b5f60608060025f9054906101000a90046001600160a01b03166001600160a01b03166317d70f7c6040518163ffffffff1660e01b8152600401602060405180830381865afa158015611599573d5f5f3e3d5ffd5b505050506040513d601f19601f820116820180604052508101906115bd919061342f565b9250826001600160401b038111156115d7576115d7612cc1565b604051908082528060200260200182016040528015611600578160200160208202803683370190505b509150826001600160401b0381111561161b5761161b612cc1565b60405190808252806020026020018201604052801561164e57816020015b60608152602001906001900390816116395790505b50905060015b83811161172a57808361166860018361323c565b8151811061167857611678613214565b602090810291909101015260025460405163c87b56dd60e01b8152600481018390526001600160a01b039091169063c87b56dd906024015f60405180830381865afa1580156116c9573d5f5f3e3d5ffd5b505050506040513d5f823e601f3d908101601f191682016040526116f09190810190613446565b826116fc60018461323c565b8151811061170c5761170c613214565b6020026020010181905250808061172290613417565b915050611654565b50909192565b6002545f906001600160a01b0316331461178c5760405162461bcd60e51b815260206004820152601a60248201527f4e6f7420746865205265616c69614e465420636f6e74726163740000000000006044820152606401610473565b6117978260016111bb565b6117d95760405162461bcd60e51b8152602060048201526013602482015272139bc81b5a5b9d081bdc99195c88199bdd5b99606a1b6044820152606401610473565b61130882600161278f565b335f908152600360208190526040909120015460ff1615156001146118425760405162461bcd60e51b81526020600482015260146024820152731059d95b9d081b9bdd081c9959da5cdd195c995960621b6044820152606401610473565b335f90815260036020526040902061185b8284836134ba565b507f8c4cb369627e39249c6cbc76fe20d2779335c829509d016e580289f69c9b9b1f33838360405161098593929190613573565b335f908152600360208190526040909120015460ff1615156001146118ed5760405162461bcd60e51b81526020600482015260146024820152731059d95b9d081b9bdd081c9959da5cdd195c995960621b6044820152606401610473565b60405163a9059cbb60e01b815233600482015261c350602482015273637a1259c6afd7e3adf63993ca7e58bb438ab1b19063a9059cbb906044016020604051808303815f875af1158015611943573d5f5f3e3d5ffd5b505050506040513d601f19601f820116820180604052508101906119679190613264565b6119a95760405162461bcd60e51b815260206004820152601360248201527214dd185ad9481c99599d5b990819985a5b1959606a1b6044820152606401610473565b335f908152600360205260408120906119c28282612c77565b506001810180546001600160a01b03191690555f600282018190556003909101805460ff191690555b600454811015611adf57336001600160a01b031660048281548110611a1257611a12613214565b5f918252602090912001546001600160a01b031603611ad75760048054611a3b9060019061323c565b81548110611a4b57611a4b613214565b5f91825260209091200154600480546001600160a01b039092169183908110611a7657611a76613214565b905f5260205f20015f6101000a8154816001600160a01b0302191690836001600160a01b031602179055506004805480611ab257611ab26135b2565b5f8281526020902081015f1990810180546001600160a01b0319169055019055611adf565b6001016119eb565b506040513381527f3e085cc53b86c19e2e6dba628297af6b8f76c89d1384dbcc599bab2adfd62d089060200160405180910390a1565b611b1d612714565b6001600160a01b038116611b4657604051631e4fbdf760e01b81525f6004820152602401610473565b61048881612740565b60036020525f9081526040902080548190611b6990613283565b80601f0160208091040260200160405190810160405280929190818152602001828054611b9590613283565b8015611be05780601f10611bb757610100808354040283529160200191611be0565b820191905f5260205f20905b815481529060010190602001808311611bc357829003601f168201915b505050506001830154600284015460039094015492936001600160a01b039091169290915060ff1684565b5f8115611c1b575061c350611c44565b6001846002811115611c2f57611c2f612f8d565b14611c3c5761c350611c41565b620f42405b90505b5f6064611c52600a8261323c565b611c5c90846135c6565b611c6691906135dd565b90505f805b8551811015611ccd5760035f878381518110611c8957611c89613214565b6020908102919091018101516001600160a01b031682528101919091526040015f206003015460ff1615611cc55781611cc181613417565b9250505b600101611c6b565b50805f03611dfa5773637a1259c6afd7e3adf63993ca7e58bb438ab1b163a9059cbb611d005f546001600160a01b031690565b6040516001600160e01b031960e084901b1681526001600160a01b039091166004820152602481018590526044016020604051808303815f875af1158015611d4a573d5f5f3e3d5ffd5b505050506040513d601f19601f82011682018060405250810190611d6e9190613264565b611dba5760405162461bcd60e51b815260206004820152601860248201527f5472616e7366657220746f206f776e6572206661696c656400000000000000006044820152606401610473565b604080518381525f60208201527fe8ef3e979b5461d2250b3d4490fd4a99865b49c68dc449c038258aeccbebaccd910160405180910390a1505050505050565b5f611e0582846135dd565b90505f5b8651811015611f585760035f888381518110611e2757611e27613214565b6020908102919091018101516001600160a01b031682528101919091526040015f206003015460ff1615611f505773637a1259c6afd7e3adf63993ca7e58bb438ab1b16001600160a01b031663a9059cbb888381518110611e8a57611e8a613214565b6020026020010151846040518363ffffffff1660e01b8152600401611ec49291906001600160a01b03929092168252602082015260400190565b6020604051808303815f875af1158015611ee0573d5f5f3e3d5ffd5b505050506040513d601f19601f82011682018060405250810190611f049190613264565b611f505760405162461bcd60e51b815260206004820152601860248201527f5472616e7366657220746f206167656e74206661696c656400000000000000006044820152606401610473565b600101611e09565b5060408051848152602081018390527fe8ef3e979b5461d2250b3d4490fd4a99865b49c68dc449c038258aeccbebaccd910160405180910390a150505050505050565b5f8181526005602052604090206002015460ff1615611ffc5760405162461bcd60e51b815260206004820152601c60248201527f5265717565737420697320616c72656164792070726f636573736564000000006044820152606401610473565b5f81815260066020908152604080832080548251818502810185019093528083529192909190849084015b828210156120b4575f8481526020908190206040805160808101909152600385810290920180546001600160a01b03811683529193909290840191600160a01b900460ff169081111561207c5761207c612f8d565b600381111561208d5761208d612f8d565b81526020016001820154815260200160028201548152505081526020019060010190612027565b505082519293505f9283925082915081906001600160401b038111156120dc576120dc612cc1565b604051908082528060200260200182016040528015612105578160200160208202803683370190505b5090505f85516001600160401b0381111561212257612122612cc1565b60405190808252806020026020018201604052801561214b578160200160208202803683370190505b5090505f86516001600160401b0381111561216857612168612cc1565b604051908082528060200260200182016040528015612191578160200160208202803683370190505b5090505f80805b89518110156123715760018a82815181106121b5576121b5613214565b60200260200101516020015160038111156121d2576121d2612f8d565b036122dd57886121e181613417565b99505f9050805b84811015612268578b838151811061220257612202613214565b60200260200101516040015188828151811061222057612220613214565b6020026020010151036122605786818151811061223f5761223f613214565b60200260200101805180919061225490613417565b90525060019150612268565b6001016121e8565b50806122d7578a828151811061228057612280613214565b60200260200101516040015187858151811061229e5761229e613214565b60200260200101818152505060018685815181106122be576122be613214565b6020908102919091010152836122d381613417565b9450505b50612369565b60028a82815181106122f1576122f1613214565b602002602001015160200151600381111561230e5761230e612f8d565b03612325578761231d81613417565b985050612369565b60038a828151811061233957612339613214565b602002602001015160200151600381111561235657612356612f8d565b03612369578661236581613417565b9750505b600101612198565b505f61237f600260056135dd565b89119050801561259b575f80805b858110156123f757818882815181106123a8576123a8613214565b602002602001015111156123ef578781815181106123c8576123c8613214565b602002602001015191508881815181106123e4576123e4613214565b602002602001015192505b60010161238d565b505f8d8152600560209081526040918290205482516001600160a01b0390911681529081018490527f7c4bd613345b3aec2140d4c4c96782cda06d72b1a593fbb20a72300354f4c336910160405180910390a15f5b8c518110156125935760018d828151811061246957612469613214565b602002602001015160200151600381111561248657612486612f8d565b1415806124b05750828d82815181106124a1576124a1613214565b60200260200101516040015114155b156124df576124da8d82815181106124ca576124ca613214565b60200260200101515f01516129f0565b61258b565b60035f8e83815181106124f4576124f4613214565b60200260200101515f01516001600160a01b03166001600160a01b031681526020019081526020015f206002015f81548092919061253190613417565b91905055508c818151811061254857612548613214565b60200260200101515f015187868151811061256557612565613214565b6001600160a01b03909216602092830291909101909101528461258781613417565b9550505b60010161244c565b5050506126ac565b5f5b8a518110156126aa5760018b82815181106125ba576125ba613214565b60200260200101516020015160038111156125d7576125d7612f8d565b036125f6576125f18b82815181106124ca576124ca613214565b6126a2565b60035f8c838151811061260b5761260b613214565b60200260200101515f01516001600160a01b03166001600160a01b031681526020019081526020015f206002015f81548092919061264890613417565b91905055508a818151811061265f5761265f613214565b60200260200101515f015185848151811061267c5761267c613214565b6001600160a01b03909216602092830291909101909101528261269e81613417565b9350505b60010161259d565b505b5f8b81526005602052604081206002908101805460ff191660011790556126d4918690611c0b565b6040518b81527fd59c8e4a596666e603cf3e00e02f96d6d1fde87d71e10f4709e317d206b503dc9060200160405180910390a15050505050505050505050565b5f546001600160a01b0316331461116d5760405163118cdaa760e01b8152336004820152602401610473565b5f80546001600160a01b038381166001600160a01b0319831681178455604051919092169283917f8be0079c531659141344cd1fd0a4f28419497f9722a3daafe3b4186f6b6457e09190a35050565b5f805b6001600160a01b0384165f90815260076020526040902054811015611303576001600160a01b0384165f9081526007602052604081208054839081106127da576127da613214565b5f918252602090912060408051608081019091526003909202018054829060ff16600281111561280c5761280c612f8d565b600281111561281d5761281d612f8d565b81526001820154602082015260029182015460ff80821615156040840152610100909104161515606090910152909150849081111561285e5761285e612f8d565b8151600281111561287157612871612f8d565b14801561288057506040810151155b801561288e57506060810151155b156129e7576001600160a01b0385165f908152600760205260409020805460019190849081106128c0576128c0613214565b5f91825260208220600390910201600201805460ff1916921515929092179091555473637a1259c6afd7e3adf63993ca7e58bb438ab1b19063a9059cbb906001600160a01b03166064600a856020015161291a91906135c6565b61292491906135dd565b6040516001600160e01b031960e085901b1681526001600160a01b03909216600483015260248201526044016020604051808303815f875af115801561296c573d5f5f3e3d5ffd5b505050506040513d601f19601f820116820180604052508101906129909190613264565b6129dc5760405162461bcd60e51b815260206004820152601c60248201527f50726f746f636f6c20666565207472616e73666572206661696c6564000000006044820152606401610473565b600192505050611308565b50600101612792565b73637a1259c6afd7e3adf63993ca7e58bb438ab1b163a9059cbb612a1b5f546001600160a01b031690565b6064612a2a600a61c3506135c6565b612a3491906135dd565b6040516001600160e01b031960e085901b1681526001600160a01b03909216600483015260248201526044016020604051808303815f875af1158015612a7c573d5f5f3e3d5ffd5b505050506040513d601f19601f82011682018060405250810190612aa09190613264565b612ae45760405162461bcd60e51b815260206004820152601560248201527414db185cda081d1c985b9cd9995c8819985a5b1959605a1b6044820152606401610473565b612af86002612af161048b565b6001611c0b565b6001600160a01b0381165f90815260036020526040812090612b1a8282612c77565b506001810180546001600160a01b03191690555f600282018190556003909101805460ff191690555b600454811015612c3757816001600160a01b031660048281548110612b6a57612b6a613214565b5f918252602090912001546001600160a01b031603612c2f5760048054612b939060019061323c565b81548110612ba357612ba3613214565b5f91825260209091200154600480546001600160a01b039092169183908110612bce57612bce613214565b905f5260205f20015f6101000a8154816001600160a01b0302191690836001600160a01b031602179055506004805480612c0a57612c0a6135b2565b5f8281526020902081015f1990810180546001600160a01b0319169055019055612c37565b600101612b43565b506040516001600160a01b03821681527f975ad74f3e1160b20a620ec57c636ffa56c6b6679a0e2fb5689b4f95e65a69469060200160405180910390a150565b508054612c8390613283565b5f825580601f10612c92575050565b601f0160209004905f5260205f209081019061048891905b80821115612cbd575f8155600101612caa565b5090565b634e487b7160e01b5f52604160045260245ffd5b604051601f8201601f191681016001600160401b0381118282101715612cfd57612cfd612cc1565b604052919050565b80356001600160a01b0381168114612d1b575f5ffd5b919050565b5f60208284031215612d30575f5ffd5b81356001600160401b03811115612d45575f5ffd5b8201601f81018413612d55575f5ffd5b80356001600160401b03811115612d6e57612d6e612cc1565b8060051b612d7e60208201612cd5565b91825260208184018101929081019087841115612d99575f5ffd5b6020850194505b83851015612dc257612db185612d05565b825260209485019490910190612da0565b979650505050505050565b602080825282518282018190525f918401906040840190835b81811015612e0d5783516001600160a01b0316835260209384019390920191600101612de6565b509095945050505050565b5f5f60208385031215612e29575f5ffd5b82356001600160401b03811115612e3e575f5ffd5b8301601f81018513612e4e575f5ffd5b80356001600160401b03811115612e63575f5ffd5b856020828401011115612e74575f5ffd5b6020919091019590945092505050565b5f5f5f60608486031215612e96575f5ffd5b83359250602084013560048110612eab575f5ffd5b929592945050506040919091013590565b5f60208284031215612ecc575f5ffd5b5035919050565b5f81518084528060208401602086015e5f602082860101526020601f19601f83011685010191505092915050565b6001600160a01b03851681526080602082018190525f90612f2490830186612ed3565b9315156040830152506060015292915050565b803560038110612d1b575f5ffd5b5f60208284031215612f55575f5ffd5b612f5e82612f37565b9392505050565b5f5f60408385031215612f76575f5ffd5b612f7f83612d05565b946020939093013593505050565b634e487b7160e01b5f52602160045260245ffd5b60038110612fb157612fb1612f8d565b9052565b60808101612fc38287612fa1565b602082019490945291151560408301521515606090910152919050565b5f5f60408385031215612ff1575f5ffd5b612ffa83612d05565b915061300860208401612f37565b90509250929050565b5f5f60408385031215613022575f5ffd5b50508035926020909101359150565b6001600160a01b0385168152608081016004851061305157613051612f8d565b84602083015283604083015282606083015295945050505050565b5f6020828403121561307c575f5ffd5b612f5e82612d05565b5f6001600160401b0382111561309d5761309d612cc1565b50601f01601f191660200190565b5f5f604083850312156130bc575f5ffd5b6130c583612d05565b915060208301356001600160401b038111156130df575f5ffd5b8301601f810185136130ef575f5ffd5b80356131026130fd82613085565b612cd5565b818152866020838501011115613116575f5ffd5b816020840160208301375f602083830101528093505050509250929050565b5f60608201858352606060208401528085518083526080850191506020870192505f5b81811015613176578351835260209384019390920191600101613158565b50508381036040850152845180825260208083019350600582901b830181019087015f5b838110156131cc57601f198584030186526131b6838351612ed3565b602096870196909350919091019060010161319a565b50909998505050505050505050565b608081525f6131ed6080830187612ed3565b6001600160a01b039590951660208301525060408101929092521515606090910152919050565b634e487b7160e01b5f52603260045260245ffd5b634e487b7160e01b5f52601160045260245ffd5b8181038181111561130857611308613228565b5f8161325d5761325d613228565b505f190190565b5f60208284031215613274575f5ffd5b81518015158114612f5e575f5ffd5b600181811c9082168061329757607f821691505b6020821081036132b557634e487b7160e01b5f52602260045260245ffd5b50919050565b601f821115610c0957805f5260205f20601f840160051c810160208510156132e05750805b601f840160051c820191505b818110156132ff575f81556001016132ec565b5050505050565b81516001600160401b0381111561331f5761331f612cc1565b6133338161332d8454613283565b846132bb565b6020601f821160018114613365575f831561334e5750848201515b5f19600385901b1c1916600184901b1784556132ff565b5f84815260208120601f198516915b828110156133945787850151825560209485019460019092019101613374565b50848210156133b157868401515f19600387901b60f8161c191681555b50505050600190811b01905550565b602080825260129082015271496e76616c6964206f72646572207479706560701b604082015260600190565b6001600160a01b0384168152606081016134096020830185612fa1565b826040830152949350505050565b5f6001820161342857613428613228565b5060010190565b5f6020828403121561343f575f5ffd5b5051919050565b5f60208284031215613456575f5ffd5b81516001600160401b0381111561346b575f5ffd5b8201601f8101841361347b575f5ffd5b80516134896130fd82613085565b81815285602083850101111561349d575f5ffd5b8160208401602083015e5f91810160200191909152949350505050565b6001600160401b038311156134d1576134d1612cc1565b6134e5836134df8354613283565b836132bb565b5f601f841160018114613516575f85156134ff5750838201355b5f19600387901b1c1916600186901b1783556132ff565b5f83815260208120601f198716915b828110156135455786850135825560209485019460019092019101613525565b5086821015613561575f1960f88860031b161c19848701351681555b505060018560011b0183555050505050565b6001600160a01b03841681526040602082018190528101829052818360608301375f818301606090810191909152601f909201601f1916010192915050565b634e487b7160e01b5f52603160045260245ffd5b808202811582820484141761130857611308613228565b5f826135f757634e487b7160e01b5f52601260045260245ffd5b50049056fea2646970667358221220bcd6f5c9a5fbc9e11df0d02b35234bbd7801c946db1dce6ca1d4564336cdad0564736f6c634300081c0033",
  "linkReferences": {},
  "deployedLinkReferences": {},
  "immutableReferences": {},
  "inputSourceName": "project/contracts/RealiaFactory.sol",
  "buildInfoId": "solc-0_8_28-488aced9f488c3e12f534d4f9214eda4d8b3c9a4"
}